{
  "abi": [
    {
      "inputs": [],
      "stateMutability": "nonpayable",
      "type": "constructor"
    },
    {
      "inputs": [],
      "name": "A",
      "outputs": [
        {
          "internalType": "uint256",
          "name": "",
          "type": "uint256"
        }
      ],
      "stateMutability": "view",
      "type": "function"
    },
    {
      "inputs": [],
      "name": "B",
      "outputs": [
        {
          "internalType": "uint256",
          "name": "",
          "type": "uint256"
        }
      ],
      "stateMutability": "view",
      "type": "function"
    },
    {
      "inputs": [
        {
          "internalType": "uint256",
          "name": "px",
          "type": "uint256"
        },
        {
          "internalType": "uint256",
          "name": "py",
          "type": "uint256"
        },
        {
          "internalType": "uint256",
          "name": "pz",
          "type": "uint256"
        },
        {
          "internalType": "uint256",
          "name": "scalar",
          "type": "uint256"
        }
      ],
      "name": "_mul",
      "outputs": [
        {
          "internalType": "uint256",
          "name": "",
          "type": "uint256"
        },
        {
          "internalType": "uint256",
          "name": "",
          "type": "uint256"
        },
        {
          "internalType": "uint256",
          "name": "",
          "type": "uint256"
        }
      ],
      "stateMutability": "view",
      "type": "function"
    },
    {
      "inputs": [
        {
          "components": [
            {
              "internalType": "uint256",
              "name": "x",
              "type": "uint256"
            },
            {
              "internalType": "uint256",
              "name": "y",
              "type": "uint256"
            },
            {
              "internalType": "uint256",
              "name": "z",
              "type": "uint256"
            }
          ],
          "internalType": "struct EvmProjectivePoint",
          "name": "p0",
          "type": "tuple"
        },
        {
          "components": [
            {
              "internalType": "uint256",
              "name": "x",
              "type": "uint256"
            },
            {
              "internalType": "uint256",
              "name": "y",
              "type": "uint256"
            },
            {
              "internalType": "uint256",
              "name": "z",
              "type": "uint256"
            }
          ],
          "internalType": "struct EvmProjectivePoint",
          "name": "p1",
          "type": "tuple"
        }
      ],
      "name": "add",
      "outputs": [
        {
          "components": [
            {
              "internalType": "uint256",
              "name": "x",
              "type": "uint256"
            },
            {
              "internalType": "uint256",
              "name": "y",
              "type": "uint256"
            },
            {
              "internalType": "uint256",
              "name": "z",
              "type": "uint256"
            }
          ],
          "internalType": "struct EvmProjectivePoint",
          "name": "",
          "type": "tuple"
        }
      ],
      "stateMutability": "view",
      "type": "function"
    },
    {
      "inputs": [
        {
          "internalType": "uint256",
          "name": "x",
          "type": "uint256"
        },
        {
          "internalType": "uint256",
          "name": "y",
          "type": "uint256"
        },
        {
          "internalType": "uint256",
          "name": "z",
          "type": "uint256"
        }
      ],
      "name": "double",
      "outputs": [
        {
          "internalType": "uint256",
          "name": "",
          "type": "uint256"
        },
        {
          "internalType": "uint256",
          "name": "",
          "type": "uint256"
        },
        {
          "internalType": "uint256",
          "name": "",
          "type": "uint256"
        }
      ],
      "stateMutability": "view",
      "type": "function"
    },
    {
      "inputs": [
        {
          "internalType": "uint256[]",
          "name": "r",
          "type": "uint256[]"
        },
        {
          "internalType": "uint256[]",
          "name": "x",
          "type": "uint256[]"
        }
      ],
      "name": "eval",
      "outputs": [
        {
          "internalType": "uint256",
          "name": "",
          "type": "uint256"
        }
      ],
      "stateMutability": "nonpayable",
      "type": "function"
    },
    {
      "inputs": [
        {
          "internalType": "uint256[]",
          "name": "r",
          "type": "uint256[]"
        },
        {
          "internalType": "uint256",
          "name": "x",
          "type": "uint256"
        }
      ],
      "name": "evalAsBits",
      "outputs": [
        {
          "internalType": "uint256",
          "name": "",
          "type": "uint256"
        }
      ],
      "stateMutability": "nonpayable",
      "type": "function"
    },
    {
      "inputs": [
        {
          "internalType": "uint256[]",
          "name": "t",
          "type": "uint256[]"
        }
      ],
      "name": "evals",
      "outputs": [
        {
          "internalType": "uint256[]",
          "name": "",
          "type": "uint256[]"
        }
      ],
      "stateMutability": "pure",
      "type": "function"
    },
    {
      "inputs": [
        {
          "components": [
            {
              "internalType": "uint256",
              "name": "x",
              "type": "uint256"
            },
            {
              "internalType": "uint256",
              "name": "y",
              "type": "uint256"
            }
          ],
          "internalType": "struct EvmAffinePoint[]",
          "name": "bases",
          "type": "tuple[]"
        },
        {
          "internalType": "uint256[]",
          "name": "scalars",
          "type": "uint256[]"
        }
      ],
      "name": "msm_naive",
      "outputs": [
        {
          "components": [
            {
              "internalType": "uint256",
              "name": "x",
              "type": "uint256"
            },
            {
              "internalType": "uint256",
              "name": "y",
              "type": "uint256"
            },
            {
              "internalType": "uint256",
              "name": "z",
              "type": "uint256"
            }
          ],
          "internalType": "struct EvmProjectivePoint",
          "name": "",
          "type": "tuple"
        }
      ],
      "stateMutability": "view",
      "type": "function"
    },
    {
      "inputs": [
        {
          "components": [
            {
              "internalType": "uint256",
              "name": "x",
              "type": "uint256"
            },
            {
              "internalType": "uint256",
              "name": "y",
              "type": "uint256"
            },
            {
              "internalType": "uint256",
              "name": "z",
              "type": "uint256"
            }
          ],
          "internalType": "struct EvmProjectivePoint",
          "name": "point",
          "type": "tuple"
        },
        {
          "internalType": "uint256",
          "name": "scalar",
          "type": "uint256"
        }
      ],
      "name": "mul",
      "outputs": [
        {
          "components": [
            {
              "internalType": "uint256",
              "name": "x",
              "type": "uint256"
            },
            {
              "internalType": "uint256",
              "name": "y",
              "type": "uint256"
            },
            {
              "internalType": "uint256",
              "name": "z",
              "type": "uint256"
            }
          ],
          "internalType": "struct EvmProjectivePoint",
          "name": "",
          "type": "tuple"
        }
      ],
      "stateMutability": "view",
      "type": "function"
    },
    {
      "inputs": [
        {
          "components": [
            {
              "internalType": "uint256",
              "name": "x",
              "type": "uint256"
            },
            {
              "internalType": "uint256",
              "name": "y",
              "type": "uint256"
            }
          ],
          "internalType": "struct EvmAffinePoint[]",
          "name": "points",
          "type": "tuple[]"
        }
      ],
      "name": "sum",
      "outputs": [
        {
          "components": [
            {
              "internalType": "uint256",
              "name": "x",
              "type": "uint256"
            },
            {
              "internalType": "uint256",
              "name": "y",
              "type": "uint256"
            },
            {
              "internalType": "uint256",
              "name": "z",
              "type": "uint256"
            }
          ],
          "internalType": "struct EvmProjectivePoint",
          "name": "",
          "type": "tuple"
        }
      ],
      "stateMutability": "nonpayable",
      "type": "function"
    },
    {
      "inputs": [
        {
          "components": [
            {
              "internalType": "uint256",
              "name": "x",
              "type": "uint256"
            },
            {
              "internalType": "uint256",
              "name": "y",
              "type": "uint256"
            },
            {
              "internalType": "uint256",
              "name": "z",
              "type": "uint256"
            }
          ],
          "internalType": "struct EvmProjectivePoint",
          "name": "point",
          "type": "tuple"
        }
      ],
      "name": "toAffine",
      "outputs": [
        {
          "components": [
            {
              "internalType": "uint256",
              "name": "x",
              "type": "uint256"
            },
            {
              "internalType": "uint256",
              "name": "y",
              "type": "uint256"
            }
          ],
          "internalType": "struct EvmAffinePoint",
          "name": "",
          "type": "tuple"
        }
      ],
      "stateMutability": "pure",
      "type": "function"
    },
    {
      "inputs": [
        {
          "components": [
            {
              "internalType": "uint256",
              "name": "x",
              "type": "uint256"
            },
            {
              "internalType": "uint256",
              "name": "y",
              "type": "uint256"
            }
          ],
          "internalType": "struct EvmAffinePoint",
          "name": "point",
          "type": "tuple"
        }
      ],
      "name": "toProjective",
      "outputs": [
        {
          "components": [
            {
              "internalType": "uint256",
              "name": "x",
              "type": "uint256"
            },
            {
              "internalType": "uint256",
              "name": "y",
              "type": "uint256"
            },
            {
              "internalType": "uint256",
              "name": "z",
              "type": "uint256"
            }
          ],
          "internalType": "struct EvmProjectivePoint",
          "name": "",
          "type": "tuple"
        }
      ],
      "stateMutability": "pure",
      "type": "function"
    },
    {
      "inputs": [
        {
          "components": [
            {
              "components": [
                {
                  "internalType": "uint256",
                  "name": "x",
                  "type": "uint256"
                },
                {
                  "internalType": "uint256",
                  "name": "y",
                  "type": "uint256"
                }
              ],
              "internalType": "struct EvmAffinePoint[]",
              "name": "T",
              "type": "tuple[]"
            },
            {
              "internalType": "uint256",
              "name": "y",
              "type": "uint256"
            },
            {
              "components": [
                {
                  "internalType": "uint256",
                  "name": "x",
                  "type": "uint256"
                },
                {
                  "internalType": "uint256",
                  "name": "y",
                  "type": "uint256"
                }
              ],
              "internalType": "struct EvmAffinePoint[]",
              "name": "TLpowers",
              "type": "tuple[]"
            },
            {
              "components": [
                {
                  "components": [
                    {
                      "internalType": "uint256",
                      "name": "x",
                      "type": "uint256"
                    },
                    {
                      "internalType": "uint256",
                      "name": "y",
                      "type": "uint256"
                    }
                  ],
                  "internalType": "struct EvmAffinePoint",
                  "name": "comm",
                  "type": "tuple"
                },
                {
                  "components": [
                    {
                      "internalType": "uint256",
                      "name": "x",
                      "type": "uint256"
                    },
                    {
                      "internalType": "uint256",
                      "name": "y",
                      "type": "uint256"
                    }
                  ],
                  "internalType": "struct EvmAffinePoint[]",
                  "name": "L",
                  "type": "tuple[]"
                },
                {
                  "components": [
                    {
                      "internalType": "uint256",
                      "name": "x",
                      "type": "uint256"
                    },
                    {
                      "internalType": "uint256",
                      "name": "y",
                      "type": "uint256"
                    }
                  ],
                  "internalType": "struct EvmAffinePoint[]",
                  "name": "R",
                  "type": "tuple[]"
                },
                {
                  "components": [
                    {
                      "internalType": "uint256",
                      "name": "x",
                      "type": "uint256"
                    },
                    {
                      "internalType": "uint256",
                      "name": "y",
                      "type": "uint256"
                    }
                  ],
                  "internalType": "struct EvmAffinePoint[]",
                  "name": "sAGPowers",
                  "type": "tuple[]"
                },
                {
                  "components": [
                    {
                      "internalType": "uint256",
                      "name": "x",
                      "type": "uint256"
                    },
                    {
                      "internalType": "uint256",
                      "name": "y",
                      "type": "uint256"
                    }
                  ],
                  "internalType": "struct EvmAffinePoint[]",
                  "name": "sBGPowers",
                  "type": "tuple[]"
                },
                {
                  "components": [
                    {
                      "internalType": "uint256",
                      "name": "x",
                      "type": "uint256"
                    },
                    {
                      "internalType": "uint256",
                      "name": "y",
                      "type": "uint256"
                    }
                  ],
                  "internalType": "struct EvmAffinePoint[]",
                  "name": "bhPowers",
                  "type": "tuple[]"
                },
                {
                  "internalType": "uint256",
                  "name": "a",
                  "type": "uint256"
                },
                {
                  "internalType": "uint256",
                  "name": "y",
                  "type": "uint256"
                }
              ],
              "internalType": "struct EvmInnerProductProof",
              "name": "ipProof",
              "type": "tuple"
            }
          ],
          "internalType": "struct EvmPolyEvalProof",
          "name": "proof",
          "type": "tuple"
        },
        {
          "internalType": "uint256[]",
          "name": "_x",
          "type": "uint256[]"
        },
        {
          "components": [
            {
              "internalType": "uint256",
              "name": "msmIndex",
              "type": "uint256"
            },
            {
              "internalType": "enum OpeningVStep",
              "name": "step",
              "type": "uint8"
            }
          ],
          "internalType": "struct OpeningVerifyAuxilaries",
          "name": "auxilaries",
          "type": "tuple"
        },
        {
          "components": [
            {
              "components": [
                {
                  "internalType": "uint256",
                  "name": "x",
                  "type": "uint256"
                },
                {
                  "internalType": "uint256",
                  "name": "y",
                  "type": "uint256"
                }
              ],
              "internalType": "struct EvmAffinePoint[]",
              "name": "G",
              "type": "tuple[]"
            },
            {
              "components": [
                {
                  "internalType": "uint256",
                  "name": "x",
                  "type": "uint256"
                },
                {
                  "internalType": "uint256",
                  "name": "y",
                  "type": "uint256"
                }
              ],
              "internalType": "struct EvmAffinePoint[]",
              "name": "H",
              "type": "tuple[]"
            },
            {
              "components": [
                {
                  "internalType": "uint256",
                  "name": "x",
                  "type": "uint256"
                },
                {
                  "internalType": "uint256",
                  "name": "y",
                  "type": "uint256"
                }
              ],
              "internalType": "struct EvmAffinePoint",
              "name": "u",
              "type": "tuple"
            }
          ],
          "internalType": "struct EvmGens",
          "name": "gens",
          "type": "tuple"
        },
        {
          "internalType": "bytes32",
          "name": "state",
          "type": "bytes32"
        }
      ],
      "name": "verify",
      "outputs": [
        {
          "internalType": "bool",
          "name": "",
          "type": "bool"
        }
      ],
      "stateMutability": "nonpayable",
      "type": "function"
    },
    {
      "inputs": [
        {
          "components": [
            {
              "components": [
                {
                  "internalType": "uint256",
                  "name": "x",
                  "type": "uint256"
                },
                {
                  "internalType": "uint256",
                  "name": "y",
                  "type": "uint256"
                }
              ],
              "internalType": "struct EvmAffinePoint",
              "name": "comm",
              "type": "tuple"
            },
            {
              "components": [
                {
                  "internalType": "uint256",
                  "name": "x",
                  "type": "uint256"
                },
                {
                  "internalType": "uint256",
                  "name": "y",
                  "type": "uint256"
                }
              ],
              "internalType": "struct EvmAffinePoint[]",
              "name": "L",
              "type": "tuple[]"
            },
            {
              "components": [
                {
                  "internalType": "uint256",
                  "name": "x",
                  "type": "uint256"
                },
                {
                  "internalType": "uint256",
                  "name": "y",
                  "type": "uint256"
                }
              ],
              "internalType": "struct EvmAffinePoint[]",
              "name": "R",
              "type": "tuple[]"
            },
            {
              "components": [
                {
                  "internalType": "uint256",
                  "name": "x",
                  "type": "uint256"
                },
                {
                  "internalType": "uint256",
                  "name": "y",
                  "type": "uint256"
                }
              ],
              "internalType": "struct EvmAffinePoint[]",
              "name": "sAGPowers",
              "type": "tuple[]"
            },
            {
              "components": [
                {
                  "internalType": "uint256",
                  "name": "x",
                  "type": "uint256"
                },
                {
                  "internalType": "uint256",
                  "name": "y",
                  "type": "uint256"
                }
              ],
              "internalType": "struct EvmAffinePoint[]",
              "name": "sBGPowers",
              "type": "tuple[]"
            },
            {
              "components": [
                {
                  "internalType": "uint256",
                  "name": "x",
                  "type": "uint256"
                },
                {
                  "internalType": "uint256",
                  "name": "y",
                  "type": "uint256"
                }
              ],
              "internalType": "struct EvmAffinePoint[]",
              "name": "bhPowers",
              "type": "tuple[]"
            },
            {
              "internalType": "uint256",
              "name": "a",
              "type": "uint256"
            },
            {
              "internalType": "uint256",
              "name": "y",
              "type": "uint256"
            }
          ],
          "internalType": "struct EvmInnerProductProof",
          "name": "proof",
          "type": "tuple"
        },
        {
          "internalType": "uint256[]",
          "name": "b",
          "type": "uint256[]"
        },
        {
          "components": [
            {
              "components": [
                {
                  "internalType": "uint256",
                  "name": "x",
                  "type": "uint256"
                },
                {
                  "internalType": "uint256",
                  "name": "y",
                  "type": "uint256"
                }
              ],
              "internalType": "struct EvmAffinePoint[]",
              "name": "G",
              "type": "tuple[]"
            },
            {
              "components": [
                {
                  "internalType": "uint256",
                  "name": "x",
                  "type": "uint256"
                },
                {
                  "internalType": "uint256",
                  "name": "y",
                  "type": "uint256"
                }
              ],
              "internalType": "struct EvmAffinePoint[]",
              "name": "H",
              "type": "tuple[]"
            },
            {
              "components": [
                {
                  "internalType": "uint256",
                  "name": "x",
                  "type": "uint256"
                },
                {
                  "internalType": "uint256",
                  "name": "y",
                  "type": "uint256"
                }
              ],
              "internalType": "struct EvmAffinePoint",
              "name": "u",
              "type": "tuple"
            }
          ],
          "internalType": "struct EvmGens",
          "name": "gens",
          "type": "tuple"
        },
        {
          "internalType": "bytes32",
          "name": "state",
          "type": "bytes32"
        }
      ],
      "name": "verify",
      "outputs": [
        {
          "internalType": "bool",
          "name": "",
          "type": "bool"
        }
      ],
      "stateMutability": "nonpayable",
      "type": "function"
    }
  ],
  "bytecode": {
    "object": "0x6080806040523461001657611b52908161001c8239f35b600080fdfe60406080815260048036101561001457600080fd5b600091823560e01c80630cd32939146108c757806328662876146107e45780632b9c9ea1146107b257806332e7c5bf146107965780633735491214610769578063441708251461072457806379bcaf3e146106e75780638686a16d146104125780638e6c5703146103df578063a2a36ae51461038c578063a2a9c81414610313578063aebb1a4014610290578063f446c1d014610275578063fbe430e81461014a5763fc6b9dd7146100c557600080fd5b3461014657602091826003193601126101425780356001600160401b03811161013e576100ff6100fa859387933691016109b4565b610c8b565b9083519383808695860192818752855180945286019401925b82811061012757505050500390f35b835185528695509381019392810192600101610118565b8480fd5b8380fd5b8280fd5b508290346102715780600319360112610271576001600160401b0383358181116101425761017b90369086016109b4565b906024359081116101425761019390369086016109b4565b938151855103610224575060019384939190845b6101b6575b6020858551908152f35b909193825185101561021e57610216906101d08685610bf9565b51906401000003d0198080936101e68a88610bf9565b519009816101fd6101f78b8a610bf9565b51610d81565b61020a6101f78c8a610bf9565b90099008900994610bd4565b9190856101a7565b936101ac565b608490602084519162461bcd60e51b8352820152602160248201527f7220616e642078206d7573742068617665207468652073616d65206c656e67746044820152600d60fb1b6064820152fd5b5080fd5b83823461027157816003193601126102715751908152602090f35b5090346101465781600319360112610146576001600160401b03813581811161013e576102c09036908401610a31565b936024359182116103105750926102e06102e69261030c953691016109b4565b906114cc565b905191829182919091604080606083019480518452602081015160208501520151910152565b0390f35b80fd5b508234610310576080366003190112610310576001600160401b03928035848111610146576103459036908301610a8f565b936024358181116101425761035d90369084016109b4565b9260443591821161031057509161037d6020959261038394369101610b6f565b91610e0b565b90519015158152f35b8382346102715760c0366003190112610271576103a83661096c565b91606036606319011261031057506102e661030c926103c5610928565b906064358252608435602083015260a43584830152611954565b508234610310578160031936011261031057506102e661030c926104016108f3565b903581526024356020820152611313565b50829034610271576003199160c0368401126103105783356001600160401b039384821161014657608090823603011261027157825160808101818110868211176106d4578452818601358581116101425761047390873691850101610a31565b8152602095602483013587830152604483013586811161013e5761049c90823691860101610a31565b9285830193845260648101358781116106d057606091836104c09236920101610a8f565b920191825260243586811161013e576104dc90369083016109b4565b958560431936011261013e576104f06108f3565b604435815260643590838210156106cc5789015260843590811161013e5761051b9036908301610b6f565b9386519660019788808216146000146106c7578881018091116106b4575b80891c9061054681610c23565b928a85815b610688575b505061055d815183610c5e565b8281106106685750505061057081610c23565b9161057a82610c23565b935b8281106106255750505061059f6105ab926105996105a693610c8b565b50610c8b565b94516115b6565b61133d565b805188845151918251149283610614575b505050156105d85750906105d1929151610e0b565b5051908152f35b845162461bcd60e51b815290810187905260166024820152750a8bee0e4d2daca40c8decae640dcdee840dac2e8c6d60531b6044820152606490fd5b8101519101511490508888816105bc565b806106336106639284610bf9565b5161063e8287610bf9565b5261065261064c8583610dfe565b84610bf9565b5161065d8288610bf9565b52610bd4565b61057c565b6106839061065261064c61067d855187610c5e565b83610c5e565b61055d565b610693835185610c5e565b8110156106af57808761065d6106a99389610bf9565b8161054b565b610550565b634e487b7160e01b835260118452602483fd5b610539565b8680fd5b8580fd5b634e487b7160e01b845260418752602484fd5b508234610310576020366003190112610310578235906001600160401b038211610310575061071f61030c936102e692369101610a31565b6115b6565b508234610310576060366003190112610310575061074d61030c9260443590602435903561198a565b9251918252602082015260408101919091529081906060820190565b508234610310576080366003190112610310575061074d61030c9260643590604435906024359035611a90565b8382346102715781600319360112610271576020905160078152f35b50823461031057606036600319011261031057506107d26105a63661096c565b60208251918051835201516020820152f35b5082903461027157806003193601126102715782356001600160401b0381116101465761081490369085016109b4565b80516001939160248035928490875b818710610834576020898951908152f35b909192939495978180888b1c161460001461089b576108538984610c5e565b6000198101908111610889579061086d61087e9288610bf9565b515b6401000003d019910998610bd4565b959493929190610823565b634e487b7160e01b855260118b528585fd5b6108a58984610c5e565b600019810190811161088957906108c26101f761087e9389610bf9565b61086f565b8382346102715760803660031901126102715761030c906102e66108ea3661096c565b60643590611afb565b60405190604082018281106001600160401b0382111761091257604052565b634e487b7160e01b600052604160045260246000fd5b60405190606082018281106001600160401b0382111761091257604052565b6040519190601f01601f191682016001600160401b0381118382101761091257604052565b606090600319011261099857610980610928565b90600435825260243560208301526044356040830152565b600080fd5b6001600160401b0381116109125760051b60200190565b9080601f830112156109985760209082356109d66109d18261099d565b610947565b93838086848152019260051b820101928311610998578301905b8282106109fe575050505090565b813581529083019083016109f0565b9190826040910312610998576020610a236108f3565b928035845201356020830152565b81601f820112156109985760208135610a4c6109d18261099d565b93828086848152019260061b85010193818511610998578301915b848310610a7657505050505090565b83604091610a848486610a0d565b815201920191610a67565b9190610120838203126109985760405190610100808301946001600160401b039584811087821117610912576040528395610aca8483610a0d565b855260408201358181116109985784610ae4918401610a31565b602086015260608201358181116109985784610b01918401610a31565b604086015260808201358181116109985784610b1e918401610a31565b606086015260a08201358181116109985784610b3b918401610a31565b608086015260c08201359081116109985760e093610b5a918301610a31565b60a08501528281013560c08501520135910152565b91909160808184031261099857610b84610928565b926001600160401b0382358181116109985782610ba2918501610a31565b855260208301359081116109985782610bc283604093610bcd9601610a31565b602087015201610a0d565b6040830152565b6000198114610be35760010190565b634e487b7160e01b600052601160045260246000fd5b8051821015610c0d5760209160051b010190565b634e487b7160e01b600052603260045260246000fd5b90610c306109d18361099d565b8281528092610c41601f199161099d565b0190602036910137565b81810292918115918404141715610be357565b91908203918211610be357565b8115610c75570490565b634e487b7160e01b600052601260045260246000fd5b80519060ff8211610be357600180831b92610ca584610c23565b9360005b818110610d6d5750508160005b828110610cc557505050505090565b81841b9180830460021490151715610be357600019808301838111610be35790859291805b610cf7575b505001610cb6565b909192610d0982610d3a921c8a610bf9565b516401000003d019610d1b868b610bf9565b518209610d28848c610bf9565b52610d33838b610bf9565b5190610dc2565b828201828111610be357610d4e908a610bf9565b5285808214610d665750859291906001190180610cea565b9291610cef565b808461065d610d7c9389610bf9565b610ca9565b80600110610da05760010360018111610be3576401000003d019900690565b6000198101908111610be3576401000003d0198091068103908111610be35790565b90808210610ddf57610ddb906401000003d01992610c5e565b0690565b610df16401000003d019928392610c5e565b068103908111610be35790565b91908201809211610be357565b8151916020820180515190610e1f82610c23565b9160005b8181106111b15750610e3481610c23565b9360005b8281106111915750610e4987610c23565b9060005b88811061112a5750610e5e88610c23565b9760005b81811061110457505060005b83811061107c5750805115610c0d5760200151968760c08801928351610e93916111c6565b50610e9d916111c6565b50516401000003d019968791096060860151610eb8906115b6565b976080870151610ec7906115b6565b9860a0880151610ed6906115b6565b99610ee091611954565b90604001918251610ef090611313565b90610efa91611afb565b610f0391611954565b978651610f0f90611313565b90610f1991611954565b9051610f2490611313565b60e0870151610f3291611afb565b610f3b91611954565b95610f4582610c23565b9360005b838110611050575050610f5b82610c23565b9460005b8381106110245750505050610fa293610f91610f9c946040610f89610fa89996610f9796516114cc565b9301516114cc565b90611954565b611954565b9261133d565b9161133d565b81518151149182611011575b505015610fc057600190565b60405162461bcd60e51b815260206004820152602360248201527f496e6e65722070726f6475637420657175616c69747920636865636b206661696044820152621b195960ea1b6064820152608490fd5b6020919250810151910151143880610fb4565b808361103361104b9385610bf9565b5161103e8386610bf9565b51900961065d828a610bf9565b610f5f565b808361105f6110779385610bf9565b5161106a8386610bf9565b51900961065d8289610bf9565b610f49565b906110878288610bf9565b51906110938388610bf9565b5191815160011c906110a482610c23565b9360005b8381106110c35750505050506110be9091610bd4565b610e6e565b6110ff906401000003d01980856110da848a610bf9565b510981856110f16110eb8a87610dfe565b8b610bf9565b5109900861065d8289610bf9565b6110a8565b8061111b6111156111259387610bf9565b5161120d565b61065d828d610bf9565b610e62565b600160005b85811061114b5750906111469161065d8286610bf9565b610e4d565b9061117a9060018085851c161460001461117f576401000003d01990611171848b610bf9565b51900991610bd4565b61112f565b6401000003d01990611171848c610bf9565b806111a26111156111ac9388610bf9565b61065d8289610bf9565b610e38565b80602161065d6111c19387610bf9565b610e23565b91906111d28351610c23565b9060005b845181101561120657611201906401000003d019836111f58389610bf9565b510961065d8286610bf9565b6111d6565b5090925050565b801515806112e6575b806112de575b156112a8576000908160016401000003d019835b61123b575050505090565b61124a84829693949596610c6b565b916401000003d0198484096401000003d019036401000003d01981116112945761128b9291611285916401000003d019910894968094610c4b565b90610c5e565b92919083611230565b634e487b7160e01b86526011600452602486fd5b60405162461bcd60e51b815260206004820152600e60248201526d24b73b30b634b210373ab6b132b960911b6044820152606490fd5b50600161121c565b506401000003d019811415611216565b6112fe610928565b90600082526000602083015260006040830152565b61131b6112f6565b506020815191015161132b610928565b91825260208201526001604082015290565b6020906113486108f3565b6000928184809352015260408101805192831515806114b0575b806114a8575b156112a8579283600170014551231950b75fc4402da1732fc9bebe19835b61142557505050506001908370014551231950b75fc4402da1732fc9bebe19915109036113f15770014551231950b75fc4402da1732fc9bebe198282510991602070014551231950b75fc4402da1732fc9bebe19920151096113e66108f3565b918252602082015290565b60405162461bcd60e51b815260206004820152600c60248201526b24b73b30b634b2103d24b73b60a11b6044820152606490fd5b61143484829893949598610c6b565b9170014551231950b75fc4402da1732fc9bebe1984840970014551231950b75fc4402da1732fc9bebe190370014551231950b75fc4402da1732fc9bebe1981116112945761149f92916112859170014551231950b75fc4402da1732fc9bebe19910894988094610c4b565b92919083611386565b506001611368565b5070014551231950b75fc4402da1732fc9bebe19841415611362565b906114d56112f6565b50815181510361157f5790600091829060019081809486935b61150f575b505050506114ff610928565b9283526020830152604082015290565b91938295919395518610156115765790859661156292611558611536889961156d99610bf9565b516115418b88610bf9565b5151602061154f8d8a610bf9565b51015190611a25565b949192909361172e565b959194909496610bd4565b929091816114ee565b938195506114f3565b60405162461bcd60e51b815260206004820152600f60248201526e098cadccee8d040dad2e6dac2e8c6d608b1b6044820152606490fd5b6115be6112f6565b5060009081600180928185925b6115db575b5050506114ff610928565b929093849592955186101561162857916116169161162194936115fe8888610bf9565b515191602061160d8a8a610bf9565b51015193611634565b949193909395610bd4565b91806115cb565b938295508193506115d0565b94929193851561172157821561171a578583148080611710575b6116fe576116e957849291839170014551231950b75fc4402da1732fc9bebe19808099819782808080809a816001819c09990961168b9089611911565b94600190099c8d9a0991816116a0848c611911565b9e8f94818087800994600190099c088209828b8187800909906116c291611911565b97889382099c09906116d391611911565b90099188096116e191611911565b960994930990565b5090506116f792919361198a565b9192909190565b50505050915050600090600090600190565b508183141561164e565b5092919050565b9450509091509190600190565b929194959383156119065782156118fd5783831480806118f3575b6118e0576118d0579061178a6118a0928770014551231950b75fc4402da1732fc9bebe19910970014551231950b75fc4402da1732fc9bebe19898409611911565b966117bf70014551231950b75fc4402da1732fc9bebe1988860970014551231950b75fc4402da1732fc9bebe19838809611911565b9361184170014551231950b75fc4402da1732fc9bebe198680099170014551231950b75fc4402da1732fc9bebe19848b099970014551231950b75fc4402da1732fc9bebe1991829182910970014551231950b75fc4402da1732fc9bebe19868b0908830970014551231950b75fc4402da1732fc9bebe198a818d800909611911565b9861187e8a70014551231950b75fc4402da1732fc9bebe198885099870014551231950b75fc4402da1732fc9bebe19948591829088900909611911565b90099170014551231950b75fc4402da1732fc9bebe1991829109850990611911565b9470014551231950b75fc4402da1732fc9bebe199109939270014551231950b75fc4402da1732fc9bebe19910990565b509190506116f79392945061198a565b5050505050915050600090600090600190565b5081831415611749565b50945050929190565b959450509050929190565b9080821061193657610ddb9070014551231950b75fc4402da1732fc9bebe1992610c5e565b610df170014551231950b75fc4402da1732fc9bebe19928392610c5e565b611981916119606112f6565b5081519160406020820151910151825191604060208501519401519461172e565b906114ff610928565b9192908015611a185780611a0b6119fd928570014551231950b75fc4402da1732fc9bebe198089819a97828080809b9a818080809e9b8180809e8181819209600009928009600309089783096002099e098d09600209956119f2848860020985858009611911565b9c8d918d0996611911565b900992800960020990611911565b9484099392818180090990565b5060009250829150600190565b9290926001908315611a8a576000918295819592835b611a485750505050929190565b60018416611a68575b90611a5c929161198a565b919260011c9283611a3b565b93918185611a7c9398839a611a5c9661172e565b909790969194909250611a51565b93925090565b9391938315611af4576000918295600191829693845b611ab4575050505050929190565b838516611ad2575b90611ac7929161198a565b9193831c9384611aa6565b94918186611ae69399839b611ac79661172e565b909890979195909250611abc565b9390925090565b9061198191611b086112f6565b508051906040602082015191015191611a9056fea264697066735822122013844da4697a71e683e9b6b8108236da29bb1621458cf451509a03426c6330a264736f6c63430008150033",
    "linkReferences": {}
  },
  "methodIdentifiers": {
    "A()": "f446c1d0",
    "B()": "32e7c5bf",
    "_mul(uint256,uint256,uint256,uint256)": "37354912",
    "add((uint256,uint256,uint256),(uint256,uint256,uint256))": "a2a36ae5",
    "double(uint256,uint256,uint256)": "44170825",
    "eval(uint256[],uint256[])": "fbe430e8",
    "evalAsBits(uint256[],uint256)": "28662876",
    "evals(uint256[])": "fc6b9dd7",
    "msm_naive((uint256,uint256)[],uint256[])": "aebb1a40",
    "mul((uint256,uint256,uint256),uint256)": "0cd32939",
    "sum((uint256,uint256)[])": "79bcaf3e",
    "toAffine((uint256,uint256,uint256))": "2b9c9ea1",
    "toProjective((uint256,uint256))": "8e6c5703",
    "verify(((uint256,uint256),(uint256,uint256)[],(uint256,uint256)[],(uint256,uint256)[],(uint256,uint256)[],(uint256,uint256)[],uint256,uint256),uint256[],((uint256,uint256)[],(uint256,uint256)[],(uint256,uint256)),bytes32)": "a2a9c814",
    "verify(((uint256,uint256)[],uint256,(uint256,uint256)[],((uint256,uint256),(uint256,uint256)[],(uint256,uint256)[],(uint256,uint256)[],(uint256,uint256)[],(uint256,uint256)[],uint256,uint256)),uint256[],(uint256,uint8),((uint256,uint256)[],(uint256,uint256)[],(uint256,uint256)),bytes32)": "8686a16d"
  },
  "id": 2
}