{
  "abi": [
    {
      "inputs": [],
      "stateMutability": "nonpayable",
      "type": "constructor"
    },
    {
      "inputs": [],
      "name": "A",
      "outputs": [
        {
          "internalType": "uint256",
          "name": "",
          "type": "uint256"
        }
      ],
      "stateMutability": "view",
      "type": "function"
    },
    {
      "inputs": [],
      "name": "B",
      "outputs": [
        {
          "internalType": "uint256",
          "name": "",
          "type": "uint256"
        }
      ],
      "stateMutability": "view",
      "type": "function"
    },
    {
      "inputs": [
        {
          "internalType": "uint256",
          "name": "px",
          "type": "uint256"
        },
        {
          "internalType": "uint256",
          "name": "py",
          "type": "uint256"
        },
        {
          "internalType": "uint256",
          "name": "pz",
          "type": "uint256"
        },
        {
          "internalType": "uint256",
          "name": "scalar",
          "type": "uint256"
        }
      ],
      "name": "_mul",
      "outputs": [
        {
          "internalType": "uint256",
          "name": "",
          "type": "uint256"
        },
        {
          "internalType": "uint256",
          "name": "",
          "type": "uint256"
        },
        {
          "internalType": "uint256",
          "name": "",
          "type": "uint256"
        }
      ],
      "stateMutability": "view",
      "type": "function"
    },
    {
      "inputs": [
        {
          "components": [
            {
              "internalType": "uint256",
              "name": "x",
              "type": "uint256"
            },
            {
              "internalType": "uint256",
              "name": "y",
              "type": "uint256"
            },
            {
              "internalType": "uint256",
              "name": "z",
              "type": "uint256"
            }
          ],
          "internalType": "struct EvmProjectivePoint",
          "name": "p0",
          "type": "tuple"
        },
        {
          "components": [
            {
              "internalType": "uint256",
              "name": "x",
              "type": "uint256"
            },
            {
              "internalType": "uint256",
              "name": "y",
              "type": "uint256"
            },
            {
              "internalType": "uint256",
              "name": "z",
              "type": "uint256"
            }
          ],
          "internalType": "struct EvmProjectivePoint",
          "name": "p1",
          "type": "tuple"
        }
      ],
      "name": "add",
      "outputs": [
        {
          "components": [
            {
              "internalType": "uint256",
              "name": "x",
              "type": "uint256"
            },
            {
              "internalType": "uint256",
              "name": "y",
              "type": "uint256"
            },
            {
              "internalType": "uint256",
              "name": "z",
              "type": "uint256"
            }
          ],
          "internalType": "struct EvmProjectivePoint",
          "name": "",
          "type": "tuple"
        }
      ],
      "stateMutability": "view",
      "type": "function"
    },
    {
      "inputs": [
        {
          "internalType": "uint256",
          "name": "x",
          "type": "uint256"
        },
        {
          "internalType": "uint256",
          "name": "y",
          "type": "uint256"
        },
        {
          "internalType": "uint256",
          "name": "z",
          "type": "uint256"
        }
      ],
      "name": "double",
      "outputs": [
        {
          "internalType": "uint256",
          "name": "",
          "type": "uint256"
        },
        {
          "internalType": "uint256",
          "name": "",
          "type": "uint256"
        },
        {
          "internalType": "uint256",
          "name": "",
          "type": "uint256"
        }
      ],
      "stateMutability": "view",
      "type": "function"
    },
    {
      "inputs": [
        {
          "internalType": "uint256[]",
          "name": "r",
          "type": "uint256[]"
        },
        {
          "internalType": "uint256[]",
          "name": "x",
          "type": "uint256[]"
        }
      ],
      "name": "eval",
      "outputs": [
        {
          "internalType": "uint256",
          "name": "",
          "type": "uint256"
        }
      ],
      "stateMutability": "nonpayable",
      "type": "function"
    },
    {
      "inputs": [
        {
          "internalType": "uint256[]",
          "name": "r",
          "type": "uint256[]"
        },
        {
          "internalType": "uint256",
          "name": "x",
          "type": "uint256"
        }
      ],
      "name": "evalAsBits",
      "outputs": [
        {
          "internalType": "uint256",
          "name": "",
          "type": "uint256"
        }
      ],
      "stateMutability": "nonpayable",
      "type": "function"
    },
    {
      "inputs": [
        {
          "internalType": "uint256[]",
          "name": "t",
          "type": "uint256[]"
        }
      ],
      "name": "evals",
      "outputs": [
        {
          "internalType": "uint256[]",
          "name": "",
          "type": "uint256[]"
        }
      ],
      "stateMutability": "pure",
      "type": "function"
    },
    {
      "inputs": [
        {
          "components": [
            {
              "internalType": "uint256",
              "name": "x",
              "type": "uint256"
            },
            {
              "internalType": "uint256",
              "name": "y",
              "type": "uint256"
            }
          ],
          "internalType": "struct EvmAffinePoint[]",
          "name": "bases",
          "type": "tuple[]"
        },
        {
          "internalType": "uint256[]",
          "name": "scalars",
          "type": "uint256[]"
        }
      ],
      "name": "msm_naive",
      "outputs": [
        {
          "components": [
            {
              "internalType": "uint256",
              "name": "x",
              "type": "uint256"
            },
            {
              "internalType": "uint256",
              "name": "y",
              "type": "uint256"
            },
            {
              "internalType": "uint256",
              "name": "z",
              "type": "uint256"
            }
          ],
          "internalType": "struct EvmProjectivePoint",
          "name": "",
          "type": "tuple"
        }
      ],
      "stateMutability": "view",
      "type": "function"
    },
    {
      "inputs": [
        {
          "components": [
            {
              "internalType": "uint256",
              "name": "x",
              "type": "uint256"
            },
            {
              "internalType": "uint256",
              "name": "y",
              "type": "uint256"
            },
            {
              "internalType": "uint256",
              "name": "z",
              "type": "uint256"
            }
          ],
          "internalType": "struct EvmProjectivePoint",
          "name": "point",
          "type": "tuple"
        },
        {
          "internalType": "uint256",
          "name": "scalar",
          "type": "uint256"
        }
      ],
      "name": "mul",
      "outputs": [
        {
          "components": [
            {
              "internalType": "uint256",
              "name": "x",
              "type": "uint256"
            },
            {
              "internalType": "uint256",
              "name": "y",
              "type": "uint256"
            },
            {
              "internalType": "uint256",
              "name": "z",
              "type": "uint256"
            }
          ],
          "internalType": "struct EvmProjectivePoint",
          "name": "",
          "type": "tuple"
        }
      ],
      "stateMutability": "view",
      "type": "function"
    },
    {
      "inputs": [
        {
          "components": [
            {
              "internalType": "uint256",
              "name": "x",
              "type": "uint256"
            },
            {
              "internalType": "uint256",
              "name": "y",
              "type": "uint256"
            }
          ],
          "internalType": "struct EvmAffinePoint[]",
          "name": "points",
          "type": "tuple[]"
        }
      ],
      "name": "sum",
      "outputs": [
        {
          "components": [
            {
              "internalType": "uint256",
              "name": "x",
              "type": "uint256"
            },
            {
              "internalType": "uint256",
              "name": "y",
              "type": "uint256"
            },
            {
              "internalType": "uint256",
              "name": "z",
              "type": "uint256"
            }
          ],
          "internalType": "struct EvmProjectivePoint",
          "name": "",
          "type": "tuple"
        }
      ],
      "stateMutability": "nonpayable",
      "type": "function"
    },
    {
      "inputs": [
        {
          "components": [
            {
              "internalType": "uint256",
              "name": "x",
              "type": "uint256"
            },
            {
              "internalType": "uint256",
              "name": "y",
              "type": "uint256"
            },
            {
              "internalType": "uint256",
              "name": "z",
              "type": "uint256"
            }
          ],
          "internalType": "struct EvmProjectivePoint",
          "name": "point",
          "type": "tuple"
        }
      ],
      "name": "toAffine",
      "outputs": [
        {
          "components": [
            {
              "internalType": "uint256",
              "name": "x",
              "type": "uint256"
            },
            {
              "internalType": "uint256",
              "name": "y",
              "type": "uint256"
            }
          ],
          "internalType": "struct EvmAffinePoint",
          "name": "",
          "type": "tuple"
        }
      ],
      "stateMutability": "pure",
      "type": "function"
    },
    {
      "inputs": [
        {
          "components": [
            {
              "internalType": "uint256",
              "name": "x",
              "type": "uint256"
            },
            {
              "internalType": "uint256",
              "name": "y",
              "type": "uint256"
            }
          ],
          "internalType": "struct EvmAffinePoint",
          "name": "point",
          "type": "tuple"
        }
      ],
      "name": "toProjective",
      "outputs": [
        {
          "components": [
            {
              "internalType": "uint256",
              "name": "x",
              "type": "uint256"
            },
            {
              "internalType": "uint256",
              "name": "y",
              "type": "uint256"
            },
            {
              "internalType": "uint256",
              "name": "z",
              "type": "uint256"
            }
          ],
          "internalType": "struct EvmProjectivePoint",
          "name": "",
          "type": "tuple"
        }
      ],
      "stateMutability": "pure",
      "type": "function"
    },
    {
      "inputs": [
        {
          "components": [
            {
              "components": [
                {
                  "internalType": "uint256",
                  "name": "x",
                  "type": "uint256"
                },
                {
                  "internalType": "uint256",
                  "name": "y",
                  "type": "uint256"
                }
              ],
              "internalType": "struct EvmAffinePoint[]",
              "name": "T",
              "type": "tuple[]"
            },
            {
              "internalType": "uint256",
              "name": "y",
              "type": "uint256"
            },
            {
              "components": [
                {
                  "internalType": "uint256",
                  "name": "x",
                  "type": "uint256"
                },
                {
                  "internalType": "uint256",
                  "name": "y",
                  "type": "uint256"
                }
              ],
              "internalType": "struct EvmAffinePoint[]",
              "name": "TLpowers",
              "type": "tuple[]"
            },
            {
              "components": [
                {
                  "components": [
                    {
                      "internalType": "uint256",
                      "name": "x",
                      "type": "uint256"
                    },
                    {
                      "internalType": "uint256",
                      "name": "y",
                      "type": "uint256"
                    }
                  ],
                  "internalType": "struct EvmAffinePoint",
                  "name": "comm",
                  "type": "tuple"
                },
                {
                  "components": [
                    {
                      "internalType": "uint256",
                      "name": "x",
                      "type": "uint256"
                    },
                    {
                      "internalType": "uint256",
                      "name": "y",
                      "type": "uint256"
                    }
                  ],
                  "internalType": "struct EvmAffinePoint[]",
                  "name": "L",
                  "type": "tuple[]"
                },
                {
                  "components": [
                    {
                      "internalType": "uint256",
                      "name": "x",
                      "type": "uint256"
                    },
                    {
                      "internalType": "uint256",
                      "name": "y",
                      "type": "uint256"
                    }
                  ],
                  "internalType": "struct EvmAffinePoint[]",
                  "name": "R",
                  "type": "tuple[]"
                },
                {
                  "components": [
                    {
                      "internalType": "uint256",
                      "name": "x",
                      "type": "uint256"
                    },
                    {
                      "internalType": "uint256",
                      "name": "y",
                      "type": "uint256"
                    }
                  ],
                  "internalType": "struct EvmAffinePoint[]",
                  "name": "sGPowers",
                  "type": "tuple[]"
                },
                {
                  "components": [
                    {
                      "internalType": "uint256",
                      "name": "x",
                      "type": "uint256"
                    },
                    {
                      "internalType": "uint256",
                      "name": "y",
                      "type": "uint256"
                    }
                  ],
                  "internalType": "struct EvmAffinePoint",
                  "name": "R_zko",
                  "type": "tuple"
                },
                {
                  "internalType": "uint256",
                  "name": "z1",
                  "type": "uint256"
                },
                {
                  "internalType": "uint256",
                  "name": "z2",
                  "type": "uint256"
                },
                {
                  "internalType": "uint256",
                  "name": "y",
                  "type": "uint256"
                }
              ],
              "internalType": "struct EvmInnerProductProof",
              "name": "ipProof",
              "type": "tuple"
            }
          ],
          "internalType": "struct EvmPolyEvalProof",
          "name": "proof",
          "type": "tuple"
        },
        {
          "internalType": "uint256[]",
          "name": "_x",
          "type": "uint256[]"
        },
        {
          "components": [
            {
              "components": [
                {
                  "internalType": "uint256",
                  "name": "x",
                  "type": "uint256"
                },
                {
                  "internalType": "uint256",
                  "name": "y",
                  "type": "uint256"
                }
              ],
              "internalType": "struct EvmAffinePoint[]",
              "name": "G",
              "type": "tuple[]"
            },
            {
              "components": [
                {
                  "internalType": "uint256",
                  "name": "x",
                  "type": "uint256"
                },
                {
                  "internalType": "uint256",
                  "name": "y",
                  "type": "uint256"
                }
              ],
              "internalType": "struct EvmAffinePoint",
              "name": "H",
              "type": "tuple"
            },
            {
              "components": [
                {
                  "internalType": "uint256",
                  "name": "x",
                  "type": "uint256"
                },
                {
                  "internalType": "uint256",
                  "name": "y",
                  "type": "uint256"
                }
              ],
              "internalType": "struct EvmAffinePoint",
              "name": "u",
              "type": "tuple"
            }
          ],
          "internalType": "struct EvmGens",
          "name": "gens",
          "type": "tuple"
        },
        {
          "internalType": "bytes32",
          "name": "state",
          "type": "bytes32"
        }
      ],
      "name": "verify",
      "outputs": [
        {
          "internalType": "bool",
          "name": "",
          "type": "bool"
        }
      ],
      "stateMutability": "nonpayable",
      "type": "function"
    },
    {
      "inputs": [
        {
          "components": [
            {
              "components": [
                {
                  "internalType": "uint256",
                  "name": "x",
                  "type": "uint256"
                },
                {
                  "internalType": "uint256",
                  "name": "y",
                  "type": "uint256"
                }
              ],
              "internalType": "struct EvmAffinePoint",
              "name": "comm",
              "type": "tuple"
            },
            {
              "components": [
                {
                  "internalType": "uint256",
                  "name": "x",
                  "type": "uint256"
                },
                {
                  "internalType": "uint256",
                  "name": "y",
                  "type": "uint256"
                }
              ],
              "internalType": "struct EvmAffinePoint[]",
              "name": "L",
              "type": "tuple[]"
            },
            {
              "components": [
                {
                  "internalType": "uint256",
                  "name": "x",
                  "type": "uint256"
                },
                {
                  "internalType": "uint256",
                  "name": "y",
                  "type": "uint256"
                }
              ],
              "internalType": "struct EvmAffinePoint[]",
              "name": "R",
              "type": "tuple[]"
            },
            {
              "components": [
                {
                  "internalType": "uint256",
                  "name": "x",
                  "type": "uint256"
                },
                {
                  "internalType": "uint256",
                  "name": "y",
                  "type": "uint256"
                }
              ],
              "internalType": "struct EvmAffinePoint[]",
              "name": "sGPowers",
              "type": "tuple[]"
            },
            {
              "components": [
                {
                  "internalType": "uint256",
                  "name": "x",
                  "type": "uint256"
                },
                {
                  "internalType": "uint256",
                  "name": "y",
                  "type": "uint256"
                }
              ],
              "internalType": "struct EvmAffinePoint",
              "name": "R_zko",
              "type": "tuple"
            },
            {
              "internalType": "uint256",
              "name": "z1",
              "type": "uint256"
            },
            {
              "internalType": "uint256",
              "name": "z2",
              "type": "uint256"
            },
            {
              "internalType": "uint256",
              "name": "y",
              "type": "uint256"
            }
          ],
          "internalType": "struct EvmInnerProductProof",
          "name": "proof",
          "type": "tuple"
        },
        {
          "internalType": "uint256[]",
          "name": "b",
          "type": "uint256[]"
        },
        {
          "components": [
            {
              "components": [
                {
                  "internalType": "uint256",
                  "name": "x",
                  "type": "uint256"
                },
                {
                  "internalType": "uint256",
                  "name": "y",
                  "type": "uint256"
                }
              ],
              "internalType": "struct EvmAffinePoint[]",
              "name": "G",
              "type": "tuple[]"
            },
            {
              "components": [
                {
                  "internalType": "uint256",
                  "name": "x",
                  "type": "uint256"
                },
                {
                  "internalType": "uint256",
                  "name": "y",
                  "type": "uint256"
                }
              ],
              "internalType": "struct EvmAffinePoint",
              "name": "H",
              "type": "tuple"
            },
            {
              "components": [
                {
                  "internalType": "uint256",
                  "name": "x",
                  "type": "uint256"
                },
                {
                  "internalType": "uint256",
                  "name": "y",
                  "type": "uint256"
                }
              ],
              "internalType": "struct EvmAffinePoint",
              "name": "u",
              "type": "tuple"
            }
          ],
          "internalType": "struct EvmGens",
          "name": "gens",
          "type": "tuple"
        },
        {
          "internalType": "bytes32",
          "name": "state",
          "type": "bytes32"
        }
      ],
      "name": "verify",
      "outputs": [
        {
          "internalType": "bool",
          "name": "",
          "type": "bool"
        }
      ],
      "stateMutability": "nonpayable",
      "type": "function"
    }
  ],
  "bytecode": {
    "object": "0x6080806040523461001657611d34908161001c8239f35b600080fdfe60406080815260048036101561001457600080fd5b600091823560e01c80630cd32939146108a457806328662876146107c15780632b9c9ea11461078f57806332e7c5bf146107735780633735491214610746578063441708251461070157806379bcaf3e146106c45780638e6c57031461068e578063a2a36ae514610638578063a48706691461038c578063aebb1a401461030c578063cc4b457c14610290578063f446c1d014610275578063fbe430e81461014a5763fc6b9dd7146100c557600080fd5b3461014657602091826003193601126101425780356001600160401b03811161013e576100ff6100fa85938793369101610989565b610c60565b9083519383808695860192818752855180945286019401925b82811061012757505050500390f35b835185528695509381019392810192600101610118565b8480fd5b8380fd5b8280fd5b508290346102715780600319360112610271576001600160401b0383358181116101425761017b9036908601610989565b90602435908111610142576101939036908601610989565b938151855103610224575060019384939190845b6101b6575b6020858551908152f35b909193825185101561021e57610216906101d08685610bc4565b51906401000003d0198080936101e68a88610bc4565b519009816101fd6101f78b8a610bc4565b51610d56565b61020a6101f78c8a610bc4565b90099008900994610b9f565b9190856101a7565b936101ac565b608490602084519162461bcd60e51b8352820152602160248201527f7220616e642078206d7573742068617665207468652073616d65206c656e67746044820152600d60fb1b6064820152fd5b5080fd5b83823461027157816003193601126102715751908152602090f35b508234610309576080366003190112610309576001600160401b03928035848111610146576102c29036908301610a7b565b93602435818111610142576102da9036908401610989565b926044359182116103095750916102fa6020959261030094369101610b40565b91610de0565b90519015158152f35b80fd5b5090346101465781600319360112610146576001600160401b03813581811161013e5761033c9036908401610a0f565b9360243591821161030957509261035c6103629261038895369101610989565b9061159a565b905191829182919091604080606083019480518452602081015160208501520151910152565b0390f35b5091346103095760031991608036840112610271578035906001600160401b03938483116101425760809083360301126101465784519060808201828110868211176106255786528281013585811161013e576103ee90823691860101610a0f565b825260248301356020830152604483013585811161013e5761041590823691860101610a0f565b92868301938452606481013586811161062157606091836104399236920101610a7b565b920191825260243585811161013e576104559036908301610989565b9460443590811161013e5761046d9036908301610b40565b93855195600196878082161460001461061c57878101809111610609575b80881c9061049881610bee565b928985815b6105dd575b50506104af815183610c33565b8281106105bd575050506104c281610bee565b916104cc82610bee565b935b82811061057a575050506104f16104fd926104eb6104f893610c60565b50610c60565b9451611688565b611403565b8051835151908151149182610567575b50501561052b575091610524916020959351610de0565b5051908152f35b606490602087519162461bcd60e51b835282015260166024820152750a8bee0e4d2daca40c8decae640dcdee840dac2e8c6d60531b6044820152fd5b602091925081015191015114388061050d565b806105886105b89284610bc4565b516105938287610bc4565b526105a76105a18583610dd3565b84610bc4565b516105b28288610bc4565b52610b9f565b6104ce565b6105d8906105a76105a16105d2855187610c33565b83610c33565b6104af565b6105e8835185610c33565b8110156106045780876105b26105fe9389610bc4565b8161049d565b6104a2565b634e487b7160e01b835260118452602483fd5b61048b565b8580fd5b634e487b7160e01b855260418252602485fd5b8382346102715760c0366003190112610271576106543661093d565b916060366063190112610309575061036261038892825190610675826108d0565b6064358252608435602083015260a43584830152611a2b565b50823461030957816003193601126103095750610362610388928251906106b482610901565b35815260243560208201526113d5565b508234610309576020366003190112610309578235906001600160401b03821161030957506106fc6103889361036292369101610a0f565b611688565b508234610309576060366003190112610309575061072a61038892604435906024359035611a66565b9251918252602082015260408101919091529081906060820190565b508234610309576080366003190112610309575061072a6103889260643590604435906024359035611b6c565b8382346102715781600319360112610271576020905160078152f35b50823461030957606036600319011261030957506107af6104f83661093d565b60208251918051835201516020820152f35b5082903461027157806003193601126102715782356001600160401b038111610146576107f19036908501610989565b80516001939160248035928490875b818710610811576020898951908152f35b909192939495978180888b1c1614600014610878576108308984610c33565b6000198101908111610866579061084a61085b9288610bc4565b515b6401000003d019910998610b9f565b959493929190610800565b634e487b7160e01b855260118b528585fd5b6108828984610c33565b6000198101908111610866579061089f6101f761085b9389610bc4565b61084c565b83823461027157608036600319011261027157610388906103626108c73661093d565b60643590611c53565b606081019081106001600160401b038211176108eb57604052565b634e487b7160e01b600052604160045260246000fd5b604081019081106001600160401b038211176108eb57604052565b90601f801991011681019081106001600160401b038211176108eb57604052565b606090600319011261096d5760405190610956826108d0565b600435825260243560208301526044356040830152565b600080fd5b6001600160401b0381116108eb5760051b60200190565b9080601f8301121561096d5760209082356109a381610972565b936109b1604051958661091c565b818552838086019260051b82010192831161096d578301905b8282106109d8575050505090565b813581529083019083016109ca565b919082604091031261096d576040516109ff81610901565b6020808294803584520135910152565b9080601f8301121561096d578135916020610a2984610972565b93604093610a398551968761091c565b818652828087019260061b8501019381851161096d578301915b848310610a635750505050505090565b838691610a7084866109e7565b815201920191610a53565b9190916101408184031261096d576040519061010093848301916001600160401b0392848110848211176108eb576040528395610ab883836109e7565b8552604082013584811161096d5783610ad2918401610a0f565b6020860152606082013584811161096d5783610aef918401610a0f565b6040860152608082013593841161096d57610b2383610b156101209560e0978601610a0f565b606088015260a084016109e7565b60808601528382013560a086015281013560c08501520135910152565b919060a08382031261096d5760405190610b59826108d0565b81938035916001600160401b03831161096d57606082610b8083604096610b9a9601610a0f565b8652610b8f83602083016109e7565b6020870152016109e7565b910152565b6000198114610bae5760010190565b634e487b7160e01b600052601160045260246000fd5b8051821015610bd85760209160051b010190565b634e487b7160e01b600052603260045260246000fd5b90610bf882610972565b610c05604051918261091c565b8281528092610c16601f1991610972565b0190602036910137565b81810292918115918404141715610bae57565b91908203918211610bae57565b8115610c4a570490565b634e487b7160e01b600052601260045260246000fd5b80519060ff8211610bae57600180831b92610c7a84610bee565b9360005b818110610d425750508160005b828110610c9a57505050505090565b81841b9180830460021490151715610bae57600019808301838111610bae5790859291805b610ccc575b505001610c8b565b909192610cde82610d0f921c8a610bc4565b516401000003d019610cf0868b610bc4565b518209610cfd848c610bc4565b52610d08838b610bc4565b5190610d97565b828201828111610bae57610d23908a610bc4565b5285808214610d3b5750859291906001190180610cbf565b9291610cc4565b80846105b2610d519389610bc4565b610c7e565b80600110610d755760010360018111610bae576401000003d019900690565b6000198101908111610bae576401000003d0198091068103908111610bae5790565b90808210610db457610db0906401000003d01992610c33565b0690565b610dc66401000003d019928392610c33565b068103908111610bae5790565b91908201809211610bae57565b919080519160209384810180515194604095610e06610e01888701516113d5565b611bd7565b95835151610e1381610bee565b9060005b8181106112b8575050610e2983610bee565b9160005b8481106112985750610e3e85610bee565b9460005b8181106112315750610e5381610bee565b60005b82811061120b5750505060005b8481106111835750805115610bd8578a9594939291610ed4878c93015195610ead8b51518551610e9281610901565b600a815269472e6c656e282920257360b01b8c820152611c74565b518351610eb981610901565b600a815269732e6c656e282920257360b01b8a820152611c74565b610ee16060890151611688565b95610f04610eef8a516113d5565b610efe8d60e08d015190611c53565b90611a2b565b94610f0e81610bee565b9260005b82811061113a575050610f2481610bee565b9460005b8281106110f157505050610fa3610fcb9a97610efe610efe98610f9d610f7b8e9a610fc59f610fbf9f9990610efe60c09d610fb69d610f6e610f7695610fae9e5161159a565b93015161159a565b611a2b565b610efe610f9660808d0192610f9084516113d5565b50611bd7565b91516113d5565b9e611c53565b60a086015190611c53565b9501516113d5565b91015190611c53565b92611403565b91611403565b90610ff681518451610fdc81610901565b60098152686c68732e783a20257360b81b87820152611c74565b838101916110248351855161100a81610901565b60098152686c68732e793a20257360b81b88820152611c74565b61104e8151855161103481610901565b60098152687268732e783a20257360b81b88820152611c74565b8481019161107c8351865161106281610901565b60098152687268732e793a20257360b81b89820152611c74565b5190511491826110e4575b505015611095575050600190565b60849250519062461bcd60e51b82526004820152602360248201527f496e6e65722070726f6475637420657175616c69747920636865636b206661696044820152621b195960ea1b6064820152fd5b5190511490503880611087565b9092945061112a919395969798995061110a8184610bc4565b516401000003d0199061111d8386610bc4565b5190096105b28289610bc4565b918c93918e999897969593610f28565b9092945061117391939596979899506111538184610bc4565b516401000003d019906111668386610bc4565b5190096105b28288610bc4565b918c93918e999897969593610f12565b9061118e8285610bc4565b519061119a8385610bc4565b5191815160011c906111ab82610bee565b9360005b8381106111ca5750505050506111c59091610b9f565b610e63565b611206906401000003d01980856111e1848a610bc4565b510981856111f86111f28a87610dd3565b8b610bc4565b510990086105b28289610bc4565b6111af565b8061122261121c61122c938b610bc4565b516112cd565b6105b28285610bc4565b610e56565b600160005b87811061125257509061124d916105b2828a610bc4565b610e42565b906112819060018085851c1614600014611286576401000003d019906112788489610bc4565b51900991610b9f565b611236565b6401000003d01990611278848a610bc4565b806112a961121c6112b39386610bc4565b6105b28287610bc4565b610e2d565b8060216105b26112c89386610bc4565b610e17565b801515806113a6575b8061139e575b15611368576000908160016401000003d019835b6112fb575050505090565b61130a84829693949596610c40565b916401000003d0198484096401000003d019036401000003d01981116113545761134b9291611345916401000003d019910894968094610c20565b90610c33565b929190836112f0565b634e487b7160e01b86526011600452602486fd5b60405162461bcd60e51b815260206004820152600e60248201526d24b73b30b634b210373ab6b132b960911b6044820152606490fd5b5060016112dc565b506401000003d0198114156112d6565b604051906113c3826108d0565b60006040838281528260208201520152565b6113dd6113b6565b5060208151910151604051916113f2836108d0565b825260208201526001604082015290565b60209060405161141281610901565b60009281848093520152604081018051928315158061157e575b80611576575b15611368579283600170014551231950b75fc4402da1732fc9bebe19835b6114f357505050506001908370014551231950b75fc4402da1732fc9bebe19915109036114bf5770014551231950b75fc4402da1732fc9bebe198282510991602070014551231950b75fc4402da1732fc9bebe1992015109604051916114b583610901565b8252602082015290565b60405162461bcd60e51b815260206004820152600c60248201526b24b73b30b634b2103d24b73b60a11b6044820152606490fd5b61150284829893949598610c40565b9170014551231950b75fc4402da1732fc9bebe1984840970014551231950b75fc4402da1732fc9bebe190370014551231950b75fc4402da1732fc9bebe1981116113545761156d92916113459170014551231950b75fc4402da1732fc9bebe19910894988094610c20565b92919083611450565b506001611432565b5070014551231950b75fc4402da1732fc9bebe1984141561142c565b906115a36113b6565b5081518151036116515790600091829060019081809486935b6115e1575b50505050604051926115d2846108d0565b83526020830152604082015290565b9193829591939551861015611648579085966116349261162a611608889961163f99610bc4565b516116138b88610bc4565b515160206116218d8a610bc4565b51015190611b01565b9491929093611805565b959194909496610b9f565b929091816115bc565b938195506115c1565b60405162461bcd60e51b815260206004820152600f60248201526e098cadccee8d040dad2e6dac2e8c6d608b1b6044820152606490fd5b6116906113b6565b5060009081600180928185925b6116b2575b505050604051926115d2846108d0565b92909384959295518610156116ff57916116ed916116f894936116d58888610bc4565b51519160206116e48a8a610bc4565b5101519361170b565b949193909395610b9f565b918061169d565b938295508193506116a2565b9492919385156117f85782156117f15785831480806117e7575b6117d5576117c057849291839170014551231950b75fc4402da1732fc9bebe19808099819782808080809a816001819c09990961176290896119e8565b94600190099c8d9a099181611777848c6119e8565b9e8f94818087800994600190099c088209828b818780090990611799916119e8565b97889382099c09906117aa916119e8565b90099188096117b8916119e8565b960994930990565b5090506117ce929193611a66565b9192909190565b50505050915050600090600090600190565b5081831415611725565b5092919050565b9450509091509190600190565b929194959383156119dd5782156119d45783831480806119ca575b6119b7576119a75790611861611977928770014551231950b75fc4402da1732fc9bebe19910970014551231950b75fc4402da1732fc9bebe198984096119e8565b9661189670014551231950b75fc4402da1732fc9bebe1988860970014551231950b75fc4402da1732fc9bebe198388096119e8565b9361191870014551231950b75fc4402da1732fc9bebe198680099170014551231950b75fc4402da1732fc9bebe19848b099970014551231950b75fc4402da1732fc9bebe1991829182910970014551231950b75fc4402da1732fc9bebe19868b0908830970014551231950b75fc4402da1732fc9bebe198a818d8009096119e8565b986119558a70014551231950b75fc4402da1732fc9bebe198885099870014551231950b75fc4402da1732fc9bebe199485918290889009096119e8565b90099170014551231950b75fc4402da1732fc9bebe19918291098509906119e8565b9470014551231950b75fc4402da1732fc9bebe199109939270014551231950b75fc4402da1732fc9bebe19910990565b509190506117ce93929450611a66565b5050505050915050600090600090600190565b5081831415611820565b50945050929190565b959450509050929190565b90808210611a0d57610db09070014551231950b75fc4402da1732fc9bebe1992610c33565b610dc670014551231950b75fc4402da1732fc9bebe19928392610c33565b611a5891611a376113b6565b50815191604060208201519101518251916040602085015194015194611805565b90604051926115d2846108d0565b9192908015611af45780611ae7611ad9928570014551231950b75fc4402da1732fc9bebe198089819a97828080809b9a818080809e9b8180809e8181819209600009928009600309089783096002099e098d0960020995611ace8488600209858580096119e8565b9c8d918d09966119e8565b9009928009600209906119e8565b9484099392818180090990565b5060009250829150600190565b9290926001908315611b66576000918295819592835b611b245750505050929190565b60018416611b44575b90611b389291611a66565b919260011c9283611b17565b93918185611b589398839a611b3896611805565b909790969194909250611b2d565b93925090565b9391938315611bd0576000918295600191829693845b611b90575050505050929190565b838516611bae575b90611ba39291611a66565b9193831c9384611b82565b94918186611bc29399839b611ba396611805565b909890979195909250611b98565b9390925090565b611bdf6113b6565b508051602082015160409092015160009260019284926021928592845b611c12575050505050604051926115d2846108d0565b838516611c30575b90611c259291611a66565b9193831c9384611bfc565b969181888298611c449498611c2596611805565b96919590959790919250611c1a565b90611a5891611c606113b6565b508051906040602082015191015191611b6c565b60405190602092838301936309710a9d60e41b85526040602485015282519283606486015260005b848110611cea5750505091611cd760848284600097959688848199850101526044830152601f8019910116810103606481018452018261091c565b51906a636f6e736f6c652e6c6f675afa50565b818101830151868201608401528201611c9c56fea2646970667358221220825fcb2ea84380f78676c4abc5b8339026a10757b781c6ef4da193c21e26f66064736f6c63430008150033",
    "linkReferences": {}
  },
  "methodIdentifiers": {
    "A()": "f446c1d0",
    "B()": "32e7c5bf",
    "_mul(uint256,uint256,uint256,uint256)": "37354912",
    "add((uint256,uint256,uint256),(uint256,uint256,uint256))": "a2a36ae5",
    "double(uint256,uint256,uint256)": "44170825",
    "eval(uint256[],uint256[])": "fbe430e8",
    "evalAsBits(uint256[],uint256)": "28662876",
    "evals(uint256[])": "fc6b9dd7",
    "msm_naive((uint256,uint256)[],uint256[])": "aebb1a40",
    "mul((uint256,uint256,uint256),uint256)": "0cd32939",
    "sum((uint256,uint256)[])": "79bcaf3e",
    "toAffine((uint256,uint256,uint256))": "2b9c9ea1",
    "toProjective((uint256,uint256))": "8e6c5703",
    "verify(((uint256,uint256),(uint256,uint256)[],(uint256,uint256)[],(uint256,uint256)[],(uint256,uint256),uint256,uint256,uint256),uint256[],((uint256,uint256)[],(uint256,uint256),(uint256,uint256)),bytes32)": "cc4b457c",
    "verify(((uint256,uint256)[],uint256,(uint256,uint256)[],((uint256,uint256),(uint256,uint256)[],(uint256,uint256)[],(uint256,uint256)[],(uint256,uint256),uint256,uint256,uint256)),uint256[],((uint256,uint256)[],(uint256,uint256),(uint256,uint256)),bytes32)": "a4870669"
  },
  "id": 3
}