{
  "abi": [
    {
      "inputs": [],
      "stateMutability": "nonpayable",
      "type": "constructor"
    },
    {
      "inputs": [
        {
          "internalType": "uint256[]",
          "name": "r",
          "type": "uint256[]"
        },
        {
          "internalType": "uint256[]",
          "name": "x",
          "type": "uint256[]"
        }
      ],
      "name": "eqEval",
      "outputs": [
        {
          "internalType": "uint256",
          "name": "",
          "type": "uint256"
        }
      ],
      "stateMutability": "nonpayable",
      "type": "function"
    },
    {
      "inputs": [
        {
          "internalType": "uint256[]",
          "name": "r",
          "type": "uint256[]"
        },
        {
          "internalType": "uint256",
          "name": "x",
          "type": "uint256"
        }
      ],
      "name": "eqEvalAsBits",
      "outputs": [
        {
          "internalType": "uint256",
          "name": "",
          "type": "uint256"
        }
      ],
      "stateMutability": "nonpayable",
      "type": "function"
    }
  ],
  "bytecode": {
    "object": "0x6080806040523461001657610377908161001c8239f35b600080fdfe608060405260048036101561001357600080fd5b600090813560e01c8063a5a3f02a1461012c5763a877d3191461003557600080fd5b346101285760403660031901126101285767ffffffffffffffff908035828111610124576100669036908301610214565b916024359081116101245761007e9036908301610214565b9082518251036101115750600191829190825b6100a1575b602084604051908152f35b909192815185101561010b57610101906100bb86846102c9565b51906401000003d019808080946100d28b8a6102c9565b5190096100e86100e28b896102c9565b51610300565b90086100f76100e28a896102c9565b90099009946102a4565b9392919082610091565b92610096565b634e487b7160e01b845260019052602483fd5b8380fd5b5080fd5b50903461021157604036600319011261021157813567ffffffffffffffff81116101285761015d9036908401610214565b80516001929160248035928490865b81871061017e57602088604051908152f35b909192939495968180888a1c16146000146101e55761019d88846102f3565b60001981019081116101d357906101b76101c892886102c9565b515b6401000003d0199109976102a4565b95949392919061016c565b634e487b7160e01b855260118a528585fd5b6101ef88846102f3565b60001981019081116101d3579061020c6100e26101c893896102c9565b6101b9565b80fd5b81601f820112156102895767ffffffffffffffff91813583811161028e578060051b9060405194601f19603f8401168601908682109082111761028e5760405284526020928380860192820101928311610289578301905b82821061027a575050505090565b8135815290830190830161026c565b600080fd5b634e487b7160e01b600052604160045260246000fd5b60001981146102b35760010190565b634e487b7160e01b600052601160045260246000fd5b80518210156102dd5760209160051b010190565b634e487b7160e01b600052603260045260246000fd5b919082039182116102b357565b8060011061031f57600103600181116102b3576401000003d019900690565b60001981019081116102b3576401000003d01980910681039081116102b3579056fea26469706673582212203f0807c7d9360e095a1c49ea9c77e0d4eb9b0121cddde2fbb1259b53bd7aff7964736f6c63430008130033",
    "linkReferences": {}
  },
  "methodIdentifiers": {
    "eqEval(uint256[],uint256[])": "a877d319",
    "eqEvalAsBits(uint256[],uint256)": "a5a3f02a"
  },
  "id": 0
}