{
  "abi": [
    {
      "inputs": [],
      "stateMutability": "nonpayable",
      "type": "constructor"
    },
    {
      "inputs": [],
      "name": "A",
      "outputs": [
        {
          "internalType": "uint256",
          "name": "",
          "type": "uint256"
        }
      ],
      "stateMutability": "view",
      "type": "function"
    },
    {
      "inputs": [],
      "name": "B",
      "outputs": [
        {
          "internalType": "uint256",
          "name": "",
          "type": "uint256"
        }
      ],
      "stateMutability": "view",
      "type": "function"
    },
    {
      "inputs": [
        {
          "internalType": "uint256",
          "name": "px",
          "type": "uint256"
        },
        {
          "internalType": "uint256",
          "name": "py",
          "type": "uint256"
        },
        {
          "internalType": "uint256",
          "name": "pz",
          "type": "uint256"
        },
        {
          "internalType": "uint256",
          "name": "scalar",
          "type": "uint256"
        }
      ],
      "name": "_mul",
      "outputs": [
        {
          "internalType": "uint256",
          "name": "",
          "type": "uint256"
        },
        {
          "internalType": "uint256",
          "name": "",
          "type": "uint256"
        },
        {
          "internalType": "uint256",
          "name": "",
          "type": "uint256"
        }
      ],
      "stateMutability": "view",
      "type": "function"
    },
    {
      "inputs": [
        {
          "components": [
            {
              "internalType": "uint256",
              "name": "x",
              "type": "uint256"
            },
            {
              "internalType": "uint256",
              "name": "y",
              "type": "uint256"
            },
            {
              "internalType": "uint256",
              "name": "z",
              "type": "uint256"
            }
          ],
          "internalType": "struct EvmProjectivePoint",
          "name": "p0",
          "type": "tuple"
        },
        {
          "components": [
            {
              "internalType": "uint256",
              "name": "x",
              "type": "uint256"
            },
            {
              "internalType": "uint256",
              "name": "y",
              "type": "uint256"
            },
            {
              "internalType": "uint256",
              "name": "z",
              "type": "uint256"
            }
          ],
          "internalType": "struct EvmProjectivePoint",
          "name": "p1",
          "type": "tuple"
        }
      ],
      "name": "add",
      "outputs": [
        {
          "components": [
            {
              "internalType": "uint256",
              "name": "x",
              "type": "uint256"
            },
            {
              "internalType": "uint256",
              "name": "y",
              "type": "uint256"
            },
            {
              "internalType": "uint256",
              "name": "z",
              "type": "uint256"
            }
          ],
          "internalType": "struct EvmProjectivePoint",
          "name": "",
          "type": "tuple"
        }
      ],
      "stateMutability": "view",
      "type": "function"
    },
    {
      "inputs": [
        {
          "internalType": "uint256",
          "name": "x",
          "type": "uint256"
        },
        {
          "internalType": "uint256",
          "name": "y",
          "type": "uint256"
        },
        {
          "internalType": "uint256",
          "name": "z",
          "type": "uint256"
        }
      ],
      "name": "double",
      "outputs": [
        {
          "internalType": "uint256",
          "name": "",
          "type": "uint256"
        },
        {
          "internalType": "uint256",
          "name": "",
          "type": "uint256"
        },
        {
          "internalType": "uint256",
          "name": "",
          "type": "uint256"
        }
      ],
      "stateMutability": "view",
      "type": "function"
    },
    {
      "inputs": [
        {
          "components": [
            {
              "internalType": "uint256",
              "name": "x",
              "type": "uint256"
            },
            {
              "internalType": "uint256",
              "name": "y",
              "type": "uint256"
            }
          ],
          "internalType": "struct EvmAffinePoint[]",
          "name": "bases",
          "type": "tuple[]"
        },
        {
          "internalType": "uint256[]",
          "name": "scalars",
          "type": "uint256[]"
        }
      ],
      "name": "msm_naive",
      "outputs": [
        {
          "components": [
            {
              "internalType": "uint256",
              "name": "x",
              "type": "uint256"
            },
            {
              "internalType": "uint256",
              "name": "y",
              "type": "uint256"
            },
            {
              "internalType": "uint256",
              "name": "z",
              "type": "uint256"
            }
          ],
          "internalType": "struct EvmProjectivePoint",
          "name": "",
          "type": "tuple"
        }
      ],
      "stateMutability": "view",
      "type": "function"
    },
    {
      "inputs": [
        {
          "components": [
            {
              "internalType": "uint256",
              "name": "x",
              "type": "uint256"
            },
            {
              "internalType": "uint256",
              "name": "y",
              "type": "uint256"
            },
            {
              "internalType": "uint256",
              "name": "z",
              "type": "uint256"
            }
          ],
          "internalType": "struct EvmProjectivePoint",
          "name": "point",
          "type": "tuple"
        },
        {
          "internalType": "uint256",
          "name": "scalar",
          "type": "uint256"
        }
      ],
      "name": "mul",
      "outputs": [
        {
          "components": [
            {
              "internalType": "uint256",
              "name": "x",
              "type": "uint256"
            },
            {
              "internalType": "uint256",
              "name": "y",
              "type": "uint256"
            },
            {
              "internalType": "uint256",
              "name": "z",
              "type": "uint256"
            }
          ],
          "internalType": "struct EvmProjectivePoint",
          "name": "",
          "type": "tuple"
        }
      ],
      "stateMutability": "view",
      "type": "function"
    },
    {
      "inputs": [
        {
          "components": [
            {
              "internalType": "uint256",
              "name": "x",
              "type": "uint256"
            },
            {
              "internalType": "uint256",
              "name": "y",
              "type": "uint256"
            }
          ],
          "internalType": "struct EvmAffinePoint[]",
          "name": "points",
          "type": "tuple[]"
        }
      ],
      "name": "sum",
      "outputs": [
        {
          "components": [
            {
              "internalType": "uint256",
              "name": "x",
              "type": "uint256"
            },
            {
              "internalType": "uint256",
              "name": "y",
              "type": "uint256"
            },
            {
              "internalType": "uint256",
              "name": "z",
              "type": "uint256"
            }
          ],
          "internalType": "struct EvmProjectivePoint",
          "name": "",
          "type": "tuple"
        }
      ],
      "stateMutability": "nonpayable",
      "type": "function"
    },
    {
      "inputs": [
        {
          "components": [
            {
              "internalType": "uint256",
              "name": "x",
              "type": "uint256"
            },
            {
              "internalType": "uint256",
              "name": "y",
              "type": "uint256"
            },
            {
              "internalType": "uint256",
              "name": "z",
              "type": "uint256"
            }
          ],
          "internalType": "struct EvmProjectivePoint",
          "name": "point",
          "type": "tuple"
        }
      ],
      "name": "toAffine",
      "outputs": [
        {
          "components": [
            {
              "internalType": "uint256",
              "name": "x",
              "type": "uint256"
            },
            {
              "internalType": "uint256",
              "name": "y",
              "type": "uint256"
            }
          ],
          "internalType": "struct EvmAffinePoint",
          "name": "",
          "type": "tuple"
        }
      ],
      "stateMutability": "pure",
      "type": "function"
    },
    {
      "inputs": [
        {
          "components": [
            {
              "internalType": "uint256",
              "name": "x",
              "type": "uint256"
            },
            {
              "internalType": "uint256",
              "name": "y",
              "type": "uint256"
            }
          ],
          "internalType": "struct EvmAffinePoint",
          "name": "point",
          "type": "tuple"
        }
      ],
      "name": "toProjective",
      "outputs": [
        {
          "components": [
            {
              "internalType": "uint256",
              "name": "x",
              "type": "uint256"
            },
            {
              "internalType": "uint256",
              "name": "y",
              "type": "uint256"
            },
            {
              "internalType": "uint256",
              "name": "z",
              "type": "uint256"
            }
          ],
          "internalType": "struct EvmProjectivePoint",
          "name": "",
          "type": "tuple"
        }
      ],
      "stateMutability": "pure",
      "type": "function"
    },
    {
      "inputs": [
        {
          "components": [
            {
              "components": [
                {
                  "internalType": "uint256",
                  "name": "x",
                  "type": "uint256"
                },
                {
                  "internalType": "uint256",
                  "name": "y",
                  "type": "uint256"
                }
              ],
              "internalType": "struct EvmAffinePoint",
              "name": "comm",
              "type": "tuple"
            },
            {
              "components": [
                {
                  "internalType": "uint256",
                  "name": "x",
                  "type": "uint256"
                },
                {
                  "internalType": "uint256",
                  "name": "y",
                  "type": "uint256"
                }
              ],
              "internalType": "struct EvmAffinePoint[]",
              "name": "L",
              "type": "tuple[]"
            },
            {
              "components": [
                {
                  "internalType": "uint256",
                  "name": "x",
                  "type": "uint256"
                },
                {
                  "internalType": "uint256",
                  "name": "y",
                  "type": "uint256"
                }
              ],
              "internalType": "struct EvmAffinePoint[]",
              "name": "R",
              "type": "tuple[]"
            },
            {
              "components": [
                {
                  "internalType": "uint256",
                  "name": "x",
                  "type": "uint256"
                },
                {
                  "internalType": "uint256",
                  "name": "y",
                  "type": "uint256"
                }
              ],
              "internalType": "struct EvmAffinePoint[]",
              "name": "sGPowers",
              "type": "tuple[]"
            },
            {
              "components": [
                {
                  "internalType": "uint256",
                  "name": "x",
                  "type": "uint256"
                },
                {
                  "internalType": "uint256",
                  "name": "y",
                  "type": "uint256"
                }
              ],
              "internalType": "struct EvmAffinePoint",
              "name": "R_zko",
              "type": "tuple"
            },
            {
              "internalType": "uint256",
              "name": "z1",
              "type": "uint256"
            },
            {
              "internalType": "uint256",
              "name": "z2",
              "type": "uint256"
            },
            {
              "internalType": "uint256",
              "name": "y",
              "type": "uint256"
            }
          ],
          "internalType": "struct EvmInnerProductProof",
          "name": "proof",
          "type": "tuple"
        },
        {
          "internalType": "uint256[]",
          "name": "b",
          "type": "uint256[]"
        },
        {
          "components": [
            {
              "components": [
                {
                  "internalType": "uint256",
                  "name": "x",
                  "type": "uint256"
                },
                {
                  "internalType": "uint256",
                  "name": "y",
                  "type": "uint256"
                }
              ],
              "internalType": "struct EvmAffinePoint[]",
              "name": "G",
              "type": "tuple[]"
            },
            {
              "components": [
                {
                  "internalType": "uint256",
                  "name": "x",
                  "type": "uint256"
                },
                {
                  "internalType": "uint256",
                  "name": "y",
                  "type": "uint256"
                }
              ],
              "internalType": "struct EvmAffinePoint",
              "name": "H",
              "type": "tuple"
            },
            {
              "components": [
                {
                  "internalType": "uint256",
                  "name": "x",
                  "type": "uint256"
                },
                {
                  "internalType": "uint256",
                  "name": "y",
                  "type": "uint256"
                }
              ],
              "internalType": "struct EvmAffinePoint",
              "name": "u",
              "type": "tuple"
            }
          ],
          "internalType": "struct EvmGens",
          "name": "gens",
          "type": "tuple"
        },
        {
          "internalType": "bytes32",
          "name": "state",
          "type": "bytes32"
        }
      ],
      "name": "verify",
      "outputs": [
        {
          "internalType": "bool",
          "name": "",
          "type": "bool"
        }
      ],
      "stateMutability": "nonpayable",
      "type": "function"
    }
  ],
  "bytecode": {
    "object": "0x6080806040523461001657611648908161001c8239f35b600080fdfe6080604052600436101561001257600080fd5b60003560e01c80630cd32939146109735780632b9c9ea11461093d57806332e7c5bf1461092157806337354912146108f957806344170825146108b757806379bcaf3e1461087c5780638e6c570314610847578063a2a36ae5146107f3578063aebb1a4014610774578063cc4b457c146100b65763f446c1d01461009557600080fd5b346100b15760003660031901126100b157602060405160008152f35b600080fd5b346100b1576003196080368201126100b1576004356001600160401b0381116100b1576101408282360301126100b1576040519061010082018281106001600160401b0382111761075e576040526101113682600401610a3a565b825260448101356001600160401b0381116100b1576101369060043691840101610a62565b602083015260648101356001600160401b0381116100b15761015e9060043691840101610a62565b60408301526084810135906001600160401b0382116100b15761018a6101249260043691840101610a62565b606084015261019c3660a48301610a3a565b608084015260e481013560a084015261010481013560c0840152013560e08201526024356001600160401b0381116100b1576101dc903690600401610ace565b916001600160401b03604435116100b15760a090604435360301126100b1576040516102078161099c565b6001600160401b0360443560040135116100b1576102313660046044358101356044350101610a62565b815261024236602460443501610a3a565b602082015261025636606460443501610a3a565b9182604083015283519261027761027260208401515192610ca3565b6114eb565b9360208301515161028781610b2c565b9060005b81811061074957505061029d83610b2c565b9660005b84811061072957506102b283610b2c565b9260005b8181106106c057506102c781610b2c565b60005b82811061069a5750505060005b8481106105fa57508051156105e45760206103469101519261031d875151604051610301816109b7565b600a815269472e6c656e282920257360b01b6020820152611588565b5160405161032a816109b7565b600a815269732e6c656e282920257360b01b6020820152611588565b6103536060850151610f8b565b926103756103618651610ca3565b61036f60e08801518a611567565b9061133f565b9161037f82610b2c565b9060005b8381106105b157505061039582610b2c565b9160005b81811061057857505061042d602061042561041a6104369861036f6104429c996104146104076103f461043c9f9b9c6103ef8d61036f9f61036f9060c09f6103e78f91604092860151610e9d565b930151610e9d565b61133f565b61040160808d0151610ca3565b506114eb565b61036f60808c0151610ca3565b9e611567565b60a086015190611567565b950151610ca3565b91015190611567565b92610cd1565b91610cd1565b9061046f8151604051610454816109b7565b60098152686c68732e783a20257360b81b6020820152611588565b60208101916104a08351604051610485816109b7565b60098152686c68732e793a20257360b81b6020820152611588565b6104cc81516040516104b1816109b7565b60098152687268732e783a20257360b81b6020820152611588565b60208101916104fd83516040516104e2816109b7565b60098152687268732e793a20257360b81b6020820152611588565b51905114918261056b575b50501561051a57602060405160018152f35b60405162461bcd60e51b815260206004820152602360248201527f496e6e65722070726f6475637420657175616c69747920636865636b206661696044820152621b195960ea1b6064820152608490fd5b5190511490508180610508565b808b6105876105ac9382610b6d565b51610599836401000003d01993610b6d565b5190096105a68287610b6d565b52610b5e565b610399565b806105bf6105df9284610b6d565b516401000003d019906105d28386610b6d565b5190096105a68286610b6d565b610383565b634e487b7160e01b600052603260045260246000fd5b90610605828a610b6d565b516106108385610b6d565b5190825160011c9161062183610b2c565b9360005b84811061064057505050505061063b9091610b5e565b6102d7565b6401000003d0199081856106548386610b6d565b5109918682019283831161068457818661067161067f9688610b6d565b510990086105a68289610b6d565b610625565b634e487b7160e01b600052601160045260246000fd5b806106b16106ab6106bb9389610b6d565b51610bae565b6105a68285610b6d565b6102ca565b600160005b8781106106e15750906106dc916105a68288610b6d565b6102b6565b90610712908c60018086861c161460001461071757506401000003d019906107098489610b6d565b51900991610b5e565b6106c5565b90610709846401000003d01993610b6d565b8061073a6106ab6107449386610b6d565b6105a6828c610b6d565b6102a1565b8060216105a66107599386610b6d565b61028b565b634e487b7160e01b600052604160045260246000fd5b346100b15760403660031901126100b1576001600160401b036004358181116100b1576107a5903690600401610a62565b906024359081116100b1576107ef916107c56107cb923690600401610ace565b90610e9d565b60408051825181526020808401519082015291810151908201529081906060820190565b0390f35b346100b15760c03660031901126100b15761080d366109f3565b60603660631901126100b1576107cb6107ef916040519061082d8261099c565b6064358252608435602083015260a435604083015261133f565b346100b15760403660031901126100b1576107ef6107cb60405161086a816109b7565b60043581526024356020820152610ca3565b346100b15760203660031901126100b1576004356001600160401b0381116100b1576107cb6108b26107ef923690600401610a62565b610f8b565b346100b15760603660031901126100b1576107ef6108dc60443560243560043561137a565b604080519384526020840192909252908201529081906060820190565b346100b15760803660031901126100b1576107ef6108dc606435604435602435600435611480565b346100b15760003660031901126100b157602060405160078152f35b346100b15760603660031901126100b157604061096161095c366109f3565b610cd1565b60208251918051835201516020820152f35b346100b15760803660031901126100b1576107ef6107cb610993366109f3565b60643590611567565b606081019081106001600160401b0382111761075e57604052565b604081019081106001600160401b0382111761075e57604052565b90601f801991011681019081106001600160401b0382111761075e57604052565b60609060031901126100b15760405190610a0c8261099c565b600435825260243560208301526044356040830152565b6001600160401b03811161075e5760051b60200190565b91908260409103126100b157604051610a52816109b7565b6020808294803584520135910152565b9080601f830112156100b1578135916020610a7c84610a23565b93604093610a8c855196876109d2565b818652828087019260061b850101938185116100b1578301915b848310610ab65750505050505090565b838691610ac38486610a3a565b815201920191610aa6565b9080601f830112156100b1576020908235610ae881610a23565b93610af660405195866109d2565b818552838086019260051b8201019283116100b1578301905b828210610b1d575050505090565b81358152908301908301610b0f565b90610b3682610a23565b610b4360405191826109d2565b8281528092610b54601f1991610a23565b0190602036910137565b60001981146106845760010190565b80518210156105e45760209160051b010190565b8115610b8b570490565b634e487b7160e01b600052601260045260246000fd5b9190820391821161068457565b80151580610c74575b80610c6c575b15610c365760009060016401000003d019825b610bda5750505090565b610be8838295939495610b81565b916401000003d0198484096401000003d019036401000003d0198111610684576401000003d01991089293809281810291818304149015171561068457610c2e91610ba1565b919082610bd0565b60405162461bcd60e51b815260206004820152600e60248201526d24b73b30b634b210373ab6b132b960911b6044820152606490fd5b506001610bbd565b506401000003d019811415610bb7565b60405190610c918261099c565b60006040838281528260208201520152565b610cab610c84565b506020815191015160405191610cc08361099c565b825260208201526001604082015290565b602090604051610ce0816109b7565b600092818480935201526040810180519283151580610e81575b80610e79575b15610c3657928360018270014551231950b75fc4402da1732fc9bebe19935b610dc257505050506001908370014551231950b75fc4402da1732fc9bebe1991510903610d8e5770014551231950b75fc4402da1732fc9bebe198282510991602070014551231950b75fc4402da1732fc9bebe199201510960405191610d84836109b7565b8252602082015290565b60405162461bcd60e51b815260206004820152600c60248201526b24b73b30b634b2103d24b73b60a11b6044820152606490fd5b610dd0818598939495610b81565b9170014551231950b75fc4402da1732fc9bebe1984840970014551231950b75fc4402da1732fc9bebe190370014551231950b75fc4402da1732fc9bebe198111610e655770014551231950b75fc4402da1732fc9bebe19910892968192828102928184041490151715610e515790610e4791610ba1565b9092919080610d1f565b634e487b7160e01b85526011600452602485fd5b634e487b7160e01b86526011600452602486fd5b506001610d00565b5070014551231950b75fc4402da1732fc9bebe19841415610cfa565b90610ea6610c84565b508151815103610f545790600091829060019081809486935b610ee4575b5050505060405192610ed58461099c565b83526020830152604082015290565b9193829591939551861015610f4b57908596610f3792610f2d610f0b8899610f4299610b6d565b51610f168b88610b6d565b51516020610f248d8a610b6d565b51015190611415565b9491929093611108565b959194909496610b5e565b92909181610ebf565b93819550610ec4565b60405162461bcd60e51b815260206004820152600f60248201526e098cadccee8d040dad2e6dac2e8c6d608b1b6044820152606490fd5b610f93610c84565b5060009081600180928185925b610fb5575b50505060405192610ed58461099c565b92909384959295518610156110025791610ff091610ffb9493610fd88888610b6d565b5151916020610fe78a8a610b6d565b5101519361100e565b949193909395610b5e565b9180610fa0565b93829550819350610fa5565b9492919385156110fb5782156110f45785831480806110ea575b6110d8576110c357849291839170014551231950b75fc4402da1732fc9bebe19808099819782808080809a816001819c09990961106590896112eb565b94600190099c8d9a09918161107a848c6112eb565b9e8f94818087800994600190099c088209828b81878009099061109c916112eb565b97889382099c09906110ad916112eb565b90099188096110bb916112eb565b960994930990565b5090506110d192919361137a565b9192909190565b50505050915050600090600090600190565b5081831415611028565b5092919050565b9450509091509190600190565b929194959383156112e05782156112d75783831480806112cd575b6112ba576112aa579061116461127a928770014551231950b75fc4402da1732fc9bebe19910970014551231950b75fc4402da1732fc9bebe198984096112eb565b9661119970014551231950b75fc4402da1732fc9bebe1988860970014551231950b75fc4402da1732fc9bebe198388096112eb565b9361121b70014551231950b75fc4402da1732fc9bebe198680099170014551231950b75fc4402da1732fc9bebe19848b099970014551231950b75fc4402da1732fc9bebe1991829182910970014551231950b75fc4402da1732fc9bebe19868b0908830970014551231950b75fc4402da1732fc9bebe198a818d8009096112eb565b986112588a70014551231950b75fc4402da1732fc9bebe198885099870014551231950b75fc4402da1732fc9bebe199485918290889009096112eb565b90099170014551231950b75fc4402da1732fc9bebe19918291098509906112eb565b9470014551231950b75fc4402da1732fc9bebe199109939270014551231950b75fc4402da1732fc9bebe19910990565b509190506110d19392945061137a565b5050505050915050600090600090600190565b5081831415611123565b50945050929190565b959450509050929190565b90808210611314576113109070014551231950b75fc4402da1732fc9bebe1992610ba1565b0690565b61133270014551231950b75fc4402da1732fc9bebe19928392610ba1565b0681039081116106845790565b61136c9161134b610c84565b50815191604060208201519101518251916040602085015194015194611108565b9060405192610ed58461099c565b919290801561140857806113fb6113ed928570014551231950b75fc4402da1732fc9bebe198089819a97828080809b9a818080809e9b8180809e8181819209600009928009600309089783096002099e098d09600209956113e28488600209858580096112eb565b9c8d918d09966112eb565b9009928009600209906112eb565b9484099392818180090990565b5060009250829150600190565b929092600190831561147a576000918295819592835b6114385750505050929190565b60018416611458575b9061144c929161137a565b919260011c928361142b565b9391818561146c9398839a61144c96611108565b909790969194909250611441565b93925090565b93919383156114e4576000918295600191829693845b6114a4575050505050929190565b8385166114c2575b906114b7929161137a565b9193831c9384611496565b949181866114d69399839b6114b796611108565b9098909791959092506114ac565b9390925090565b6114f3610c84565b508051602082015160409092015160009260019284926021928592845b61152657505050505060405192610ed58461099c565b838516611544575b90611539929161137a565b9193831c9384611510565b969181888298611558949861153996611108565b9691959095979091925061152e565b9061136c91611574610c84565b508051906040602082015191015191611480565b60405190602092838301936309710a9d60e41b85526040602485015282519283606486015260005b8481106115fe57505050916115eb60848284600097959688848199850101526044830152601f801991011681010360648101845201826109d2565b51906a636f6e736f6c652e6c6f675afa50565b8181018301518682016084015282016115b056fea26469706673582212209993bead56946dee0765ecce164418838013c261b2e72039d88f1bea4a73177564736f6c63430008150033",
    "linkReferences": {}
  },
  "methodIdentifiers": {
    "A()": "f446c1d0",
    "B()": "32e7c5bf",
    "_mul(uint256,uint256,uint256,uint256)": "37354912",
    "add((uint256,uint256,uint256),(uint256,uint256,uint256))": "a2a36ae5",
    "double(uint256,uint256,uint256)": "44170825",
    "msm_naive((uint256,uint256)[],uint256[])": "aebb1a40",
    "mul((uint256,uint256,uint256),uint256)": "0cd32939",
    "sum((uint256,uint256)[])": "79bcaf3e",
    "toAffine((uint256,uint256,uint256))": "2b9c9ea1",
    "toProjective((uint256,uint256))": "8e6c5703",
    "verify(((uint256,uint256),(uint256,uint256)[],(uint256,uint256)[],(uint256,uint256)[],(uint256,uint256),uint256,uint256,uint256),uint256[],((uint256,uint256)[],(uint256,uint256),(uint256,uint256)),bytes32)": "cc4b457c"
  },
  "id": 4
}