{
  "abi": [
    {
      "inputs": [],
      "stateMutability": "nonpayable",
      "type": "constructor"
    },
    {
      "inputs": [
        {
          "components": [
            {
              "internalType": "uint256",
              "name": "index",
              "type": "uint256"
            },
            {
              "internalType": "uint256",
              "name": "val",
              "type": "uint256"
            }
          ],
          "internalType": "struct LagrangeEntry[]",
          "name": "lagrangePoly",
          "type": "tuple[]"
        },
        {
          "internalType": "uint256[]",
          "name": "x",
          "type": "uint256[]"
        }
      ],
      "name": "eval",
      "outputs": [
        {
          "internalType": "uint256",
          "name": "",
          "type": "uint256"
        }
      ],
      "stateMutability": "nonpayable",
      "type": "function"
    },
    {
      "inputs": [
        {
          "internalType": "uint256[]",
          "name": "r",
          "type": "uint256[]"
        },
        {
          "internalType": "uint256[]",
          "name": "x",
          "type": "uint256[]"
        }
      ],
      "name": "eval",
      "outputs": [
        {
          "internalType": "uint256",
          "name": "",
          "type": "uint256"
        }
      ],
      "stateMutability": "nonpayable",
      "type": "function"
    },
    {
      "inputs": [
        {
          "internalType": "uint256[]",
          "name": "r",
          "type": "uint256[]"
        },
        {
          "internalType": "uint256",
          "name": "x",
          "type": "uint256"
        }
      ],
      "name": "evalAsBits",
      "outputs": [
        {
          "internalType": "uint256",
          "name": "",
          "type": "uint256"
        }
      ],
      "stateMutability": "nonpayable",
      "type": "function"
    },
    {
      "inputs": [
        {
          "internalType": "uint256[]",
          "name": "t",
          "type": "uint256[]"
        }
      ],
      "name": "evals",
      "outputs": [
        {
          "internalType": "uint256[]",
          "name": "",
          "type": "uint256[]"
        }
      ],
      "stateMutability": "pure",
      "type": "function"
    }
  ],
  "bytecode": {
    "object": "0x608080604052346100165761073c908161001c8239f35b600080fdfe6040608081526004908136101561001557600080fd5b6000803560e01c8063286628761461048a57806378a634311461036b578063fbe430e8146102405763fc6b9dd71461004c57600080fd5b3461023d576020928360031936011261023957803567ffffffffffffffff81116102355761007d9036908301610524565b9384519260ff8411610222578492869260019384871b966100a56100a08961050c565b6104d0565b938885526100b28961050c565b8585019990601f1901368b37865b8181106101fb5750508690865b83811061010c5750505050508451948186019282875251809352850195925b8281106100f95785870386f35b83518752958101959281019284016100ec565b82899b99989697981b92808404600214901517156101e8576000198084018481116101d557908c9291805b61014b575b505001999799969594966100cd565b90919261015d8261018f921c8c6105a2565b518b61017d846401000003d019610174898e6105a2565b518509926105a2565b52610188838d6105a2565b51906106ca565b8282018281116101c2576101a3908c6105a2565b528c8082146101bb57508c9291906001190180610137565b929161013c565b634e487b7160e01b8a526011865260248afd5b634e487b7160e01b885260118452602488fd5b634e487b7160e01b865260118252602486fd5b8089610210610216938a9b999a9e9c9e6105a2565b5261057d565b999799969594966100c0565b634e487b7160e01b815260118352602490fd5b8280fd5b5080fd5b80fd5b50903461023957806003193601126102395767ffffffffffffffff8335818111610367576102719036908601610524565b90602435908111610367576102899036908601610524565b93815185510361031a575060019384939190845b6102ac575b6020858551908152f35b90919382518510156103145761030c906102c686856105a2565b51906401000003d0198080936102dc8a886105a2565b519009816102f36102ed8b8a6105a2565b51610689565b6103006102ed8c8a6105a2565b9009900890099461057d565b91908561029d565b936102a2565b608490602084519162461bcd60e51b8352820152602160248201527f7220616e642078206d7573742068617665207468652073616d65206c656e67746044820152600d60fb1b6064820152fd5b8380fd5b503461023d578160031936011261023d5782359267ffffffffffffffff90818511610235573660238601121561023557848101359160246103ae6100a08561050c565b968794808952826020809a019160061b83010191368311610486578301905b8282106104405750505035908111610367576103eb91369101610524565b825b8251841015610437576104319061040f61040786866105a2565b5151846105d9565b906401000003d01980928961042489896105a2565b510151900990089361057d565b926103ed565b85908551908152f35b888236031261048657885189810181811087821117610474578a5282358152828b0135818c015281529088019089016103cd565b634e487b7160e01b8a5260418852858afd5b8780fd5b503461023d578160031936011261023d5782359067ffffffffffffffff821161023d57506104c06020936104c992369101610524565b602435906105d9565b9051908152f35b6040519190601f01601f1916820167ffffffffffffffff8111838210176104f657604052565b634e487b7160e01b600052604160045260246000fd5b67ffffffffffffffff81116104f65760051b60200190565b9080601f830112156105785760209082356105416100a08261050c565b93838086848152019260051b820101928311610578578301905b828210610569575050505090565b8135815290830190830161055b565b600080fd5b600019811461058c5760010190565b634e487b7160e01b600052601160045260246000fd5b80518210156105b65760209160051b010190565b634e487b7160e01b600052603260045260246000fd5b9190820391821161058c57565b906001918281516000935b8185106105f357505050505090565b90919293946000848084891c1614600014610647575061061386846105cc565b60001981019190821161058c5761062d61063e92876105a2565b515b6401000003d01991099561057d565b939291906105e4565b61065187856105cc565b6000198101919082116106755750906106706102ed61063e93886105a2565b61062f565b634e487b7160e01b81526011600452602490fd5b806001106106a8576001036001811161058c576401000003d019900690565b600019810190811161058c576401000003d019809106810390811161058c5790565b908082106106e7576106e3906401000003d019926105cc565b0690565b6106f96401000003d0199283926105cc565b06810390811161058c579056fea26469706673582212201c5ee3bf10997a6d3758397bcad579653388267f77ecadb7a4227b8b565ea3d764736f6c63430008150033",
    "linkReferences": {}
  },
  "methodIdentifiers": {
    "eval((uint256,uint256)[],uint256[])": "78a63431",
    "eval(uint256[],uint256[])": "fbe430e8",
    "evalAsBits(uint256[],uint256)": "28662876",
    "evals(uint256[])": "fc6b9dd7"
  },
  "id": 5
}