{
  "abi": [
    {
      "inputs": [],
      "stateMutability": "nonpayable",
      "type": "constructor"
    },
    {
      "inputs": [],
      "name": "A",
      "outputs": [
        {
          "internalType": "uint256",
          "name": "",
          "type": "uint256"
        }
      ],
      "stateMutability": "view",
      "type": "function"
    },
    {
      "inputs": [],
      "name": "B",
      "outputs": [
        {
          "internalType": "uint256",
          "name": "",
          "type": "uint256"
        }
      ],
      "stateMutability": "view",
      "type": "function"
    },
    {
      "inputs": [
        {
          "internalType": "uint256",
          "name": "px",
          "type": "uint256"
        },
        {
          "internalType": "uint256",
          "name": "py",
          "type": "uint256"
        },
        {
          "internalType": "uint256",
          "name": "pz",
          "type": "uint256"
        },
        {
          "internalType": "uint256",
          "name": "scalar",
          "type": "uint256"
        }
      ],
      "name": "_mul",
      "outputs": [
        {
          "internalType": "uint256",
          "name": "",
          "type": "uint256"
        },
        {
          "internalType": "uint256",
          "name": "",
          "type": "uint256"
        },
        {
          "internalType": "uint256",
          "name": "",
          "type": "uint256"
        }
      ],
      "stateMutability": "view",
      "type": "function"
    },
    {
      "inputs": [
        {
          "components": [
            {
              "internalType": "uint256",
              "name": "x",
              "type": "uint256"
            },
            {
              "internalType": "uint256",
              "name": "y",
              "type": "uint256"
            },
            {
              "internalType": "uint256",
              "name": "z",
              "type": "uint256"
            }
          ],
          "internalType": "struct EvmProjectivePoint",
          "name": "p0",
          "type": "tuple"
        },
        {
          "components": [
            {
              "internalType": "uint256",
              "name": "x",
              "type": "uint256"
            },
            {
              "internalType": "uint256",
              "name": "y",
              "type": "uint256"
            },
            {
              "internalType": "uint256",
              "name": "z",
              "type": "uint256"
            }
          ],
          "internalType": "struct EvmProjectivePoint",
          "name": "p1",
          "type": "tuple"
        }
      ],
      "name": "add",
      "outputs": [
        {
          "components": [
            {
              "internalType": "uint256",
              "name": "x",
              "type": "uint256"
            },
            {
              "internalType": "uint256",
              "name": "y",
              "type": "uint256"
            },
            {
              "internalType": "uint256",
              "name": "z",
              "type": "uint256"
            }
          ],
          "internalType": "struct EvmProjectivePoint",
          "name": "",
          "type": "tuple"
        }
      ],
      "stateMutability": "view",
      "type": "function"
    },
    {
      "inputs": [
        {
          "internalType": "uint256",
          "name": "x",
          "type": "uint256"
        },
        {
          "internalType": "uint256",
          "name": "y",
          "type": "uint256"
        },
        {
          "internalType": "uint256",
          "name": "z",
          "type": "uint256"
        }
      ],
      "name": "double",
      "outputs": [
        {
          "internalType": "uint256",
          "name": "",
          "type": "uint256"
        },
        {
          "internalType": "uint256",
          "name": "",
          "type": "uint256"
        },
        {
          "internalType": "uint256",
          "name": "",
          "type": "uint256"
        }
      ],
      "stateMutability": "view",
      "type": "function"
    },
    {
      "inputs": [
        {
          "components": [
            {
              "internalType": "uint256",
              "name": "x",
              "type": "uint256"
            },
            {
              "internalType": "uint256",
              "name": "y",
              "type": "uint256"
            }
          ],
          "internalType": "struct EvmAffinePoint[]",
          "name": "bases",
          "type": "tuple[]"
        },
        {
          "internalType": "uint256[]",
          "name": "scalars",
          "type": "uint256[]"
        }
      ],
      "name": "msm_naive",
      "outputs": [
        {
          "components": [
            {
              "internalType": "uint256",
              "name": "x",
              "type": "uint256"
            },
            {
              "internalType": "uint256",
              "name": "y",
              "type": "uint256"
            },
            {
              "internalType": "uint256",
              "name": "z",
              "type": "uint256"
            }
          ],
          "internalType": "struct EvmProjectivePoint",
          "name": "",
          "type": "tuple"
        }
      ],
      "stateMutability": "view",
      "type": "function"
    },
    {
      "inputs": [
        {
          "components": [
            {
              "internalType": "uint256",
              "name": "x",
              "type": "uint256"
            },
            {
              "internalType": "uint256",
              "name": "y",
              "type": "uint256"
            },
            {
              "internalType": "uint256",
              "name": "z",
              "type": "uint256"
            }
          ],
          "internalType": "struct EvmProjectivePoint",
          "name": "point",
          "type": "tuple"
        },
        {
          "internalType": "uint256",
          "name": "scalar",
          "type": "uint256"
        }
      ],
      "name": "mul",
      "outputs": [
        {
          "components": [
            {
              "internalType": "uint256",
              "name": "x",
              "type": "uint256"
            },
            {
              "internalType": "uint256",
              "name": "y",
              "type": "uint256"
            },
            {
              "internalType": "uint256",
              "name": "z",
              "type": "uint256"
            }
          ],
          "internalType": "struct EvmProjectivePoint",
          "name": "",
          "type": "tuple"
        }
      ],
      "stateMutability": "view",
      "type": "function"
    },
    {
      "inputs": [
        {
          "components": [
            {
              "internalType": "uint256",
              "name": "x",
              "type": "uint256"
            },
            {
              "internalType": "uint256",
              "name": "y",
              "type": "uint256"
            }
          ],
          "internalType": "struct EvmAffinePoint[]",
          "name": "points",
          "type": "tuple[]"
        }
      ],
      "name": "sum",
      "outputs": [
        {
          "components": [
            {
              "internalType": "uint256",
              "name": "x",
              "type": "uint256"
            },
            {
              "internalType": "uint256",
              "name": "y",
              "type": "uint256"
            },
            {
              "internalType": "uint256",
              "name": "z",
              "type": "uint256"
            }
          ],
          "internalType": "struct EvmProjectivePoint",
          "name": "",
          "type": "tuple"
        }
      ],
      "stateMutability": "nonpayable",
      "type": "function"
    },
    {
      "inputs": [
        {
          "components": [
            {
              "internalType": "uint256",
              "name": "x",
              "type": "uint256"
            },
            {
              "internalType": "uint256",
              "name": "y",
              "type": "uint256"
            },
            {
              "internalType": "uint256",
              "name": "z",
              "type": "uint256"
            }
          ],
          "internalType": "struct EvmProjectivePoint",
          "name": "point",
          "type": "tuple"
        }
      ],
      "name": "toAffine",
      "outputs": [
        {
          "components": [
            {
              "internalType": "uint256",
              "name": "x",
              "type": "uint256"
            },
            {
              "internalType": "uint256",
              "name": "y",
              "type": "uint256"
            }
          ],
          "internalType": "struct EvmAffinePoint",
          "name": "",
          "type": "tuple"
        }
      ],
      "stateMutability": "pure",
      "type": "function"
    },
    {
      "inputs": [
        {
          "components": [
            {
              "internalType": "uint256",
              "name": "x",
              "type": "uint256"
            },
            {
              "internalType": "uint256",
              "name": "y",
              "type": "uint256"
            }
          ],
          "internalType": "struct EvmAffinePoint",
          "name": "point",
          "type": "tuple"
        }
      ],
      "name": "toProjective",
      "outputs": [
        {
          "components": [
            {
              "internalType": "uint256",
              "name": "x",
              "type": "uint256"
            },
            {
              "internalType": "uint256",
              "name": "y",
              "type": "uint256"
            },
            {
              "internalType": "uint256",
              "name": "z",
              "type": "uint256"
            }
          ],
          "internalType": "struct EvmProjectivePoint",
          "name": "",
          "type": "tuple"
        }
      ],
      "stateMutability": "pure",
      "type": "function"
    }
  ],
  "bytecode": {
    "object": "0x6080806040523461001657610dab908161001c8239f35b600080fdfe6040608081526004908136101561001557600080fd5b600091823560e01c9081630cd32939146106e25781632b9c9ea1146104d457816332e7c5bf146104b8578163373549121461048b578163441708251461044657816379bcaf3e146103895781638e6c570314610314578163a2a36ae514610263578163aebb1a40146100ae575063f446c1d01461009157600080fd5b346100aa57816003193601126100aa5751908152602090f35b5080fd5b9190503461025f578060031936011261025f5767ffffffffffffffff9282358481116100aa576100e190369085016107e7565b6024359485116100aa57366023860112156100aa57848401359361010c610107866107cf565b610778565b958695808852602460208099019160051b8301019136831161025b57906024899201905b83821061024c575050505061014361085a565b50815185510361021757509281938291600180928195935b6101a3575b5050505061019f94610170610722565b948552840152818301525191829182919091604080606083019480518452602081015160208501520151910152565b0390f35b92969093839592955188101561020b57916101f7916102029594936101ed6101cb8b8a6108a9565b518b8d6101e46101db838b6108a9565b5151928a6108a9565b51015190610c9f565b94919290936109cd565b95919490949761089a565b9290918161015b565b93819750829550610160565b835162461bcd60e51b8152908101869052600f60248201526e098cadccee8d040dad2e6dac2e8c6d608b1b6044820152606490fd5b81358152908201908201610130565b8580fd5b8280fd5b5050346100aa5760c03660031901126100aa5761027f3661079e565b91606036606319011261031157506102d461019f9261029c610722565b60643581526020810160843581528482019160a43583526102bb61085a565b50835193866020820151910151915192519351946109cd565b906102e0939293610722565b9384526020840152818301525191829182919091604080606083019480518452602081015160208501520151910152565b80fd5b9190503461025f578060031936011261025f5761019f9250610334610758565b913582526020820191602435835261034a61085a565b50519151610356610722565b92835260208301526001818301525191829182919091604080606083019480518452602081015160208501520151910152565b9190503461025f57602091826003193601126104425780359067ffffffffffffffff821161043e576103bd913691016107e7565b926103c661085a565b5080928190600180968194915b6103e7575b505061019f9550610170610722565b938496929391965187101561043357916104219161042c949361040a89886108a9565b515191856104188b8a6108a9565b510151936108d3565b94919390939661089a565b90876103d3565b9381939296506103d8565b8480fd5b8380fd5b828434610311576060366003190112610311575061046f61019f92604435906024359035610c04565b9251918252602082015260408101919091529081906060820190565b828434610311576080366003190112610311575061046f61019f9260643590604435906024359035610d0a565b5050346100aa57816003193601126100aa576020905160078152f35b839150346100aa5760603660031901126100aa576104f13661079e565b6104f9610758565b91838352836020809401528482018051801515806106c6575b806106be575b1561068a57856001908270014551231950b75fc4402da1732fc9bebe19935b6105dd57505050506001908570014551231950b75fc4402da1732fc9bebe19915109036105ab575070014551231950b75fc4402da1732fc9bebe1983825109928270014551231950b75fc4402da1732fc9bebe199201510981610598610758565b8481520190815283519283525190820152f35b845162461bcd60e51b8152908101839052600c60248201526b24b73b30b634b2103d24b73b60a11b6044820152606490fd5b929791928089049270014551231950b75fc4402da1732fc9bebe1985850970014551231950b75fc4402da1732fc9bebe190370014551231950b75fc4402da1732fc9bebe1981116106775770014551231950b75fc4402da1732fc9bebe19910893988193828102928184041490151715610664579061065b91610877565b91929180610537565b634e487b7160e01b835260118752602483fd5b634e487b7160e01b845260118852602484fd5b865162461bcd60e51b8152808401869052600e60248201526d24b73b30b634b210373ab6b132b960911b6044820152606490fd5b506001610518565b5070014551231950b75fc4402da1732fc9bebe19811415610512565b5050346100aa5760803660031901126100aa5761019f906102d46107053661079e565b61070d61085a565b50805160208201518460643593015191610d0a565b604051906060820182811067ffffffffffffffff82111761074257604052565b634e487b7160e01b600052604160045260246000fd5b604051906040820182811067ffffffffffffffff82111761074257604052565b6040519190601f01601f1916820167ffffffffffffffff81118382101761074257604052565b60609060031901126107ca576107b2610722565b90600435825260243560208301526044356040830152565b600080fd5b67ffffffffffffffff81116107425760051b60200190565b81601f820112156107ca578035906020610803610107846107cf565b93818086868152019460061b840101928184116107ca578201935b83851061082d57505050505090565b6040858303126107ca5782604091610843610758565b87358152828801358382015281520194019361081e565b610862610722565b90600082526000602083015260006040830152565b9190820391821161088457565b634e487b7160e01b600052601160045260246000fd5b60001981146108845760010190565b80518210156108bd5760209160051b010190565b634e487b7160e01b600052603260045260246000fd5b9492919385156109c05782156109b95785831480806109af575b61099d5761098857849291839170014551231950b75fc4402da1732fc9bebe19808099819782808080809a816001819c09990961092a9089610bb0565b94600190099c8d9a09918161093f848c610bb0565b9e8f94818087800994600190099c088209828b81878009099061096191610bb0565b97889382099c099061097291610bb0565b900991880961098091610bb0565b960994930990565b509050610996929193610c04565b9192909190565b50505050915050600090600090600190565b50818314156108ed565b5092919050565b9450509091509190600190565b92919495938315610ba5578215610b9c578383148080610b92575b610b7f57610b6f5790610a29610b3f928770014551231950b75fc4402da1732fc9bebe19910970014551231950b75fc4402da1732fc9bebe19898409610bb0565b96610a5e70014551231950b75fc4402da1732fc9bebe1988860970014551231950b75fc4402da1732fc9bebe19838809610bb0565b93610ae070014551231950b75fc4402da1732fc9bebe198680099170014551231950b75fc4402da1732fc9bebe19848b099970014551231950b75fc4402da1732fc9bebe1991829182910970014551231950b75fc4402da1732fc9bebe19868b0908830970014551231950b75fc4402da1732fc9bebe198a818d800909610bb0565b98610b1d8a70014551231950b75fc4402da1732fc9bebe198885099870014551231950b75fc4402da1732fc9bebe19948591829088900909610bb0565b90099170014551231950b75fc4402da1732fc9bebe1991829109850990610bb0565b9470014551231950b75fc4402da1732fc9bebe199109939270014551231950b75fc4402da1732fc9bebe19910990565b5091905061099693929450610c04565b5050505050915050600090600090600190565b50818314156109e8565b50945050929190565b959450509050929190565b90808210610bd957610bd59070014551231950b75fc4402da1732fc9bebe1992610877565b0690565b610bf770014551231950b75fc4402da1732fc9bebe19928392610877565b0681039081116108845790565b9192908015610c925780610c85610c77928570014551231950b75fc4402da1732fc9bebe198089819a97828080809b9a818080809e9b8180809e8181819209600009928009600309089783096002099e098d0960020995610c6c848860020985858009610bb0565b9c8d918d0996610bb0565b900992800960020990610bb0565b9484099392818180090990565b5060009250829150600190565b9290926001908315610d04576000918295819592835b610cc25750505050929190565b60018416610ce2575b90610cd69291610c04565b919260011c9283610cb5565b93918185610cf69398839a610cd6966109cd565b909790969194909250610ccb565b93925090565b9391938315610d6e576000918295600191829693845b610d2e575050505050929190565b838516610d4c575b90610d419291610c04565b9193831c9384610d20565b94918186610d609399839b610d41966109cd565b909890979195909250610d36565b939092509056fea2646970667358221220ded7c56b20c533ca03567bf15bdde10297c6a10298be547d166ef08bf39b276464736f6c63430008150033",
    "linkReferences": {}
  },
  "methodIdentifiers": {
    "A()": "f446c1d0",
    "B()": "32e7c5bf",
    "_mul(uint256,uint256,uint256,uint256)": "37354912",
    "add((uint256,uint256,uint256),(uint256,uint256,uint256))": "a2a36ae5",
    "double(uint256,uint256,uint256)": "44170825",
    "msm_naive((uint256,uint256)[],uint256[])": "aebb1a40",
    "mul((uint256,uint256,uint256),uint256)": "0cd32939",
    "sum((uint256,uint256)[])": "79bcaf3e",
    "toAffine((uint256,uint256,uint256))": "2b9c9ea1",
    "toProjective((uint256,uint256))": "8e6c5703"
  },
  "id": 5
}