{
  "abi": [
    {
      "inputs": [],
      "name": "MODULUS",
      "outputs": [
        {
          "internalType": "uint256",
          "name": "",
          "type": "uint256"
        }
      ],
      "stateMutability": "view",
      "type": "function"
    }
  ],
  "bytecode": {
    "object": "0x608080604052346018576086908161001e823930815050f35b600080fdfe6080806040526004361015601257600080fd5b60003560e01c6325aa322c14602657600080fd5b6000366003190112604b5770014551231950b75fc4402da1732fc9bebe198152602090f35b600080fdfea26469706673582212202903bab0e6ed90856a1f5223dc34f19c54352588d3473ddd1c916eb84865ff4364736f6c63430008150033",
    "linkReferences": {}
  },
  "methodIdentifiers": {
    "MODULUS()": "25aa322c"
  },
  "id": 1
}