{
  "abi": [
    {
      "inputs": [],
      "name": "MODULUS",
      "outputs": [
        {
          "internalType": "uint256",
          "name": "",
          "type": "uint256"
        }
      ],
      "stateMutability": "view",
      "type": "function"
    }
  ],
  "bytecode": {
    "object": "0x60808060405234601857607a908161001e823930815050f35b600080fdfe6080806040526004361015601257600080fd5b60003560e01c6325aa322c14602657600080fd5b6000366003190112603f576401000003d0198152602090f35b600080fdfea264697066735822122052a194dac92571c46d6686c8dc43c060249ea728dbed075f4ce26b40c61c6ac464736f6c63430008150033",
    "linkReferences": {}
  },
  "methodIdentifiers": {
    "MODULUS()": "25aa322c"
  },
  "id": 2
}