{
  "abi": [
    {
      "inputs": [],
      "stateMutability": "nonpayable",
      "type": "constructor"
    },
    {
      "inputs": [
        {
          "internalType": "uint256[]",
          "name": "r",
          "type": "uint256[]"
        },
        {
          "internalType": "uint256[]",
          "name": "x",
          "type": "uint256[]"
        }
      ],
      "name": "eval",
      "outputs": [
        {
          "internalType": "uint256",
          "name": "",
          "type": "uint256"
        }
      ],
      "stateMutability": "nonpayable",
      "type": "function"
    },
    {
      "inputs": [
        {
          "internalType": "uint256[]",
          "name": "r",
          "type": "uint256[]"
        },
        {
          "internalType": "uint256",
          "name": "x",
          "type": "uint256"
        }
      ],
      "name": "evalAsBits",
      "outputs": [
        {
          "internalType": "uint256",
          "name": "",
          "type": "uint256"
        }
      ],
      "stateMutability": "nonpayable",
      "type": "function"
    },
    {
      "inputs": [
        {
          "internalType": "uint256[]",
          "name": "t",
          "type": "uint256[]"
        }
      ],
      "name": "evals",
      "outputs": [
        {
          "internalType": "uint256[]",
          "name": "",
          "type": "uint256[]"
        }
      ],
      "stateMutability": "pure",
      "type": "function"
    }
  ],
  "bytecode": {
    "object": "0x60808060405234610016576105ff908161001c8239f35b600080fdfe6040608081526004908136101561001557600080fd5b6000803560e01c80632866287614610360578063fbe430e8146102355763fc6b9dd71461004157600080fd5b34610232576020928360031936011261022e57803567ffffffffffffffff811161022a576100729036908301610497565b9384519260ff8411610217578492869260019384871b9661009a6100958961047f565b610443565b938885526100a78961047f565b8585019990601f1901368b37865b8181106101f05750508690865b8381106101015750505050508451948186019282875251809352850195925b8281106100ee5785870386f35b83518752958101959281019284016100e1565b82899b99989697981b92808404600214901517156101dd576000198084018481116101ca57908c9291805b610140575b505001999799969594966100c2565b90919261015282610184921c8c610515565b518b610172846401000003d019610169898e610515565b51850992610515565b5261017d838d610515565b519061058d565b8282018281116101b757610198908c610515565b528c8082146101b057508c929190600119018061012c565b9291610131565b634e487b7160e01b8a526011865260248afd5b634e487b7160e01b885260118452602488fd5b634e487b7160e01b865260118252602486fd5b808961020561020b938a9b999a9e9c9e610515565b526104f0565b999799969594966100b5565b634e487b7160e01b815260118352602490fd5b8280fd5b5080fd5b80fd5b50903461022e578060031936011261022e5767ffffffffffffffff833581811161035c576102669036908601610497565b9060243590811161035c5761027e9036908601610497565b93815185510361030f575060019384939190845b6102a1575b6020858551908152f35b909193825185101561030957610301906102bb8685610515565b51906401000003d0198080936102d18a88610515565b519009816102e86102e28b8a610515565b5161054c565b6102f56102e28c8a610515565b900990089009946104f0565b919085610292565b93610297565b608490602084519162461bcd60e51b8352820152602160248201527f7220616e642078206d7573742068617665207468652073616d65206c656e67746044820152600d60fb1b6064820152fd5b8380fd5b50903461022e578060031936011261022e57823567ffffffffffffffff811161022a576103909036908501610497565b80516001939160248035928490875b8187106103b0576020898951908152f35b909192939495978180888b1c1614600014610417576103cf898461053f565b600019810190811161040557906103e96103fa9288610515565b515b6401000003d0199109986104f0565b95949392919061039f565b634e487b7160e01b855260118b528585fd5b610421898461053f565b6000198101908111610405579061043e6102e26103fa9389610515565b6103eb565b6040519190601f01601f1916820167ffffffffffffffff81118382101761046957604052565b634e487b7160e01b600052604160045260246000fd5b67ffffffffffffffff81116104695760051b60200190565b9080601f830112156104eb5760209082356104b46100958261047f565b93838086848152019260051b8201019283116104eb578301905b8282106104dc575050505090565b813581529083019083016104ce565b600080fd5b60001981146104ff5760010190565b634e487b7160e01b600052601160045260246000fd5b80518210156105295760209160051b010190565b634e487b7160e01b600052603260045260246000fd5b919082039182116104ff57565b8060011061056b57600103600181116104ff576401000003d019900690565b60001981019081116104ff576401000003d01980910681039081116104ff5790565b908082106105aa576105a6906401000003d0199261053f565b0690565b6105bc6401000003d01992839261053f565b0681039081116104ff579056fea2646970667358221220edcb632bf13bb2755f9e957cda647dd9a16ba258eeb61c66c4a67a95e56ea95564736f6c63430008150033",
    "linkReferences": {}
  },
  "methodIdentifiers": {
    "eval(uint256[],uint256[])": "fbe430e8",
    "evalAsBits(uint256[],uint256)": "28662876",
    "evals(uint256[])": "fc6b9dd7"
  },
  "id": 1
}