{
  "abi": [
    {
      "inputs": [],
      "stateMutability": "nonpayable",
      "type": "constructor"
    },
    {
      "inputs": [],
      "name": "A",
      "outputs": [
        {
          "internalType": "uint256",
          "name": "",
          "type": "uint256"
        }
      ],
      "stateMutability": "view",
      "type": "function"
    },
    {
      "inputs": [],
      "name": "B",
      "outputs": [
        {
          "internalType": "uint256",
          "name": "",
          "type": "uint256"
        }
      ],
      "stateMutability": "view",
      "type": "function"
    },
    {
      "inputs": [],
      "name": "BIT_LENGTH",
      "outputs": [
        {
          "internalType": "uint256",
          "name": "",
          "type": "uint256"
        }
      ],
      "stateMutability": "view",
      "type": "function"
    },
    {
      "inputs": [],
      "name": "GX",
      "outputs": [
        {
          "internalType": "uint256",
          "name": "",
          "type": "uint256"
        }
      ],
      "stateMutability": "view",
      "type": "function"
    },
    {
      "inputs": [],
      "name": "GY",
      "outputs": [
        {
          "internalType": "uint256",
          "name": "",
          "type": "uint256"
        }
      ],
      "stateMutability": "view",
      "type": "function"
    },
    {
      "inputs": [],
      "name": "MODULUS",
      "outputs": [
        {
          "internalType": "uint256",
          "name": "",
          "type": "uint256"
        }
      ],
      "stateMutability": "view",
      "type": "function"
    },
    {
      "inputs": [
        {
          "components": [
            {
              "internalType": "uint256",
              "name": "x",
              "type": "uint256"
            },
            {
              "internalType": "uint256",
              "name": "y",
              "type": "uint256"
            },
            {
              "internalType": "uint256",
              "name": "z",
              "type": "uint256"
            }
          ],
          "internalType": "struct EvmProjectivePoint",
          "name": "p0",
          "type": "tuple"
        },
        {
          "components": [
            {
              "internalType": "uint256",
              "name": "x",
              "type": "uint256"
            },
            {
              "internalType": "uint256",
              "name": "y",
              "type": "uint256"
            },
            {
              "internalType": "uint256",
              "name": "z",
              "type": "uint256"
            }
          ],
          "internalType": "struct EvmProjectivePoint",
          "name": "p1",
          "type": "tuple"
        }
      ],
      "name": "add",
      "outputs": [
        {
          "internalType": "uint256",
          "name": "",
          "type": "uint256"
        },
        {
          "internalType": "uint256",
          "name": "",
          "type": "uint256"
        },
        {
          "internalType": "uint256",
          "name": "",
          "type": "uint256"
        }
      ],
      "stateMutability": "view",
      "type": "function"
    },
    {
      "inputs": [
        {
          "internalType": "uint256",
          "name": "x",
          "type": "uint256"
        },
        {
          "internalType": "uint256",
          "name": "y",
          "type": "uint256"
        },
        {
          "internalType": "uint256",
          "name": "z",
          "type": "uint256"
        }
      ],
      "name": "double",
      "outputs": [
        {
          "internalType": "uint256",
          "name": "",
          "type": "uint256"
        },
        {
          "internalType": "uint256",
          "name": "",
          "type": "uint256"
        },
        {
          "internalType": "uint256",
          "name": "",
          "type": "uint256"
        }
      ],
      "stateMutability": "view",
      "type": "function"
    },
    {
      "inputs": [
        {
          "components": [
            {
              "internalType": "uint256",
              "name": "x",
              "type": "uint256"
            },
            {
              "internalType": "uint256",
              "name": "y",
              "type": "uint256"
            },
            {
              "internalType": "uint256",
              "name": "z",
              "type": "uint256"
            }
          ],
          "internalType": "struct EvmProjectivePoint[]",
          "name": "bases",
          "type": "tuple[]"
        },
        {
          "internalType": "uint8[][]",
          "name": "buckets",
          "type": "uint8[][]"
        }
      ],
      "name": "msm",
      "outputs": [
        {
          "internalType": "uint256",
          "name": "",
          "type": "uint256"
        },
        {
          "internalType": "uint256",
          "name": "",
          "type": "uint256"
        },
        {
          "internalType": "uint256",
          "name": "",
          "type": "uint256"
        }
      ],
      "stateMutability": "view",
      "type": "function"
    },
    {
      "inputs": [
        {
          "components": [
            {
              "internalType": "uint256",
              "name": "x",
              "type": "uint256"
            },
            {
              "internalType": "uint256",
              "name": "y",
              "type": "uint256"
            },
            {
              "internalType": "uint256",
              "name": "z",
              "type": "uint256"
            }
          ],
          "internalType": "struct EvmProjectivePoint[]",
          "name": "bases",
          "type": "tuple[]"
        },
        {
          "internalType": "uint256[]",
          "name": "scalars",
          "type": "uint256[]"
        }
      ],
      "name": "msm_naive",
      "outputs": [
        {
          "internalType": "uint256",
          "name": "",
          "type": "uint256"
        },
        {
          "internalType": "uint256",
          "name": "",
          "type": "uint256"
        },
        {
          "internalType": "uint256",
          "name": "",
          "type": "uint256"
        }
      ],
      "stateMutability": "view",
      "type": "function"
    },
    {
      "inputs": [
        {
          "components": [
            {
              "internalType": "uint256",
              "name": "x",
              "type": "uint256"
            },
            {
              "internalType": "uint256",
              "name": "y",
              "type": "uint256"
            },
            {
              "internalType": "uint256",
              "name": "z",
              "type": "uint256"
            }
          ],
          "internalType": "struct EvmProjectivePoint",
          "name": "point",
          "type": "tuple"
        },
        {
          "internalType": "uint256",
          "name": "scalar",
          "type": "uint256"
        }
      ],
      "name": "mul",
      "outputs": [
        {
          "internalType": "uint256",
          "name": "",
          "type": "uint256"
        },
        {
          "internalType": "uint256",
          "name": "",
          "type": "uint256"
        },
        {
          "internalType": "uint256",
          "name": "",
          "type": "uint256"
        }
      ],
      "stateMutability": "view",
      "type": "function"
    },
    {
      "inputs": [
        {
          "internalType": "uint256",
          "name": "a",
          "type": "uint256"
        },
        {
          "internalType": "uint256",
          "name": "b",
          "type": "uint256"
        }
      ],
      "name": "submod",
      "outputs": [
        {
          "internalType": "uint256",
          "name": "",
          "type": "uint256"
        }
      ],
      "stateMutability": "pure",
      "type": "function"
    }
  ],
  "bytecode": {
    "object": "0x6080806040523461001657610bd8908161001c8239f35b600080fdfe608060408181526004918236101561001657600080fd5b600092833560e01c918262fab5ed146106a05750816303a507be146106655781630cd329391461063957816325aa322c1461060c57816332e7c5bf146105f05781633606de6d146105c6578163441708251461059d578163584d06cd146104245781637a308a4c146103e9578163a2a36ae514610377578163d4bf3000146100c5575063f446c1d0146100a857600080fd5b346100c157816003193601126100c15751908152602090f35b5080fd5b9190503461037357806003193601126103735767ffffffffffffffff91803583811161036f576100f89036908301610761565b50602480359184831161036b573660238401121561036b578201359161012561012084610749565b6106f2565b94859380875260208097019184600592831b850101933685116103675785819998979901935b8585106102db578a8a8a8a61015e6106bc565b7f79be667ef9dcbbac55a06295ce870b07029bfcdb2dce28d959f2815b16f817988152828101927f483ada7726a3c4655da4fbfc0e1108a8fd17b448a68554199c47d08ffb10d4b8845282820194600191828752826101bb6106bc565b8981528183820152898782015298809381925b6101f4575b865189518b518a5192835260208301919091526040820152606090f35b0390f35b80518310156102d65761020783826107df565b519a866102126106bc565b8481528187820152848b8201529c84915b610290575b5050825b86811061026957506102448798999a9b9c8892610880565b9061024d6106bc565b928352878301528b8201529b9a99989795871b959301926101ce565b9b610275818992610880565b9061027e6106bc565b928352888301528b8201529c0161022c565b909c8d825111156102d05790886102b48f82946102ae8e92866107df565b50610880565b906102bd6106bc565b9283528a8301528d8201529e0191610223565b9c610228565b6101d3565b8499979899358381116103635782019036604383011215610363578a6044838a01358161030a61012083610749565b93848381520191891b8601019136831161035f578e95929192015b81811061033f57505050815297999897948101940161014b565b80359550909160ff8616860361035f579485528d94850191908501610325565b8f80fd5b8b80fd5b8980fd5b8580fd5b8480fd5b8280fd5b5050346100c15760c03660031901126100c15761039336610718565b9160603660631901126103e657506103ca6101f0926103b06106bc565b906064358252608435602083015260a43584830152610880565b9251918252602082015260408101919091529081906060820190565b80fd5b5050346100c157816003193601126100c157602090517f483ada7726a3c4655da4fbfc0e1108a8fd17b448a68554199c47d08ffb10d4b88152f35b8383346100c157806003193601126100c15767ffffffffffffffff908335828111610599576104569036908601610761565b916024803591821161036f573660238301121561036f57818601359061047e61012083610749565b9283928085528260208096019160051b8301019136831161059557928099969594979301905b8282106105865750505085948660019889918297819b5b6104d8575b87518a8152602081018c9052604081018a9052606090f35b92959991949890939789518c101561057a579061054292918b6105138b8f808f61050c92610505916107df565b51926107df565b5190610ad8565b93919590926105206106bc565b9586528501528a8401526105326106bc565b9384528c84015288830152610880565b909991989097906000198c14610567579a86019a9195919490939192909190836104bb565b5050634e487b7160e01b83525060119052fd5b97829a508199506104c0565b813581529084019084016104a4565b8880fd5b8380fd5b8284346103e65760603660031901126103e657506103ca6101f092604435906024359035610a3d565b8284346103e657816003193601126103e657506105e9602092602435903561082c565b9051908152f35b5050346100c157816003193601126100c1576020905160078152f35b5050346100c157816003193601126100c1575170014551231950b75fc4402da1732fc9bebe198152602090f35b5050346100c15760803660031901126100c1576101f0906103ca61065c36610718565b60643590610ad8565b5050346100c157816003193601126100c157602090517f79be667ef9dcbbac55a06295ce870b07029bfcdb2dce28d959f2815b16f817988152f35b8490346100c157816003193601126100c1578061010060209252f35b604051906060820182811067ffffffffffffffff8211176106dc57604052565b634e487b7160e01b600052604160045260246000fd5b6040519190601f01601f1916820167ffffffffffffffff8111838210176106dc57604052565b60609060031901126107445761072c6106bc565b90600435825260243560208301526044356040830152565b600080fd5b67ffffffffffffffff81116106dc5760051b60200190565b81601f8201121561074457803590602061077d61012084610749565b938185858152019082606080960285010193818511610744578301915b8483106107aa5750505050505090565b8583830312610744578386916107be6106bc565b8535815282860135838201526040808701359082015281520192019161079a565b80518210156107f35760209160051b010190565b634e487b7160e01b600052603260045260246000fd5b9190820391821161081657565b634e487b7160e01b600052601160045260246000fd5b90808210610855576108519070014551231950b75fc4402da1732fc9bebe1992610809565b0690565b61087370014551231950b75fc4402da1732fc9bebe19928392610809565b0681039081116108165790565b9182518015610a2957825115610a1757506020830151604083015170014551231950b75fc4402da1732fc9bebe1991096020830151926109e76108df604087019570014551231950b75fc4402da1732fc9bebe1990875190098461082c565b9551604083015170014551231950b75fc4402da1732fc9bebe19910992825170014551231950b75fc4402da1732fc9bebe19908751900995610990610924888761082c565b9470014551231950b75fc4402da1732fc9bebe198680099251604070014551231950b75fc4402da1732fc9bebe1992015190099770014551231950b75fc4402da1732fc9bebe199081908808830970014551231950b75fc4402da1732fc9bebe1989818c80090961082c565b976109c88970014551231950b75fc4402da1732fc9bebe198785099770014551231950b75fc4402da1732fc9bebe199485910961082c565b90099070014551231950b75fc4402da1732fc9bebe199085099061082c565b9470014551231950b75fc4402da1732fc9bebe199109939270014551231950b75fc4402da1732fc9bebe19910990565b91506040602084015193015191929190565b508151602083015160409093015190935090565b9192908015610acb5780610abe610ab0928570014551231950b75fc4402da1732fc9bebe198089819a97828080809b9a818080809e9b8180809e8181819209600009928009600309089783096002099e098d0960020995610aa584886002098585800961082c565b9c8d918d099661082c565b90099280096002099061082c565b9484099392818180090990565b5060009250829150600190565b918115610b8e57600092919280936001938481519060209081840151916040809501519593845b610b0f5750505050505050929190565b929599610b20929599919497610a3d565b99919890968a99889b8199610b336106bc565b9283528783015283820152610b466106bc565b9085825288878301528484830152878316610b6f575b5050851c95869491959296939093610aff565b919850919950610b80929a50610880565b999199989099963880610b5c565b82516020840151604090940151909392509056fea264697066735822122043a5f16486c13e95125001cab5f25aef08bd461d4e36f61daf5f1c68031fa1ae64736f6c63430008150033",
    "linkReferences": {}
  },
  "methodIdentifiers": {
    "A()": "f446c1d0",
    "B()": "32e7c5bf",
    "BIT_LENGTH()": "00fab5ed",
    "GX()": "03a507be",
    "GY()": "7a308a4c",
    "MODULUS()": "25aa322c",
    "add((uint256,uint256,uint256),(uint256,uint256,uint256))": "a2a36ae5",
    "double(uint256,uint256,uint256)": "44170825",
    "msm((uint256,uint256,uint256)[],uint8[][])": "d4bf3000",
    "msm_naive((uint256,uint256,uint256)[],uint256[])": "584d06cd",
    "mul((uint256,uint256,uint256),uint256)": "0cd32939",
    "submod(uint256,uint256)": "3606de6d"
  },
  "id": 4
}