{
  "abi": [
    {
      "inputs": [],
      "stateMutability": "nonpayable",
      "type": "constructor"
    },
    {
      "inputs": [],
      "name": "A",
      "outputs": [
        {
          "internalType": "uint256",
          "name": "",
          "type": "uint256"
        }
      ],
      "stateMutability": "view",
      "type": "function"
    },
    {
      "inputs": [],
      "name": "B",
      "outputs": [
        {
          "internalType": "uint256",
          "name": "",
          "type": "uint256"
        }
      ],
      "stateMutability": "view",
      "type": "function"
    },
    {
      "inputs": [
        {
          "internalType": "uint256",
          "name": "px",
          "type": "uint256"
        },
        {
          "internalType": "uint256",
          "name": "py",
          "type": "uint256"
        },
        {
          "internalType": "uint256",
          "name": "pz",
          "type": "uint256"
        },
        {
          "internalType": "uint256",
          "name": "scalar",
          "type": "uint256"
        }
      ],
      "name": "_mul",
      "outputs": [
        {
          "internalType": "uint256",
          "name": "",
          "type": "uint256"
        },
        {
          "internalType": "uint256",
          "name": "",
          "type": "uint256"
        },
        {
          "internalType": "uint256",
          "name": "",
          "type": "uint256"
        }
      ],
      "stateMutability": "view",
      "type": "function"
    },
    {
      "inputs": [
        {
          "components": [
            {
              "internalType": "uint256",
              "name": "x",
              "type": "uint256"
            },
            {
              "internalType": "uint256",
              "name": "y",
              "type": "uint256"
            },
            {
              "internalType": "uint256",
              "name": "z",
              "type": "uint256"
            }
          ],
          "internalType": "struct EvmProjectivePoint",
          "name": "p0",
          "type": "tuple"
        },
        {
          "components": [
            {
              "internalType": "uint256",
              "name": "x",
              "type": "uint256"
            },
            {
              "internalType": "uint256",
              "name": "y",
              "type": "uint256"
            },
            {
              "internalType": "uint256",
              "name": "z",
              "type": "uint256"
            }
          ],
          "internalType": "struct EvmProjectivePoint",
          "name": "p1",
          "type": "tuple"
        }
      ],
      "name": "add",
      "outputs": [
        {
          "components": [
            {
              "internalType": "uint256",
              "name": "x",
              "type": "uint256"
            },
            {
              "internalType": "uint256",
              "name": "y",
              "type": "uint256"
            },
            {
              "internalType": "uint256",
              "name": "z",
              "type": "uint256"
            }
          ],
          "internalType": "struct EvmProjectivePoint",
          "name": "",
          "type": "tuple"
        }
      ],
      "stateMutability": "view",
      "type": "function"
    },
    {
      "inputs": [
        {
          "internalType": "uint256",
          "name": "x",
          "type": "uint256"
        },
        {
          "internalType": "uint256",
          "name": "y",
          "type": "uint256"
        },
        {
          "internalType": "uint256",
          "name": "z",
          "type": "uint256"
        }
      ],
      "name": "double",
      "outputs": [
        {
          "internalType": "uint256",
          "name": "",
          "type": "uint256"
        },
        {
          "internalType": "uint256",
          "name": "",
          "type": "uint256"
        },
        {
          "internalType": "uint256",
          "name": "",
          "type": "uint256"
        }
      ],
      "stateMutability": "view",
      "type": "function"
    },
    {
      "inputs": [
        {
          "components": [
            {
              "internalType": "uint256",
              "name": "x",
              "type": "uint256"
            },
            {
              "internalType": "uint256",
              "name": "y",
              "type": "uint256"
            }
          ],
          "internalType": "struct EvmAffinePoint[]",
          "name": "bases",
          "type": "tuple[]"
        },
        {
          "internalType": "uint256[]",
          "name": "scalars",
          "type": "uint256[]"
        }
      ],
      "name": "msm_naive",
      "outputs": [
        {
          "components": [
            {
              "internalType": "uint256",
              "name": "x",
              "type": "uint256"
            },
            {
              "internalType": "uint256",
              "name": "y",
              "type": "uint256"
            },
            {
              "internalType": "uint256",
              "name": "z",
              "type": "uint256"
            }
          ],
          "internalType": "struct EvmProjectivePoint",
          "name": "",
          "type": "tuple"
        }
      ],
      "stateMutability": "view",
      "type": "function"
    },
    {
      "inputs": [
        {
          "components": [
            {
              "internalType": "uint256",
              "name": "x",
              "type": "uint256"
            },
            {
              "internalType": "uint256",
              "name": "y",
              "type": "uint256"
            },
            {
              "internalType": "uint256",
              "name": "z",
              "type": "uint256"
            }
          ],
          "internalType": "struct EvmProjectivePoint",
          "name": "point",
          "type": "tuple"
        },
        {
          "internalType": "uint256",
          "name": "scalar",
          "type": "uint256"
        }
      ],
      "name": "mul",
      "outputs": [
        {
          "components": [
            {
              "internalType": "uint256",
              "name": "x",
              "type": "uint256"
            },
            {
              "internalType": "uint256",
              "name": "y",
              "type": "uint256"
            },
            {
              "internalType": "uint256",
              "name": "z",
              "type": "uint256"
            }
          ],
          "internalType": "struct EvmProjectivePoint",
          "name": "",
          "type": "tuple"
        }
      ],
      "stateMutability": "view",
      "type": "function"
    },
    {
      "inputs": [
        {
          "components": [
            {
              "internalType": "uint256",
              "name": "x",
              "type": "uint256"
            },
            {
              "internalType": "uint256",
              "name": "y",
              "type": "uint256"
            }
          ],
          "internalType": "struct EvmAffinePoint[]",
          "name": "points",
          "type": "tuple[]"
        }
      ],
      "name": "sum",
      "outputs": [
        {
          "components": [
            {
              "internalType": "uint256",
              "name": "x",
              "type": "uint256"
            },
            {
              "internalType": "uint256",
              "name": "y",
              "type": "uint256"
            },
            {
              "internalType": "uint256",
              "name": "z",
              "type": "uint256"
            }
          ],
          "internalType": "struct EvmProjectivePoint",
          "name": "",
          "type": "tuple"
        }
      ],
      "stateMutability": "nonpayable",
      "type": "function"
    },
    {
      "inputs": [
        {
          "components": [
            {
              "internalType": "uint256",
              "name": "x",
              "type": "uint256"
            },
            {
              "internalType": "uint256",
              "name": "y",
              "type": "uint256"
            },
            {
              "internalType": "uint256",
              "name": "z",
              "type": "uint256"
            }
          ],
          "internalType": "struct EvmProjectivePoint",
          "name": "point",
          "type": "tuple"
        }
      ],
      "name": "toAffine",
      "outputs": [
        {
          "components": [
            {
              "internalType": "uint256",
              "name": "x",
              "type": "uint256"
            },
            {
              "internalType": "uint256",
              "name": "y",
              "type": "uint256"
            }
          ],
          "internalType": "struct EvmAffinePoint",
          "name": "",
          "type": "tuple"
        }
      ],
      "stateMutability": "pure",
      "type": "function"
    },
    {
      "inputs": [
        {
          "components": [
            {
              "internalType": "uint256",
              "name": "x",
              "type": "uint256"
            },
            {
              "internalType": "uint256",
              "name": "y",
              "type": "uint256"
            }
          ],
          "internalType": "struct EvmAffinePoint",
          "name": "point",
          "type": "tuple"
        }
      ],
      "name": "toProjective",
      "outputs": [
        {
          "components": [
            {
              "internalType": "uint256",
              "name": "x",
              "type": "uint256"
            },
            {
              "internalType": "uint256",
              "name": "y",
              "type": "uint256"
            },
            {
              "internalType": "uint256",
              "name": "z",
              "type": "uint256"
            }
          ],
          "internalType": "struct EvmProjectivePoint",
          "name": "",
          "type": "tuple"
        }
      ],
      "stateMutability": "pure",
      "type": "function"
    },
    {
      "inputs": [
        {
          "components": [
            {
              "components": [
                {
                  "internalType": "uint256",
                  "name": "x",
                  "type": "uint256"
                },
                {
                  "internalType": "uint256",
                  "name": "y",
                  "type": "uint256"
                }
              ],
              "internalType": "struct EvmAffinePoint",
              "name": "comm",
              "type": "tuple"
            },
            {
              "components": [
                {
                  "internalType": "uint256",
                  "name": "x",
                  "type": "uint256"
                },
                {
                  "internalType": "uint256",
                  "name": "y",
                  "type": "uint256"
                }
              ],
              "internalType": "struct EvmAffinePoint[]",
              "name": "L",
              "type": "tuple[]"
            },
            {
              "components": [
                {
                  "internalType": "uint256",
                  "name": "x",
                  "type": "uint256"
                },
                {
                  "internalType": "uint256",
                  "name": "y",
                  "type": "uint256"
                }
              ],
              "internalType": "struct EvmAffinePoint[]",
              "name": "R",
              "type": "tuple[]"
            },
            {
              "components": [
                {
                  "internalType": "uint256",
                  "name": "x",
                  "type": "uint256"
                },
                {
                  "internalType": "uint256",
                  "name": "y",
                  "type": "uint256"
                }
              ],
              "internalType": "struct EvmAffinePoint[]",
              "name": "sGPowers",
              "type": "tuple[]"
            },
            {
              "components": [
                {
                  "internalType": "uint256",
                  "name": "x",
                  "type": "uint256"
                },
                {
                  "internalType": "uint256",
                  "name": "y",
                  "type": "uint256"
                }
              ],
              "internalType": "struct EvmAffinePoint",
              "name": "R_zko",
              "type": "tuple"
            },
            {
              "internalType": "uint256",
              "name": "z1",
              "type": "uint256"
            },
            {
              "internalType": "uint256",
              "name": "z2",
              "type": "uint256"
            },
            {
              "internalType": "uint256",
              "name": "y",
              "type": "uint256"
            }
          ],
          "internalType": "struct EvmInnerProductProof",
          "name": "proof",
          "type": "tuple"
        },
        {
          "internalType": "uint256[]",
          "name": "b",
          "type": "uint256[]"
        },
        {
          "components": [
            {
              "components": [
                {
                  "internalType": "uint256",
                  "name": "x",
                  "type": "uint256"
                },
                {
                  "internalType": "uint256",
                  "name": "y",
                  "type": "uint256"
                }
              ],
              "internalType": "struct EvmAffinePoint[]",
              "name": "G",
              "type": "tuple[]"
            },
            {
              "components": [
                {
                  "internalType": "uint256",
                  "name": "x",
                  "type": "uint256"
                },
                {
                  "internalType": "uint256",
                  "name": "y",
                  "type": "uint256"
                }
              ],
              "internalType": "struct EvmAffinePoint",
              "name": "H",
              "type": "tuple"
            },
            {
              "components": [
                {
                  "internalType": "uint256",
                  "name": "x",
                  "type": "uint256"
                },
                {
                  "internalType": "uint256",
                  "name": "y",
                  "type": "uint256"
                }
              ],
              "internalType": "struct EvmAffinePoint",
              "name": "u",
              "type": "tuple"
            }
          ],
          "internalType": "struct EvmGens",
          "name": "gens",
          "type": "tuple"
        },
        {
          "internalType": "bytes32",
          "name": "state",
          "type": "bytes32"
        }
      ],
      "name": "verify",
      "outputs": [
        {
          "internalType": "bool",
          "name": "",
          "type": "bool"
        }
      ],
      "stateMutability": "nonpayable",
      "type": "function"
    }
  ],
  "bytecode": {
    "object": "0x6080806040523461001657611680908161001c8239f35b600080fdfe6080604052600436101561001257600080fd5b60003560e01c80630cd3293914610a815780632b9c9ea114610a4b57806332e7c5bf14610a2f5780633735491214610a0757806344170825146109c557806379bcaf3e1461098a5780638e6c570314610955578063a2a36ae514610901578063aebb1a4014610882578063cc4b457c146100b65763f446c1d01461009557600080fd5b346100b15760003660031901126100b157602060405160008152f35b600080fd5b346100b1576003196080368201126100b1576004356001600160401b0381116100b1576101408282360301126100b1576040519061010082018281106001600160401b0382111761086c576040526101113682600401610b48565b825260448101356001600160401b0381116100b1576101369060043691840101610b70565b602083015260648101356001600160401b0381116100b15761015e9060043691840101610b70565b60408301526084810135906001600160401b0382116100b15761018a6101249260043691840101610b70565b606084015261019c3660a48301610b48565b608084015260e481013560a084015261010481013560c0840152013560e08201526024356001600160401b0381116100b1576101dc903690600401610bdc565b916001600160401b03604435116100b15760a090604435360301126100b15760405161020781610aaa565b6001600160401b0360443560040135116100b1576102313660046044358101356044350101610b70565b815261024236602460443501610b48565b602082015261025636606460443501610b48565b9182604083015283519261027761027260208401515192610cdb565b611523565b9361029f8160405161028881610ac5565b60058152646e3a20257360d81b60208201526115c0565b6102c6826040516102af81610ac5565b60058152646d3a20257360d81b60208201526115c0565b6102f085516040516102d781610ac5565b6007815266752e783a20257360c81b60208201526115c0565b6020830151516102ff81610c3a565b9060005b81811061085757505061031583610c3a565b9660005b848110610766575061032a83610c3a565b9260005b8181106106fd57505060005b84811061065d57508051156106475760206103a99101519261038087515160405161036481610ac5565b600a815269472e6c656e282920257360b01b60208201526115c0565b5160405161038d81610ac5565b600a815269732e6c656e282920257360b01b60208201526115c0565b6103b66060850151610fc3565b926103d86103c48651610cdb565b6103d260e08801518a61159f565b90611377565b916103e282610c3a565b9060005b8381106106145750506103f882610c3a565b9160005b8181106105db575050610490602061048861047d610499986103d26104a59c9961047761046a61045761049f9f9b9c6104528d6103d29f6103d29060c09f61044a8f91604092860151610ed5565b930151610ed5565b611377565b61046460808d0151610cdb565b50611523565b6103d260808c0151610cdb565b9e61159f565b60a08601519061159f565b950151610cdb565b9101519061159f565b92610d09565b91610d09565b906104d281516040516104b781610ac5565b60098152686c68732e783a20257360b81b60208201526115c0565b602081019161050383516040516104e881610ac5565b60098152686c68732e793a20257360b81b60208201526115c0565b61052f815160405161051481610ac5565b60098152687268732e783a20257360b81b60208201526115c0565b6020810191610560835160405161054581610ac5565b60098152687268732e793a20257360b81b60208201526115c0565b5190511491826105ce575b50501561057d57602060405160018152f35b60405162461bcd60e51b815260206004820152602360248201527f496e6e65722070726f6475637420657175616c69747920636865636b206661696044820152621b195960ea1b6064820152608490fd5b519051149050818061056b565b808b6105ea61060f9382610c7b565b516105fc836401000003d01993610c7b565b5190096106098287610c7b565b52610c6c565b6103fc565b806106226106429284610c7b565b516401000003d019906106358386610c7b565b5190096106098286610c7b565b6103e6565b634e487b7160e01b600052603260045260246000fd5b90610668828a610c7b565b516106738385610c7b565b5190825160011c9161068483610c3a565b9360005b8481106106a357505050505061069e9091610c6c565b61033a565b6401000003d0199081856106b78386610c7b565b510991868201928383116106e75781866106d46106e29688610c7b565b510990086106098289610c7b565b610688565b634e487b7160e01b600052601160045260246000fd5b600160005b8b8882106107205750509061071b916106098288610c7b565b61032e565b81926001808661074e951c161460001461075357610745846401000003d01993610c7b565b51900991610c6c565b610702565b6401000003d01991506107458489610c7b565b6107708184610c7b565b5180151580610847575b8061083f575b156108095790600060016401000003d019845b6107ad5750506107a89250610609828c610c7b565b610319565b6107ba8582969596610c8f565b926401000003d0198385096401000003d019036401000003d01981116106e7576401000003d0199108919380938181029181830414901517156106e75761080091610caf565b93929184610793565b60405162461bcd60e51b815260206004820152600e60248201526d24b73b30b634b210373ab6b132b960911b6044820152606490fd5b506001610780565b506401000003d01981141561077a565b8060216106096108679386610c7b565b610303565b634e487b7160e01b600052604160045260246000fd5b346100b15760403660031901126100b1576001600160401b036004358181116100b1576108b3903690600401610b70565b906024359081116100b1576108fd916108d36108d9923690600401610bdc565b90610ed5565b60408051825181526020808401519082015291810151908201529081906060820190565b0390f35b346100b15760c03660031901126100b15761091b36610b01565b60603660631901126100b1576108d96108fd916040519061093b82610aaa565b6064358252608435602083015260a4356040830152611377565b346100b15760403660031901126100b1576108fd6108d960405161097881610ac5565b60043581526024356020820152610cdb565b346100b15760203660031901126100b1576004356001600160401b0381116100b1576108d96109c06108fd923690600401610b70565b610fc3565b346100b15760603660031901126100b1576108fd6109ea6044356024356004356113b2565b604080519384526020840192909252908201529081906060820190565b346100b15760803660031901126100b1576108fd6109ea6064356044356024356004356114b8565b346100b15760003660031901126100b157602060405160078152f35b346100b15760603660031901126100b1576040610a6f610a6a36610b01565b610d09565b60208251918051835201516020820152f35b346100b15760803660031901126100b1576108fd6108d9610aa136610b01565b6064359061159f565b606081019081106001600160401b0382111761086c57604052565b604081019081106001600160401b0382111761086c57604052565b90601f801991011681019081106001600160401b0382111761086c57604052565b60609060031901126100b15760405190610b1a82610aaa565b600435825260243560208301526044356040830152565b6001600160401b03811161086c5760051b60200190565b91908260409103126100b157604051610b6081610ac5565b6020808294803584520135910152565b9080601f830112156100b1578135916020610b8a84610b31565b93604093610b9a85519687610ae0565b818652828087019260061b850101938185116100b1578301915b848310610bc45750505050505090565b838691610bd18486610b48565b815201920191610bb4565b9080601f830112156100b1576020908235610bf681610b31565b93610c046040519586610ae0565b818552838086019260051b8201019283116100b1578301905b828210610c2b575050505090565b81358152908301908301610c1d565b90610c4482610b31565b610c516040519182610ae0565b8281528092610c62601f1991610b31565b0190602036910137565b60001981146106e75760010190565b80518210156106475760209160051b010190565b8115610c99570490565b634e487b7160e01b600052601260045260246000fd5b919082039182116106e757565b60405190610cc982610aaa565b60006040838281528260208201520152565b610ce3610cbc565b506020815191015160405191610cf883610aaa565b825260208201526001604082015290565b602090604051610d1881610ac5565b600092818480935201526040810180519283151580610eb9575b80610eb1575b1561080957928360018270014551231950b75fc4402da1732fc9bebe19935b610dfa57505050506001908370014551231950b75fc4402da1732fc9bebe1991510903610dc65770014551231950b75fc4402da1732fc9bebe198282510991602070014551231950b75fc4402da1732fc9bebe199201510960405191610dbc83610ac5565b8252602082015290565b60405162461bcd60e51b815260206004820152600c60248201526b24b73b30b634b2103d24b73b60a11b6044820152606490fd5b610e08818598939495610c8f565b9170014551231950b75fc4402da1732fc9bebe1984840970014551231950b75fc4402da1732fc9bebe190370014551231950b75fc4402da1732fc9bebe198111610e9d5770014551231950b75fc4402da1732fc9bebe19910892968192828102928184041490151715610e895790610e7f91610caf565b9092919080610d57565b634e487b7160e01b85526011600452602485fd5b634e487b7160e01b86526011600452602486fd5b506001610d38565b5070014551231950b75fc4402da1732fc9bebe19841415610d32565b90610ede610cbc565b508151815103610f8c5790600091829060019081809486935b610f1c575b5050505060405192610f0d84610aaa565b83526020830152604082015290565b9193829591939551861015610f8357908596610f6f92610f65610f438899610f7a99610c7b565b51610f4e8b88610c7b565b51516020610f5c8d8a610c7b565b5101519061144d565b9491929093611140565b959194909496610c6c565b92909181610ef7565b93819550610efc565b60405162461bcd60e51b815260206004820152600f60248201526e098cadccee8d040dad2e6dac2e8c6d608b1b6044820152606490fd5b610fcb610cbc565b5060009081600180928185925b610fed575b50505060405192610f0d84610aaa565b929093849592955186101561103a57916110289161103394936110108888610c7b565b515191602061101f8a8a610c7b565b51015193611046565b949193909395610c6c565b9180610fd8565b93829550819350610fdd565b94929193851561113357821561112c578583148080611122575b611110576110fb57849291839170014551231950b75fc4402da1732fc9bebe19808099819782808080809a816001819c09990961109d9089611323565b94600190099c8d9a0991816110b2848c611323565b9e8f94818087800994600190099c088209828b8187800909906110d491611323565b97889382099c09906110e591611323565b90099188096110f391611323565b960994930990565b5090506111099291936113b2565b9192909190565b50505050915050600090600090600190565b5081831415611060565b5092919050565b9450509091509190600190565b9291949593831561131857821561130f578383148080611305575b6112f2576112e2579061119c6112b2928770014551231950b75fc4402da1732fc9bebe19910970014551231950b75fc4402da1732fc9bebe19898409611323565b966111d170014551231950b75fc4402da1732fc9bebe1988860970014551231950b75fc4402da1732fc9bebe19838809611323565b9361125370014551231950b75fc4402da1732fc9bebe198680099170014551231950b75fc4402da1732fc9bebe19848b099970014551231950b75fc4402da1732fc9bebe1991829182910970014551231950b75fc4402da1732fc9bebe19868b0908830970014551231950b75fc4402da1732fc9bebe198a818d800909611323565b986112908a70014551231950b75fc4402da1732fc9bebe198885099870014551231950b75fc4402da1732fc9bebe19948591829088900909611323565b90099170014551231950b75fc4402da1732fc9bebe1991829109850990611323565b9470014551231950b75fc4402da1732fc9bebe199109939270014551231950b75fc4402da1732fc9bebe19910990565b50919050611109939294506113b2565b5050505050915050600090600090600190565b508183141561115b565b50945050929190565b959450509050929190565b9080821061134c576113489070014551231950b75fc4402da1732fc9bebe1992610caf565b0690565b61136a70014551231950b75fc4402da1732fc9bebe19928392610caf565b0681039081116106e75790565b6113a491611383610cbc565b50815191604060208201519101518251916040602085015194015194611140565b9060405192610f0d84610aaa565b91929080156114405780611433611425928570014551231950b75fc4402da1732fc9bebe198089819a97828080809b9a818080809e9b8180809e8181819209600009928009600309089783096002099e098d096002099561141a848860020985858009611323565b9c8d918d0996611323565b900992800960020990611323565b9484099392818180090990565b5060009250829150600190565b92909260019083156114b2576000918295819592835b6114705750505050929190565b60018416611490575b9061148492916113b2565b919260011c9283611463565b939181856114a49398839a61148496611140565b909790969194909250611479565b93925090565b939193831561151c576000918295600191829693845b6114dc575050505050929190565b8385166114fa575b906114ef92916113b2565b9193831c93846114ce565b9491818661150e9399839b6114ef96611140565b9098909791959092506114e4565b9390925090565b61152b610cbc565b508051602082015160409092015160009260019284926021928592845b61155e57505050505060405192610f0d84610aaa565b83851661157c575b9061157192916113b2565b9193831c9384611548565b969181888298611590949861157196611140565b96919590959790919250611566565b906113a4916115ac610cbc565b5080519060406020820151910151916114b8565b60405190602092838301936309710a9d60e41b85526040602485015282519283606486015260005b848110611636575050509161162360848284600097959688848199850101526044830152601f80199101168101036064810184520182610ae0565b51906a636f6e736f6c652e6c6f675afa50565b8181018301518682016084015282016115e856fea26469706673582212205250651432ceae8234e1f05d804c4dc749cc967623b8577f52fbaf2a9994fcba64736f6c63430008150033",
    "linkReferences": {}
  },
  "methodIdentifiers": {
    "A()": "f446c1d0",
    "B()": "32e7c5bf",
    "_mul(uint256,uint256,uint256,uint256)": "37354912",
    "add((uint256,uint256,uint256),(uint256,uint256,uint256))": "a2a36ae5",
    "double(uint256,uint256,uint256)": "44170825",
    "msm_naive((uint256,uint256)[],uint256[])": "aebb1a40",
    "mul((uint256,uint256,uint256),uint256)": "0cd32939",
    "sum((uint256,uint256)[])": "79bcaf3e",
    "toAffine((uint256,uint256,uint256))": "2b9c9ea1",
    "toProjective((uint256,uint256))": "8e6c5703",
    "verify(((uint256,uint256),(uint256,uint256)[],(uint256,uint256)[],(uint256,uint256)[],(uint256,uint256),uint256,uint256,uint256),uint256[],((uint256,uint256)[],(uint256,uint256),(uint256,uint256)),bytes32)": "cc4b457c"
  },
  "id": 0
}