{
  "abi": [
    {
      "inputs": [],
      "stateMutability": "nonpayable",
      "type": "constructor"
    },
    {
      "inputs": [],
      "name": "A",
      "outputs": [
        {
          "internalType": "uint256",
          "name": "",
          "type": "uint256"
        }
      ],
      "stateMutability": "view",
      "type": "function"
    },
    {
      "inputs": [],
      "name": "B",
      "outputs": [
        {
          "internalType": "uint256",
          "name": "",
          "type": "uint256"
        }
      ],
      "stateMutability": "view",
      "type": "function"
    },
    {
      "inputs": [
        {
          "internalType": "uint256",
          "name": "px",
          "type": "uint256"
        },
        {
          "internalType": "uint256",
          "name": "py",
          "type": "uint256"
        },
        {
          "internalType": "uint256",
          "name": "pz",
          "type": "uint256"
        },
        {
          "internalType": "uint256",
          "name": "scalar",
          "type": "uint256"
        }
      ],
      "name": "_mul",
      "outputs": [
        {
          "internalType": "uint256",
          "name": "",
          "type": "uint256"
        },
        {
          "internalType": "uint256",
          "name": "",
          "type": "uint256"
        },
        {
          "internalType": "uint256",
          "name": "",
          "type": "uint256"
        }
      ],
      "stateMutability": "view",
      "type": "function"
    },
    {
      "inputs": [
        {
          "components": [
            {
              "internalType": "uint256",
              "name": "x",
              "type": "uint256"
            },
            {
              "internalType": "uint256",
              "name": "y",
              "type": "uint256"
            },
            {
              "internalType": "uint256",
              "name": "z",
              "type": "uint256"
            }
          ],
          "internalType": "struct EvmProjectivePoint",
          "name": "p0",
          "type": "tuple"
        },
        {
          "components": [
            {
              "internalType": "uint256",
              "name": "x",
              "type": "uint256"
            },
            {
              "internalType": "uint256",
              "name": "y",
              "type": "uint256"
            },
            {
              "internalType": "uint256",
              "name": "z",
              "type": "uint256"
            }
          ],
          "internalType": "struct EvmProjectivePoint",
          "name": "p1",
          "type": "tuple"
        }
      ],
      "name": "add",
      "outputs": [
        {
          "components": [
            {
              "internalType": "uint256",
              "name": "x",
              "type": "uint256"
            },
            {
              "internalType": "uint256",
              "name": "y",
              "type": "uint256"
            },
            {
              "internalType": "uint256",
              "name": "z",
              "type": "uint256"
            }
          ],
          "internalType": "struct EvmProjectivePoint",
          "name": "",
          "type": "tuple"
        }
      ],
      "stateMutability": "view",
      "type": "function"
    },
    {
      "inputs": [
        {
          "components": [
            {
              "components": [
                {
                  "internalType": "uint256",
                  "name": "index",
                  "type": "uint256"
                },
                {
                  "internalType": "uint256",
                  "name": "val",
                  "type": "uint256"
                }
              ],
              "internalType": "struct LagrangeEntry[]",
              "name": "A",
              "type": "tuple[]"
            },
            {
              "components": [
                {
                  "internalType": "uint256",
                  "name": "index",
                  "type": "uint256"
                },
                {
                  "internalType": "uint256",
                  "name": "val",
                  "type": "uint256"
                }
              ],
              "internalType": "struct LagrangeEntry[]",
              "name": "B",
              "type": "tuple[]"
            },
            {
              "components": [
                {
                  "internalType": "uint256",
                  "name": "index",
                  "type": "uint256"
                },
                {
                  "internalType": "uint256",
                  "name": "val",
                  "type": "uint256"
                }
              ],
              "internalType": "struct LagrangeEntry[]",
              "name": "C",
              "type": "tuple[]"
            },
            {
              "internalType": "uint256",
              "name": "zLen",
              "type": "uint256"
            }
          ],
          "internalType": "struct EvmR1CS",
          "name": "r1cs",
          "type": "tuple"
        }
      ],
      "name": "addCircuit",
      "outputs": [],
      "stateMutability": "nonpayable",
      "type": "function"
    },
    {
      "inputs": [
        {
          "internalType": "uint256",
          "name": "x",
          "type": "uint256"
        },
        {
          "internalType": "uint256",
          "name": "y",
          "type": "uint256"
        },
        {
          "internalType": "uint256",
          "name": "z",
          "type": "uint256"
        }
      ],
      "name": "double",
      "outputs": [
        {
          "internalType": "uint256",
          "name": "",
          "type": "uint256"
        },
        {
          "internalType": "uint256",
          "name": "",
          "type": "uint256"
        },
        {
          "internalType": "uint256",
          "name": "",
          "type": "uint256"
        }
      ],
      "stateMutability": "view",
      "type": "function"
    },
    {
      "inputs": [
        {
          "components": [
            {
              "internalType": "uint256",
              "name": "index",
              "type": "uint256"
            },
            {
              "internalType": "uint256",
              "name": "val",
              "type": "uint256"
            }
          ],
          "internalType": "struct LagrangeEntry[]",
          "name": "lagrangePoly",
          "type": "tuple[]"
        },
        {
          "internalType": "uint256[]",
          "name": "x",
          "type": "uint256[]"
        }
      ],
      "name": "eval",
      "outputs": [
        {
          "internalType": "uint256",
          "name": "",
          "type": "uint256"
        }
      ],
      "stateMutability": "nonpayable",
      "type": "function"
    },
    {
      "inputs": [
        {
          "internalType": "uint256[]",
          "name": "r",
          "type": "uint256[]"
        },
        {
          "internalType": "uint256[]",
          "name": "x",
          "type": "uint256[]"
        }
      ],
      "name": "eval",
      "outputs": [
        {
          "internalType": "uint256",
          "name": "",
          "type": "uint256"
        }
      ],
      "stateMutability": "nonpayable",
      "type": "function"
    },
    {
      "inputs": [
        {
          "internalType": "uint256[]",
          "name": "r",
          "type": "uint256[]"
        },
        {
          "internalType": "uint256",
          "name": "x",
          "type": "uint256"
        }
      ],
      "name": "evalAsBits",
      "outputs": [
        {
          "internalType": "uint256",
          "name": "",
          "type": "uint256"
        }
      ],
      "stateMutability": "nonpayable",
      "type": "function"
    },
    {
      "inputs": [
        {
          "internalType": "uint256[]",
          "name": "t",
          "type": "uint256[]"
        }
      ],
      "name": "evals",
      "outputs": [
        {
          "internalType": "uint256[]",
          "name": "",
          "type": "uint256[]"
        }
      ],
      "stateMutability": "pure",
      "type": "function"
    },
    {
      "inputs": [
        {
          "components": [
            {
              "internalType": "uint256",
              "name": "x",
              "type": "uint256"
            },
            {
              "internalType": "uint256",
              "name": "y",
              "type": "uint256"
            }
          ],
          "internalType": "struct EvmAffinePoint[]",
          "name": "bases",
          "type": "tuple[]"
        },
        {
          "internalType": "uint256[]",
          "name": "scalars",
          "type": "uint256[]"
        }
      ],
      "name": "msm_naive",
      "outputs": [
        {
          "components": [
            {
              "internalType": "uint256",
              "name": "x",
              "type": "uint256"
            },
            {
              "internalType": "uint256",
              "name": "y",
              "type": "uint256"
            },
            {
              "internalType": "uint256",
              "name": "z",
              "type": "uint256"
            }
          ],
          "internalType": "struct EvmProjectivePoint",
          "name": "",
          "type": "tuple"
        }
      ],
      "stateMutability": "view",
      "type": "function"
    },
    {
      "inputs": [
        {
          "components": [
            {
              "internalType": "uint256",
              "name": "x",
              "type": "uint256"
            },
            {
              "internalType": "uint256",
              "name": "y",
              "type": "uint256"
            },
            {
              "internalType": "uint256",
              "name": "z",
              "type": "uint256"
            }
          ],
          "internalType": "struct EvmProjectivePoint",
          "name": "point",
          "type": "tuple"
        },
        {
          "internalType": "uint256",
          "name": "scalar",
          "type": "uint256"
        }
      ],
      "name": "mul",
      "outputs": [
        {
          "components": [
            {
              "internalType": "uint256",
              "name": "x",
              "type": "uint256"
            },
            {
              "internalType": "uint256",
              "name": "y",
              "type": "uint256"
            },
            {
              "internalType": "uint256",
              "name": "z",
              "type": "uint256"
            }
          ],
          "internalType": "struct EvmProjectivePoint",
          "name": "",
          "type": "tuple"
        }
      ],
      "stateMutability": "view",
      "type": "function"
    },
    {
      "inputs": [],
      "name": "newStake",
      "outputs": [],
      "stateMutability": "payable",
      "type": "function"
    },
    {
      "inputs": [
        {
          "internalType": "bytes32",
          "name": "",
          "type": "bytes32"
        }
      ],
      "name": "proofs",
      "outputs": [
        {
          "internalType": "bool",
          "name": "",
          "type": "bool"
        }
      ],
      "stateMutability": "view",
      "type": "function"
    },
    {
      "inputs": [
        {
          "components": [
            {
              "components": [
                {
                  "internalType": "uint256[][]",
                  "name": "roundPolysCoeffs",
                  "type": "uint256[][]"
                },
                {
                  "internalType": "uint256",
                  "name": "blindPolySum",
                  "type": "uint256"
                },
                {
                  "components": [
                    {
                      "components": [
                        {
                          "internalType": "uint256",
                          "name": "x",
                          "type": "uint256"
                        },
                        {
                          "internalType": "uint256",
                          "name": "y",
                          "type": "uint256"
                        }
                      ],
                      "internalType": "struct EvmAffinePoint",
                      "name": "comm",
                      "type": "tuple"
                    },
                    {
                      "components": [
                        {
                          "internalType": "uint256",
                          "name": "x",
                          "type": "uint256"
                        },
                        {
                          "internalType": "uint256",
                          "name": "y",
                          "type": "uint256"
                        }
                      ],
                      "internalType": "struct EvmAffinePoint[]",
                      "name": "L",
                      "type": "tuple[]"
                    },
                    {
                      "components": [
                        {
                          "internalType": "uint256",
                          "name": "x",
                          "type": "uint256"
                        },
                        {
                          "internalType": "uint256",
                          "name": "y",
                          "type": "uint256"
                        }
                      ],
                      "internalType": "struct EvmAffinePoint[]",
                      "name": "R",
                      "type": "tuple[]"
                    },
                    {
                      "components": [
                        {
                          "internalType": "uint256",
                          "name": "x",
                          "type": "uint256"
                        },
                        {
                          "internalType": "uint256",
                          "name": "y",
                          "type": "uint256"
                        }
                      ],
                      "internalType": "struct EvmAffinePoint[]",
                      "name": "sGPowers",
                      "type": "tuple[]"
                    },
                    {
                      "components": [
                        {
                          "internalType": "uint256",
                          "name": "x",
                          "type": "uint256"
                        },
                        {
                          "internalType": "uint256",
                          "name": "y",
                          "type": "uint256"
                        }
                      ],
                      "internalType": "struct EvmAffinePoint",
                      "name": "R_zko",
                      "type": "tuple"
                    },
                    {
                      "internalType": "uint256",
                      "name": "z1",
                      "type": "uint256"
                    },
                    {
                      "internalType": "uint256",
                      "name": "z2",
                      "type": "uint256"
                    },
                    {
                      "internalType": "uint256",
                      "name": "y",
                      "type": "uint256"
                    }
                  ],
                  "internalType": "struct EvmInnerProductProof",
                  "name": "blindPolyEvalProof",
                  "type": "tuple"
                }
              ],
              "internalType": "struct EvmSumCheckProof",
              "name": "scProof1",
              "type": "tuple"
            },
            {
              "components": [
                {
                  "internalType": "uint256[][]",
                  "name": "roundPolysCoeffs",
                  "type": "uint256[][]"
                },
                {
                  "internalType": "uint256",
                  "name": "blindPolySum",
                  "type": "uint256"
                },
                {
                  "components": [
                    {
                      "components": [
                        {
                          "internalType": "uint256",
                          "name": "x",
                          "type": "uint256"
                        },
                        {
                          "internalType": "uint256",
                          "name": "y",
                          "type": "uint256"
                        }
                      ],
                      "internalType": "struct EvmAffinePoint",
                      "name": "comm",
                      "type": "tuple"
                    },
                    {
                      "components": [
                        {
                          "internalType": "uint256",
                          "name": "x",
                          "type": "uint256"
                        },
                        {
                          "internalType": "uint256",
                          "name": "y",
                          "type": "uint256"
                        }
                      ],
                      "internalType": "struct EvmAffinePoint[]",
                      "name": "L",
                      "type": "tuple[]"
                    },
                    {
                      "components": [
                        {
                          "internalType": "uint256",
                          "name": "x",
                          "type": "uint256"
                        },
                        {
                          "internalType": "uint256",
                          "name": "y",
                          "type": "uint256"
                        }
                      ],
                      "internalType": "struct EvmAffinePoint[]",
                      "name": "R",
                      "type": "tuple[]"
                    },
                    {
                      "components": [
                        {
                          "internalType": "uint256",
                          "name": "x",
                          "type": "uint256"
                        },
                        {
                          "internalType": "uint256",
                          "name": "y",
                          "type": "uint256"
                        }
                      ],
                      "internalType": "struct EvmAffinePoint[]",
                      "name": "sGPowers",
                      "type": "tuple[]"
                    },
                    {
                      "components": [
                        {
                          "internalType": "uint256",
                          "name": "x",
                          "type": "uint256"
                        },
                        {
                          "internalType": "uint256",
                          "name": "y",
                          "type": "uint256"
                        }
                      ],
                      "internalType": "struct EvmAffinePoint",
                      "name": "R_zko",
                      "type": "tuple"
                    },
                    {
                      "internalType": "uint256",
                      "name": "z1",
                      "type": "uint256"
                    },
                    {
                      "internalType": "uint256",
                      "name": "z2",
                      "type": "uint256"
                    },
                    {
                      "internalType": "uint256",
                      "name": "y",
                      "type": "uint256"
                    }
                  ],
                  "internalType": "struct EvmInnerProductProof",
                  "name": "blindPolyEvalProof",
                  "type": "tuple"
                }
              ],
              "internalType": "struct EvmSumCheckProof",
              "name": "scProof2",
              "type": "tuple"
            },
            {
              "components": [
                {
                  "components": [
                    {
                      "internalType": "uint256",
                      "name": "x",
                      "type": "uint256"
                    },
                    {
                      "internalType": "uint256",
                      "name": "y",
                      "type": "uint256"
                    }
                  ],
                  "internalType": "struct EvmAffinePoint[]",
                  "name": "T",
                  "type": "tuple[]"
                },
                {
                  "internalType": "uint256",
                  "name": "y",
                  "type": "uint256"
                },
                {
                  "components": [
                    {
                      "internalType": "uint256",
                      "name": "x",
                      "type": "uint256"
                    },
                    {
                      "internalType": "uint256",
                      "name": "y",
                      "type": "uint256"
                    }
                  ],
                  "internalType": "struct EvmAffinePoint[]",
                  "name": "TLpowers",
                  "type": "tuple[]"
                },
                {
                  "components": [
                    {
                      "components": [
                        {
                          "internalType": "uint256",
                          "name": "x",
                          "type": "uint256"
                        },
                        {
                          "internalType": "uint256",
                          "name": "y",
                          "type": "uint256"
                        }
                      ],
                      "internalType": "struct EvmAffinePoint",
                      "name": "comm",
                      "type": "tuple"
                    },
                    {
                      "components": [
                        {
                          "internalType": "uint256",
                          "name": "x",
                          "type": "uint256"
                        },
                        {
                          "internalType": "uint256",
                          "name": "y",
                          "type": "uint256"
                        }
                      ],
                      "internalType": "struct EvmAffinePoint[]",
                      "name": "L",
                      "type": "tuple[]"
                    },
                    {
                      "components": [
                        {
                          "internalType": "uint256",
                          "name": "x",
                          "type": "uint256"
                        },
                        {
                          "internalType": "uint256",
                          "name": "y",
                          "type": "uint256"
                        }
                      ],
                      "internalType": "struct EvmAffinePoint[]",
                      "name": "R",
                      "type": "tuple[]"
                    },
                    {
                      "components": [
                        {
                          "internalType": "uint256",
                          "name": "x",
                          "type": "uint256"
                        },
                        {
                          "internalType": "uint256",
                          "name": "y",
                          "type": "uint256"
                        }
                      ],
                      "internalType": "struct EvmAffinePoint[]",
                      "name": "sGPowers",
                      "type": "tuple[]"
                    },
                    {
                      "components": [
                        {
                          "internalType": "uint256",
                          "name": "x",
                          "type": "uint256"
                        },
                        {
                          "internalType": "uint256",
                          "name": "y",
                          "type": "uint256"
                        }
                      ],
                      "internalType": "struct EvmAffinePoint",
                      "name": "R_zko",
                      "type": "tuple"
                    },
                    {
                      "internalType": "uint256",
                      "name": "z1",
                      "type": "uint256"
                    },
                    {
                      "internalType": "uint256",
                      "name": "z2",
                      "type": "uint256"
                    },
                    {
                      "internalType": "uint256",
                      "name": "y",
                      "type": "uint256"
                    }
                  ],
                  "internalType": "struct EvmInnerProductProof",
                  "name": "ipProof",
                  "type": "tuple"
                }
              ],
              "internalType": "struct EvmPolyEvalProof",
              "name": "zEvalProof",
              "type": "tuple"
            },
            {
              "internalType": "uint256",
              "name": "vA",
              "type": "uint256"
            },
            {
              "internalType": "uint256",
              "name": "vB",
              "type": "uint256"
            },
            {
              "internalType": "uint256",
              "name": "vC",
              "type": "uint256"
            },
            {
              "internalType": "uint256[]",
              "name": "publicInput",
              "type": "uint256[]"
            }
          ],
          "internalType": "struct FullProof",
          "name": "fullProof",
          "type": "tuple"
        }
      ],
      "name": "submitProof",
      "outputs": [
        {
          "internalType": "bytes32",
          "name": "",
          "type": "bytes32"
        }
      ],
      "stateMutability": "nonpayable",
      "type": "function"
    },
    {
      "inputs": [
        {
          "components": [
            {
              "internalType": "uint256",
              "name": "x",
              "type": "uint256"
            },
            {
              "internalType": "uint256",
              "name": "y",
              "type": "uint256"
            }
          ],
          "internalType": "struct EvmAffinePoint[]",
          "name": "points",
          "type": "tuple[]"
        }
      ],
      "name": "sum",
      "outputs": [
        {
          "components": [
            {
              "internalType": "uint256",
              "name": "x",
              "type": "uint256"
            },
            {
              "internalType": "uint256",
              "name": "y",
              "type": "uint256"
            },
            {
              "internalType": "uint256",
              "name": "z",
              "type": "uint256"
            }
          ],
          "internalType": "struct EvmProjectivePoint",
          "name": "",
          "type": "tuple"
        }
      ],
      "stateMutability": "nonpayable",
      "type": "function"
    },
    {
      "inputs": [
        {
          "components": [
            {
              "internalType": "uint256",
              "name": "x",
              "type": "uint256"
            },
            {
              "internalType": "uint256",
              "name": "y",
              "type": "uint256"
            },
            {
              "internalType": "uint256",
              "name": "z",
              "type": "uint256"
            }
          ],
          "internalType": "struct EvmProjectivePoint",
          "name": "point",
          "type": "tuple"
        }
      ],
      "name": "toAffine",
      "outputs": [
        {
          "components": [
            {
              "internalType": "uint256",
              "name": "x",
              "type": "uint256"
            },
            {
              "internalType": "uint256",
              "name": "y",
              "type": "uint256"
            }
          ],
          "internalType": "struct EvmAffinePoint",
          "name": "",
          "type": "tuple"
        }
      ],
      "stateMutability": "pure",
      "type": "function"
    },
    {
      "inputs": [
        {
          "components": [
            {
              "internalType": "uint256",
              "name": "x",
              "type": "uint256"
            },
            {
              "internalType": "uint256",
              "name": "y",
              "type": "uint256"
            }
          ],
          "internalType": "struct EvmAffinePoint",
          "name": "point",
          "type": "tuple"
        }
      ],
      "name": "toProjective",
      "outputs": [
        {
          "components": [
            {
              "internalType": "uint256",
              "name": "x",
              "type": "uint256"
            },
            {
              "internalType": "uint256",
              "name": "y",
              "type": "uint256"
            },
            {
              "internalType": "uint256",
              "name": "z",
              "type": "uint256"
            }
          ],
          "internalType": "struct EvmProjectivePoint",
          "name": "",
          "type": "tuple"
        }
      ],
      "stateMutability": "pure",
      "type": "function"
    },
    {
      "inputs": [
        {
          "components": [
            {
              "components": [
                {
                  "internalType": "uint256",
                  "name": "x",
                  "type": "uint256"
                },
                {
                  "internalType": "uint256",
                  "name": "y",
                  "type": "uint256"
                }
              ],
              "internalType": "struct EvmAffinePoint[]",
              "name": "T",
              "type": "tuple[]"
            },
            {
              "internalType": "uint256",
              "name": "y",
              "type": "uint256"
            },
            {
              "components": [
                {
                  "internalType": "uint256",
                  "name": "x",
                  "type": "uint256"
                },
                {
                  "internalType": "uint256",
                  "name": "y",
                  "type": "uint256"
                }
              ],
              "internalType": "struct EvmAffinePoint[]",
              "name": "TLpowers",
              "type": "tuple[]"
            },
            {
              "components": [
                {
                  "components": [
                    {
                      "internalType": "uint256",
                      "name": "x",
                      "type": "uint256"
                    },
                    {
                      "internalType": "uint256",
                      "name": "y",
                      "type": "uint256"
                    }
                  ],
                  "internalType": "struct EvmAffinePoint",
                  "name": "comm",
                  "type": "tuple"
                },
                {
                  "components": [
                    {
                      "internalType": "uint256",
                      "name": "x",
                      "type": "uint256"
                    },
                    {
                      "internalType": "uint256",
                      "name": "y",
                      "type": "uint256"
                    }
                  ],
                  "internalType": "struct EvmAffinePoint[]",
                  "name": "L",
                  "type": "tuple[]"
                },
                {
                  "components": [
                    {
                      "internalType": "uint256",
                      "name": "x",
                      "type": "uint256"
                    },
                    {
                      "internalType": "uint256",
                      "name": "y",
                      "type": "uint256"
                    }
                  ],
                  "internalType": "struct EvmAffinePoint[]",
                  "name": "R",
                  "type": "tuple[]"
                },
                {
                  "components": [
                    {
                      "internalType": "uint256",
                      "name": "x",
                      "type": "uint256"
                    },
                    {
                      "internalType": "uint256",
                      "name": "y",
                      "type": "uint256"
                    }
                  ],
                  "internalType": "struct EvmAffinePoint[]",
                  "name": "sGPowers",
                  "type": "tuple[]"
                },
                {
                  "components": [
                    {
                      "internalType": "uint256",
                      "name": "x",
                      "type": "uint256"
                    },
                    {
                      "internalType": "uint256",
                      "name": "y",
                      "type": "uint256"
                    }
                  ],
                  "internalType": "struct EvmAffinePoint",
                  "name": "R_zko",
                  "type": "tuple"
                },
                {
                  "internalType": "uint256",
                  "name": "z1",
                  "type": "uint256"
                },
                {
                  "internalType": "uint256",
                  "name": "z2",
                  "type": "uint256"
                },
                {
                  "internalType": "uint256",
                  "name": "y",
                  "type": "uint256"
                }
              ],
              "internalType": "struct EvmInnerProductProof",
              "name": "ipProof",
              "type": "tuple"
            }
          ],
          "internalType": "struct EvmPolyEvalProof",
          "name": "proof",
          "type": "tuple"
        },
        {
          "internalType": "uint256[]",
          "name": "_x",
          "type": "uint256[]"
        },
        {
          "components": [
            {
              "components": [
                {
                  "internalType": "uint256",
                  "name": "x",
                  "type": "uint256"
                },
                {
                  "internalType": "uint256",
                  "name": "y",
                  "type": "uint256"
                }
              ],
              "internalType": "struct EvmAffinePoint[]",
              "name": "G",
              "type": "tuple[]"
            },
            {
              "components": [
                {
                  "internalType": "uint256",
                  "name": "x",
                  "type": "uint256"
                },
                {
                  "internalType": "uint256",
                  "name": "y",
                  "type": "uint256"
                }
              ],
              "internalType": "struct EvmAffinePoint",
              "name": "H",
              "type": "tuple"
            },
            {
              "components": [
                {
                  "internalType": "uint256",
                  "name": "x",
                  "type": "uint256"
                },
                {
                  "internalType": "uint256",
                  "name": "y",
                  "type": "uint256"
                }
              ],
              "internalType": "struct EvmAffinePoint",
              "name": "u",
              "type": "tuple"
            }
          ],
          "internalType": "struct EvmGens",
          "name": "gens",
          "type": "tuple"
        },
        {
          "internalType": "bytes32",
          "name": "state",
          "type": "bytes32"
        }
      ],
      "name": "verify",
      "outputs": [
        {
          "internalType": "bool",
          "name": "",
          "type": "bool"
        }
      ],
      "stateMutability": "nonpayable",
      "type": "function"
    },
    {
      "inputs": [
        {
          "components": [
            {
              "components": [
                {
                  "internalType": "uint256",
                  "name": "x",
                  "type": "uint256"
                },
                {
                  "internalType": "uint256",
                  "name": "y",
                  "type": "uint256"
                }
              ],
              "internalType": "struct EvmAffinePoint",
              "name": "comm",
              "type": "tuple"
            },
            {
              "components": [
                {
                  "internalType": "uint256",
                  "name": "x",
                  "type": "uint256"
                },
                {
                  "internalType": "uint256",
                  "name": "y",
                  "type": "uint256"
                }
              ],
              "internalType": "struct EvmAffinePoint[]",
              "name": "L",
              "type": "tuple[]"
            },
            {
              "components": [
                {
                  "internalType": "uint256",
                  "name": "x",
                  "type": "uint256"
                },
                {
                  "internalType": "uint256",
                  "name": "y",
                  "type": "uint256"
                }
              ],
              "internalType": "struct EvmAffinePoint[]",
              "name": "R",
              "type": "tuple[]"
            },
            {
              "components": [
                {
                  "internalType": "uint256",
                  "name": "x",
                  "type": "uint256"
                },
                {
                  "internalType": "uint256",
                  "name": "y",
                  "type": "uint256"
                }
              ],
              "internalType": "struct EvmAffinePoint[]",
              "name": "sGPowers",
              "type": "tuple[]"
            },
            {
              "components": [
                {
                  "internalType": "uint256",
                  "name": "x",
                  "type": "uint256"
                },
                {
                  "internalType": "uint256",
                  "name": "y",
                  "type": "uint256"
                }
              ],
              "internalType": "struct EvmAffinePoint",
              "name": "R_zko",
              "type": "tuple"
            },
            {
              "internalType": "uint256",
              "name": "z1",
              "type": "uint256"
            },
            {
              "internalType": "uint256",
              "name": "z2",
              "type": "uint256"
            },
            {
              "internalType": "uint256",
              "name": "y",
              "type": "uint256"
            }
          ],
          "internalType": "struct EvmInnerProductProof",
          "name": "proof",
          "type": "tuple"
        },
        {
          "internalType": "uint256[]",
          "name": "b",
          "type": "uint256[]"
        },
        {
          "components": [
            {
              "components": [
                {
                  "internalType": "uint256",
                  "name": "x",
                  "type": "uint256"
                },
                {
                  "internalType": "uint256",
                  "name": "y",
                  "type": "uint256"
                }
              ],
              "internalType": "struct EvmAffinePoint[]",
              "name": "G",
              "type": "tuple[]"
            },
            {
              "components": [
                {
                  "internalType": "uint256",
                  "name": "x",
                  "type": "uint256"
                },
                {
                  "internalType": "uint256",
                  "name": "y",
                  "type": "uint256"
                }
              ],
              "internalType": "struct EvmAffinePoint",
              "name": "H",
              "type": "tuple"
            },
            {
              "components": [
                {
                  "internalType": "uint256",
                  "name": "x",
                  "type": "uint256"
                },
                {
                  "internalType": "uint256",
                  "name": "y",
                  "type": "uint256"
                }
              ],
              "internalType": "struct EvmAffinePoint",
              "name": "u",
              "type": "tuple"
            }
          ],
          "internalType": "struct EvmGens",
          "name": "gens",
          "type": "tuple"
        },
        {
          "internalType": "bytes32",
          "name": "state",
          "type": "bytes32"
        }
      ],
      "name": "verify",
      "outputs": [
        {
          "internalType": "bool",
          "name": "",
          "type": "bool"
        }
      ],
      "stateMutability": "nonpayable",
      "type": "function"
    },
    {
      "inputs": [
        {
          "components": [
            {
              "components": [
                {
                  "internalType": "uint256[][]",
                  "name": "roundPolysCoeffs",
                  "type": "uint256[][]"
                },
                {
                  "internalType": "uint256",
                  "name": "blindPolySum",
                  "type": "uint256"
                },
                {
                  "components": [
                    {
                      "components": [
                        {
                          "internalType": "uint256",
                          "name": "x",
                          "type": "uint256"
                        },
                        {
                          "internalType": "uint256",
                          "name": "y",
                          "type": "uint256"
                        }
                      ],
                      "internalType": "struct EvmAffinePoint",
                      "name": "comm",
                      "type": "tuple"
                    },
                    {
                      "components": [
                        {
                          "internalType": "uint256",
                          "name": "x",
                          "type": "uint256"
                        },
                        {
                          "internalType": "uint256",
                          "name": "y",
                          "type": "uint256"
                        }
                      ],
                      "internalType": "struct EvmAffinePoint[]",
                      "name": "L",
                      "type": "tuple[]"
                    },
                    {
                      "components": [
                        {
                          "internalType": "uint256",
                          "name": "x",
                          "type": "uint256"
                        },
                        {
                          "internalType": "uint256",
                          "name": "y",
                          "type": "uint256"
                        }
                      ],
                      "internalType": "struct EvmAffinePoint[]",
                      "name": "R",
                      "type": "tuple[]"
                    },
                    {
                      "components": [
                        {
                          "internalType": "uint256",
                          "name": "x",
                          "type": "uint256"
                        },
                        {
                          "internalType": "uint256",
                          "name": "y",
                          "type": "uint256"
                        }
                      ],
                      "internalType": "struct EvmAffinePoint[]",
                      "name": "sGPowers",
                      "type": "tuple[]"
                    },
                    {
                      "components": [
                        {
                          "internalType": "uint256",
                          "name": "x",
                          "type": "uint256"
                        },
                        {
                          "internalType": "uint256",
                          "name": "y",
                          "type": "uint256"
                        }
                      ],
                      "internalType": "struct EvmAffinePoint",
                      "name": "R_zko",
                      "type": "tuple"
                    },
                    {
                      "internalType": "uint256",
                      "name": "z1",
                      "type": "uint256"
                    },
                    {
                      "internalType": "uint256",
                      "name": "z2",
                      "type": "uint256"
                    },
                    {
                      "internalType": "uint256",
                      "name": "y",
                      "type": "uint256"
                    }
                  ],
                  "internalType": "struct EvmInnerProductProof",
                  "name": "blindPolyEvalProof",
                  "type": "tuple"
                }
              ],
              "internalType": "struct EvmSumCheckProof",
              "name": "scProof1",
              "type": "tuple"
            },
            {
              "components": [
                {
                  "internalType": "uint256[][]",
                  "name": "roundPolysCoeffs",
                  "type": "uint256[][]"
                },
                {
                  "internalType": "uint256",
                  "name": "blindPolySum",
                  "type": "uint256"
                },
                {
                  "components": [
                    {
                      "components": [
                        {
                          "internalType": "uint256",
                          "name": "x",
                          "type": "uint256"
                        },
                        {
                          "internalType": "uint256",
                          "name": "y",
                          "type": "uint256"
                        }
                      ],
                      "internalType": "struct EvmAffinePoint",
                      "name": "comm",
                      "type": "tuple"
                    },
                    {
                      "components": [
                        {
                          "internalType": "uint256",
                          "name": "x",
                          "type": "uint256"
                        },
                        {
                          "internalType": "uint256",
                          "name": "y",
                          "type": "uint256"
                        }
                      ],
                      "internalType": "struct EvmAffinePoint[]",
                      "name": "L",
                      "type": "tuple[]"
                    },
                    {
                      "components": [
                        {
                          "internalType": "uint256",
                          "name": "x",
                          "type": "uint256"
                        },
                        {
                          "internalType": "uint256",
                          "name": "y",
                          "type": "uint256"
                        }
                      ],
                      "internalType": "struct EvmAffinePoint[]",
                      "name": "R",
                      "type": "tuple[]"
                    },
                    {
                      "components": [
                        {
                          "internalType": "uint256",
                          "name": "x",
                          "type": "uint256"
                        },
                        {
                          "internalType": "uint256",
                          "name": "y",
                          "type": "uint256"
                        }
                      ],
                      "internalType": "struct EvmAffinePoint[]",
                      "name": "sGPowers",
                      "type": "tuple[]"
                    },
                    {
                      "components": [
                        {
                          "internalType": "uint256",
                          "name": "x",
                          "type": "uint256"
                        },
                        {
                          "internalType": "uint256",
                          "name": "y",
                          "type": "uint256"
                        }
                      ],
                      "internalType": "struct EvmAffinePoint",
                      "name": "R_zko",
                      "type": "tuple"
                    },
                    {
                      "internalType": "uint256",
                      "name": "z1",
                      "type": "uint256"
                    },
                    {
                      "internalType": "uint256",
                      "name": "z2",
                      "type": "uint256"
                    },
                    {
                      "internalType": "uint256",
                      "name": "y",
                      "type": "uint256"
                    }
                  ],
                  "internalType": "struct EvmInnerProductProof",
                  "name": "blindPolyEvalProof",
                  "type": "tuple"
                }
              ],
              "internalType": "struct EvmSumCheckProof",
              "name": "scProof2",
              "type": "tuple"
            },
            {
              "components": [
                {
                  "components": [
                    {
                      "internalType": "uint256",
                      "name": "x",
                      "type": "uint256"
                    },
                    {
                      "internalType": "uint256",
                      "name": "y",
                      "type": "uint256"
                    }
                  ],
                  "internalType": "struct EvmAffinePoint[]",
                  "name": "T",
                  "type": "tuple[]"
                },
                {
                  "internalType": "uint256",
                  "name": "y",
                  "type": "uint256"
                },
                {
                  "components": [
                    {
                      "internalType": "uint256",
                      "name": "x",
                      "type": "uint256"
                    },
                    {
                      "internalType": "uint256",
                      "name": "y",
                      "type": "uint256"
                    }
                  ],
                  "internalType": "struct EvmAffinePoint[]",
                  "name": "TLpowers",
                  "type": "tuple[]"
                },
                {
                  "components": [
                    {
                      "components": [
                        {
                          "internalType": "uint256",
                          "name": "x",
                          "type": "uint256"
                        },
                        {
                          "internalType": "uint256",
                          "name": "y",
                          "type": "uint256"
                        }
                      ],
                      "internalType": "struct EvmAffinePoint",
                      "name": "comm",
                      "type": "tuple"
                    },
                    {
                      "components": [
                        {
                          "internalType": "uint256",
                          "name": "x",
                          "type": "uint256"
                        },
                        {
                          "internalType": "uint256",
                          "name": "y",
                          "type": "uint256"
                        }
                      ],
                      "internalType": "struct EvmAffinePoint[]",
                      "name": "L",
                      "type": "tuple[]"
                    },
                    {
                      "components": [
                        {
                          "internalType": "uint256",
                          "name": "x",
                          "type": "uint256"
                        },
                        {
                          "internalType": "uint256",
                          "name": "y",
                          "type": "uint256"
                        }
                      ],
                      "internalType": "struct EvmAffinePoint[]",
                      "name": "R",
                      "type": "tuple[]"
                    },
                    {
                      "components": [
                        {
                          "internalType": "uint256",
                          "name": "x",
                          "type": "uint256"
                        },
                        {
                          "internalType": "uint256",
                          "name": "y",
                          "type": "uint256"
                        }
                      ],
                      "internalType": "struct EvmAffinePoint[]",
                      "name": "sGPowers",
                      "type": "tuple[]"
                    },
                    {
                      "components": [
                        {
                          "internalType": "uint256",
                          "name": "x",
                          "type": "uint256"
                        },
                        {
                          "internalType": "uint256",
                          "name": "y",
                          "type": "uint256"
                        }
                      ],
                      "internalType": "struct EvmAffinePoint",
                      "name": "R_zko",
                      "type": "tuple"
                    },
                    {
                      "internalType": "uint256",
                      "name": "z1",
                      "type": "uint256"
                    },
                    {
                      "internalType": "uint256",
                      "name": "z2",
                      "type": "uint256"
                    },
                    {
                      "internalType": "uint256",
                      "name": "y",
                      "type": "uint256"
                    }
                  ],
                  "internalType": "struct EvmInnerProductProof",
                  "name": "ipProof",
                  "type": "tuple"
                }
              ],
              "internalType": "struct EvmPolyEvalProof",
              "name": "zEvalProof",
              "type": "tuple"
            },
            {
              "internalType": "uint256",
              "name": "vA",
              "type": "uint256"
            },
            {
              "internalType": "uint256",
              "name": "vB",
              "type": "uint256"
            },
            {
              "internalType": "uint256",
              "name": "vC",
              "type": "uint256"
            },
            {
              "internalType": "uint256[]",
              "name": "publicInput",
              "type": "uint256[]"
            }
          ],
          "internalType": "struct FullProof",
          "name": "fullProof",
          "type": "tuple"
        },
        {
          "components": [
            {
              "components": [
                {
                  "internalType": "uint256",
                  "name": "index",
                  "type": "uint256"
                },
                {
                  "internalType": "uint256",
                  "name": "val",
                  "type": "uint256"
                }
              ],
              "internalType": "struct LagrangeEntry[]",
              "name": "A",
              "type": "tuple[]"
            },
            {
              "components": [
                {
                  "internalType": "uint256",
                  "name": "index",
                  "type": "uint256"
                },
                {
                  "internalType": "uint256",
                  "name": "val",
                  "type": "uint256"
                }
              ],
              "internalType": "struct LagrangeEntry[]",
              "name": "B",
              "type": "tuple[]"
            },
            {
              "components": [
                {
                  "internalType": "uint256",
                  "name": "index",
                  "type": "uint256"
                },
                {
                  "internalType": "uint256",
                  "name": "val",
                  "type": "uint256"
                }
              ],
              "internalType": "struct LagrangeEntry[]",
              "name": "C",
              "type": "tuple[]"
            },
            {
              "internalType": "uint256",
              "name": "zLen",
              "type": "uint256"
            }
          ],
          "internalType": "struct EvmR1CS",
          "name": "r1cs",
          "type": "tuple"
        },
        {
          "internalType": "enum VStep",
          "name": "step",
          "type": "uint8"
        },
        {
          "components": [
            {
              "internalType": "uint256",
              "name": "msmIndex",
              "type": "uint256"
            },
            {
              "internalType": "enum OpeningVStep",
              "name": "step",
              "type": "uint8"
            }
          ],
          "internalType": "struct OpeningVerifyAuxilaries",
          "name": "auxilaries",
          "type": "tuple"
        },
        {
          "components": [
            {
              "components": [
                {
                  "internalType": "uint256",
                  "name": "x",
                  "type": "uint256"
                },
                {
                  "internalType": "uint256",
                  "name": "y",
                  "type": "uint256"
                }
              ],
              "internalType": "struct EvmAffinePoint[]",
              "name": "G",
              "type": "tuple[]"
            },
            {
              "components": [
                {
                  "internalType": "uint256",
                  "name": "x",
                  "type": "uint256"
                },
                {
                  "internalType": "uint256",
                  "name": "y",
                  "type": "uint256"
                }
              ],
              "internalType": "struct EvmAffinePoint",
              "name": "H",
              "type": "tuple"
            },
            {
              "components": [
                {
                  "internalType": "uint256",
                  "name": "x",
                  "type": "uint256"
                },
                {
                  "internalType": "uint256",
                  "name": "y",
                  "type": "uint256"
                }
              ],
              "internalType": "struct EvmAffinePoint",
              "name": "u",
              "type": "tuple"
            }
          ],
          "internalType": "struct EvmGens",
          "name": "gens",
          "type": "tuple"
        }
      ],
      "name": "verifyProof",
      "outputs": [
        {
          "internalType": "bool",
          "name": "",
          "type": "bool"
        }
      ],
      "stateMutability": "nonpayable",
      "type": "function"
    }
  ],
  "bytecode": {
    "object": "0x6080806040523461001657613181908161001c8239f35b600080fdfe610100604052600436101561001357600080fd5b60003560e01c80630cd329391461160b57806328662876146115cd5780632b9c9ea11461159c57806332e7c5bf1461158057806337354912146115585780634417082514611516578063444d95b0146114e55780634a3d0f4b146106f257806354162dea146106895780635f576db61461067b57806368badbef1461064a57806378a63431146105e357806379bcaf3e146105a85780638e6c570314610573578063a2a36ae51461051f578063a4870669146102f7578063aebb1a4014610278578063cc4b457c146101ff578063f446c1d0146101e3578063fbe430e8146101855763fc6b9dd71461010457600080fd5b3461018057602080600319360112610180576004356001600160401b0381116101805761013861013d9136906004016116d2565b611af5565b906040519181839283018184528251809152816040850193019160005b82811061016957505050500390f35b83518552869550938101939281019260010161015a565b600080fd5b34610180576040366003190112610180576001600160401b03600435818111610180576101b69036906004016116d2565b90602435908111610180576020916101d56101db9236906004016116d2565b906119ab565b604051908152f35b3461018057600036600319011261018057602060405160008152f35b34610180576080366003190112610180576001600160401b03600435818111610180576102309036906004016117d2565b90602435818111610180576102499036906004016116d2565b916044359182116101805760209261026861026e933690600401611921565b91611d11565b6040519015158152f35b34610180576040366003190112610180576001600160401b03600435818111610180576102a99036906004016117b4565b90602435908111610180576102f3916102c96102cf9236906004016116d2565b906124f0565b60408051825181526020808401519082015291810151908201529081906060820190565b0390f35b34610180576080366003190112610180576001600160401b0360043581811161018057610328903690600401611897565b90602435818111610180576103419036906004016116d2565b906044359081116101805761035a903690600401611921565b91815191600192838082161460001461051a57838101809111610504575b80841c9061038581611a83565b92856000815b6104d7575b505061039d815183611ac8565b8281106104b7575050506103b081611a83565b906103ba81611a83565b9260005b82811061047457505050906103d56103db92611af5565b50611af5565b926103f16103ec60408401516125de565b612359565b60608151930192835151908151149182610461575b5050156104235760209361041a9251611d11565b50604051908152f35b60405162461bcd60e51b81526020600482015260166024820152750a8bee0e4d2daca40c8decae640dcdee840dac2e8c6d60531b6044820152606490fd5b6020919250810151910151148580610406565b806104826104b29284611997565b5161048d8287611997565b526104a161049b8583611d04565b84611997565b516104ac8288611997565b5261197b565b6103be565b6104d2906104a161049b6104cc855187611ac8565b83611ac8565b61039d565b6104e2835185611ac8565b8110156104ff578060006104ac6104f99389611997565b8161038b565b610390565b634e487b7160e01b600052601160045260246000fd5b610378565b346101805760c0366003190112610180576105393661168b565b6060366063190112610180576102cf6102f391604051906105598261164f565b6064358252608435602083015260a4356040830152612981565b34610180576040366003190112610180576102f36102cf60405161059681611634565b6004358152602435602082015261232b565b34610180576020366003190112610180576004356001600160401b038111610180576102cf6105de6102f39236906004016117b4565b6125de565b34610180576040366003190112610180576001600160401b03600435818111610180573660238201121561018057610625903690602481600401359101611758565b90602435908111610180576020916106446101db9236906004016116d2565b90612bca565b346101805760031960203682011261018057600435906001600160401b038211610180576080913603011261018057005b600036600319011261018057005b346101805760031960203682011261018057600435906001600160401b0382116101805760e0908236030112610180576106ca6106cf913690600401612ce6565b612f1b565b60005260006020526040600020600160ff19825416179055602060405160008152f35b346101805760031960c036820112610180576001600160401b03600435116101805760e08160043536030112610180576001600160401b0360243511610180576080816024353603011261018057600660443510156101805760403660631901126101805760a435906001600160401b0382116101805760a0908236030112610180576107876106ca36600435600401612ce6565b6000526000602052600160ff604060002054161515036114a9576107b86107b2600480350180612fff565b80613014565b90506107c381613093565b916107e46107de366107d9600480350180612fff565b612c21565b92613093565b916107f7366107d9600480350180612fff565b9260208401516401000003d019906401000003d019906021096000086000955b8551805188101561099c578761082c91611997565b519485518060001981011161050457610849906000190187611997565b5196600092835b885185101561087e57610878906401000003d0199061086f878c611997565b5190089461197b565b93610850565b909492979998919693506401000003d019910803610957576108a08684611997565b51938493600093845b8a518087101561094057866108ef57508a5180600019810111610504576108e9916401000003d019916108e090600019018e611997565b5190089561197b565b946108a9565b866108fc91999799611ac8565b80600019810111610504576108e9918c918861092b6401000003d019946401000003d019936000190190611997565b5109900895876401000003d01991099761197b565b506001909901995091979295509350909150610817565b60405162461bcd60e51b815260206004820152601860248201527f496e76616c696420726f756e6420706f6c796e6f6d69616c00000000000000006044820152606490fd5b5060408401516109af3687600401611921565b908451906000828060021b0460041483151715610504576109d28360021b611a83565b926000905b80821061135657505050916109f0916109f79493611d11565b50836119ab565b6401000003d01990610a1d60043560a48101359084906084810135906064013509611cc8565b096401000003d019906401000003d01960e06040870151015160210990080361130357604051928360808101106001600160401b036080860111176112d8576080840160405260038452606036602086013760005b600381106112ee5750610a848461198a565b5192845160011015610eba57604085015194805160021015610eba5793606086929395015190610acd610ac5366107d9602460043501600435600401612fff565b945151613093565b916401000003d0196401000003d01960208701516021096401000003d0198060043560a4013585096401000003d01980600435608401358a096401000003d019600435606401358909080808916000975b865180518a1015610c655789610b3391611997565b519687518060001981011161050457610b50906000190189611997565b5198600094855b8a51871015610b8557610b7f906401000003d01990610b76898e611997565b5190089661197b565b95610b57565b9095509a9990959196929793989a6401000003d01991080361095757610bab8882611997565b51958695600095865b8c5180891015610c4b5788610bfa57508c518060001981011161050457610bf491610beb8f6401000003d019936000190190611997565b5190089761197b565b96610bb4565b88610c07919b999b611ac8565b8060001981011161050457610bf4918e918a610c366401000003d019946401000003d019936000190190611997565b5109900897896401000003d01991099961197b565b5060019b909b019b50999098939750919550909350610b1e565b509694909295966040880151610c7e3683600401611921565b600060c052865190918115600380840284900414171561050457610ca460038302611a83565b9160006080525b806080511061118e575090610cc09291611d11565b50610cd6610cd18751875190611d04565b611a83565b9660005b8751811015610d015780610cf1610cfc928a611997565b516104ac828c611997565b610cda565b5088979496959760005b8951811015610d3c5780610d22610d37928c611997565b516104ac610d318b5184611d04565b8a611997565b610d0b565b5090919397959296610d6b86610d66610d5f602435600401602435600401613049565b3691611758565b612bca565b98610da1610d8988610d66610d5f6024803501602435600401613049565b97610d66610d5f604460243501602435600401613049565b99610db660c460043501600435600401613014565b9b905060018c018c1161050457610dcf60018d016116bb565b9b610ddd6040519d8e61166a565b600101808d52601f1990610df0906116bb565b018c60005b82811061116757505050604051610e0b81611634565b6000815260016020820152610e1f8d61198a565b52610e298c61198a565b5060005b610e4160c460043501600435600401613014565b9050811015610ed05760018101811161050457610e6860c460043501600435600401613014565b8291921015610eba57610eaf8e610eb59360405190610e8682611634565b6001850182528460051b01356020820152610ea46001850183611997565b526001830190611997565b5061197b565b610e2d565b634e487b7160e01b600052603260045260246000fd5b508b999a8b518060001981011161050457610eee9060001901611a83565b9960005b8d51806000198101116105045760001901811015610f385760018101811161050457808c8f82610f2c6104ac926001610f33970190611997565b5192611997565b610ef2565b508c610f688d610f4f8e6401000003d01992612bca565b610f61610f5b8561198a565b51611c87565b099161198a565b516401000003d019919082906020610f886004803560448101910161307e565b013590099008936401000003d0199760e060406401000003d0199201510151602109966401000003d019968795869109936401000003d01993849109916401000003d0199109080809080361112257611002610ff736610ff260446004350160043560040161307e565b611897565b923690600401611921565b815160018082160361111c576001810180911161050457905b8160011c61102883611a83565b9260005b611037865183611ac8565b811015611053578060006104ac61104e9388611997565b61102c565b50909193611062815183611ac8565b8281106111025750505061107581611a83565b9061107f81611a83565b9260005b8281106110ef57505050906103d561109a92611af5565b6110aa6103ec60408501516125de565b606081519401938451519081511491826110dc575b505015610423576110d09251611d11565b50602060405160018152f35b60209192508101519101511484806110bf565b806104826110fd9284611997565b611083565b611117906104a161049b6104cc855187611ac8565b611062565b9061101b565b60405162461bcd60e51b815260206004820152601960248201527f46696e616c206576616c20646f6573206e6f74206d61746368000000000000006044820152606490fd5b60209182826040519261117984611634565b60008452600083850152010152018d90610df5565b9692989360c09b96929a9591989b516112c057604051998a60808101106001600160401b0360808d0111176112d85760808b0160405260038b5260603660208d0137600160e05260005b60c0516112c057600381101561122257806112158f61120c908f61120261121d9660e05192611997565b5260805190611997565b5160e051611ab5565b60e05261197b565b6111d8565b50909192939496989b9597999a9b60c0515b60c0516112c057600381101561129f576002818103116105045761125c8d8260020390611997565b5160a052600060c0526003608051029060805182046003146080511517156105045761129a918f6104ac906112948460a05194611d04565b90611997565b611234565b509194979a509295989a9194979a6112b860805161197b565b608052610cab565b634e487b7160e01b60c051526011600452602460c051fd5b634e487b7160e01b600052604160045260246000fd5b8060216104ac6112fe9388611997565b610a72565b60405162461bcd60e51b815260206004820152602560248201527f506861736520312073756d20636865636b206576616c20646f6573206e6f74206044820152640dac2e8c6d60db1b6064820152608490fd5b939495829a9399929897919861149557604051968760a08101106001600160401b0360a08a0111176112d8578b9a60a0899d979d016040526004895260803660208b013760016000975b6114815760048810156113e2579c6113da6113d48e9f6113cd8f8f8f6113c78f8692611997565b52611997565b5190611ab5565b9861197b565b97909d6113a0565b509193969b9a909294979895508080915b61146d576004821015611450575060038082810311610504578161141891038a611997565b519a60009b8b8060021b046004148c1517156105045782611448918f8f95908f6104ac926112949160021b611d04565b91909b6113f3565b93979b95999050611467919498509991959961197b565b906109d7565b634e487b7160e01b81526011600452602490fd5b634e487b7160e01b8d52601160045260248dfd5b634e487b7160e01b8b52601160045260248bfd5b60405162461bcd60e51b8152602060048201526014602482015273141c9bdbd988191bd95cc81b9bdd08195e1a5cdd60621b6044820152606490fd5b34610180576020366003190112610180576004356000526000602052602060ff604060002054166040519015158152f35b34610180576060366003190112610180576102f361153b6044356024356004356129bc565b604080519384526020840192909252908201529081906060820190565b34610180576080366003190112610180576102f361153b606435604435602435600435612ac2565b3461018057600036600319011261018057602060405160078152f35b346101805760603660031901126101805760406115bb6103ec3661168b565b60208251918051835201516020820152f35b34610180576040366003190112610180576004356001600160401b038111610180576101db61160260209236906004016116d2565b60243590611beb565b34610180576080366003190112610180576102f36102cf61162b3661168b565b60643590612ba9565b604081019081106001600160401b038211176112d857604052565b606081019081106001600160401b038211176112d857604052565b90601f801991011681019081106001600160401b038211176112d857604052565b606090600319011261018057604051906116a48261164f565b600435825260243560208301526044356040830152565b6001600160401b0381116112d85760051b60200190565b9080601f830112156101805760209082356116ec816116bb565b936116fa604051958661166a565b818552838086019260051b820101928311610180578301905b828210611721575050505090565b81358152908301908301611713565b91908260409103126101805760405161174881611634565b6020808294803584520135910152565b929192611764826116bb565b6040926117738451928361166a565b819581835260208093019160061b84019381851161018057915b84831061179c57505050505050565b8386916117a98486611730565b81520192019161178d565b9080601f83011215610180578160206117cf93359101611758565b90565b91909161014081840312610180576040519061010093848301916001600160401b0392848110848211176112d857604052839561180f8383611730565b8552604082013584811161018057836118299184016117b4565b6020860152606082013584811161018057836118469184016117b4565b604086015260808201359384116101805761187a8361186c6101209560e09786016117b4565b606088015260a08401611730565b60808601528382013560a086015281013560c08501520135910152565b91909160808184031261018057604051906001600160401b039060808301828111848210176112d8576040528294813583811161018057816118da9184016117b4565b845260208201356020850152604082013583811161018057816118fe9184016117b4565b604085015260608201359283116101805760609261191c92016117d2565b910152565b919060a083820312610180576040519061193a8261164f565b81938035916001600160401b038311610180576060826119618360409661191c96016117b4565b86526119708360208301611730565b602087015201611730565b60001981146105045760010190565b805115610eba5760200190565b8051821015610eba5760209160051b010190565b8051825103611a34576001809181936000935b6119ca575b5050505090565b909192938251851015611a2e57611a25906119e58685611997565b51906401000003d0198080936119fb8a88611997565b51900981611a0c610f5b8b8a611997565b611a19610f5b8c8a611997565b9009900890099461197b565b929190826119be565b936119c3565b60405162461bcd60e51b815260206004820152602160248201527f7220616e642078206d7573742068617665207468652073616d65206c656e67746044820152600d60fb1b6064820152608490fd5b90611a8d826116bb565b611a9a604051918261166a565b8281528092611aab601f19916116bb565b0190602036910137565b8181029291811591840414171561050457565b9190820391821161050457565b8115611adf570490565b634e487b7160e01b600052601260045260246000fd5b80519060ff821161050457600180831b92611b0f84611a83565b9360005b818110611bd75750508160005b828110611b2f57505050505090565b81841b9180830460021490151715610504576000198083018381116105045790859291805b611b61575b505001611b20565b909192611b7382611ba4921c8a611997565b516401000003d019611b85868b611997565b518209611b92848c611997565b52611b9d838b611997565b5190611cc8565b82820182811161050457611bb8908a611997565b5285808214611bd05750859291906001190180611b54565b9291611b59565b80846104ac611be69389611997565b611b13565b906001918281516000935b818510611c0557505050505090565b90919293946000848084891c1614600014611c595750611c258684611ac8565b60001981019190821161050457611c3f611c509287611997565b515b6401000003d01991099561197b565b93929190611bf6565b611c638785611ac8565b60001981019190821161146d575090611c82610f5b611c509388611997565b611c41565b80600110611ca65760010360018111610504576401000003d019900690565b6000198101908111610504576401000003d01980910681039081116105045790565b90808210611ce557611ce1906401000003d01992611ac8565b0690565b611cf76401000003d019928392611ac8565b0681039081116105045790565b9190820180921161050457565b91908051916020938480820180515195604096611d38611d338988015161232b565b612b2d565b9688611d45855151613093565b611d4e84611a83565b9260005b8581106121f15750611d6386611a83565b9560005b8181106121765750611d7881611a83565b60005b82811061213a5750505060005b8581106120a05750611d9c611df19161198a565b5195611dca8b51518551611daf81611634565b600a815269472e6c656e282920257360b01b8c8201526130c1565b518351611dd681611634565b600a815269732e6c656e282920257360b01b8a8201526130c1565b611dfe60608901516125de565b95611e21611e0c8a5161232b565b611e1b8d60e08d015190612ba9565b90612981565b94611e2b81611a83565b9260005b828110612057575050611e4181611a83565b9460005b82811061200e57505050611ec0611ee89a97611e1b611e1b98611eba611e988e9a611ee29f611edc9f9990611e1b60c09d611ed39d611e8b611e9395611ecb9e516124f0565b9301516124f0565b612981565b611e1b611eb360808d0192611ead845161232b565b50612b2d565b915161232b565b9e612ba9565b60a086015190612ba9565b95015161232b565b91015190612ba9565b92612359565b91612359565b90611f1381518451611ef981611634565b60098152686c68732e783a20257360b81b878201526130c1565b83810191611f4183518551611f2781611634565b60098152686c68732e793a20257360b81b888201526130c1565b611f6b81518551611f5181611634565b60098152687268732e783a20257360b81b888201526130c1565b84810191611f9983518651611f7f81611634565b60098152687268732e793a20257360b81b898201526130c1565b519051149182612001575b505015611fb2575050600190565b60849250519062461bcd60e51b82526004820152602360248201527f496e6e65722070726f6475637420657175616c69747920636865636b206661696044820152621b195960ea1b6064820152fd5b5190511490503880611fa4565b9092945061204791939596979899506120278184611997565b516401000003d0199061203a8386611997565b5190096104ac8289611997565b918c93918e999897969593611e45565b9092945061209091939596979899506120708184611997565b516401000003d019906120838386611997565b5190096104ac8288611997565b918c93918e999897969593611e2f565b846120b49293959697989950819450611997565b51906120c08385611997565b5191815160011c906120d182611a83565b9360005b8381106120f95750505050506120eb909161197b565b918a918c9796959493611d88565b612135906401000003d0198085612110848a611997565b510981856121276121218a87611d04565b8b611997565b510990086104ac8289611997565b6120d5565b909294508798995061215c61215682612166949698999a611997565b51612223565b6104ac8285611997565b918c93918e999897969593611d7b565b91935091939495969750600160005b8781106121ab57509061219c916104ac828a611997565b918c9796959493918c93611d67565b906121da9060018085851c16146000146121df576401000003d019906121d18489611997565b5190099161197b565b612185565b6401000003d019906121d1848a611997565b9092508193949596975061220b6121568261221594611997565b6104ac8287611997565b918a918c9796959493611d52565b801515806122fc575b806122f4575b156122be576000908160016401000003d019835b612251575050505090565b61226084829693949596611ad5565b916401000003d0198484096401000003d019036401000003d01981116122aa576122a1929161229b916401000003d019910894968094611ab5565b90611ac8565b92919083612246565b634e487b7160e01b86526011600452602486fd5b60405162461bcd60e51b815260206004820152600e60248201526d24b73b30b634b210373ab6b132b960911b6044820152606490fd5b506001612232565b506401000003d01981141561222c565b604051906123198261164f565b60006040838281528260208201520152565b61233361230c565b5060208151910151604051916123488361164f565b825260208201526001604082015290565b60209060405161236881611634565b6000928184809352015260408101805192831515806124d4575b806124cc575b156122be579283600170014551231950b75fc4402da1732fc9bebe19835b61244957505050506001908370014551231950b75fc4402da1732fc9bebe19915109036124155770014551231950b75fc4402da1732fc9bebe198282510991602070014551231950b75fc4402da1732fc9bebe19920151096040519161240b83611634565b8252602082015290565b60405162461bcd60e51b815260206004820152600c60248201526b24b73b30b634b2103d24b73b60a11b6044820152606490fd5b61245884829893949598611ad5565b9170014551231950b75fc4402da1732fc9bebe1984840970014551231950b75fc4402da1732fc9bebe190370014551231950b75fc4402da1732fc9bebe1981116122aa576124c3929161229b9170014551231950b75fc4402da1732fc9bebe19910894988094611ab5565b929190836123a6565b506001612388565b5070014551231950b75fc4402da1732fc9bebe19841415612382565b906124f961230c565b5081518151036125a75790600091829060019081809486935b612537575b50505050604051926125288461164f565b83526020830152604082015290565b919382959193955186101561259e5790859661258a9261258061255e889961259599611997565b516125698b88611997565b515160206125778d8a611997565b51015190612a57565b949192909361275b565b95919490949661197b565b92909181612512565b93819550612517565b60405162461bcd60e51b815260206004820152600f60248201526e098cadccee8d040dad2e6dac2e8c6d608b1b6044820152606490fd5b6125e661230c565b5060009081600180928185925b612608575b505050604051926125288461164f565b929093849592955186101561265557916126439161264e949361262b8888611997565b515191602061263a8a8a611997565b51015193612661565b94919390939561197b565b91806125f3565b938295508193506125f8565b94929193851561274e57821561274757858314808061273d575b61272b5761271657849291839170014551231950b75fc4402da1732fc9bebe19808099819782808080809a816001819c0999096126b8908961293e565b94600190099c8d9a0991816126cd848c61293e565b9e8f94818087800994600190099c088209828b8187800909906126ef9161293e565b97889382099c09906127009161293e565b900991880961270e9161293e565b960994930990565b5090506127249291936129bc565b9192909190565b50505050915050600090600090600190565b508183141561267b565b5092919050565b9450509091509190600190565b9291949593831561293357821561292a578383148080612920575b61290d576128fd57906127b76128cd928770014551231950b75fc4402da1732fc9bebe19910970014551231950b75fc4402da1732fc9bebe1989840961293e565b966127ec70014551231950b75fc4402da1732fc9bebe1988860970014551231950b75fc4402da1732fc9bebe1983880961293e565b9361286e70014551231950b75fc4402da1732fc9bebe198680099170014551231950b75fc4402da1732fc9bebe19848b099970014551231950b75fc4402da1732fc9bebe1991829182910970014551231950b75fc4402da1732fc9bebe19868b0908830970014551231950b75fc4402da1732fc9bebe198a818d80090961293e565b986128ab8a70014551231950b75fc4402da1732fc9bebe198885099870014551231950b75fc4402da1732fc9bebe1994859182908890090961293e565b90099170014551231950b75fc4402da1732fc9bebe199182910985099061293e565b9470014551231950b75fc4402da1732fc9bebe199109939270014551231950b75fc4402da1732fc9bebe19910990565b50919050612724939294506129bc565b5050505050915050600090600090600190565b5081831415612776565b50945050929190565b959450509050929190565b9080821061296357611ce19070014551231950b75fc4402da1732fc9bebe1992611ac8565b611cf770014551231950b75fc4402da1732fc9bebe19928392611ac8565b6129ae9161298d61230c565b5081519160406020820151910151825191604060208501519401519461275b565b90604051926125288461164f565b9192908015612a4a5780612a3d612a2f928570014551231950b75fc4402da1732fc9bebe198089819a97828080809b9a818080809e9b8180809e8181819209600009928009600309089783096002099e098d0960020995612a2484886002098585800961293e565b9c8d918d099661293e565b90099280096002099061293e565b9484099392818180090990565b5060009250829150600190565b9290926001908315612abc576000918295819592835b612a7a5750505050929190565b60018416612a9a575b90612a8e92916129bc565b919260011c9283612a6d565b93918185612aae9398839a612a8e9661275b565b909790969194909250612a83565b93925090565b9391938315612b26576000918295600191829693845b612ae6575050505050929190565b838516612b04575b90612af992916129bc565b9193831c9384612ad8565b94918186612b189399839b612af99661275b565b909890979195909250612aee565b9390925090565b612b3561230c565b508051602082015160409092015160009260019284926021928592845b612b68575050505050604051926125288461164f565b838516612b86575b90612b7b92916129bc565b9193831c9384612b52565b969181888298612b9a9498612b7b9661275b565b96919590959790919250612b70565b906129ae91612bb661230c565b508051906040602082015191015191612ac2565b60009291835b8251851015612c1b57612c1590612bf2612bea8786611997565b515184611beb565b906401000003d01980926020612c088a89611997565b510151900990089461197b565b93612bd0565b93505050565b91906060838203126101805760405190612c3a8261164f565b81938035916001600160401b039283811161018057820181601f82011215610180576020908035612c6a816116bb565b91612c78604051938461166a565b818352838084019260051b8201019185831161018057848201905b838210612cc157505050508552808301359085015260408201359283116101805760409261191c92016117d2565b8135898111610180578691612cdb898480948801016116d2565b815201910190612c93565b91909160e08184031261018057604051906001600160401b039060e08301828111848210176112d857604052829481358381116101805781612d29918401612c21565b845260208201358381116101805781612d43918401612c21565b602085015260408201358381116101805781612d60918401611897565b6040850152606082013560608501526080820135608085015260a082013560a085015260c08201359283116101805760c09261191c92016116d2565b90815180825260208080930193019160005b828110612dbc575050505090565b835185529381019392810192600101612dae565b90815180825260208080930193019160005b828110612df0575050505090565b8351805186528201518583015260409094019392810192600101612de2565b9061012060e0612e68612e56612e44610140602088518051895201516020880152602088015190806040890152870190612dd0565b60408701518682036060880152612dd0565b60608601518582036080870152612dd0565b9360206080820151805160a0870152015160c085015260a08101518285015260c0810151610100850152015191015290565b919091606083019080516060855280518093526080850160808460051b870101936020809301916000905b828210612ef1575050505081816040926117cf9697940151908401520151906040818403910152612e0f565b909192958480612f0d600193607f198d82030186528a51612d9c565b980192019201909291612ec5565b604051612ff981612feb602082019460208652612f45815160e06040860152610120850190612e9a565b60c0612fbb612f66602085015193603f1994858983030160608a0152612e9a565b604085015190848882030160808901526060612faa612f8e8451608085526080850190612dd0565b6020850151602085015260408501518482036040860152612dd0565b920151906060818403910152612e0f565b92606081015160a087015260808101518287015260a081015160e087015201519084830301610100850152612d9c565b03601f19810183528261166a565b51902090565b903590605e1981360301821215610180570190565b903590601e198136030182121561018057018035906001600160401b03821161018057602001918160051b3603831361018057565b903590601e198136030182121561018057018035906001600160401b03821161018057602001918160061b3603831361018057565b903590607e1981360301821215610180570190565b61309c81611a83565b9060005b8181106130ac57505090565b8060216104ac6130bc9386611997565b6130a0565b60405190602092838301936309710a9d60e41b85526040602485015282519283606486015260005b848110613137575050509161312460848284600097959688848199850101526044830152601f8019910116810103606481018452018261166a565b51906a636f6e736f6c652e6c6f675afa50565b8181018301518682016084015282016130e956fea2646970667358221220b539c1652f473ec0ef94257f3831d616ce4b5441afac70b34e6bfb36e48e1cba64736f6c63430008150033",
    "linkReferences": {}
  },
  "methodIdentifiers": {
    "A()": "f446c1d0",
    "B()": "32e7c5bf",
    "_mul(uint256,uint256,uint256,uint256)": "37354912",
    "add((uint256,uint256,uint256),(uint256,uint256,uint256))": "a2a36ae5",
    "addCircuit(((uint256,uint256)[],(uint256,uint256)[],(uint256,uint256)[],uint256))": "68badbef",
    "double(uint256,uint256,uint256)": "44170825",
    "eval((uint256,uint256)[],uint256[])": "78a63431",
    "eval(uint256[],uint256[])": "fbe430e8",
    "evalAsBits(uint256[],uint256)": "28662876",
    "evals(uint256[])": "fc6b9dd7",
    "msm_naive((uint256,uint256)[],uint256[])": "aebb1a40",
    "mul((uint256,uint256,uint256),uint256)": "0cd32939",
    "newStake()": "5f576db6",
    "proofs(bytes32)": "444d95b0",
    "submitProof(((uint256[][],uint256,((uint256,uint256),(uint256,uint256)[],(uint256,uint256)[],(uint256,uint256)[],(uint256,uint256),uint256,uint256,uint256)),(uint256[][],uint256,((uint256,uint256),(uint256,uint256)[],(uint256,uint256)[],(uint256,uint256)[],(uint256,uint256),uint256,uint256,uint256)),((uint256,uint256)[],uint256,(uint256,uint256)[],((uint256,uint256),(uint256,uint256)[],(uint256,uint256)[],(uint256,uint256)[],(uint256,uint256),uint256,uint256,uint256)),uint256,uint256,uint256,uint256[]))": "54162dea",
    "sum((uint256,uint256)[])": "79bcaf3e",
    "toAffine((uint256,uint256,uint256))": "2b9c9ea1",
    "toProjective((uint256,uint256))": "8e6c5703",
    "verify(((uint256,uint256),(uint256,uint256)[],(uint256,uint256)[],(uint256,uint256)[],(uint256,uint256),uint256,uint256,uint256),uint256[],((uint256,uint256)[],(uint256,uint256),(uint256,uint256)),bytes32)": "cc4b457c",
    "verify(((uint256,uint256)[],uint256,(uint256,uint256)[],((uint256,uint256),(uint256,uint256)[],(uint256,uint256)[],(uint256,uint256)[],(uint256,uint256),uint256,uint256,uint256)),uint256[],((uint256,uint256)[],(uint256,uint256),(uint256,uint256)),bytes32)": "a4870669",
    "verifyProof(((uint256[][],uint256,((uint256,uint256),(uint256,uint256)[],(uint256,uint256)[],(uint256,uint256)[],(uint256,uint256),uint256,uint256,uint256)),(uint256[][],uint256,((uint256,uint256),(uint256,uint256)[],(uint256,uint256)[],(uint256,uint256)[],(uint256,uint256),uint256,uint256,uint256)),((uint256,uint256)[],uint256,(uint256,uint256)[],((uint256,uint256),(uint256,uint256)[],(uint256,uint256)[],(uint256,uint256)[],(uint256,uint256),uint256,uint256,uint256)),uint256,uint256,uint256,uint256[]),((uint256,uint256)[],(uint256,uint256)[],(uint256,uint256)[],uint256),uint8,(uint256,uint8),((uint256,uint256)[],(uint256,uint256),(uint256,uint256)))": "4a3d0f4b"
  },
  "id": 7
}