{
  "abi": [
    {
      "inputs": [],
      "stateMutability": "nonpayable",
      "type": "constructor"
    },
    {
      "inputs": [],
      "name": "A",
      "outputs": [
        {
          "internalType": "uint256",
          "name": "",
          "type": "uint256"
        }
      ],
      "stateMutability": "view",
      "type": "function"
    },
    {
      "inputs": [],
      "name": "B",
      "outputs": [
        {
          "internalType": "uint256",
          "name": "",
          "type": "uint256"
        }
      ],
      "stateMutability": "view",
      "type": "function"
    },
    {
      "inputs": [
        {
          "internalType": "uint256",
          "name": "px",
          "type": "uint256"
        },
        {
          "internalType": "uint256",
          "name": "py",
          "type": "uint256"
        },
        {
          "internalType": "uint256",
          "name": "pz",
          "type": "uint256"
        },
        {
          "internalType": "uint256",
          "name": "scalar",
          "type": "uint256"
        }
      ],
      "name": "_mul",
      "outputs": [
        {
          "internalType": "uint256",
          "name": "",
          "type": "uint256"
        },
        {
          "internalType": "uint256",
          "name": "",
          "type": "uint256"
        },
        {
          "internalType": "uint256",
          "name": "",
          "type": "uint256"
        }
      ],
      "stateMutability": "view",
      "type": "function"
    },
    {
      "inputs": [
        {
          "components": [
            {
              "internalType": "uint256",
              "name": "x",
              "type": "uint256"
            },
            {
              "internalType": "uint256",
              "name": "y",
              "type": "uint256"
            },
            {
              "internalType": "uint256",
              "name": "z",
              "type": "uint256"
            }
          ],
          "internalType": "struct EvmProjectivePoint",
          "name": "p0",
          "type": "tuple"
        },
        {
          "components": [
            {
              "internalType": "uint256",
              "name": "x",
              "type": "uint256"
            },
            {
              "internalType": "uint256",
              "name": "y",
              "type": "uint256"
            },
            {
              "internalType": "uint256",
              "name": "z",
              "type": "uint256"
            }
          ],
          "internalType": "struct EvmProjectivePoint",
          "name": "p1",
          "type": "tuple"
        }
      ],
      "name": "add",
      "outputs": [
        {
          "components": [
            {
              "internalType": "uint256",
              "name": "x",
              "type": "uint256"
            },
            {
              "internalType": "uint256",
              "name": "y",
              "type": "uint256"
            },
            {
              "internalType": "uint256",
              "name": "z",
              "type": "uint256"
            }
          ],
          "internalType": "struct EvmProjectivePoint",
          "name": "",
          "type": "tuple"
        }
      ],
      "stateMutability": "view",
      "type": "function"
    },
    {
      "inputs": [
        {
          "components": [
            {
              "components": [
                {
                  "internalType": "uint256",
                  "name": "index",
                  "type": "uint256"
                },
                {
                  "internalType": "uint256",
                  "name": "val",
                  "type": "uint256"
                }
              ],
              "internalType": "struct LagrangeEntry[]",
              "name": "A",
              "type": "tuple[]"
            },
            {
              "components": [
                {
                  "internalType": "uint256",
                  "name": "index",
                  "type": "uint256"
                },
                {
                  "internalType": "uint256",
                  "name": "val",
                  "type": "uint256"
                }
              ],
              "internalType": "struct LagrangeEntry[]",
              "name": "B",
              "type": "tuple[]"
            },
            {
              "components": [
                {
                  "internalType": "uint256",
                  "name": "index",
                  "type": "uint256"
                },
                {
                  "internalType": "uint256",
                  "name": "val",
                  "type": "uint256"
                }
              ],
              "internalType": "struct LagrangeEntry[]",
              "name": "C",
              "type": "tuple[]"
            },
            {
              "internalType": "uint256",
              "name": "zLen",
              "type": "uint256"
            }
          ],
          "internalType": "struct EvmR1CS",
          "name": "r1cs",
          "type": "tuple"
        }
      ],
      "name": "addCircuit",
      "outputs": [],
      "stateMutability": "nonpayable",
      "type": "function"
    },
    {
      "inputs": [
        {
          "internalType": "uint256",
          "name": "x",
          "type": "uint256"
        },
        {
          "internalType": "uint256",
          "name": "y",
          "type": "uint256"
        },
        {
          "internalType": "uint256",
          "name": "z",
          "type": "uint256"
        }
      ],
      "name": "double",
      "outputs": [
        {
          "internalType": "uint256",
          "name": "",
          "type": "uint256"
        },
        {
          "internalType": "uint256",
          "name": "",
          "type": "uint256"
        },
        {
          "internalType": "uint256",
          "name": "",
          "type": "uint256"
        }
      ],
      "stateMutability": "view",
      "type": "function"
    },
    {
      "inputs": [
        {
          "components": [
            {
              "internalType": "uint256",
              "name": "index",
              "type": "uint256"
            },
            {
              "internalType": "uint256",
              "name": "val",
              "type": "uint256"
            }
          ],
          "internalType": "struct LagrangeEntry[]",
          "name": "lagrangePoly",
          "type": "tuple[]"
        },
        {
          "internalType": "uint256[]",
          "name": "x",
          "type": "uint256[]"
        }
      ],
      "name": "eval",
      "outputs": [
        {
          "internalType": "uint256",
          "name": "",
          "type": "uint256"
        }
      ],
      "stateMutability": "nonpayable",
      "type": "function"
    },
    {
      "inputs": [
        {
          "internalType": "uint256[]",
          "name": "r",
          "type": "uint256[]"
        },
        {
          "internalType": "uint256[]",
          "name": "x",
          "type": "uint256[]"
        }
      ],
      "name": "eval",
      "outputs": [
        {
          "internalType": "uint256",
          "name": "",
          "type": "uint256"
        }
      ],
      "stateMutability": "nonpayable",
      "type": "function"
    },
    {
      "inputs": [
        {
          "internalType": "uint256[]",
          "name": "r",
          "type": "uint256[]"
        },
        {
          "internalType": "uint256",
          "name": "x",
          "type": "uint256"
        }
      ],
      "name": "evalAsBits",
      "outputs": [
        {
          "internalType": "uint256",
          "name": "",
          "type": "uint256"
        }
      ],
      "stateMutability": "nonpayable",
      "type": "function"
    },
    {
      "inputs": [
        {
          "internalType": "uint256[]",
          "name": "t",
          "type": "uint256[]"
        }
      ],
      "name": "evals",
      "outputs": [
        {
          "internalType": "uint256[]",
          "name": "",
          "type": "uint256[]"
        }
      ],
      "stateMutability": "pure",
      "type": "function"
    },
    {
      "inputs": [
        {
          "components": [
            {
              "internalType": "uint256",
              "name": "x",
              "type": "uint256"
            },
            {
              "internalType": "uint256",
              "name": "y",
              "type": "uint256"
            }
          ],
          "internalType": "struct EvmAffinePoint[]",
          "name": "bases",
          "type": "tuple[]"
        },
        {
          "internalType": "uint256[]",
          "name": "scalars",
          "type": "uint256[]"
        }
      ],
      "name": "msm_naive",
      "outputs": [
        {
          "components": [
            {
              "internalType": "uint256",
              "name": "x",
              "type": "uint256"
            },
            {
              "internalType": "uint256",
              "name": "y",
              "type": "uint256"
            },
            {
              "internalType": "uint256",
              "name": "z",
              "type": "uint256"
            }
          ],
          "internalType": "struct EvmProjectivePoint",
          "name": "",
          "type": "tuple"
        }
      ],
      "stateMutability": "view",
      "type": "function"
    },
    {
      "inputs": [
        {
          "components": [
            {
              "internalType": "uint256",
              "name": "x",
              "type": "uint256"
            },
            {
              "internalType": "uint256",
              "name": "y",
              "type": "uint256"
            },
            {
              "internalType": "uint256",
              "name": "z",
              "type": "uint256"
            }
          ],
          "internalType": "struct EvmProjectivePoint",
          "name": "point",
          "type": "tuple"
        },
        {
          "internalType": "uint256",
          "name": "scalar",
          "type": "uint256"
        }
      ],
      "name": "mul",
      "outputs": [
        {
          "components": [
            {
              "internalType": "uint256",
              "name": "x",
              "type": "uint256"
            },
            {
              "internalType": "uint256",
              "name": "y",
              "type": "uint256"
            },
            {
              "internalType": "uint256",
              "name": "z",
              "type": "uint256"
            }
          ],
          "internalType": "struct EvmProjectivePoint",
          "name": "",
          "type": "tuple"
        }
      ],
      "stateMutability": "view",
      "type": "function"
    },
    {
      "inputs": [],
      "name": "newStake",
      "outputs": [],
      "stateMutability": "payable",
      "type": "function"
    },
    {
      "inputs": [
        {
          "internalType": "bytes32",
          "name": "",
          "type": "bytes32"
        }
      ],
      "name": "proofs",
      "outputs": [
        {
          "internalType": "bool",
          "name": "",
          "type": "bool"
        }
      ],
      "stateMutability": "view",
      "type": "function"
    },
    {
      "inputs": [
        {
          "components": [
            {
              "components": [
                {
                  "internalType": "uint256[][]",
                  "name": "roundPolysCoeffs",
                  "type": "uint256[][]"
                },
                {
                  "internalType": "uint256",
                  "name": "blindPolySum",
                  "type": "uint256"
                },
                {
                  "components": [
                    {
                      "components": [
                        {
                          "internalType": "uint256",
                          "name": "x",
                          "type": "uint256"
                        },
                        {
                          "internalType": "uint256",
                          "name": "y",
                          "type": "uint256"
                        }
                      ],
                      "internalType": "struct EvmAffinePoint",
                      "name": "comm",
                      "type": "tuple"
                    },
                    {
                      "components": [
                        {
                          "internalType": "uint256",
                          "name": "x",
                          "type": "uint256"
                        },
                        {
                          "internalType": "uint256",
                          "name": "y",
                          "type": "uint256"
                        }
                      ],
                      "internalType": "struct EvmAffinePoint[]",
                      "name": "L",
                      "type": "tuple[]"
                    },
                    {
                      "components": [
                        {
                          "internalType": "uint256",
                          "name": "x",
                          "type": "uint256"
                        },
                        {
                          "internalType": "uint256",
                          "name": "y",
                          "type": "uint256"
                        }
                      ],
                      "internalType": "struct EvmAffinePoint[]",
                      "name": "R",
                      "type": "tuple[]"
                    },
                    {
                      "components": [
                        {
                          "internalType": "uint256",
                          "name": "x",
                          "type": "uint256"
                        },
                        {
                          "internalType": "uint256",
                          "name": "y",
                          "type": "uint256"
                        }
                      ],
                      "internalType": "struct EvmAffinePoint[]",
                      "name": "sAGPowers",
                      "type": "tuple[]"
                    },
                    {
                      "components": [
                        {
                          "internalType": "uint256",
                          "name": "x",
                          "type": "uint256"
                        },
                        {
                          "internalType": "uint256",
                          "name": "y",
                          "type": "uint256"
                        }
                      ],
                      "internalType": "struct EvmAffinePoint[]",
                      "name": "sBGPowers",
                      "type": "tuple[]"
                    },
                    {
                      "components": [
                        {
                          "internalType": "uint256",
                          "name": "x",
                          "type": "uint256"
                        },
                        {
                          "internalType": "uint256",
                          "name": "y",
                          "type": "uint256"
                        }
                      ],
                      "internalType": "struct EvmAffinePoint[]",
                      "name": "bhPowers",
                      "type": "tuple[]"
                    },
                    {
                      "internalType": "uint256",
                      "name": "a",
                      "type": "uint256"
                    },
                    {
                      "internalType": "uint256",
                      "name": "y",
                      "type": "uint256"
                    }
                  ],
                  "internalType": "struct EvmInnerProductProof",
                  "name": "blindPolyEvalProof",
                  "type": "tuple"
                }
              ],
              "internalType": "struct EvmSumCheckProof",
              "name": "scProof1",
              "type": "tuple"
            },
            {
              "components": [
                {
                  "internalType": "uint256[][]",
                  "name": "roundPolysCoeffs",
                  "type": "uint256[][]"
                },
                {
                  "internalType": "uint256",
                  "name": "blindPolySum",
                  "type": "uint256"
                },
                {
                  "components": [
                    {
                      "components": [
                        {
                          "internalType": "uint256",
                          "name": "x",
                          "type": "uint256"
                        },
                        {
                          "internalType": "uint256",
                          "name": "y",
                          "type": "uint256"
                        }
                      ],
                      "internalType": "struct EvmAffinePoint",
                      "name": "comm",
                      "type": "tuple"
                    },
                    {
                      "components": [
                        {
                          "internalType": "uint256",
                          "name": "x",
                          "type": "uint256"
                        },
                        {
                          "internalType": "uint256",
                          "name": "y",
                          "type": "uint256"
                        }
                      ],
                      "internalType": "struct EvmAffinePoint[]",
                      "name": "L",
                      "type": "tuple[]"
                    },
                    {
                      "components": [
                        {
                          "internalType": "uint256",
                          "name": "x",
                          "type": "uint256"
                        },
                        {
                          "internalType": "uint256",
                          "name": "y",
                          "type": "uint256"
                        }
                      ],
                      "internalType": "struct EvmAffinePoint[]",
                      "name": "R",
                      "type": "tuple[]"
                    },
                    {
                      "components": [
                        {
                          "internalType": "uint256",
                          "name": "x",
                          "type": "uint256"
                        },
                        {
                          "internalType": "uint256",
                          "name": "y",
                          "type": "uint256"
                        }
                      ],
                      "internalType": "struct EvmAffinePoint[]",
                      "name": "sAGPowers",
                      "type": "tuple[]"
                    },
                    {
                      "components": [
                        {
                          "internalType": "uint256",
                          "name": "x",
                          "type": "uint256"
                        },
                        {
                          "internalType": "uint256",
                          "name": "y",
                          "type": "uint256"
                        }
                      ],
                      "internalType": "struct EvmAffinePoint[]",
                      "name": "sBGPowers",
                      "type": "tuple[]"
                    },
                    {
                      "components": [
                        {
                          "internalType": "uint256",
                          "name": "x",
                          "type": "uint256"
                        },
                        {
                          "internalType": "uint256",
                          "name": "y",
                          "type": "uint256"
                        }
                      ],
                      "internalType": "struct EvmAffinePoint[]",
                      "name": "bhPowers",
                      "type": "tuple[]"
                    },
                    {
                      "internalType": "uint256",
                      "name": "a",
                      "type": "uint256"
                    },
                    {
                      "internalType": "uint256",
                      "name": "y",
                      "type": "uint256"
                    }
                  ],
                  "internalType": "struct EvmInnerProductProof",
                  "name": "blindPolyEvalProof",
                  "type": "tuple"
                }
              ],
              "internalType": "struct EvmSumCheckProof",
              "name": "scProof2",
              "type": "tuple"
            },
            {
              "components": [
                {
                  "components": [
                    {
                      "internalType": "uint256",
                      "name": "x",
                      "type": "uint256"
                    },
                    {
                      "internalType": "uint256",
                      "name": "y",
                      "type": "uint256"
                    }
                  ],
                  "internalType": "struct EvmAffinePoint[]",
                  "name": "T",
                  "type": "tuple[]"
                },
                {
                  "internalType": "uint256",
                  "name": "y",
                  "type": "uint256"
                },
                {
                  "components": [
                    {
                      "internalType": "uint256",
                      "name": "x",
                      "type": "uint256"
                    },
                    {
                      "internalType": "uint256",
                      "name": "y",
                      "type": "uint256"
                    }
                  ],
                  "internalType": "struct EvmAffinePoint[]",
                  "name": "TLpowers",
                  "type": "tuple[]"
                },
                {
                  "components": [
                    {
                      "components": [
                        {
                          "internalType": "uint256",
                          "name": "x",
                          "type": "uint256"
                        },
                        {
                          "internalType": "uint256",
                          "name": "y",
                          "type": "uint256"
                        }
                      ],
                      "internalType": "struct EvmAffinePoint",
                      "name": "comm",
                      "type": "tuple"
                    },
                    {
                      "components": [
                        {
                          "internalType": "uint256",
                          "name": "x",
                          "type": "uint256"
                        },
                        {
                          "internalType": "uint256",
                          "name": "y",
                          "type": "uint256"
                        }
                      ],
                      "internalType": "struct EvmAffinePoint[]",
                      "name": "L",
                      "type": "tuple[]"
                    },
                    {
                      "components": [
                        {
                          "internalType": "uint256",
                          "name": "x",
                          "type": "uint256"
                        },
                        {
                          "internalType": "uint256",
                          "name": "y",
                          "type": "uint256"
                        }
                      ],
                      "internalType": "struct EvmAffinePoint[]",
                      "name": "R",
                      "type": "tuple[]"
                    },
                    {
                      "components": [
                        {
                          "internalType": "uint256",
                          "name": "x",
                          "type": "uint256"
                        },
                        {
                          "internalType": "uint256",
                          "name": "y",
                          "type": "uint256"
                        }
                      ],
                      "internalType": "struct EvmAffinePoint[]",
                      "name": "sAGPowers",
                      "type": "tuple[]"
                    },
                    {
                      "components": [
                        {
                          "internalType": "uint256",
                          "name": "x",
                          "type": "uint256"
                        },
                        {
                          "internalType": "uint256",
                          "name": "y",
                          "type": "uint256"
                        }
                      ],
                      "internalType": "struct EvmAffinePoint[]",
                      "name": "sBGPowers",
                      "type": "tuple[]"
                    },
                    {
                      "components": [
                        {
                          "internalType": "uint256",
                          "name": "x",
                          "type": "uint256"
                        },
                        {
                          "internalType": "uint256",
                          "name": "y",
                          "type": "uint256"
                        }
                      ],
                      "internalType": "struct EvmAffinePoint[]",
                      "name": "bhPowers",
                      "type": "tuple[]"
                    },
                    {
                      "internalType": "uint256",
                      "name": "a",
                      "type": "uint256"
                    },
                    {
                      "internalType": "uint256",
                      "name": "y",
                      "type": "uint256"
                    }
                  ],
                  "internalType": "struct EvmInnerProductProof",
                  "name": "ipProof",
                  "type": "tuple"
                }
              ],
              "internalType": "struct EvmPolyEvalProof",
              "name": "zEvalProof",
              "type": "tuple"
            },
            {
              "internalType": "uint256",
              "name": "vA",
              "type": "uint256"
            },
            {
              "internalType": "uint256",
              "name": "vB",
              "type": "uint256"
            },
            {
              "internalType": "uint256",
              "name": "vC",
              "type": "uint256"
            },
            {
              "internalType": "uint256[]",
              "name": "publicInput",
              "type": "uint256[]"
            }
          ],
          "internalType": "struct FullProof",
          "name": "fullProof",
          "type": "tuple"
        }
      ],
      "name": "submitProof",
      "outputs": [
        {
          "internalType": "bytes32",
          "name": "",
          "type": "bytes32"
        }
      ],
      "stateMutability": "nonpayable",
      "type": "function"
    },
    {
      "inputs": [
        {
          "components": [
            {
              "internalType": "uint256",
              "name": "x",
              "type": "uint256"
            },
            {
              "internalType": "uint256",
              "name": "y",
              "type": "uint256"
            }
          ],
          "internalType": "struct EvmAffinePoint[]",
          "name": "points",
          "type": "tuple[]"
        }
      ],
      "name": "sum",
      "outputs": [
        {
          "components": [
            {
              "internalType": "uint256",
              "name": "x",
              "type": "uint256"
            },
            {
              "internalType": "uint256",
              "name": "y",
              "type": "uint256"
            },
            {
              "internalType": "uint256",
              "name": "z",
              "type": "uint256"
            }
          ],
          "internalType": "struct EvmProjectivePoint",
          "name": "",
          "type": "tuple"
        }
      ],
      "stateMutability": "nonpayable",
      "type": "function"
    },
    {
      "inputs": [
        {
          "components": [
            {
              "internalType": "uint256",
              "name": "x",
              "type": "uint256"
            },
            {
              "internalType": "uint256",
              "name": "y",
              "type": "uint256"
            },
            {
              "internalType": "uint256",
              "name": "z",
              "type": "uint256"
            }
          ],
          "internalType": "struct EvmProjectivePoint",
          "name": "point",
          "type": "tuple"
        }
      ],
      "name": "toAffine",
      "outputs": [
        {
          "components": [
            {
              "internalType": "uint256",
              "name": "x",
              "type": "uint256"
            },
            {
              "internalType": "uint256",
              "name": "y",
              "type": "uint256"
            }
          ],
          "internalType": "struct EvmAffinePoint",
          "name": "",
          "type": "tuple"
        }
      ],
      "stateMutability": "pure",
      "type": "function"
    },
    {
      "inputs": [
        {
          "components": [
            {
              "internalType": "uint256",
              "name": "x",
              "type": "uint256"
            },
            {
              "internalType": "uint256",
              "name": "y",
              "type": "uint256"
            }
          ],
          "internalType": "struct EvmAffinePoint",
          "name": "point",
          "type": "tuple"
        }
      ],
      "name": "toProjective",
      "outputs": [
        {
          "components": [
            {
              "internalType": "uint256",
              "name": "x",
              "type": "uint256"
            },
            {
              "internalType": "uint256",
              "name": "y",
              "type": "uint256"
            },
            {
              "internalType": "uint256",
              "name": "z",
              "type": "uint256"
            }
          ],
          "internalType": "struct EvmProjectivePoint",
          "name": "",
          "type": "tuple"
        }
      ],
      "stateMutability": "pure",
      "type": "function"
    },
    {
      "inputs": [
        {
          "components": [
            {
              "components": [
                {
                  "internalType": "uint256",
                  "name": "x",
                  "type": "uint256"
                },
                {
                  "internalType": "uint256",
                  "name": "y",
                  "type": "uint256"
                }
              ],
              "internalType": "struct EvmAffinePoint[]",
              "name": "T",
              "type": "tuple[]"
            },
            {
              "internalType": "uint256",
              "name": "y",
              "type": "uint256"
            },
            {
              "components": [
                {
                  "internalType": "uint256",
                  "name": "x",
                  "type": "uint256"
                },
                {
                  "internalType": "uint256",
                  "name": "y",
                  "type": "uint256"
                }
              ],
              "internalType": "struct EvmAffinePoint[]",
              "name": "TLpowers",
              "type": "tuple[]"
            },
            {
              "components": [
                {
                  "components": [
                    {
                      "internalType": "uint256",
                      "name": "x",
                      "type": "uint256"
                    },
                    {
                      "internalType": "uint256",
                      "name": "y",
                      "type": "uint256"
                    }
                  ],
                  "internalType": "struct EvmAffinePoint",
                  "name": "comm",
                  "type": "tuple"
                },
                {
                  "components": [
                    {
                      "internalType": "uint256",
                      "name": "x",
                      "type": "uint256"
                    },
                    {
                      "internalType": "uint256",
                      "name": "y",
                      "type": "uint256"
                    }
                  ],
                  "internalType": "struct EvmAffinePoint[]",
                  "name": "L",
                  "type": "tuple[]"
                },
                {
                  "components": [
                    {
                      "internalType": "uint256",
                      "name": "x",
                      "type": "uint256"
                    },
                    {
                      "internalType": "uint256",
                      "name": "y",
                      "type": "uint256"
                    }
                  ],
                  "internalType": "struct EvmAffinePoint[]",
                  "name": "R",
                  "type": "tuple[]"
                },
                {
                  "components": [
                    {
                      "internalType": "uint256",
                      "name": "x",
                      "type": "uint256"
                    },
                    {
                      "internalType": "uint256",
                      "name": "y",
                      "type": "uint256"
                    }
                  ],
                  "internalType": "struct EvmAffinePoint[]",
                  "name": "sAGPowers",
                  "type": "tuple[]"
                },
                {
                  "components": [
                    {
                      "internalType": "uint256",
                      "name": "x",
                      "type": "uint256"
                    },
                    {
                      "internalType": "uint256",
                      "name": "y",
                      "type": "uint256"
                    }
                  ],
                  "internalType": "struct EvmAffinePoint[]",
                  "name": "sBGPowers",
                  "type": "tuple[]"
                },
                {
                  "components": [
                    {
                      "internalType": "uint256",
                      "name": "x",
                      "type": "uint256"
                    },
                    {
                      "internalType": "uint256",
                      "name": "y",
                      "type": "uint256"
                    }
                  ],
                  "internalType": "struct EvmAffinePoint[]",
                  "name": "bhPowers",
                  "type": "tuple[]"
                },
                {
                  "internalType": "uint256",
                  "name": "a",
                  "type": "uint256"
                },
                {
                  "internalType": "uint256",
                  "name": "y",
                  "type": "uint256"
                }
              ],
              "internalType": "struct EvmInnerProductProof",
              "name": "ipProof",
              "type": "tuple"
            }
          ],
          "internalType": "struct EvmPolyEvalProof",
          "name": "proof",
          "type": "tuple"
        },
        {
          "internalType": "uint256[]",
          "name": "_x",
          "type": "uint256[]"
        },
        {
          "components": [
            {
              "internalType": "uint256",
              "name": "msmIndex",
              "type": "uint256"
            },
            {
              "internalType": "enum OpeningVStep",
              "name": "step",
              "type": "uint8"
            }
          ],
          "internalType": "struct OpeningVerifyAuxilaries",
          "name": "auxilaries",
          "type": "tuple"
        },
        {
          "components": [
            {
              "components": [
                {
                  "internalType": "uint256",
                  "name": "x",
                  "type": "uint256"
                },
                {
                  "internalType": "uint256",
                  "name": "y",
                  "type": "uint256"
                }
              ],
              "internalType": "struct EvmAffinePoint[]",
              "name": "G",
              "type": "tuple[]"
            },
            {
              "components": [
                {
                  "internalType": "uint256",
                  "name": "x",
                  "type": "uint256"
                },
                {
                  "internalType": "uint256",
                  "name": "y",
                  "type": "uint256"
                }
              ],
              "internalType": "struct EvmAffinePoint[]",
              "name": "H",
              "type": "tuple[]"
            },
            {
              "components": [
                {
                  "internalType": "uint256",
                  "name": "x",
                  "type": "uint256"
                },
                {
                  "internalType": "uint256",
                  "name": "y",
                  "type": "uint256"
                }
              ],
              "internalType": "struct EvmAffinePoint",
              "name": "u",
              "type": "tuple"
            }
          ],
          "internalType": "struct EvmGens",
          "name": "gens",
          "type": "tuple"
        },
        {
          "internalType": "bytes32",
          "name": "state",
          "type": "bytes32"
        }
      ],
      "name": "verify",
      "outputs": [
        {
          "internalType": "bool",
          "name": "",
          "type": "bool"
        }
      ],
      "stateMutability": "nonpayable",
      "type": "function"
    },
    {
      "inputs": [
        {
          "components": [
            {
              "components": [
                {
                  "internalType": "uint256",
                  "name": "x",
                  "type": "uint256"
                },
                {
                  "internalType": "uint256",
                  "name": "y",
                  "type": "uint256"
                }
              ],
              "internalType": "struct EvmAffinePoint",
              "name": "comm",
              "type": "tuple"
            },
            {
              "components": [
                {
                  "internalType": "uint256",
                  "name": "x",
                  "type": "uint256"
                },
                {
                  "internalType": "uint256",
                  "name": "y",
                  "type": "uint256"
                }
              ],
              "internalType": "struct EvmAffinePoint[]",
              "name": "L",
              "type": "tuple[]"
            },
            {
              "components": [
                {
                  "internalType": "uint256",
                  "name": "x",
                  "type": "uint256"
                },
                {
                  "internalType": "uint256",
                  "name": "y",
                  "type": "uint256"
                }
              ],
              "internalType": "struct EvmAffinePoint[]",
              "name": "R",
              "type": "tuple[]"
            },
            {
              "components": [
                {
                  "internalType": "uint256",
                  "name": "x",
                  "type": "uint256"
                },
                {
                  "internalType": "uint256",
                  "name": "y",
                  "type": "uint256"
                }
              ],
              "internalType": "struct EvmAffinePoint[]",
              "name": "sAGPowers",
              "type": "tuple[]"
            },
            {
              "components": [
                {
                  "internalType": "uint256",
                  "name": "x",
                  "type": "uint256"
                },
                {
                  "internalType": "uint256",
                  "name": "y",
                  "type": "uint256"
                }
              ],
              "internalType": "struct EvmAffinePoint[]",
              "name": "sBGPowers",
              "type": "tuple[]"
            },
            {
              "components": [
                {
                  "internalType": "uint256",
                  "name": "x",
                  "type": "uint256"
                },
                {
                  "internalType": "uint256",
                  "name": "y",
                  "type": "uint256"
                }
              ],
              "internalType": "struct EvmAffinePoint[]",
              "name": "bhPowers",
              "type": "tuple[]"
            },
            {
              "internalType": "uint256",
              "name": "a",
              "type": "uint256"
            },
            {
              "internalType": "uint256",
              "name": "y",
              "type": "uint256"
            }
          ],
          "internalType": "struct EvmInnerProductProof",
          "name": "proof",
          "type": "tuple"
        },
        {
          "internalType": "uint256[]",
          "name": "b",
          "type": "uint256[]"
        },
        {
          "components": [
            {
              "components": [
                {
                  "internalType": "uint256",
                  "name": "x",
                  "type": "uint256"
                },
                {
                  "internalType": "uint256",
                  "name": "y",
                  "type": "uint256"
                }
              ],
              "internalType": "struct EvmAffinePoint[]",
              "name": "G",
              "type": "tuple[]"
            },
            {
              "components": [
                {
                  "internalType": "uint256",
                  "name": "x",
                  "type": "uint256"
                },
                {
                  "internalType": "uint256",
                  "name": "y",
                  "type": "uint256"
                }
              ],
              "internalType": "struct EvmAffinePoint[]",
              "name": "H",
              "type": "tuple[]"
            },
            {
              "components": [
                {
                  "internalType": "uint256",
                  "name": "x",
                  "type": "uint256"
                },
                {
                  "internalType": "uint256",
                  "name": "y",
                  "type": "uint256"
                }
              ],
              "internalType": "struct EvmAffinePoint",
              "name": "u",
              "type": "tuple"
            }
          ],
          "internalType": "struct EvmGens",
          "name": "gens",
          "type": "tuple"
        },
        {
          "internalType": "bytes32",
          "name": "state",
          "type": "bytes32"
        }
      ],
      "name": "verify",
      "outputs": [
        {
          "internalType": "bool",
          "name": "",
          "type": "bool"
        }
      ],
      "stateMutability": "nonpayable",
      "type": "function"
    },
    {
      "inputs": [
        {
          "components": [
            {
              "components": [
                {
                  "internalType": "uint256[][]",
                  "name": "roundPolysCoeffs",
                  "type": "uint256[][]"
                },
                {
                  "internalType": "uint256",
                  "name": "blindPolySum",
                  "type": "uint256"
                },
                {
                  "components": [
                    {
                      "components": [
                        {
                          "internalType": "uint256",
                          "name": "x",
                          "type": "uint256"
                        },
                        {
                          "internalType": "uint256",
                          "name": "y",
                          "type": "uint256"
                        }
                      ],
                      "internalType": "struct EvmAffinePoint",
                      "name": "comm",
                      "type": "tuple"
                    },
                    {
                      "components": [
                        {
                          "internalType": "uint256",
                          "name": "x",
                          "type": "uint256"
                        },
                        {
                          "internalType": "uint256",
                          "name": "y",
                          "type": "uint256"
                        }
                      ],
                      "internalType": "struct EvmAffinePoint[]",
                      "name": "L",
                      "type": "tuple[]"
                    },
                    {
                      "components": [
                        {
                          "internalType": "uint256",
                          "name": "x",
                          "type": "uint256"
                        },
                        {
                          "internalType": "uint256",
                          "name": "y",
                          "type": "uint256"
                        }
                      ],
                      "internalType": "struct EvmAffinePoint[]",
                      "name": "R",
                      "type": "tuple[]"
                    },
                    {
                      "components": [
                        {
                          "internalType": "uint256",
                          "name": "x",
                          "type": "uint256"
                        },
                        {
                          "internalType": "uint256",
                          "name": "y",
                          "type": "uint256"
                        }
                      ],
                      "internalType": "struct EvmAffinePoint[]",
                      "name": "sAGPowers",
                      "type": "tuple[]"
                    },
                    {
                      "components": [
                        {
                          "internalType": "uint256",
                          "name": "x",
                          "type": "uint256"
                        },
                        {
                          "internalType": "uint256",
                          "name": "y",
                          "type": "uint256"
                        }
                      ],
                      "internalType": "struct EvmAffinePoint[]",
                      "name": "sBGPowers",
                      "type": "tuple[]"
                    },
                    {
                      "components": [
                        {
                          "internalType": "uint256",
                          "name": "x",
                          "type": "uint256"
                        },
                        {
                          "internalType": "uint256",
                          "name": "y",
                          "type": "uint256"
                        }
                      ],
                      "internalType": "struct EvmAffinePoint[]",
                      "name": "bhPowers",
                      "type": "tuple[]"
                    },
                    {
                      "internalType": "uint256",
                      "name": "a",
                      "type": "uint256"
                    },
                    {
                      "internalType": "uint256",
                      "name": "y",
                      "type": "uint256"
                    }
                  ],
                  "internalType": "struct EvmInnerProductProof",
                  "name": "blindPolyEvalProof",
                  "type": "tuple"
                }
              ],
              "internalType": "struct EvmSumCheckProof",
              "name": "scProof1",
              "type": "tuple"
            },
            {
              "components": [
                {
                  "internalType": "uint256[][]",
                  "name": "roundPolysCoeffs",
                  "type": "uint256[][]"
                },
                {
                  "internalType": "uint256",
                  "name": "blindPolySum",
                  "type": "uint256"
                },
                {
                  "components": [
                    {
                      "components": [
                        {
                          "internalType": "uint256",
                          "name": "x",
                          "type": "uint256"
                        },
                        {
                          "internalType": "uint256",
                          "name": "y",
                          "type": "uint256"
                        }
                      ],
                      "internalType": "struct EvmAffinePoint",
                      "name": "comm",
                      "type": "tuple"
                    },
                    {
                      "components": [
                        {
                          "internalType": "uint256",
                          "name": "x",
                          "type": "uint256"
                        },
                        {
                          "internalType": "uint256",
                          "name": "y",
                          "type": "uint256"
                        }
                      ],
                      "internalType": "struct EvmAffinePoint[]",
                      "name": "L",
                      "type": "tuple[]"
                    },
                    {
                      "components": [
                        {
                          "internalType": "uint256",
                          "name": "x",
                          "type": "uint256"
                        },
                        {
                          "internalType": "uint256",
                          "name": "y",
                          "type": "uint256"
                        }
                      ],
                      "internalType": "struct EvmAffinePoint[]",
                      "name": "R",
                      "type": "tuple[]"
                    },
                    {
                      "components": [
                        {
                          "internalType": "uint256",
                          "name": "x",
                          "type": "uint256"
                        },
                        {
                          "internalType": "uint256",
                          "name": "y",
                          "type": "uint256"
                        }
                      ],
                      "internalType": "struct EvmAffinePoint[]",
                      "name": "sAGPowers",
                      "type": "tuple[]"
                    },
                    {
                      "components": [
                        {
                          "internalType": "uint256",
                          "name": "x",
                          "type": "uint256"
                        },
                        {
                          "internalType": "uint256",
                          "name": "y",
                          "type": "uint256"
                        }
                      ],
                      "internalType": "struct EvmAffinePoint[]",
                      "name": "sBGPowers",
                      "type": "tuple[]"
                    },
                    {
                      "components": [
                        {
                          "internalType": "uint256",
                          "name": "x",
                          "type": "uint256"
                        },
                        {
                          "internalType": "uint256",
                          "name": "y",
                          "type": "uint256"
                        }
                      ],
                      "internalType": "struct EvmAffinePoint[]",
                      "name": "bhPowers",
                      "type": "tuple[]"
                    },
                    {
                      "internalType": "uint256",
                      "name": "a",
                      "type": "uint256"
                    },
                    {
                      "internalType": "uint256",
                      "name": "y",
                      "type": "uint256"
                    }
                  ],
                  "internalType": "struct EvmInnerProductProof",
                  "name": "blindPolyEvalProof",
                  "type": "tuple"
                }
              ],
              "internalType": "struct EvmSumCheckProof",
              "name": "scProof2",
              "type": "tuple"
            },
            {
              "components": [
                {
                  "components": [
                    {
                      "internalType": "uint256",
                      "name": "x",
                      "type": "uint256"
                    },
                    {
                      "internalType": "uint256",
                      "name": "y",
                      "type": "uint256"
                    }
                  ],
                  "internalType": "struct EvmAffinePoint[]",
                  "name": "T",
                  "type": "tuple[]"
                },
                {
                  "internalType": "uint256",
                  "name": "y",
                  "type": "uint256"
                },
                {
                  "components": [
                    {
                      "internalType": "uint256",
                      "name": "x",
                      "type": "uint256"
                    },
                    {
                      "internalType": "uint256",
                      "name": "y",
                      "type": "uint256"
                    }
                  ],
                  "internalType": "struct EvmAffinePoint[]",
                  "name": "TLpowers",
                  "type": "tuple[]"
                },
                {
                  "components": [
                    {
                      "components": [
                        {
                          "internalType": "uint256",
                          "name": "x",
                          "type": "uint256"
                        },
                        {
                          "internalType": "uint256",
                          "name": "y",
                          "type": "uint256"
                        }
                      ],
                      "internalType": "struct EvmAffinePoint",
                      "name": "comm",
                      "type": "tuple"
                    },
                    {
                      "components": [
                        {
                          "internalType": "uint256",
                          "name": "x",
                          "type": "uint256"
                        },
                        {
                          "internalType": "uint256",
                          "name": "y",
                          "type": "uint256"
                        }
                      ],
                      "internalType": "struct EvmAffinePoint[]",
                      "name": "L",
                      "type": "tuple[]"
                    },
                    {
                      "components": [
                        {
                          "internalType": "uint256",
                          "name": "x",
                          "type": "uint256"
                        },
                        {
                          "internalType": "uint256",
                          "name": "y",
                          "type": "uint256"
                        }
                      ],
                      "internalType": "struct EvmAffinePoint[]",
                      "name": "R",
                      "type": "tuple[]"
                    },
                    {
                      "components": [
                        {
                          "internalType": "uint256",
                          "name": "x",
                          "type": "uint256"
                        },
                        {
                          "internalType": "uint256",
                          "name": "y",
                          "type": "uint256"
                        }
                      ],
                      "internalType": "struct EvmAffinePoint[]",
                      "name": "sAGPowers",
                      "type": "tuple[]"
                    },
                    {
                      "components": [
                        {
                          "internalType": "uint256",
                          "name": "x",
                          "type": "uint256"
                        },
                        {
                          "internalType": "uint256",
                          "name": "y",
                          "type": "uint256"
                        }
                      ],
                      "internalType": "struct EvmAffinePoint[]",
                      "name": "sBGPowers",
                      "type": "tuple[]"
                    },
                    {
                      "components": [
                        {
                          "internalType": "uint256",
                          "name": "x",
                          "type": "uint256"
                        },
                        {
                          "internalType": "uint256",
                          "name": "y",
                          "type": "uint256"
                        }
                      ],
                      "internalType": "struct EvmAffinePoint[]",
                      "name": "bhPowers",
                      "type": "tuple[]"
                    },
                    {
                      "internalType": "uint256",
                      "name": "a",
                      "type": "uint256"
                    },
                    {
                      "internalType": "uint256",
                      "name": "y",
                      "type": "uint256"
                    }
                  ],
                  "internalType": "struct EvmInnerProductProof",
                  "name": "ipProof",
                  "type": "tuple"
                }
              ],
              "internalType": "struct EvmPolyEvalProof",
              "name": "zEvalProof",
              "type": "tuple"
            },
            {
              "internalType": "uint256",
              "name": "vA",
              "type": "uint256"
            },
            {
              "internalType": "uint256",
              "name": "vB",
              "type": "uint256"
            },
            {
              "internalType": "uint256",
              "name": "vC",
              "type": "uint256"
            },
            {
              "internalType": "uint256[]",
              "name": "publicInput",
              "type": "uint256[]"
            }
          ],
          "internalType": "struct FullProof",
          "name": "fullProof",
          "type": "tuple"
        },
        {
          "components": [
            {
              "components": [
                {
                  "internalType": "uint256",
                  "name": "index",
                  "type": "uint256"
                },
                {
                  "internalType": "uint256",
                  "name": "val",
                  "type": "uint256"
                }
              ],
              "internalType": "struct LagrangeEntry[]",
              "name": "A",
              "type": "tuple[]"
            },
            {
              "components": [
                {
                  "internalType": "uint256",
                  "name": "index",
                  "type": "uint256"
                },
                {
                  "internalType": "uint256",
                  "name": "val",
                  "type": "uint256"
                }
              ],
              "internalType": "struct LagrangeEntry[]",
              "name": "B",
              "type": "tuple[]"
            },
            {
              "components": [
                {
                  "internalType": "uint256",
                  "name": "index",
                  "type": "uint256"
                },
                {
                  "internalType": "uint256",
                  "name": "val",
                  "type": "uint256"
                }
              ],
              "internalType": "struct LagrangeEntry[]",
              "name": "C",
              "type": "tuple[]"
            },
            {
              "internalType": "uint256",
              "name": "zLen",
              "type": "uint256"
            }
          ],
          "internalType": "struct EvmR1CS",
          "name": "r1cs",
          "type": "tuple"
        },
        {
          "internalType": "enum VStep",
          "name": "step",
          "type": "uint8"
        },
        {
          "components": [
            {
              "internalType": "uint256",
              "name": "msmIndex",
              "type": "uint256"
            },
            {
              "internalType": "enum OpeningVStep",
              "name": "step",
              "type": "uint8"
            }
          ],
          "internalType": "struct OpeningVerifyAuxilaries",
          "name": "auxilaries",
          "type": "tuple"
        },
        {
          "components": [
            {
              "components": [
                {
                  "internalType": "uint256",
                  "name": "x",
                  "type": "uint256"
                },
                {
                  "internalType": "uint256",
                  "name": "y",
                  "type": "uint256"
                }
              ],
              "internalType": "struct EvmAffinePoint[]",
              "name": "G",
              "type": "tuple[]"
            },
            {
              "components": [
                {
                  "internalType": "uint256",
                  "name": "x",
                  "type": "uint256"
                },
                {
                  "internalType": "uint256",
                  "name": "y",
                  "type": "uint256"
                }
              ],
              "internalType": "struct EvmAffinePoint[]",
              "name": "H",
              "type": "tuple[]"
            },
            {
              "components": [
                {
                  "internalType": "uint256",
                  "name": "x",
                  "type": "uint256"
                },
                {
                  "internalType": "uint256",
                  "name": "y",
                  "type": "uint256"
                }
              ],
              "internalType": "struct EvmAffinePoint",
              "name": "u",
              "type": "tuple"
            }
          ],
          "internalType": "struct EvmGens",
          "name": "gens",
          "type": "tuple"
        }
      ],
      "name": "verifyProof",
      "outputs": [
        {
          "internalType": "bool",
          "name": "",
          "type": "bool"
        }
      ],
      "stateMutability": "nonpayable",
      "type": "function"
    }
  ],
  "bytecode": {
    "object": "0x6080806040523461001657612b7e908161001c8239f35b600080fdfe6080604052600436101561001257600080fd5b60003560e01c80630cd329391461120e57806328662876146111d0578063287fbd6d1461116c5780632b9c9ea11461113b57806332e7c5bf1461111f57806337354912146110f757806344170825146110b5578063444d95b0146110845780635f576db61461107657806368badbef1461104557806378a6343114610fde57806379bcaf3e14610fa35780638686a16d14610d695780638ab4f4ba1461037f5780638e6c57031461034a578063a2a36ae5146102f6578063a2a9c8141461027d578063aebb1a40146101fe578063f446c1d0146101e2578063fbe430e8146101845763fc6b9dd71461010357600080fd5b3461017f5760208060031936011261017f576004356001600160401b03811161017f5761013761013c9136906004016112d5565b61171f565b906040519181839283018184528251809152816040850193019160005b82811061016857505050500390f35b835185528695509381019392810192600101610159565b600080fd5b3461017f57604036600319011261017f576001600160401b0360043581811161017f576101b59036906004016112d5565b9060243590811161017f576020916101d46101da9236906004016112d5565b906115d5565b604051908152f35b3461017f57600036600319011261017f57602060405160008152f35b3461017f57604036600319011261017f576001600160401b0360043581811161017f5761022f9036906004016113b7565b9060243590811161017f576102799161024f6102559236906004016112d5565b90611ffe565b60408051825181526020808401519082015291810151908201529081906060820190565b0390f35b3461017f57608036600319011261017f576001600160401b0360043581811161017f576102ae9036906004016113d5565b9060243581811161017f576102c79036906004016112d5565b9160443591821161017f576020926102e66102ec93369060040161153f565b9161194f565b6040519015158152f35b3461017f5760c036600319011261017f576103103661128e565b606036606319011261017f57610255610279916040519061033082611252565b6064358252608435602083015260a435604083015261248f565b3461017f57604036600319011261017f5761027961025560405161036d81611237565b60043581526024356020820152611e39565b3461017f5760031960c03682011261017f576001600160401b036004351161017f5760e0816004353603011261017f576001600160401b036024351161017f576080816024353603011261017f576006604435101561017f57604036606319011261017f5760a435906001600160401b03821161017f57608090823603011261017f5761041961041436600435600401612778565b6129b7565b6000526000602052600160ff60406000205416151503610d2d5761044a610444600480350180612a9b565b80612ab0565b91905061045682612b1a565b916104776104713661046c600480350180612a9b565b6126b3565b91612b1a565b9161048a3661046c600480350180612a9b565b9260208401516401000003d019906401000003d019906021096000086000955b8551805188101561064557876104bf916115c1565b5194855180600019810111610582576104dc9060001901876115c1565b5196600092835b88518510156105115761050b906401000003d01990610502878c6115c1565b519008946115a5565b936104e3565b909492979998919693506401000003d0199108036106005761053386846115c1565b51938493600093845b8a51808710156105e9578661059857508a51806000198101116105825761057c916401000003d0199161057390600019018e6115c1565b519008956115a5565b9461053c565b634e487b7160e01b600052601160045260246000fd5b866105a5919997996116f2565b806000198101116105825761057c918c91886105d46401000003d019946401000003d0199360001901906115c1565b5109900895876401000003d0199109976115a5565b5060019099019950919792955093509091506104aa565b60405162461bcd60e51b815260206004820152601860248201527f496e76616c696420726f756e6420706f6c796e6f6d69616c00000000000000006044820152606490fd5b50610667906106606040870151856102e6368960040161153f565b50836115d5565b6401000003d0199061068d60043560a48101359084906084810135906064013509611906565b096401000003d019906401000003d01960e060408801510151602109900803610cda57604051918260808101106001600160401b03608085011117610cc4576080830160405260038352606036602085013760005b60038110610caf57506106f4836115b4565b51835160011015610af557604084015193805160021015610af5576060015191848661072c3661046c60048035602481019101612a9b565b90610738815151612b1a565b926401000003d0196401000003d01960208501516021096401000003d0198060043560a401358b096401000003d019806004356084013587096401000003d019600435606401358d09080808926000985b815180518b10156108d6578a61079e916115c1565b5197885180600019810111610582576107bb90600019018a6115c1565b5199600095865b8b518810156107f0576107ea906401000003d019906107e18a8f6115c1565b519008976115a5565b966107c2565b90959a9c9b91965098929793989691966401000003d0199108036106005761081889836115c1565b51968796600096875b8d51808a10156108b9578961086857508d518060001981011161058257610862918f610859906401000003d0199360001901906115c1565b519008986115a5565b97610821565b89610875919c9a9c6116f2565b8060001981011161058257610862918f918b6108a46401000003d019946401000003d0199360001901906115c1565b51099008988a6401000003d01991099a6115a5565b506001909c019c50959a9599929850929650939450919290610789565b50878686948b878b6108f46040830151886102e6368560040161153f565b5061090a6109058851875190611942565b6116ad565b9860005b8a895182101561093d5790610938916109328261092b818e6115c1565b51926115c1565b526115a5565b61090e565b99905097969760005b8751811015610978578061095d610973928a6115c1565b516109328d61096d8d5185611942565b906115c1565b610946565b50899792939495986109a7896109a261099b602435600401602435600401612ae5565b369161135b565b61265c565b966109dd6109c58b6109a261099b6024803501602435600401612ae5565b9a6109a261099b604460243501602435600401612ae5565b6109f160c460043501600435600401612ab0565b9c905060018d018d1161058257610a0a60018e016112be565b9c610a186040519e8f61126d565b600101808e52601f1990610a2b906112be565b018d60005b828110610c8857509050610a5a60405191610a4a83611237565b60008352600160208401526115b4565b52610a648d6115b4565b5060005b610a7c60c460043501600435600401612ab0565b9050811015610b0b5760018101811161058257610aa360c460043501600435600401612ab0565b8291921015610af557610aea8f610af09360405190610ac182611237565b6001850182528460051b01356020820152610adf60018501836115c1565b5260018301906115c1565b506115a5565b610a68565b634e487b7160e01b600052603260045260246000fd5b508a519a9b8d9a6000198d018d1061058257610b2b8e9d600019016116ad565b9b60009d5b518060001981011161058257600019018e1015610b71578d600181011061058257610b6b8f9e8f8f908261092b6109329260018301906115c1565b9d610b30565b90610ba58f9695949392610b8c8f6401000003d0199261265c565b610b9e610b988a6115b4565b516118c5565b09966115b4565b519660821960043536030160446004350135121561017f576401000003d0199860e060406401000003d0199201510151602109976401000003d01997889182906004356044810135016024013590099008956401000003d01995869109936401000003d01993849109916401000003d01991090808090803610c43576102e66040610c3794015192369060040161153f565b50602060405160018152f35b60405162461bcd60e51b815260206004820152601960248201527f46696e616c206576616c20646f6573206e6f74206d61746368000000000000006044820152606490fd5b602091828260405192610c9a84611237565b60008452600083850152010152018e90610a30565b806021610932610cbf93876115c1565b6106e2565b634e487b7160e01b600052604160045260246000fd5b60405162461bcd60e51b815260206004820152602560248201527f506861736520312073756d20636865636b206576616c20646f6573206e6f74206044820152640dac2e8c6d60db1b6064820152608490fd5b60405162461bcd60e51b8152602060048201526014602482015273141c9bdbd988191bd95cc81b9bdd08195e1a5cdd60621b6044820152606490fd5b3461017f5760c036600319011261017f576001600160401b0360043581811161017f57610d9a9036906004016114b5565b9060243581811161017f57610db39036906004016112d5565b90604036604319011261017f57604051610dcc81611237565b604435815260643590600482101561017f576020015260843590811161017f57610dfa90369060040161153f565b918151916001928380821614600014610f9e57838101809111610582575b80841c90610e25816116ad565b92856000815b610f71575b5050610e3d8151836116f2565b828110610f5157505050610e50816116ad565b90610e5a816116ad565b9260005b828110610f145750505090610e75610e7b9261171f565b5061171f565b92610e91610e8c60408401516120ec565b611e67565b60608151930192835151908151149182610f01575b505015610ec357602093610eba925161194f565b50604051908152f35b60405162461bcd60e51b81526020600482015260166024820152750a8bee0e4d2daca40c8decae640dcdee840dac2e8c6d60531b6044820152606490fd5b6020919250810151910151148580610ea6565b80610f22610f4c92846115c1565b51610f2d82876115c1565b52610f41610f3b8583611942565b846115c1565b5161093282886115c1565b610e5e565b610f6c90610f41610f3b610f668551876116f2565b836116f2565b610e3d565b610f7c8351856116f2565b811015610f9957806000610932610f9393896115c1565b81610e2b565b610e30565b610e18565b3461017f57602036600319011261017f576004356001600160401b03811161017f57610255610fd96102799236906004016113b7565b6120ec565b3461017f57604036600319011261017f576001600160401b0360043581811161017f573660238201121561017f5761102090369060248160040135910161135b565b9060243590811161017f5760209161103f6101da9236906004016112d5565b9061265c565b3461017f5760031960203682011261017f57600435906001600160401b03821161017f576080913603011261017f57005b600036600319011261017f57005b3461017f57602036600319011261017f576004356000526000602052602060ff604060002054166040519015158152f35b3461017f57606036600319011261017f576102796110da6044356024356004356124ca565b604080519384526020840192909252908201529081906060820190565b3461017f57608036600319011261017f576102796110da6064356044356024356004356125d0565b3461017f57600036600319011261017f57602060405160078152f35b3461017f57606036600319011261017f57604061115a610e8c3661128e565b60208251918051835201516020820152f35b3461017f5760031960203682011261017f57600435906001600160401b03821161017f5760e090823603011261017f576104146111ad913690600401612778565b60005260006020526040600020600160ff19825416179055602060405160008152f35b3461017f57604036600319011261017f576004356001600160401b03811161017f576101da61120560209236906004016112d5565b60243590611815565b3461017f57608036600319011261017f5761027961025561122e3661128e565b6064359061263b565b604081019081106001600160401b03821117610cc457604052565b606081019081106001600160401b03821117610cc457604052565b90601f801991011681019081106001600160401b03821117610cc457604052565b606090600319011261017f57604051906112a782611252565b600435825260243560208301526044356040830152565b6001600160401b038111610cc45760051b60200190565b9080601f8301121561017f5760209082356112ef816112be565b936112fd604051958661126d565b818552838086019260051b82010192831161017f578301905b828210611324575050505090565b81358152908301908301611316565b919082604091031261017f5760405161134b81611237565b6020808294803584520135910152565b929192611367826112be565b6040926113768451928361126d565b819581835260208093019160061b84019381851161017f57915b84831061139f57505050505050565b8386916113ac8486611333565b815201920191611390565b9080601f8301121561017f578160206113d29335910161135b565b90565b91906101208382031261017f5760405190610100808301946001600160401b039584811087821117610cc45760405283956114108483611333565b8552604082013581811161017f578461142a9184016113b7565b6020860152606082013581811161017f57846114479184016113b7565b6040860152608082013581811161017f57846114649184016113b7565b606086015260a082013581811161017f57846114819184016113b7565b608086015260c082013590811161017f5760e0936114a09183016113b7565b60a08501528281013560c08501520135910152565b91909160808184031261017f57604051906001600160401b03906080830182811184821017610cc4576040528294813583811161017f57816114f89184016113b7565b845260208201356020850152604082013583811161017f578161151c9184016113b7565b6040850152606082013592831161017f5760609261153a92016113d5565b910152565b919060808382031261017f576040519061155882611252565b81938035916001600160401b039283811161017f57816115799184016113b7565b8452602082013592831161017f5760408261159a83839661153a96016113b7565b602087015201611333565b60001981146105825760010190565b805115610af55760200190565b8051821015610af55760209160051b010190565b805182510361165e576001809181936000935b6115f4575b5050505090565b9091929382518510156116585761164f9061160f86856115c1565b51906401000003d0198080936116258a886115c1565b51900981611636610b988b8a6115c1565b611643610b988c8a6115c1565b900990089009946115a5565b929190826115e8565b936115ed565b60405162461bcd60e51b815260206004820152602160248201527f7220616e642078206d7573742068617665207468652073616d65206c656e67746044820152600d60fb1b6064820152608490fd5b906116b7826112be565b6116c4604051918261126d565b82815280926116d5601f19916112be565b0190602036910137565b8181029291811591840414171561058257565b9190820391821161058257565b8115611709570490565b634e487b7160e01b600052601260045260246000fd5b80519060ff821161058257600180831b92611739846116ad565b9360005b8181106118015750508160005b82811061175957505050505090565b81841b9180830460021490151715610582576000198083018381116105825790859291805b61178b575b50500161174a565b90919261179d826117ce921c8a6115c1565b516401000003d0196117af868b6115c1565b5182096117bc848c6115c1565b526117c7838b6115c1565b5190611906565b828201828111610582576117e2908a6115c1565b52858082146117fa575085929190600119018061177e565b9291611783565b808461093261181093896115c1565b61173d565b906001918281516000935b81851061182f57505050505090565b90919293946000848084891c1614600014611883575061184f86846116f2565b6000198101919082116105825761186961187a92876115c1565b515b6401000003d0199109956115a5565b93929190611820565b61188d87856116f2565b6000198101919082116118b15750906118ac610b9861187a93886115c1565b61186b565b634e487b7160e01b81526011600452602490fd5b806001106118e45760010360018111610582576401000003d019900690565b6000198101908111610582576401000003d01980910681039081116105825790565b908082106119235761191f906401000003d019926116f2565b0690565b6119356401000003d0199283926116f2565b0681039081116105825790565b9190820180921161058257565b815191602082018051519061196382612b1a565b9161196d816116ad565b9360005b828110611cca5750611982876116ad565b9060005b888110611c635750611997886116ad565b9760005b818110611c3d5750506000905b838210611bb5576119b991506115b4565b51968760c088019283516119cc91611cea565b506119d691611cea565b50516401000003d0199687910960608601516119f1906120ec565b976080870151611a00906120ec565b9860a0880151611a0f906120ec565b99611a199161248f565b90604001918251611a2990611e39565b90611a339161263b565b611a3c9161248f565b978651611a4890611e39565b90611a529161248f565b9051611a5d90611e39565b60e0870151611a6b9161263b565b611a749161248f565b95611a7e826116ad565b9360005b838110611b89575050611a94826116ad565b9460005b838110611b5d5750505050611adb93611aca611ad5946040611ac2611ae19996611ad09651611ffe565b930151611ffe565b9061248f565b61248f565b92611e67565b91611e67565b81518151149182611b4a575b505015611af957600190565b60405162461bcd60e51b815260206004820152602360248201527f496e6e65722070726f6475637420657175616c69747920636865636b206661696044820152621b195960ea1b6064820152608490fd5b6020919250810151910151143880611aed565b8083611b6c611b8493856115c1565b51611b7783866115c1565b519009610932828a6115c1565b611a98565b8083611b98611bb093856115c1565b51611ba383866115c1565b51900961093282896115c1565b611a82565b611bbf82886115c1565b5190611bcb83886115c1565b5191815160011c90611bdc826116ad565b9360005b838110611bfc575050505050611bf690916115a5565b906119a8565b611c38906401000003d0198085611c13848a6115c1565b51098185611c2a611c248a87611942565b8b6115c1565b5109900861093282896115c1565b611be0565b80611c54611c4e611c5e93876115c1565b51611d31565b610932828d6115c1565b61199b565b600160005b858110611c84575090611c7f9161093282866115c1565b611986565b90611cb39060018085851c1614600014611cb8576401000003d01990611caa848b6115c1565b519009916115a5565b611c68565b6401000003d01990611caa848c6115c1565b80611cdb611c4e611ce593886115c1565b61093282896115c1565b611971565b9190611cf683516116ad565b9060005b8451811015611d2a57611d25906401000003d01983611d1983896115c1565b510961093282866115c1565b611cfa565b5090925050565b80151580611e0a575b80611e02575b15611dcc576000908160016401000003d019835b611d5f575050505090565b611d6e848296939495966116ff565b916401000003d0198484096401000003d019036401000003d0198111611db857611daf9291611da9916401000003d0199108949680946116df565b906116f2565b92919083611d54565b634e487b7160e01b86526011600452602486fd5b60405162461bcd60e51b815260206004820152600e60248201526d24b73b30b634b210373ab6b132b960911b6044820152606490fd5b506001611d40565b506401000003d019811415611d3a565b60405190611e2782611252565b60006040838281528260208201520152565b611e41611e1a565b506020815191015160405191611e5683611252565b825260208201526001604082015290565b602090604051611e7681611237565b600092818480935201526040810180519283151580611fe2575b80611fda575b15611dcc579283600170014551231950b75fc4402da1732fc9bebe19835b611f5757505050506001908370014551231950b75fc4402da1732fc9bebe1991510903611f235770014551231950b75fc4402da1732fc9bebe198282510991602070014551231950b75fc4402da1732fc9bebe199201510960405191611f1983611237565b8252602082015290565b60405162461bcd60e51b815260206004820152600c60248201526b24b73b30b634b2103d24b73b60a11b6044820152606490fd5b611f66848298939495986116ff565b9170014551231950b75fc4402da1732fc9bebe1984840970014551231950b75fc4402da1732fc9bebe190370014551231950b75fc4402da1732fc9bebe198111611db857611fd19291611da99170014551231950b75fc4402da1732fc9bebe199108949880946116df565b92919083611eb4565b506001611e96565b5070014551231950b75fc4402da1732fc9bebe19841415611e90565b90612007611e1a565b5081518151036120b55790600091829060019081809486935b612045575b505050506040519261203684611252565b83526020830152604082015290565b91938295919395518610156120ac579085966120989261208e61206c88996120a3996115c1565b516120778b886115c1565b515160206120858d8a6115c1565b51015190612565565b9491929093612269565b9591949094966115a5565b92909181612020565b93819550612025565b60405162461bcd60e51b815260206004820152600f60248201526e098cadccee8d040dad2e6dac2e8c6d608b1b6044820152606490fd5b6120f4611e1a565b5060009081600180928185925b612116575b5050506040519261203684611252565b929093849592955186101561216357916121519161215c949361213988886115c1565b51519160206121488a8a6115c1565b5101519361216f565b9491939093956115a5565b9180612101565b93829550819350612106565b94929193851561225c57821561225557858314808061224b575b6122395761222457849291839170014551231950b75fc4402da1732fc9bebe19808099819782808080809a816001819c0999096121c6908961244c565b94600190099c8d9a0991816121db848c61244c565b9e8f94818087800994600190099c088209828b8187800909906121fd9161244c565b97889382099c099061220e9161244c565b900991880961221c9161244c565b960994930990565b5090506122329291936124ca565b9192909190565b50505050915050600090600090600190565b5081831415612189565b5092919050565b9450509091509190600190565b9291949593831561244157821561243857838314808061242e575b61241b5761240b57906122c56123db928770014551231950b75fc4402da1732fc9bebe19910970014551231950b75fc4402da1732fc9bebe1989840961244c565b966122fa70014551231950b75fc4402da1732fc9bebe1988860970014551231950b75fc4402da1732fc9bebe1983880961244c565b9361237c70014551231950b75fc4402da1732fc9bebe198680099170014551231950b75fc4402da1732fc9bebe19848b099970014551231950b75fc4402da1732fc9bebe1991829182910970014551231950b75fc4402da1732fc9bebe19868b0908830970014551231950b75fc4402da1732fc9bebe198a818d80090961244c565b986123b98a70014551231950b75fc4402da1732fc9bebe198885099870014551231950b75fc4402da1732fc9bebe1994859182908890090961244c565b90099170014551231950b75fc4402da1732fc9bebe199182910985099061244c565b9470014551231950b75fc4402da1732fc9bebe199109939270014551231950b75fc4402da1732fc9bebe19910990565b50919050612232939294506124ca565b5050505050915050600090600090600190565b5081831415612284565b50945050929190565b959450509050929190565b908082106124715761191f9070014551231950b75fc4402da1732fc9bebe19926116f2565b61193570014551231950b75fc4402da1732fc9bebe199283926116f2565b6124bc9161249b611e1a565b50815191604060208201519101518251916040602085015194015194612269565b906040519261203684611252565b9192908015612558578061254b61253d928570014551231950b75fc4402da1732fc9bebe198089819a97828080809b9a818080809e9b8180809e8181819209600009928009600309089783096002099e098d096002099561253284886002098585800961244c565b9c8d918d099661244c565b90099280096002099061244c565b9484099392818180090990565b5060009250829150600190565b92909260019083156125ca576000918295819592835b6125885750505050929190565b600184166125a8575b9061259c92916124ca565b919260011c928361257b565b939181856125bc9398839a61259c96612269565b909790969194909250612591565b93925090565b9391938315612634576000918295600191829693845b6125f4575050505050929190565b838516612612575b9061260792916124ca565b9193831c93846125e6565b949181866126269399839b61260796612269565b9098909791959092506125fc565b9390925090565b906124bc91612648611e1a565b5080519060406020820151910151916125d0565b60009291835b82518510156126ad576126a79061268461267c87866115c1565b515184611815565b906401000003d0198092602061269a8a896115c1565b51015190099008946115a5565b93612662565b93505050565b919060608382031261017f57604051906126cc82611252565b81938035916001600160401b039283811161017f57820181601f8201121561017f5760209080356126fc816112be565b9161270a604051938461126d565b818352838084019260051b8201019185831161017f57848201905b838210612753575050505085528083013590850152604082013592831161017f5760409261153a92016113d5565b813589811161017f57869161276d898480948801016112d5565b815201910190612725565b91909160e08184031261017f57604051906001600160401b039060e0830182811184821017610cc4576040528294813583811161017f57816127bb9184016126b3565b8452602082013583811161017f57816127d59184016126b3565b6020850152604082013583811161017f57816127f29184016114b5565b6040850152606082013560608501526080820135608085015260a082013560a085015260c082013592831161017f5760c09261153a92016112d5565b90815180825260208080930193019160005b82811061284e575050505090565b835185529381019392810192600101612840565b90815180825260208080930193019160005b828110612882575050505090565b8351805186528201518583015260409094019392810192600101612874565b9061010060e06129246129126129006128ee6128dc61012060208a5180518b52015160208a015260208a0151908060408b0152890190612862565b604089015188820360608a0152612862565b60608801518782036080890152612862565b608087015186820360a0880152612862565b60a086015185820360c0870152612862565b9360c081015182850152015191015290565b919091606083019080516060855280518093526080850160808460051b870101936020809301916000905b82821061298d575050505081816040926113d296979401519084015201519060408184039101526128a1565b9091929584806129a9600193607f198d82030186528a5161282e565b980192019201909291612961565b604051612a9581612a876020820194602086526129e1815160e06040860152610120850190612936565b60c0612a57612a02602085015193603f1994858983030160608a0152612936565b604085015190848882030160808901526060612a46612a2a8451608085526080850190612862565b6020850151602085015260408501518482036040860152612862565b9201519060608184039101526128a1565b92606081015160a087015260808101518287015260a081015160e08701520151908483030161010085015261282e565b03601f19810183528261126d565b51902090565b903590605e198136030182121561017f570190565b903590601e198136030182121561017f57018035906001600160401b03821161017f57602001918160051b3603831361017f57565b903590601e198136030182121561017f57018035906001600160401b03821161017f57602001918160061b3603831361017f57565b612b23816116ad565b9060005b818110612b3357505090565b806021610932612b4393866115c1565b612b2756fea26469706673582212208644f237ab1b7998e8b9d05e1c71b44976f8c7a6335f6ed58c9fc9225dddb59364736f6c63430008150033",
    "linkReferences": {}
  },
  "methodIdentifiers": {
    "A()": "f446c1d0",
    "B()": "32e7c5bf",
    "_mul(uint256,uint256,uint256,uint256)": "37354912",
    "add((uint256,uint256,uint256),(uint256,uint256,uint256))": "a2a36ae5",
    "addCircuit(((uint256,uint256)[],(uint256,uint256)[],(uint256,uint256)[],uint256))": "68badbef",
    "double(uint256,uint256,uint256)": "44170825",
    "eval((uint256,uint256)[],uint256[])": "78a63431",
    "eval(uint256[],uint256[])": "fbe430e8",
    "evalAsBits(uint256[],uint256)": "28662876",
    "evals(uint256[])": "fc6b9dd7",
    "msm_naive((uint256,uint256)[],uint256[])": "aebb1a40",
    "mul((uint256,uint256,uint256),uint256)": "0cd32939",
    "newStake()": "5f576db6",
    "proofs(bytes32)": "444d95b0",
    "submitProof(((uint256[][],uint256,((uint256,uint256),(uint256,uint256)[],(uint256,uint256)[],(uint256,uint256)[],(uint256,uint256)[],(uint256,uint256)[],uint256,uint256)),(uint256[][],uint256,((uint256,uint256),(uint256,uint256)[],(uint256,uint256)[],(uint256,uint256)[],(uint256,uint256)[],(uint256,uint256)[],uint256,uint256)),((uint256,uint256)[],uint256,(uint256,uint256)[],((uint256,uint256),(uint256,uint256)[],(uint256,uint256)[],(uint256,uint256)[],(uint256,uint256)[],(uint256,uint256)[],uint256,uint256)),uint256,uint256,uint256,uint256[]))": "287fbd6d",
    "sum((uint256,uint256)[])": "79bcaf3e",
    "toAffine((uint256,uint256,uint256))": "2b9c9ea1",
    "toProjective((uint256,uint256))": "8e6c5703",
    "verify(((uint256,uint256),(uint256,uint256)[],(uint256,uint256)[],(uint256,uint256)[],(uint256,uint256)[],(uint256,uint256)[],uint256,uint256),uint256[],((uint256,uint256)[],(uint256,uint256)[],(uint256,uint256)),bytes32)": "a2a9c814",
    "verify(((uint256,uint256)[],uint256,(uint256,uint256)[],((uint256,uint256),(uint256,uint256)[],(uint256,uint256)[],(uint256,uint256)[],(uint256,uint256)[],(uint256,uint256)[],uint256,uint256)),uint256[],(uint256,uint8),((uint256,uint256)[],(uint256,uint256)[],(uint256,uint256)),bytes32)": "8686a16d",
    "verifyProof(((uint256[][],uint256,((uint256,uint256),(uint256,uint256)[],(uint256,uint256)[],(uint256,uint256)[],(uint256,uint256)[],(uint256,uint256)[],uint256,uint256)),(uint256[][],uint256,((uint256,uint256),(uint256,uint256)[],(uint256,uint256)[],(uint256,uint256)[],(uint256,uint256)[],(uint256,uint256)[],uint256,uint256)),((uint256,uint256)[],uint256,(uint256,uint256)[],((uint256,uint256),(uint256,uint256)[],(uint256,uint256)[],(uint256,uint256)[],(uint256,uint256)[],(uint256,uint256)[],uint256,uint256)),uint256,uint256,uint256,uint256[]),((uint256,uint256)[],(uint256,uint256)[],(uint256,uint256)[],uint256),uint8,(uint256,uint8),((uint256,uint256)[],(uint256,uint256)[],(uint256,uint256)))": "8ab4f4ba"
  },
  "id": 6
}