{
  "abi": [
    {
      "inputs": [],
      "stateMutability": "nonpayable",
      "type": "constructor"
    },
    {
      "inputs": [],
      "name": "A",
      "outputs": [
        {
          "internalType": "uint256",
          "name": "",
          "type": "uint256"
        }
      ],
      "stateMutability": "view",
      "type": "function"
    },
    {
      "inputs": [],
      "name": "B",
      "outputs": [
        {
          "internalType": "uint256",
          "name": "",
          "type": "uint256"
        }
      ],
      "stateMutability": "view",
      "type": "function"
    },
    {
      "inputs": [
        {
          "internalType": "uint256",
          "name": "px",
          "type": "uint256"
        },
        {
          "internalType": "uint256",
          "name": "py",
          "type": "uint256"
        },
        {
          "internalType": "uint256",
          "name": "pz",
          "type": "uint256"
        },
        {
          "internalType": "uint256",
          "name": "scalar",
          "type": "uint256"
        }
      ],
      "name": "_mul",
      "outputs": [
        {
          "internalType": "uint256",
          "name": "",
          "type": "uint256"
        },
        {
          "internalType": "uint256",
          "name": "",
          "type": "uint256"
        },
        {
          "internalType": "uint256",
          "name": "",
          "type": "uint256"
        }
      ],
      "stateMutability": "view",
      "type": "function"
    },
    {
      "inputs": [
        {
          "components": [
            {
              "internalType": "uint256",
              "name": "x",
              "type": "uint256"
            },
            {
              "internalType": "uint256",
              "name": "y",
              "type": "uint256"
            },
            {
              "internalType": "uint256",
              "name": "z",
              "type": "uint256"
            }
          ],
          "internalType": "struct EvmProjectivePoint",
          "name": "p0",
          "type": "tuple"
        },
        {
          "components": [
            {
              "internalType": "uint256",
              "name": "x",
              "type": "uint256"
            },
            {
              "internalType": "uint256",
              "name": "y",
              "type": "uint256"
            },
            {
              "internalType": "uint256",
              "name": "z",
              "type": "uint256"
            }
          ],
          "internalType": "struct EvmProjectivePoint",
          "name": "p1",
          "type": "tuple"
        }
      ],
      "name": "add",
      "outputs": [
        {
          "components": [
            {
              "internalType": "uint256",
              "name": "x",
              "type": "uint256"
            },
            {
              "internalType": "uint256",
              "name": "y",
              "type": "uint256"
            },
            {
              "internalType": "uint256",
              "name": "z",
              "type": "uint256"
            }
          ],
          "internalType": "struct EvmProjectivePoint",
          "name": "",
          "type": "tuple"
        }
      ],
      "stateMutability": "view",
      "type": "function"
    },
    {
      "inputs": [
        {
          "components": [
            {
              "components": [
                {
                  "internalType": "uint256",
                  "name": "index",
                  "type": "uint256"
                },
                {
                  "internalType": "uint256",
                  "name": "val",
                  "type": "uint256"
                }
              ],
              "internalType": "struct LagrangeEntry[]",
              "name": "A",
              "type": "tuple[]"
            },
            {
              "components": [
                {
                  "internalType": "uint256",
                  "name": "index",
                  "type": "uint256"
                },
                {
                  "internalType": "uint256",
                  "name": "val",
                  "type": "uint256"
                }
              ],
              "internalType": "struct LagrangeEntry[]",
              "name": "B",
              "type": "tuple[]"
            },
            {
              "components": [
                {
                  "internalType": "uint256",
                  "name": "index",
                  "type": "uint256"
                },
                {
                  "internalType": "uint256",
                  "name": "val",
                  "type": "uint256"
                }
              ],
              "internalType": "struct LagrangeEntry[]",
              "name": "C",
              "type": "tuple[]"
            },
            {
              "internalType": "uint256",
              "name": "zLen",
              "type": "uint256"
            }
          ],
          "internalType": "struct EvmR1CS",
          "name": "r1cs",
          "type": "tuple"
        }
      ],
      "name": "addCircuit",
      "outputs": [],
      "stateMutability": "nonpayable",
      "type": "function"
    },
    {
      "inputs": [
        {
          "internalType": "bytes32",
          "name": "proofHash",
          "type": "bytes32"
        }
      ],
      "name": "assertNotInvalidated",
      "outputs": [],
      "stateMutability": "nonpayable",
      "type": "function"
    },
    {
      "inputs": [
        {
          "internalType": "uint256",
          "name": "x",
          "type": "uint256"
        },
        {
          "internalType": "uint256",
          "name": "y",
          "type": "uint256"
        },
        {
          "internalType": "uint256",
          "name": "z",
          "type": "uint256"
        }
      ],
      "name": "double",
      "outputs": [
        {
          "internalType": "uint256",
          "name": "",
          "type": "uint256"
        },
        {
          "internalType": "uint256",
          "name": "",
          "type": "uint256"
        },
        {
          "internalType": "uint256",
          "name": "",
          "type": "uint256"
        }
      ],
      "stateMutability": "view",
      "type": "function"
    },
    {
      "inputs": [
        {
          "components": [
            {
              "internalType": "uint256",
              "name": "index",
              "type": "uint256"
            },
            {
              "internalType": "uint256",
              "name": "val",
              "type": "uint256"
            }
          ],
          "internalType": "struct LagrangeEntry[]",
          "name": "lagrangePoly",
          "type": "tuple[]"
        },
        {
          "internalType": "uint256[]",
          "name": "x",
          "type": "uint256[]"
        }
      ],
      "name": "eval",
      "outputs": [
        {
          "internalType": "uint256",
          "name": "",
          "type": "uint256"
        }
      ],
      "stateMutability": "nonpayable",
      "type": "function"
    },
    {
      "inputs": [
        {
          "internalType": "uint256[]",
          "name": "r",
          "type": "uint256[]"
        },
        {
          "internalType": "uint256[]",
          "name": "x",
          "type": "uint256[]"
        }
      ],
      "name": "eval",
      "outputs": [
        {
          "internalType": "uint256",
          "name": "",
          "type": "uint256"
        }
      ],
      "stateMutability": "nonpayable",
      "type": "function"
    },
    {
      "inputs": [
        {
          "internalType": "uint256[]",
          "name": "r",
          "type": "uint256[]"
        },
        {
          "internalType": "uint256",
          "name": "x",
          "type": "uint256"
        }
      ],
      "name": "evalAsBits",
      "outputs": [
        {
          "internalType": "uint256",
          "name": "",
          "type": "uint256"
        }
      ],
      "stateMutability": "nonpayable",
      "type": "function"
    },
    {
      "inputs": [
        {
          "internalType": "uint256[]",
          "name": "t",
          "type": "uint256[]"
        }
      ],
      "name": "evals",
      "outputs": [
        {
          "internalType": "uint256[]",
          "name": "",
          "type": "uint256[]"
        }
      ],
      "stateMutability": "pure",
      "type": "function"
    },
    {
      "inputs": [
        {
          "components": [
            {
              "internalType": "uint256",
              "name": "x",
              "type": "uint256"
            },
            {
              "internalType": "uint256",
              "name": "y",
              "type": "uint256"
            }
          ],
          "internalType": "struct EvmAffinePoint[]",
          "name": "bases",
          "type": "tuple[]"
        },
        {
          "internalType": "uint256[]",
          "name": "scalars",
          "type": "uint256[]"
        }
      ],
      "name": "msm_naive",
      "outputs": [
        {
          "components": [
            {
              "internalType": "uint256",
              "name": "x",
              "type": "uint256"
            },
            {
              "internalType": "uint256",
              "name": "y",
              "type": "uint256"
            },
            {
              "internalType": "uint256",
              "name": "z",
              "type": "uint256"
            }
          ],
          "internalType": "struct EvmProjectivePoint",
          "name": "",
          "type": "tuple"
        }
      ],
      "stateMutability": "view",
      "type": "function"
    },
    {
      "inputs": [
        {
          "components": [
            {
              "internalType": "uint256",
              "name": "x",
              "type": "uint256"
            },
            {
              "internalType": "uint256",
              "name": "y",
              "type": "uint256"
            },
            {
              "internalType": "uint256",
              "name": "z",
              "type": "uint256"
            }
          ],
          "internalType": "struct EvmProjectivePoint",
          "name": "point",
          "type": "tuple"
        },
        {
          "internalType": "uint256",
          "name": "scalar",
          "type": "uint256"
        }
      ],
      "name": "mul",
      "outputs": [
        {
          "components": [
            {
              "internalType": "uint256",
              "name": "x",
              "type": "uint256"
            },
            {
              "internalType": "uint256",
              "name": "y",
              "type": "uint256"
            },
            {
              "internalType": "uint256",
              "name": "z",
              "type": "uint256"
            }
          ],
          "internalType": "struct EvmProjectivePoint",
          "name": "",
          "type": "tuple"
        }
      ],
      "stateMutability": "view",
      "type": "function"
    },
    {
      "inputs": [],
      "name": "newStake",
      "outputs": [],
      "stateMutability": "payable",
      "type": "function"
    },
    {
      "inputs": [
        {
          "internalType": "bytes32",
          "name": "",
          "type": "bytes32"
        }
      ],
      "name": "proofs",
      "outputs": [
        {
          "internalType": "bool",
          "name": "",
          "type": "bool"
        }
      ],
      "stateMutability": "view",
      "type": "function"
    },
    {
      "inputs": [
        {
          "components": [
            {
              "components": [
                {
                  "internalType": "uint256[][]",
                  "name": "roundPolysCoeffs",
                  "type": "uint256[][]"
                },
                {
                  "internalType": "uint256",
                  "name": "blindPolySum",
                  "type": "uint256"
                },
                {
                  "components": [
                    {
                      "components": [
                        {
                          "internalType": "uint256",
                          "name": "x",
                          "type": "uint256"
                        },
                        {
                          "internalType": "uint256",
                          "name": "y",
                          "type": "uint256"
                        }
                      ],
                      "internalType": "struct EvmAffinePoint[]",
                      "name": "T",
                      "type": "tuple[]"
                    },
                    {
                      "internalType": "uint256",
                      "name": "y",
                      "type": "uint256"
                    },
                    {
                      "components": [
                        {
                          "internalType": "uint256",
                          "name": "x",
                          "type": "uint256"
                        },
                        {
                          "internalType": "uint256",
                          "name": "y",
                          "type": "uint256"
                        }
                      ],
                      "internalType": "struct EvmAffinePoint[]",
                      "name": "TLpowers",
                      "type": "tuple[]"
                    },
                    {
                      "components": [
                        {
                          "components": [
                            {
                              "internalType": "uint256",
                              "name": "x",
                              "type": "uint256"
                            },
                            {
                              "internalType": "uint256",
                              "name": "y",
                              "type": "uint256"
                            }
                          ],
                          "internalType": "struct EvmAffinePoint",
                          "name": "comm",
                          "type": "tuple"
                        },
                        {
                          "components": [
                            {
                              "internalType": "uint256",
                              "name": "x",
                              "type": "uint256"
                            },
                            {
                              "internalType": "uint256",
                              "name": "y",
                              "type": "uint256"
                            }
                          ],
                          "internalType": "struct EvmAffinePoint[]",
                          "name": "L",
                          "type": "tuple[]"
                        },
                        {
                          "components": [
                            {
                              "internalType": "uint256",
                              "name": "x",
                              "type": "uint256"
                            },
                            {
                              "internalType": "uint256",
                              "name": "y",
                              "type": "uint256"
                            }
                          ],
                          "internalType": "struct EvmAffinePoint[]",
                          "name": "R",
                          "type": "tuple[]"
                        },
                        {
                          "components": [
                            {
                              "internalType": "uint256",
                              "name": "x",
                              "type": "uint256"
                            },
                            {
                              "internalType": "uint256",
                              "name": "y",
                              "type": "uint256"
                            }
                          ],
                          "internalType": "struct EvmAffinePoint[]",
                          "name": "sAGPowers",
                          "type": "tuple[]"
                        },
                        {
                          "components": [
                            {
                              "internalType": "uint256",
                              "name": "x",
                              "type": "uint256"
                            },
                            {
                              "internalType": "uint256",
                              "name": "y",
                              "type": "uint256"
                            }
                          ],
                          "internalType": "struct EvmAffinePoint[]",
                          "name": "sBGPowers",
                          "type": "tuple[]"
                        },
                        {
                          "components": [
                            {
                              "internalType": "uint256",
                              "name": "x",
                              "type": "uint256"
                            },
                            {
                              "internalType": "uint256",
                              "name": "y",
                              "type": "uint256"
                            }
                          ],
                          "internalType": "struct EvmAffinePoint[]",
                          "name": "bhPowers",
                          "type": "tuple[]"
                        },
                        {
                          "internalType": "uint256",
                          "name": "a",
                          "type": "uint256"
                        },
                        {
                          "internalType": "uint256",
                          "name": "y",
                          "type": "uint256"
                        }
                      ],
                      "internalType": "struct EvmInnerProductProof",
                      "name": "ipProof",
                      "type": "tuple"
                    }
                  ],
                  "internalType": "struct EvmPolyEvalProof",
                  "name": "blindPolyEvalProof",
                  "type": "tuple"
                }
              ],
              "internalType": "struct EvmSumCheckProof",
              "name": "scProof1",
              "type": "tuple"
            },
            {
              "components": [
                {
                  "internalType": "uint256[][]",
                  "name": "roundPolysCoeffs",
                  "type": "uint256[][]"
                },
                {
                  "internalType": "uint256",
                  "name": "blindPolySum",
                  "type": "uint256"
                },
                {
                  "components": [
                    {
                      "components": [
                        {
                          "internalType": "uint256",
                          "name": "x",
                          "type": "uint256"
                        },
                        {
                          "internalType": "uint256",
                          "name": "y",
                          "type": "uint256"
                        }
                      ],
                      "internalType": "struct EvmAffinePoint[]",
                      "name": "T",
                      "type": "tuple[]"
                    },
                    {
                      "internalType": "uint256",
                      "name": "y",
                      "type": "uint256"
                    },
                    {
                      "components": [
                        {
                          "internalType": "uint256",
                          "name": "x",
                          "type": "uint256"
                        },
                        {
                          "internalType": "uint256",
                          "name": "y",
                          "type": "uint256"
                        }
                      ],
                      "internalType": "struct EvmAffinePoint[]",
                      "name": "TLpowers",
                      "type": "tuple[]"
                    },
                    {
                      "components": [
                        {
                          "components": [
                            {
                              "internalType": "uint256",
                              "name": "x",
                              "type": "uint256"
                            },
                            {
                              "internalType": "uint256",
                              "name": "y",
                              "type": "uint256"
                            }
                          ],
                          "internalType": "struct EvmAffinePoint",
                          "name": "comm",
                          "type": "tuple"
                        },
                        {
                          "components": [
                            {
                              "internalType": "uint256",
                              "name": "x",
                              "type": "uint256"
                            },
                            {
                              "internalType": "uint256",
                              "name": "y",
                              "type": "uint256"
                            }
                          ],
                          "internalType": "struct EvmAffinePoint[]",
                          "name": "L",
                          "type": "tuple[]"
                        },
                        {
                          "components": [
                            {
                              "internalType": "uint256",
                              "name": "x",
                              "type": "uint256"
                            },
                            {
                              "internalType": "uint256",
                              "name": "y",
                              "type": "uint256"
                            }
                          ],
                          "internalType": "struct EvmAffinePoint[]",
                          "name": "R",
                          "type": "tuple[]"
                        },
                        {
                          "components": [
                            {
                              "internalType": "uint256",
                              "name": "x",
                              "type": "uint256"
                            },
                            {
                              "internalType": "uint256",
                              "name": "y",
                              "type": "uint256"
                            }
                          ],
                          "internalType": "struct EvmAffinePoint[]",
                          "name": "sAGPowers",
                          "type": "tuple[]"
                        },
                        {
                          "components": [
                            {
                              "internalType": "uint256",
                              "name": "x",
                              "type": "uint256"
                            },
                            {
                              "internalType": "uint256",
                              "name": "y",
                              "type": "uint256"
                            }
                          ],
                          "internalType": "struct EvmAffinePoint[]",
                          "name": "sBGPowers",
                          "type": "tuple[]"
                        },
                        {
                          "components": [
                            {
                              "internalType": "uint256",
                              "name": "x",
                              "type": "uint256"
                            },
                            {
                              "internalType": "uint256",
                              "name": "y",
                              "type": "uint256"
                            }
                          ],
                          "internalType": "struct EvmAffinePoint[]",
                          "name": "bhPowers",
                          "type": "tuple[]"
                        },
                        {
                          "internalType": "uint256",
                          "name": "a",
                          "type": "uint256"
                        },
                        {
                          "internalType": "uint256",
                          "name": "y",
                          "type": "uint256"
                        }
                      ],
                      "internalType": "struct EvmInnerProductProof",
                      "name": "ipProof",
                      "type": "tuple"
                    }
                  ],
                  "internalType": "struct EvmPolyEvalProof",
                  "name": "blindPolyEvalProof",
                  "type": "tuple"
                }
              ],
              "internalType": "struct EvmSumCheckProof",
              "name": "scProof2",
              "type": "tuple"
            },
            {
              "components": [
                {
                  "components": [
                    {
                      "internalType": "uint256",
                      "name": "x",
                      "type": "uint256"
                    },
                    {
                      "internalType": "uint256",
                      "name": "y",
                      "type": "uint256"
                    }
                  ],
                  "internalType": "struct EvmAffinePoint[]",
                  "name": "T",
                  "type": "tuple[]"
                },
                {
                  "internalType": "uint256",
                  "name": "y",
                  "type": "uint256"
                },
                {
                  "components": [
                    {
                      "internalType": "uint256",
                      "name": "x",
                      "type": "uint256"
                    },
                    {
                      "internalType": "uint256",
                      "name": "y",
                      "type": "uint256"
                    }
                  ],
                  "internalType": "struct EvmAffinePoint[]",
                  "name": "TLpowers",
                  "type": "tuple[]"
                },
                {
                  "components": [
                    {
                      "components": [
                        {
                          "internalType": "uint256",
                          "name": "x",
                          "type": "uint256"
                        },
                        {
                          "internalType": "uint256",
                          "name": "y",
                          "type": "uint256"
                        }
                      ],
                      "internalType": "struct EvmAffinePoint",
                      "name": "comm",
                      "type": "tuple"
                    },
                    {
                      "components": [
                        {
                          "internalType": "uint256",
                          "name": "x",
                          "type": "uint256"
                        },
                        {
                          "internalType": "uint256",
                          "name": "y",
                          "type": "uint256"
                        }
                      ],
                      "internalType": "struct EvmAffinePoint[]",
                      "name": "L",
                      "type": "tuple[]"
                    },
                    {
                      "components": [
                        {
                          "internalType": "uint256",
                          "name": "x",
                          "type": "uint256"
                        },
                        {
                          "internalType": "uint256",
                          "name": "y",
                          "type": "uint256"
                        }
                      ],
                      "internalType": "struct EvmAffinePoint[]",
                      "name": "R",
                      "type": "tuple[]"
                    },
                    {
                      "components": [
                        {
                          "internalType": "uint256",
                          "name": "x",
                          "type": "uint256"
                        },
                        {
                          "internalType": "uint256",
                          "name": "y",
                          "type": "uint256"
                        }
                      ],
                      "internalType": "struct EvmAffinePoint[]",
                      "name": "sAGPowers",
                      "type": "tuple[]"
                    },
                    {
                      "components": [
                        {
                          "internalType": "uint256",
                          "name": "x",
                          "type": "uint256"
                        },
                        {
                          "internalType": "uint256",
                          "name": "y",
                          "type": "uint256"
                        }
                      ],
                      "internalType": "struct EvmAffinePoint[]",
                      "name": "sBGPowers",
                      "type": "tuple[]"
                    },
                    {
                      "components": [
                        {
                          "internalType": "uint256",
                          "name": "x",
                          "type": "uint256"
                        },
                        {
                          "internalType": "uint256",
                          "name": "y",
                          "type": "uint256"
                        }
                      ],
                      "internalType": "struct EvmAffinePoint[]",
                      "name": "bhPowers",
                      "type": "tuple[]"
                    },
                    {
                      "internalType": "uint256",
                      "name": "a",
                      "type": "uint256"
                    },
                    {
                      "internalType": "uint256",
                      "name": "y",
                      "type": "uint256"
                    }
                  ],
                  "internalType": "struct EvmInnerProductProof",
                  "name": "ipProof",
                  "type": "tuple"
                }
              ],
              "internalType": "struct EvmPolyEvalProof",
              "name": "zEvalProof",
              "type": "tuple"
            },
            {
              "internalType": "uint256",
              "name": "vA",
              "type": "uint256"
            },
            {
              "internalType": "uint256",
              "name": "vB",
              "type": "uint256"
            },
            {
              "internalType": "uint256",
              "name": "vC",
              "type": "uint256"
            },
            {
              "internalType": "uint256[]",
              "name": "publicInput",
              "type": "uint256[]"
            }
          ],
          "internalType": "struct FullProof",
          "name": "fullProof",
          "type": "tuple"
        }
      ],
      "name": "submitProof",
      "outputs": [
        {
          "internalType": "bytes32",
          "name": "",
          "type": "bytes32"
        }
      ],
      "stateMutability": "nonpayable",
      "type": "function"
    },
    {
      "inputs": [
        {
          "components": [
            {
              "internalType": "uint256",
              "name": "x",
              "type": "uint256"
            },
            {
              "internalType": "uint256",
              "name": "y",
              "type": "uint256"
            }
          ],
          "internalType": "struct EvmAffinePoint[]",
          "name": "points",
          "type": "tuple[]"
        }
      ],
      "name": "sum",
      "outputs": [
        {
          "components": [
            {
              "internalType": "uint256",
              "name": "x",
              "type": "uint256"
            },
            {
              "internalType": "uint256",
              "name": "y",
              "type": "uint256"
            },
            {
              "internalType": "uint256",
              "name": "z",
              "type": "uint256"
            }
          ],
          "internalType": "struct EvmProjectivePoint",
          "name": "",
          "type": "tuple"
        }
      ],
      "stateMutability": "nonpayable",
      "type": "function"
    },
    {
      "inputs": [
        {
          "components": [
            {
              "internalType": "uint256",
              "name": "x",
              "type": "uint256"
            },
            {
              "internalType": "uint256",
              "name": "y",
              "type": "uint256"
            },
            {
              "internalType": "uint256",
              "name": "z",
              "type": "uint256"
            }
          ],
          "internalType": "struct EvmProjectivePoint",
          "name": "point",
          "type": "tuple"
        }
      ],
      "name": "toAffine",
      "outputs": [
        {
          "components": [
            {
              "internalType": "uint256",
              "name": "x",
              "type": "uint256"
            },
            {
              "internalType": "uint256",
              "name": "y",
              "type": "uint256"
            }
          ],
          "internalType": "struct EvmAffinePoint",
          "name": "",
          "type": "tuple"
        }
      ],
      "stateMutability": "pure",
      "type": "function"
    },
    {
      "inputs": [
        {
          "components": [
            {
              "internalType": "uint256",
              "name": "x",
              "type": "uint256"
            },
            {
              "internalType": "uint256",
              "name": "y",
              "type": "uint256"
            }
          ],
          "internalType": "struct EvmAffinePoint",
          "name": "point",
          "type": "tuple"
        }
      ],
      "name": "toProjective",
      "outputs": [
        {
          "components": [
            {
              "internalType": "uint256",
              "name": "x",
              "type": "uint256"
            },
            {
              "internalType": "uint256",
              "name": "y",
              "type": "uint256"
            },
            {
              "internalType": "uint256",
              "name": "z",
              "type": "uint256"
            }
          ],
          "internalType": "struct EvmProjectivePoint",
          "name": "",
          "type": "tuple"
        }
      ],
      "stateMutability": "pure",
      "type": "function"
    },
    {
      "inputs": [
        {
          "components": [
            {
              "components": [
                {
                  "internalType": "uint256",
                  "name": "x",
                  "type": "uint256"
                },
                {
                  "internalType": "uint256",
                  "name": "y",
                  "type": "uint256"
                }
              ],
              "internalType": "struct EvmAffinePoint[]",
              "name": "T",
              "type": "tuple[]"
            },
            {
              "internalType": "uint256",
              "name": "y",
              "type": "uint256"
            },
            {
              "components": [
                {
                  "internalType": "uint256",
                  "name": "x",
                  "type": "uint256"
                },
                {
                  "internalType": "uint256",
                  "name": "y",
                  "type": "uint256"
                }
              ],
              "internalType": "struct EvmAffinePoint[]",
              "name": "TLpowers",
              "type": "tuple[]"
            },
            {
              "components": [
                {
                  "components": [
                    {
                      "internalType": "uint256",
                      "name": "x",
                      "type": "uint256"
                    },
                    {
                      "internalType": "uint256",
                      "name": "y",
                      "type": "uint256"
                    }
                  ],
                  "internalType": "struct EvmAffinePoint",
                  "name": "comm",
                  "type": "tuple"
                },
                {
                  "components": [
                    {
                      "internalType": "uint256",
                      "name": "x",
                      "type": "uint256"
                    },
                    {
                      "internalType": "uint256",
                      "name": "y",
                      "type": "uint256"
                    }
                  ],
                  "internalType": "struct EvmAffinePoint[]",
                  "name": "L",
                  "type": "tuple[]"
                },
                {
                  "components": [
                    {
                      "internalType": "uint256",
                      "name": "x",
                      "type": "uint256"
                    },
                    {
                      "internalType": "uint256",
                      "name": "y",
                      "type": "uint256"
                    }
                  ],
                  "internalType": "struct EvmAffinePoint[]",
                  "name": "R",
                  "type": "tuple[]"
                },
                {
                  "components": [
                    {
                      "internalType": "uint256",
                      "name": "x",
                      "type": "uint256"
                    },
                    {
                      "internalType": "uint256",
                      "name": "y",
                      "type": "uint256"
                    }
                  ],
                  "internalType": "struct EvmAffinePoint[]",
                  "name": "sAGPowers",
                  "type": "tuple[]"
                },
                {
                  "components": [
                    {
                      "internalType": "uint256",
                      "name": "x",
                      "type": "uint256"
                    },
                    {
                      "internalType": "uint256",
                      "name": "y",
                      "type": "uint256"
                    }
                  ],
                  "internalType": "struct EvmAffinePoint[]",
                  "name": "sBGPowers",
                  "type": "tuple[]"
                },
                {
                  "components": [
                    {
                      "internalType": "uint256",
                      "name": "x",
                      "type": "uint256"
                    },
                    {
                      "internalType": "uint256",
                      "name": "y",
                      "type": "uint256"
                    }
                  ],
                  "internalType": "struct EvmAffinePoint[]",
                  "name": "bhPowers",
                  "type": "tuple[]"
                },
                {
                  "internalType": "uint256",
                  "name": "a",
                  "type": "uint256"
                },
                {
                  "internalType": "uint256",
                  "name": "y",
                  "type": "uint256"
                }
              ],
              "internalType": "struct EvmInnerProductProof",
              "name": "ipProof",
              "type": "tuple"
            }
          ],
          "internalType": "struct EvmPolyEvalProof",
          "name": "proof",
          "type": "tuple"
        },
        {
          "internalType": "uint256[]",
          "name": "_x",
          "type": "uint256[]"
        },
        {
          "components": [
            {
              "internalType": "uint256",
              "name": "msmIndex",
              "type": "uint256"
            },
            {
              "internalType": "enum OpeningVStep",
              "name": "step",
              "type": "uint8"
            }
          ],
          "internalType": "struct OpeningVerifyAuxilaries",
          "name": "auxilaries",
          "type": "tuple"
        },
        {
          "components": [
            {
              "components": [
                {
                  "internalType": "uint256",
                  "name": "x",
                  "type": "uint256"
                },
                {
                  "internalType": "uint256",
                  "name": "y",
                  "type": "uint256"
                }
              ],
              "internalType": "struct EvmAffinePoint[]",
              "name": "G",
              "type": "tuple[]"
            },
            {
              "components": [
                {
                  "internalType": "uint256",
                  "name": "x",
                  "type": "uint256"
                },
                {
                  "internalType": "uint256",
                  "name": "y",
                  "type": "uint256"
                }
              ],
              "internalType": "struct EvmAffinePoint[]",
              "name": "H",
              "type": "tuple[]"
            },
            {
              "components": [
                {
                  "internalType": "uint256",
                  "name": "x",
                  "type": "uint256"
                },
                {
                  "internalType": "uint256",
                  "name": "y",
                  "type": "uint256"
                }
              ],
              "internalType": "struct EvmAffinePoint",
              "name": "u",
              "type": "tuple"
            }
          ],
          "internalType": "struct EvmGens",
          "name": "gens",
          "type": "tuple"
        },
        {
          "internalType": "bytes32",
          "name": "state",
          "type": "bytes32"
        }
      ],
      "name": "verify",
      "outputs": [
        {
          "internalType": "bool",
          "name": "",
          "type": "bool"
        }
      ],
      "stateMutability": "nonpayable",
      "type": "function"
    },
    {
      "inputs": [
        {
          "components": [
            {
              "components": [
                {
                  "internalType": "uint256",
                  "name": "x",
                  "type": "uint256"
                },
                {
                  "internalType": "uint256",
                  "name": "y",
                  "type": "uint256"
                }
              ],
              "internalType": "struct EvmAffinePoint",
              "name": "comm",
              "type": "tuple"
            },
            {
              "components": [
                {
                  "internalType": "uint256",
                  "name": "x",
                  "type": "uint256"
                },
                {
                  "internalType": "uint256",
                  "name": "y",
                  "type": "uint256"
                }
              ],
              "internalType": "struct EvmAffinePoint[]",
              "name": "L",
              "type": "tuple[]"
            },
            {
              "components": [
                {
                  "internalType": "uint256",
                  "name": "x",
                  "type": "uint256"
                },
                {
                  "internalType": "uint256",
                  "name": "y",
                  "type": "uint256"
                }
              ],
              "internalType": "struct EvmAffinePoint[]",
              "name": "R",
              "type": "tuple[]"
            },
            {
              "components": [
                {
                  "internalType": "uint256",
                  "name": "x",
                  "type": "uint256"
                },
                {
                  "internalType": "uint256",
                  "name": "y",
                  "type": "uint256"
                }
              ],
              "internalType": "struct EvmAffinePoint[]",
              "name": "sAGPowers",
              "type": "tuple[]"
            },
            {
              "components": [
                {
                  "internalType": "uint256",
                  "name": "x",
                  "type": "uint256"
                },
                {
                  "internalType": "uint256",
                  "name": "y",
                  "type": "uint256"
                }
              ],
              "internalType": "struct EvmAffinePoint[]",
              "name": "sBGPowers",
              "type": "tuple[]"
            },
            {
              "components": [
                {
                  "internalType": "uint256",
                  "name": "x",
                  "type": "uint256"
                },
                {
                  "internalType": "uint256",
                  "name": "y",
                  "type": "uint256"
                }
              ],
              "internalType": "struct EvmAffinePoint[]",
              "name": "bhPowers",
              "type": "tuple[]"
            },
            {
              "internalType": "uint256",
              "name": "a",
              "type": "uint256"
            },
            {
              "internalType": "uint256",
              "name": "y",
              "type": "uint256"
            }
          ],
          "internalType": "struct EvmInnerProductProof",
          "name": "proof",
          "type": "tuple"
        },
        {
          "internalType": "uint256[]",
          "name": "b",
          "type": "uint256[]"
        },
        {
          "components": [
            {
              "components": [
                {
                  "internalType": "uint256",
                  "name": "x",
                  "type": "uint256"
                },
                {
                  "internalType": "uint256",
                  "name": "y",
                  "type": "uint256"
                }
              ],
              "internalType": "struct EvmAffinePoint[]",
              "name": "G",
              "type": "tuple[]"
            },
            {
              "components": [
                {
                  "internalType": "uint256",
                  "name": "x",
                  "type": "uint256"
                },
                {
                  "internalType": "uint256",
                  "name": "y",
                  "type": "uint256"
                }
              ],
              "internalType": "struct EvmAffinePoint[]",
              "name": "H",
              "type": "tuple[]"
            },
            {
              "components": [
                {
                  "internalType": "uint256",
                  "name": "x",
                  "type": "uint256"
                },
                {
                  "internalType": "uint256",
                  "name": "y",
                  "type": "uint256"
                }
              ],
              "internalType": "struct EvmAffinePoint",
              "name": "u",
              "type": "tuple"
            }
          ],
          "internalType": "struct EvmGens",
          "name": "gens",
          "type": "tuple"
        },
        {
          "internalType": "bytes32",
          "name": "state",
          "type": "bytes32"
        }
      ],
      "name": "verify",
      "outputs": [
        {
          "internalType": "bool",
          "name": "",
          "type": "bool"
        }
      ],
      "stateMutability": "nonpayable",
      "type": "function"
    },
    {
      "inputs": [
        {
          "components": [
            {
              "components": [
                {
                  "internalType": "uint256[][]",
                  "name": "roundPolysCoeffs",
                  "type": "uint256[][]"
                },
                {
                  "internalType": "uint256",
                  "name": "blindPolySum",
                  "type": "uint256"
                },
                {
                  "components": [
                    {
                      "components": [
                        {
                          "internalType": "uint256",
                          "name": "x",
                          "type": "uint256"
                        },
                        {
                          "internalType": "uint256",
                          "name": "y",
                          "type": "uint256"
                        }
                      ],
                      "internalType": "struct EvmAffinePoint[]",
                      "name": "T",
                      "type": "tuple[]"
                    },
                    {
                      "internalType": "uint256",
                      "name": "y",
                      "type": "uint256"
                    },
                    {
                      "components": [
                        {
                          "internalType": "uint256",
                          "name": "x",
                          "type": "uint256"
                        },
                        {
                          "internalType": "uint256",
                          "name": "y",
                          "type": "uint256"
                        }
                      ],
                      "internalType": "struct EvmAffinePoint[]",
                      "name": "TLpowers",
                      "type": "tuple[]"
                    },
                    {
                      "components": [
                        {
                          "components": [
                            {
                              "internalType": "uint256",
                              "name": "x",
                              "type": "uint256"
                            },
                            {
                              "internalType": "uint256",
                              "name": "y",
                              "type": "uint256"
                            }
                          ],
                          "internalType": "struct EvmAffinePoint",
                          "name": "comm",
                          "type": "tuple"
                        },
                        {
                          "components": [
                            {
                              "internalType": "uint256",
                              "name": "x",
                              "type": "uint256"
                            },
                            {
                              "internalType": "uint256",
                              "name": "y",
                              "type": "uint256"
                            }
                          ],
                          "internalType": "struct EvmAffinePoint[]",
                          "name": "L",
                          "type": "tuple[]"
                        },
                        {
                          "components": [
                            {
                              "internalType": "uint256",
                              "name": "x",
                              "type": "uint256"
                            },
                            {
                              "internalType": "uint256",
                              "name": "y",
                              "type": "uint256"
                            }
                          ],
                          "internalType": "struct EvmAffinePoint[]",
                          "name": "R",
                          "type": "tuple[]"
                        },
                        {
                          "components": [
                            {
                              "internalType": "uint256",
                              "name": "x",
                              "type": "uint256"
                            },
                            {
                              "internalType": "uint256",
                              "name": "y",
                              "type": "uint256"
                            }
                          ],
                          "internalType": "struct EvmAffinePoint[]",
                          "name": "sAGPowers",
                          "type": "tuple[]"
                        },
                        {
                          "components": [
                            {
                              "internalType": "uint256",
                              "name": "x",
                              "type": "uint256"
                            },
                            {
                              "internalType": "uint256",
                              "name": "y",
                              "type": "uint256"
                            }
                          ],
                          "internalType": "struct EvmAffinePoint[]",
                          "name": "sBGPowers",
                          "type": "tuple[]"
                        },
                        {
                          "components": [
                            {
                              "internalType": "uint256",
                              "name": "x",
                              "type": "uint256"
                            },
                            {
                              "internalType": "uint256",
                              "name": "y",
                              "type": "uint256"
                            }
                          ],
                          "internalType": "struct EvmAffinePoint[]",
                          "name": "bhPowers",
                          "type": "tuple[]"
                        },
                        {
                          "internalType": "uint256",
                          "name": "a",
                          "type": "uint256"
                        },
                        {
                          "internalType": "uint256",
                          "name": "y",
                          "type": "uint256"
                        }
                      ],
                      "internalType": "struct EvmInnerProductProof",
                      "name": "ipProof",
                      "type": "tuple"
                    }
                  ],
                  "internalType": "struct EvmPolyEvalProof",
                  "name": "blindPolyEvalProof",
                  "type": "tuple"
                }
              ],
              "internalType": "struct EvmSumCheckProof",
              "name": "scProof1",
              "type": "tuple"
            },
            {
              "components": [
                {
                  "internalType": "uint256[][]",
                  "name": "roundPolysCoeffs",
                  "type": "uint256[][]"
                },
                {
                  "internalType": "uint256",
                  "name": "blindPolySum",
                  "type": "uint256"
                },
                {
                  "components": [
                    {
                      "components": [
                        {
                          "internalType": "uint256",
                          "name": "x",
                          "type": "uint256"
                        },
                        {
                          "internalType": "uint256",
                          "name": "y",
                          "type": "uint256"
                        }
                      ],
                      "internalType": "struct EvmAffinePoint[]",
                      "name": "T",
                      "type": "tuple[]"
                    },
                    {
                      "internalType": "uint256",
                      "name": "y",
                      "type": "uint256"
                    },
                    {
                      "components": [
                        {
                          "internalType": "uint256",
                          "name": "x",
                          "type": "uint256"
                        },
                        {
                          "internalType": "uint256",
                          "name": "y",
                          "type": "uint256"
                        }
                      ],
                      "internalType": "struct EvmAffinePoint[]",
                      "name": "TLpowers",
                      "type": "tuple[]"
                    },
                    {
                      "components": [
                        {
                          "components": [
                            {
                              "internalType": "uint256",
                              "name": "x",
                              "type": "uint256"
                            },
                            {
                              "internalType": "uint256",
                              "name": "y",
                              "type": "uint256"
                            }
                          ],
                          "internalType": "struct EvmAffinePoint",
                          "name": "comm",
                          "type": "tuple"
                        },
                        {
                          "components": [
                            {
                              "internalType": "uint256",
                              "name": "x",
                              "type": "uint256"
                            },
                            {
                              "internalType": "uint256",
                              "name": "y",
                              "type": "uint256"
                            }
                          ],
                          "internalType": "struct EvmAffinePoint[]",
                          "name": "L",
                          "type": "tuple[]"
                        },
                        {
                          "components": [
                            {
                              "internalType": "uint256",
                              "name": "x",
                              "type": "uint256"
                            },
                            {
                              "internalType": "uint256",
                              "name": "y",
                              "type": "uint256"
                            }
                          ],
                          "internalType": "struct EvmAffinePoint[]",
                          "name": "R",
                          "type": "tuple[]"
                        },
                        {
                          "components": [
                            {
                              "internalType": "uint256",
                              "name": "x",
                              "type": "uint256"
                            },
                            {
                              "internalType": "uint256",
                              "name": "y",
                              "type": "uint256"
                            }
                          ],
                          "internalType": "struct EvmAffinePoint[]",
                          "name": "sAGPowers",
                          "type": "tuple[]"
                        },
                        {
                          "components": [
                            {
                              "internalType": "uint256",
                              "name": "x",
                              "type": "uint256"
                            },
                            {
                              "internalType": "uint256",
                              "name": "y",
                              "type": "uint256"
                            }
                          ],
                          "internalType": "struct EvmAffinePoint[]",
                          "name": "sBGPowers",
                          "type": "tuple[]"
                        },
                        {
                          "components": [
                            {
                              "internalType": "uint256",
                              "name": "x",
                              "type": "uint256"
                            },
                            {
                              "internalType": "uint256",
                              "name": "y",
                              "type": "uint256"
                            }
                          ],
                          "internalType": "struct EvmAffinePoint[]",
                          "name": "bhPowers",
                          "type": "tuple[]"
                        },
                        {
                          "internalType": "uint256",
                          "name": "a",
                          "type": "uint256"
                        },
                        {
                          "internalType": "uint256",
                          "name": "y",
                          "type": "uint256"
                        }
                      ],
                      "internalType": "struct EvmInnerProductProof",
                      "name": "ipProof",
                      "type": "tuple"
                    }
                  ],
                  "internalType": "struct EvmPolyEvalProof",
                  "name": "blindPolyEvalProof",
                  "type": "tuple"
                }
              ],
              "internalType": "struct EvmSumCheckProof",
              "name": "scProof2",
              "type": "tuple"
            },
            {
              "components": [
                {
                  "components": [
                    {
                      "internalType": "uint256",
                      "name": "x",
                      "type": "uint256"
                    },
                    {
                      "internalType": "uint256",
                      "name": "y",
                      "type": "uint256"
                    }
                  ],
                  "internalType": "struct EvmAffinePoint[]",
                  "name": "T",
                  "type": "tuple[]"
                },
                {
                  "internalType": "uint256",
                  "name": "y",
                  "type": "uint256"
                },
                {
                  "components": [
                    {
                      "internalType": "uint256",
                      "name": "x",
                      "type": "uint256"
                    },
                    {
                      "internalType": "uint256",
                      "name": "y",
                      "type": "uint256"
                    }
                  ],
                  "internalType": "struct EvmAffinePoint[]",
                  "name": "TLpowers",
                  "type": "tuple[]"
                },
                {
                  "components": [
                    {
                      "components": [
                        {
                          "internalType": "uint256",
                          "name": "x",
                          "type": "uint256"
                        },
                        {
                          "internalType": "uint256",
                          "name": "y",
                          "type": "uint256"
                        }
                      ],
                      "internalType": "struct EvmAffinePoint",
                      "name": "comm",
                      "type": "tuple"
                    },
                    {
                      "components": [
                        {
                          "internalType": "uint256",
                          "name": "x",
                          "type": "uint256"
                        },
                        {
                          "internalType": "uint256",
                          "name": "y",
                          "type": "uint256"
                        }
                      ],
                      "internalType": "struct EvmAffinePoint[]",
                      "name": "L",
                      "type": "tuple[]"
                    },
                    {
                      "components": [
                        {
                          "internalType": "uint256",
                          "name": "x",
                          "type": "uint256"
                        },
                        {
                          "internalType": "uint256",
                          "name": "y",
                          "type": "uint256"
                        }
                      ],
                      "internalType": "struct EvmAffinePoint[]",
                      "name": "R",
                      "type": "tuple[]"
                    },
                    {
                      "components": [
                        {
                          "internalType": "uint256",
                          "name": "x",
                          "type": "uint256"
                        },
                        {
                          "internalType": "uint256",
                          "name": "y",
                          "type": "uint256"
                        }
                      ],
                      "internalType": "struct EvmAffinePoint[]",
                      "name": "sAGPowers",
                      "type": "tuple[]"
                    },
                    {
                      "components": [
                        {
                          "internalType": "uint256",
                          "name": "x",
                          "type": "uint256"
                        },
                        {
                          "internalType": "uint256",
                          "name": "y",
                          "type": "uint256"
                        }
                      ],
                      "internalType": "struct EvmAffinePoint[]",
                      "name": "sBGPowers",
                      "type": "tuple[]"
                    },
                    {
                      "components": [
                        {
                          "internalType": "uint256",
                          "name": "x",
                          "type": "uint256"
                        },
                        {
                          "internalType": "uint256",
                          "name": "y",
                          "type": "uint256"
                        }
                      ],
                      "internalType": "struct EvmAffinePoint[]",
                      "name": "bhPowers",
                      "type": "tuple[]"
                    },
                    {
                      "internalType": "uint256",
                      "name": "a",
                      "type": "uint256"
                    },
                    {
                      "internalType": "uint256",
                      "name": "y",
                      "type": "uint256"
                    }
                  ],
                  "internalType": "struct EvmInnerProductProof",
                  "name": "ipProof",
                  "type": "tuple"
                }
              ],
              "internalType": "struct EvmPolyEvalProof",
              "name": "zEvalProof",
              "type": "tuple"
            },
            {
              "internalType": "uint256",
              "name": "vA",
              "type": "uint256"
            },
            {
              "internalType": "uint256",
              "name": "vB",
              "type": "uint256"
            },
            {
              "internalType": "uint256",
              "name": "vC",
              "type": "uint256"
            },
            {
              "internalType": "uint256[]",
              "name": "publicInput",
              "type": "uint256[]"
            }
          ],
          "internalType": "struct FullProof",
          "name": "fullProof",
          "type": "tuple"
        },
        {
          "components": [
            {
              "components": [
                {
                  "internalType": "uint256",
                  "name": "index",
                  "type": "uint256"
                },
                {
                  "internalType": "uint256",
                  "name": "val",
                  "type": "uint256"
                }
              ],
              "internalType": "struct LagrangeEntry[]",
              "name": "A",
              "type": "tuple[]"
            },
            {
              "components": [
                {
                  "internalType": "uint256",
                  "name": "index",
                  "type": "uint256"
                },
                {
                  "internalType": "uint256",
                  "name": "val",
                  "type": "uint256"
                }
              ],
              "internalType": "struct LagrangeEntry[]",
              "name": "B",
              "type": "tuple[]"
            },
            {
              "components": [
                {
                  "internalType": "uint256",
                  "name": "index",
                  "type": "uint256"
                },
                {
                  "internalType": "uint256",
                  "name": "val",
                  "type": "uint256"
                }
              ],
              "internalType": "struct LagrangeEntry[]",
              "name": "C",
              "type": "tuple[]"
            },
            {
              "internalType": "uint256",
              "name": "zLen",
              "type": "uint256"
            }
          ],
          "internalType": "struct EvmR1CS",
          "name": "r1cs",
          "type": "tuple"
        },
        {
          "internalType": "enum VStep",
          "name": "step",
          "type": "uint8"
        },
        {
          "components": [
            {
              "internalType": "uint256",
              "name": "msmIndex",
              "type": "uint256"
            },
            {
              "internalType": "enum OpeningVStep",
              "name": "step",
              "type": "uint8"
            }
          ],
          "internalType": "struct OpeningVerifyAuxilaries",
          "name": "auxilaries",
          "type": "tuple"
        },
        {
          "components": [
            {
              "components": [
                {
                  "internalType": "uint256",
                  "name": "x",
                  "type": "uint256"
                },
                {
                  "internalType": "uint256",
                  "name": "y",
                  "type": "uint256"
                }
              ],
              "internalType": "struct EvmAffinePoint[]",
              "name": "G",
              "type": "tuple[]"
            },
            {
              "components": [
                {
                  "internalType": "uint256",
                  "name": "x",
                  "type": "uint256"
                },
                {
                  "internalType": "uint256",
                  "name": "y",
                  "type": "uint256"
                }
              ],
              "internalType": "struct EvmAffinePoint[]",
              "name": "H",
              "type": "tuple[]"
            },
            {
              "components": [
                {
                  "internalType": "uint256",
                  "name": "x",
                  "type": "uint256"
                },
                {
                  "internalType": "uint256",
                  "name": "y",
                  "type": "uint256"
                }
              ],
              "internalType": "struct EvmAffinePoint",
              "name": "u",
              "type": "tuple"
            }
          ],
          "internalType": "struct EvmGens",
          "name": "gens",
          "type": "tuple"
        }
      ],
      "name": "verifyProof",
      "outputs": [
        {
          "internalType": "bool",
          "name": "",
          "type": "bool"
        }
      ],
      "stateMutability": "nonpayable",
      "type": "function"
    }
  ],
  "bytecode": {
    "object": "0x6080806040523461001657612f4f908161001c8239f35b600080fdfe608080604052600436101561001357600080fd5b60003560e01c908163096b5eb814610927575080630cd32939146108fe57806328662876146108c05780632b9c9ea11461088f57806332e7c5bf14610873578063373549121461084b5780634417082514610809578063444d95b0146107d85780634e8861de1461075d5780635f576db61461074f57806368badbef1461071e57806378a63431146106b757806379bcaf3e1461067c5780637dce97d0146105e35780638686a16d1461038d5780638e6c570314610358578063a2a36ae514610304578063a2a9c8141461028b578063aebb1a401461020c578063f446c1d0146101f0578063fbe430e8146101925763fc6b9dd71461011157600080fd5b3461018d5760208060031936011261018d576004356001600160401b03811161018d5761014561014a9136906004016113e1565b61185c565b906040519181839283018184528251809152816040850193019160005b82811061017657505050500390f35b835185528695509381019392810192600101610167565b600080fd5b3461018d57604036600319011261018d576001600160401b0360043581811161018d576101c39036906004016113e1565b9060243590811161018d576020916101e26101e89236906004016113e1565b90611712565b604051908152f35b3461018d57600036600319011261018d57602060405160008152f35b3461018d57604036600319011261018d576001600160401b0360043581811161018d5761023d9036906004016114c3565b9060243590811161018d576102879161025d6102639236906004016113e1565b90612350565b60408051825181526020808401519082015291810151908201529081906060820190565b0390f35b3461018d57608036600319011261018d576001600160401b0360043581811161018d576102bc9036906004016114e1565b9060243581811161018d576102d59036906004016113e1565b9160443591821161018d576020926102f46102fa93369060040161167c565b91611bb1565b6040519015158152f35b3461018d5760c036600319011261018d5761031e3661139a565b606036606319011261018d57610263610287916040519061033e8261135e565b6064358252608435602083015260a43560408301526127e1565b3461018d57604036600319011261018d5761028761026360405161037b81611343565b60043581526024356020820152612141565b3461018d5760c036600319011261018d576001600160401b0360043581811161018d576103be9036906004016115c1565b9060243581811161018d576103d79036906004016113e1565b90604036604319011261018d576040516103f081611343565b604435815260643590600482101561018d576020015260843590811161018d5761041e90369060040161167c565b9181519160019283808216146000146105de578381018091116105c8575b80841c90610449816117ea565b92856000815b61059b575b505061046181518361182f565b82811061057b57505050610474816117ea565b9061047e816117ea565b9260005b828110610538575050509061049961049f9261185c565b5061185c565b926104b56104b0604084015161243e565b61216f565b60608151930192835151908151149182610525575b5050156104e7576020936104de9251611bb1565b50604051908152f35b60405162461bcd60e51b81526020600482015260166024820152750a8bee0e4d2daca40c8decae640dcdee840dac2e8c6d60531b6044820152606490fd5b60209192508101519101511485806104ca565b8061054661057692846116fe565b5161055182876116fe565b5261056561055f8583611a7f565b846116fe565b5161057082886116fe565b526116e2565b610482565b6105969061056561055f61059085518761182f565b8361182f565b610461565b6105a683518561182f565b8110156105c3578060006105706105bd93896116fe565b8161044f565b610454565b634e487b7160e01b600052601160045260246000fd5b61043c565b3461018d5760031960203682011261018d57600435906001600160401b03821161018d5760e090823603011261018d57610624610629913690600401612aca565b612d48565b61065960405161063881611343565b600f81526e141c9bdbd9881cdd589b5a5d1d1959608a1b6020820152612e98565b60005260006020526040600020600160ff19825416179055602060405160008152f35b3461018d57602036600319011261018d576004356001600160401b03811161018d576102636106b26102879236906004016114c3565b61243e565b3461018d57604036600319011261018d576001600160401b0360043581811161018d573660238201121561018d576106f9903690602481600401359101611467565b9060243590811161018d576020916107186101e89236906004016113e1565b906129ae565b3461018d5760031960203682011261018d57600435906001600160401b03821161018d576080913603011261018d57005b600036600319011261018d57005b3461018d57602036600319011261018d57600435600052600060205260ff6040600020541661078857005b60405162461bcd60e51b815260206004820152602260248201527f50726f6f662068617320616c7265616479206265656e20696e76616c69646174604482015261195960f21b6064820152608490fd5b3461018d57602036600319011261018d576004356000526000602052602060ff604060002054166040519015158152f35b3461018d57606036600319011261018d5761028761082e60443560243560043561281c565b604080519384526020840192909252908201529081906060820190565b3461018d57608036600319011261018d5761028761082e606435604435602435600435612922565b3461018d57600036600319011261018d57602060405160078152f35b3461018d57606036600319011261018d5760406108ae6104b03661139a565b60208251918051835201516020820152f35b3461018d57604036600319011261018d576004356001600160401b03811161018d576101e86108f560209236906004016113e1565b60243590611952565b3461018d57608036600319011261018d5761028761026361091e3661139a565b6064359061298d565b3461018d576003199060c03683011261018d576001600160401b036004351161018d5760e0826004353603011261018d576001600160401b036024351161018d576080826024353603011261018d576006604435101561018d57604036606319011261018d5760a435916001600160401b03831161018d57608090833603011261018d57806109b86109d992611343565b600f81526e2b32b934b33cb4b73390383937b7b360891b6020820152612e98565b6109eb61062436600435600401612aca565b6000526000602052600160ff6040600020541615150361130757610a1c610a16600480350180612deb565b80612e00565b919050610a2882612e6a565b91610a49610a4336610a3e600480350180612deb565b612a05565b91612e6a565b91610a5c36610a3e600480350180612deb565b9260208401516401000003d019906401000003d019906021096000086000955b85518051881015610c015787610a91916116fe565b51948551806000198101116105c857610aae9060001901876116fe565b5196600092835b8851851015610ae357610add906401000003d01990610ad4878c6116fe565b519008946116e2565b93610ab5565b909492979998919693506401000003d019910803610bbc57610b0586846116fe565b51938493600093845b8a5180871015610ba55786610b5457508a51806000198101116105c857610b4e916401000003d01991610b4590600019018e6116fe565b519008956116e2565b94610b0e565b86610b619199979961182f565b806000198101116105c857610b4e918c9188610b906401000003d019946401000003d0199360001901906116fe565b5109900895876401000003d0199109976116e2565b506001909901995091979295509350909150610a7c565b60405162461bcd60e51b815260206004820152601860248201527f496e76616c696420726f756e6420706f6c796e6f6d69616c00000000000000006044820152606490fd5b50610c3390610c2c6040870151610c173661164b565b5085610c26368960040161167c565b91611a8c565b5083611712565b6401000003d01990610c5960043560a48101359084906084810135906064013509611a43565b096401000003d019906401000003d0196020604088015101516021099008036112b457604051918260808101106001600160401b0360808501111761129e576080830160405260038352606036602085013760005b600381106112895750610cc0836116f1565b518351600110156110c5576040840151938051600210156110c55760600151918486610cf836610a3e60048035602481019101612deb565b90610d04815151612e6a565b926401000003d0196401000003d01960208501516021096401000003d0198060043560a401358b096401000003d019806004356084013587096401000003d019600435606401358d09080808926000985b815180518b1015610ea2578a610d6a916116fe565b51978851806000198101116105c857610d8790600019018a6116fe565b5199600095865b8b51881015610dbc57610db6906401000003d01990610dad8a8f6116fe565b519008976116e2565b96610d8e565b90959a9c9b91965098929793989691966401000003d019910803610bbc57610de489836116fe565b51968796600096875b8d51808a1015610e855789610e3457508d51806000198101116105c857610e2e918f610e25906401000003d0199360001901906116fe565b519008986116e2565b97610ded565b89610e41919c9a9c61182f565b806000198101116105c857610e2e918f918b610e706401000003d019946401000003d0199360001901906116fe565b51099008988a6401000003d01991099a6116e2565b506001909c019c50959a9599929850929650939450919290610d55565b50878686948b878b610eca6040830151610ebb3661164b565b5088610c26368560040161167c565b50610ee0610edb8851875190611a7f565b6117ea565b9860005b8a8951821015610f0d5790610f089161057082610f01818e6116fe565b51926116fe565b610ee4565b99905097969760005b8751811015610f485780610f2d610f43928a6116fe565b516105708d610f3d8d5185611a7f565b906116fe565b610f16565b5089979293949598610f7789610f72610f6b602435600401602435600401612e35565b3691611467565b6129ae565b96610fad610f958b610f72610f6b6024803501602435600401612e35565b9a610f72610f6b604460243501602435600401612e35565b610fc160c460043501600435600401612e00565b9c905060018d018d116105c857610fda60018e016113ca565b9c610fe86040519e8f611379565b600101808e52601f1990610ffb906113ca565b018d60005b8281106112625750905061102a6040519161101a83611343565b60008352600160208401526116f1565b526110348d6116f1565b5060005b61104c60c460043501600435600401612e00565b90508110156110db576001810181116105c85761107360c460043501600435600401612e00565b82919210156110c5576110ba8f6110c0936040519061109182611343565b6001850182528460051b013560208201526110af60018501836116fe565b5260018301906116fe565b506116e2565b611038565b634e487b7160e01b600052603260045260246000fd5b508a519a9b8d9a6000198d018d106105c8576110fb8e9d600019016117ea565b9b60009d5b51806000198101116105c857600019018e1015611141578d60018101106105c85761113b8f9e8f8f9082610f016105709260018301906116fe565b9d611100565b906111758f969594939261115c8f6401000003d019926129ae565b61116e6111688a6116f1565b51611a02565b09966116f1565b519660821960043536030160446004350135121561018d576401000003d01998602060406401000003d0199201510151602109976401000003d01997889182906004356044810135016024013590099008956401000003d01995869109936401000003d01993849109916401000003d0199109080809080361121d57610c266040611211940151926112063661164b565b50369060040161167c565b50602060405160018152f35b60405162461bcd60e51b815260206004820152601960248201527f46696e616c206576616c20646f6573206e6f74206d61746368000000000000006044820152606490fd5b60209182826040519261127484611343565b60008452600083850152010152018e90611000565b80602161057061129993876116fe565b610cae565b634e487b7160e01b600052604160045260246000fd5b60405162461bcd60e51b815260206004820152602560248201527f506861736520312073756d20636865636b206576616c20646f6573206e6f74206044820152640dac2e8c6d60db1b6064820152608490fd5b60405162461bcd60e51b8152602060048201526014602482015273141c9bdbd988191bd95cc81b9bdd08195e1a5cdd60621b6044820152606490fd5b604081019081106001600160401b0382111761129e57604052565b606081019081106001600160401b0382111761129e57604052565b90601f801991011681019081106001600160401b0382111761129e57604052565b606090600319011261018d57604051906113b38261135e565b600435825260243560208301526044356040830152565b6001600160401b03811161129e5760051b60200190565b9080601f8301121561018d5760209082356113fb816113ca565b936114096040519586611379565b818552838086019260051b82010192831161018d578301905b828210611430575050505090565b81358152908301908301611422565b919082604091031261018d5760405161145781611343565b6020808294803584520135910152565b929192611473826113ca565b60409261148284519283611379565b819581835260208093019160061b84019381851161018d57915b8483106114ab57505050505050565b8386916114b8848661143f565b81520192019161149c565b9080601f8301121561018d578160206114de93359101611467565b90565b91906101208382031261018d5760405190610100808301946001600160401b03958481108782111761129e57604052839561151c848361143f565b8552604082013581811161018d57846115369184016114c3565b6020860152606082013581811161018d57846115539184016114c3565b6040860152608082013581811161018d57846115709184016114c3565b606086015260a082013581811161018d578461158d9184016114c3565b608086015260c082013590811161018d5760e0936115ac9183016114c3565b60a08501528281013560c08501520135910152565b91909160808184031261018d57604051906001600160401b0390608083018281118482101761129e576040528294813583811161018d57816116049184016114c3565b845260208201356020850152604082013583811161018d57816116289184016114c3565b6040850152606082013592831161018d5760609261164692016114e1565b910152565b604090606319011261018d576040519061166482611343565b606435825260843582600482101561018d5760200152565b919060808382031261018d57604051906116958261135e565b81938035916001600160401b039283811161018d57816116b69184016114c3565b8452602082013592831161018d576040826116d783839661164696016114c3565b60208701520161143f565b60001981146105c85760010190565b8051156110c55760200190565b80518210156110c55760209160051b010190565b805182510361179b576001809181936000935b611731575b5050505090565b9091929382518510156117955761178c9061174c86856116fe565b51906401000003d0198080936117628a886116fe565b519009816117736111688b8a6116fe565b6117806111688c8a6116fe565b900990089009946116e2565b92919082611725565b9361172a565b60405162461bcd60e51b815260206004820152602160248201527f7220616e642078206d7573742068617665207468652073616d65206c656e67746044820152600d60fb1b6064820152608490fd5b906117f4826113ca565b6118016040519182611379565b8281528092611812601f19916113ca565b0190602036910137565b818102929181159184041417156105c857565b919082039182116105c857565b8115611846570490565b634e487b7160e01b600052601260045260246000fd5b80519060ff82116105c857600180831b92611876846117ea565b9360005b81811061193e5750508160005b82811061189657505050505090565b81841b91808304600214901517156105c8576000198083018381116105c85790859291805b6118c8575b505001611887565b9091926118da8261190b921c8a6116fe565b516401000003d0196118ec868b6116fe565b5182096118f9848c6116fe565b52611904838b6116fe565b5190611a43565b8282018281116105c85761191f908a6116fe565b528580821461193757508592919060011901806118bb565b92916118c0565b808461057061194d93896116fe565b61187a565b906001918281516000935b81851061196c57505050505090565b90919293946000848084891c16146000146119c0575061198c868461182f565b6000198101919082116105c8576119a66119b792876116fe565b515b6401000003d0199109956116e2565b9392919061195d565b6119ca878561182f565b6000198101919082116119ee5750906119e96111686119b793886116fe565b6119a8565b634e487b7160e01b81526011600452602490fd5b80600110611a2157600103600181116105c8576401000003d019900690565b60001981019081116105c8576401000003d01980910681039081116105c85790565b90808210611a6057611a5c906401000003d0199261182f565b0690565b611a726401000003d01992839261182f565b0681039081116105c85790565b919082018092116105c857565b81516001939192908481168503611bac578481018091116105c8575b80851c90611ab5816117ea565b92866000815b611b7f575b5050611acd81518361182f565b828110611b6557505050611ae0816117ea565b90611aea816117ea565b9260005b828110611b525750505090610499611b059261185c565b611b156104b0604085015161243e565b60608151940193845151908151149182611b3f575b5050156104e757611b3b9251611bb1565b5090565b6020919250810151910151143880611b2a565b80610546611b6092846116fe565b611aee565b611b7a9061056561055f61059085518761182f565b611acd565b611b8a83518561182f565b811015611ba757806000610570611ba193896116fe565b81611abb565b611ac0565b611aa8565b91909182519060209384820180515190611bca82612e6a565b91611bd4816117ea565b9360005b828110611ff65750611be9876117ea565b9060005b888110611f8f5750611bfe886117ea565b9760005b818110611ea45750506000905b838210611e1c57611c2091506116f1565b51968760c08801928351611c33916120db565b50611c3d916120db565b50516401000003d019968791096060860151611c589061243e565b976080870151611c679061243e565b9860a0880151611c769061243e565b99611c80916127e1565b90604001918251611c9090612141565b90611c9a9161298d565b611ca3916127e1565b978651611caf90612141565b90611cb9916127e1565b9051611cc490612141565b60e0870151611cd29161298d565b611cdb916127e1565b95611ce5826117ea565b9360005b838110611df0575050611cfb826117ea565b9460005b838110611dc45750505050611d4293611d31611d3c946040611d29611d489996611d379651612350565b930151612350565b906127e1565b6127e1565b9261216f565b9161216f565b8282518251149283611db3575b50505015611d635750600190565b6084906040519062461bcd60e51b82526004820152602360248201527f496e6e65722070726f6475637420657175616c69747920636865636b206661696044820152621b195960ea1b6064820152fd5b810151910151149050388281611d55565b8083611dd3611deb93856116fe565b51611dde83866116fe565b519009610570828a6116fe565b611cff565b8083611dff611e1793856116fe565b51611e0a83866116fe565b51900961057082896116fe565b611ce9565b611e2682886116fe565b5190611e3283886116fe565b5191815160011c90611e43826117ea565b9360005b838110611e63575050505050611e5d90916116e2565b90611c0f565b611e9f906401000003d0198085611e7a848a6116fe565b51098185611e91611e8b8a87611a7f565b8b6116fe565b5109900861057082896116fe565b611e47565b611eae81856116fe565b5180151580611f7f575b80611f77575b15611f41576000906401000003d0196001825b611eec5750505090611ee791610570828d6116fe565b611c02565b909192611ef9848461183c565b926401000003d0198385096401000003d019036401000003d01981116105c857611f3992611f33916401000003d01991089395809561181c565b9061182f565b919082611ed1565b60405162461bcd60e51b8152600481018e9052600e60248201526d24b73b30b634b210373ab6b132b960911b6044820152606490fd5b506001611ebe565b506401000003d019811415611eb8565b600160005b858110611fb0575090611fab9161057082866116fe565b611bed565b90611fdf9060018085851c1614600014611fe4576401000003d01990611fd6848b6116fe565b519009916116e2565b611f94565b6401000003d01990611fd6848c6116fe565b61200081866116fe565b51801515806120cb575b806120c3575b1561208d576000906401000003d0196001825b61203e57505050906120399161057082896116fe565b611bd8565b90919261204b848461183c565b926401000003d0198385096401000003d019036401000003d01981116105c85761208592611f33916401000003d01991089395809561181c565b919082612023565b60405162461bcd60e51b8152600481018c9052600e60248201526d24b73b30b634b210373ab6b132b960911b6044820152606490fd5b506001612010565b506401000003d01981141561200a565b91906120e783516117ea565b9060005b845181101561211b57612116906401000003d0198361210a83896116fe565b510961057082866116fe565b6120eb565b5090925050565b6040519061212f8261135e565b60006040838281528260208201520152565b612149612122565b50602081519101516040519161215e8361135e565b825260208201526001604082015290565b60209060405161217e81611343565b600092818480935201526040810180519283151580612334575b8061232c575b156122f6579283600170014551231950b75fc4402da1732fc9bebe19835b61225f57505050506001908370014551231950b75fc4402da1732fc9bebe199151090361222b5770014551231950b75fc4402da1732fc9bebe198282510991602070014551231950b75fc4402da1732fc9bebe19920151096040519161222183611343565b8252602082015290565b60405162461bcd60e51b815260206004820152600c60248201526b24b73b30b634b2103d24b73b60a11b6044820152606490fd5b61226e8482989394959861183c565b9170014551231950b75fc4402da1732fc9bebe1984840970014551231950b75fc4402da1732fc9bebe190370014551231950b75fc4402da1732fc9bebe1981116122e2576122d99291611f339170014551231950b75fc4402da1732fc9bebe1991089498809461181c565b929190836121bc565b634e487b7160e01b86526011600452602486fd5b60405162461bcd60e51b815260206004820152600e60248201526d24b73b30b634b210373ab6b132b960911b6044820152606490fd5b50600161219e565b5070014551231950b75fc4402da1732fc9bebe19841415612198565b90612359612122565b5081518151036124075790600091829060019081809486935b612397575b50505050604051926123888461135e565b83526020830152604082015290565b91938295919395518610156123fe579085966123ea926123e06123be88996123f5996116fe565b516123c98b886116fe565b515160206123d78d8a6116fe565b510151906128b7565b94919290936125bb565b9591949094966116e2565b92909181612372565b93819550612377565b60405162461bcd60e51b815260206004820152600f60248201526e098cadccee8d040dad2e6dac2e8c6d608b1b6044820152606490fd5b612446612122565b5060009081600180928185925b612468575b505050604051926123888461135e565b92909384959295518610156124b557916124a3916124ae949361248b88886116fe565b515191602061249a8a8a6116fe565b510151936124c1565b9491939093956116e2565b9180612453565b93829550819350612458565b9492919385156125ae5782156125a757858314808061259d575b61258b5761257657849291839170014551231950b75fc4402da1732fc9bebe19808099819782808080809a816001819c099909612518908961279e565b94600190099c8d9a09918161252d848c61279e565b9e8f94818087800994600190099c088209828b81878009099061254f9161279e565b97889382099c09906125609161279e565b900991880961256e9161279e565b960994930990565b50905061258492919361281c565b9192909190565b50505050915050600090600090600190565b50818314156124db565b5092919050565b9450509091509190600190565b9291949593831561279357821561278a578383148080612780575b61276d5761275d579061261761272d928770014551231950b75fc4402da1732fc9bebe19910970014551231950b75fc4402da1732fc9bebe1989840961279e565b9661264c70014551231950b75fc4402da1732fc9bebe1988860970014551231950b75fc4402da1732fc9bebe1983880961279e565b936126ce70014551231950b75fc4402da1732fc9bebe198680099170014551231950b75fc4402da1732fc9bebe19848b099970014551231950b75fc4402da1732fc9bebe1991829182910970014551231950b75fc4402da1732fc9bebe19868b0908830970014551231950b75fc4402da1732fc9bebe198a818d80090961279e565b9861270b8a70014551231950b75fc4402da1732fc9bebe198885099870014551231950b75fc4402da1732fc9bebe1994859182908890090961279e565b90099170014551231950b75fc4402da1732fc9bebe199182910985099061279e565b9470014551231950b75fc4402da1732fc9bebe199109939270014551231950b75fc4402da1732fc9bebe19910990565b509190506125849392945061281c565b5050505050915050600090600090600190565b50818314156125d6565b50945050929190565b959450509050929190565b908082106127c357611a5c9070014551231950b75fc4402da1732fc9bebe199261182f565b611a7270014551231950b75fc4402da1732fc9bebe1992839261182f565b61280e916127ed612122565b508151916040602082015191015182519160406020850151940151946125bb565b90604051926123888461135e565b91929080156128aa578061289d61288f928570014551231950b75fc4402da1732fc9bebe198089819a97828080809b9a818080809e9b8180809e8181819209600009928009600309089783096002099e098d096002099561288484886002098585800961279e565b9c8d918d099661279e565b90099280096002099061279e565b9484099392818180090990565b5060009250829150600190565b929092600190831561291c576000918295819592835b6128da5750505050929190565b600184166128fa575b906128ee929161281c565b919260011c92836128cd565b9391818561290e9398839a6128ee966125bb565b9097909691949092506128e3565b93925090565b9391938315612986576000918295600191829693845b612946575050505050929190565b838516612964575b90612959929161281c565b9193831c9384612938565b949181866129789399839b612959966125bb565b90989097919590925061294e565b9390925090565b9061280e9161299a612122565b508051906040602082015191015191612922565b60009291835b82518510156129ff576129f9906129d66129ce87866116fe565b515184611952565b906401000003d019809260206129ec8a896116fe565b51015190099008946116e2565b936129b4565b93505050565b919060608382031261018d5760405190612a1e8261135e565b81938035916001600160401b039283811161018d57820181601f8201121561018d576020908035612a4e816113ca565b91612a5c6040519384611379565b818352838084019260051b8201019185831161018d57848201905b838210612aa5575050505085528083013590850152604082013592831161018d5760409261164692016115c1565b813589811161018d578691612abf898480948801016113e1565b815201910190612a77565b91909160e08184031261018d57604051906001600160401b039060e083018281118482101761129e576040528294813583811161018d5781612b0d918401612a05565b8452602082013583811161018d5781612b27918401612a05565b6020850152604082013583811161018d5781612b449184016115c1565b6040850152606082013560608501526080820135608085015260a082013560a085015260c082013592831161018d5760c09261164692016113e1565b90815180825260208080930193019160005b828110612ba0575050505090565b835185529381019392810192600101612b92565b90815180825260208080930193019160005b828110612bd4575050505090565b8351805186528201518583015260409094019392810192600101612bc6565b6060612c27612c0b8351608086526080860190612bb4565b6020840151602086015260408401518582036040870152612bb4565b91015191606081830391015261010060e0612cb5612ca3612c91612c7f612c6d61012060208a5180518b52015160208a015260208a0151908060408b0152890190612bb4565b604089015188820360608a0152612bb4565b60608801518782036080890152612bb4565b608087015186820360a0880152612bb4565b60a086015185820360c0870152612bb4565b9360c081015182850152015191015290565b919091606083019080516060855280518093526080850160808460051b870101936020809301916000905b828210612d1e575050505081816040926114de9697940151908401520151906040818403910152612bf3565b909192958480612d3a600193607f198d82030186528a51612b80565b980192019201909291612cf2565b604051612de581612dd7602082019460208652612d72815160e06040860152610120850190612cc7565b60c0612da7612d93602085015193603f1994858983030160608a0152612cc7565b604085015184888303016080890152612bf3565b92606081015160a087015260808101518287015260a081015160e087015201519084830301610100850152612b80565b03601f198101835282611379565b51902090565b903590605e198136030182121561018d570190565b903590601e198136030182121561018d57018035906001600160401b03821161018d57602001918160051b3603831361018d57565b903590601e198136030182121561018d57018035906001600160401b03821161018d57602001918160061b3603831361018d57565b612e73816117ea565b9060005b818110612e8357505090565b806021610570612e9393866116fe565b612e77565b6040516020918282019263104c13eb60e21b845280602484015281519182604485015260005b838110612f05575050509181612ef26064828660008381998299010152601f80199101168101036044810184520182611379565b51906a636f6e736f6c652e6c6f675afa50565b818101830151858201606401528201612ebe56fea2646970667358221220977f584b10f7cb74cb25a2ace103bf9100774c7221c48f312e8da037cc74c48864736f6c63430008150033",
    "linkReferences": {}
  },
  "methodIdentifiers": {
    "A()": "f446c1d0",
    "B()": "32e7c5bf",
    "_mul(uint256,uint256,uint256,uint256)": "37354912",
    "add((uint256,uint256,uint256),(uint256,uint256,uint256))": "a2a36ae5",
    "addCircuit(((uint256,uint256)[],(uint256,uint256)[],(uint256,uint256)[],uint256))": "68badbef",
    "assertNotInvalidated(bytes32)": "4e8861de",
    "double(uint256,uint256,uint256)": "44170825",
    "eval((uint256,uint256)[],uint256[])": "78a63431",
    "eval(uint256[],uint256[])": "fbe430e8",
    "evalAsBits(uint256[],uint256)": "28662876",
    "evals(uint256[])": "fc6b9dd7",
    "msm_naive((uint256,uint256)[],uint256[])": "aebb1a40",
    "mul((uint256,uint256,uint256),uint256)": "0cd32939",
    "newStake()": "5f576db6",
    "proofs(bytes32)": "444d95b0",
    "submitProof(((uint256[][],uint256,((uint256,uint256)[],uint256,(uint256,uint256)[],((uint256,uint256),(uint256,uint256)[],(uint256,uint256)[],(uint256,uint256)[],(uint256,uint256)[],(uint256,uint256)[],uint256,uint256))),(uint256[][],uint256,((uint256,uint256)[],uint256,(uint256,uint256)[],((uint256,uint256),(uint256,uint256)[],(uint256,uint256)[],(uint256,uint256)[],(uint256,uint256)[],(uint256,uint256)[],uint256,uint256))),((uint256,uint256)[],uint256,(uint256,uint256)[],((uint256,uint256),(uint256,uint256)[],(uint256,uint256)[],(uint256,uint256)[],(uint256,uint256)[],(uint256,uint256)[],uint256,uint256)),uint256,uint256,uint256,uint256[]))": "7dce97d0",
    "sum((uint256,uint256)[])": "79bcaf3e",
    "toAffine((uint256,uint256,uint256))": "2b9c9ea1",
    "toProjective((uint256,uint256))": "8e6c5703",
    "verify(((uint256,uint256),(uint256,uint256)[],(uint256,uint256)[],(uint256,uint256)[],(uint256,uint256)[],(uint256,uint256)[],uint256,uint256),uint256[],((uint256,uint256)[],(uint256,uint256)[],(uint256,uint256)),bytes32)": "a2a9c814",
    "verify(((uint256,uint256)[],uint256,(uint256,uint256)[],((uint256,uint256),(uint256,uint256)[],(uint256,uint256)[],(uint256,uint256)[],(uint256,uint256)[],(uint256,uint256)[],uint256,uint256)),uint256[],(uint256,uint8),((uint256,uint256)[],(uint256,uint256)[],(uint256,uint256)),bytes32)": "8686a16d",
    "verifyProof(((uint256[][],uint256,((uint256,uint256)[],uint256,(uint256,uint256)[],((uint256,uint256),(uint256,uint256)[],(uint256,uint256)[],(uint256,uint256)[],(uint256,uint256)[],(uint256,uint256)[],uint256,uint256))),(uint256[][],uint256,((uint256,uint256)[],uint256,(uint256,uint256)[],((uint256,uint256),(uint256,uint256)[],(uint256,uint256)[],(uint256,uint256)[],(uint256,uint256)[],(uint256,uint256)[],uint256,uint256))),((uint256,uint256)[],uint256,(uint256,uint256)[],((uint256,uint256),(uint256,uint256)[],(uint256,uint256)[],(uint256,uint256)[],(uint256,uint256)[],(uint256,uint256)[],uint256,uint256)),uint256,uint256,uint256,uint256[]),((uint256,uint256)[],(uint256,uint256)[],(uint256,uint256)[],uint256),uint8,(uint256,uint8),((uint256,uint256)[],(uint256,uint256)[],(uint256,uint256)))": "096b5eb8"
  },
  "id": 6
}