{
  "abi": [
    {
      "inputs": [],
      "stateMutability": "nonpayable",
      "type": "constructor"
    },
    {
      "inputs": [],
      "name": "A",
      "outputs": [
        {
          "internalType": "uint256",
          "name": "",
          "type": "uint256"
        }
      ],
      "stateMutability": "view",
      "type": "function"
    },
    {
      "inputs": [],
      "name": "B",
      "outputs": [
        {
          "internalType": "uint256",
          "name": "",
          "type": "uint256"
        }
      ],
      "stateMutability": "view",
      "type": "function"
    },
    {
      "inputs": [
        {
          "internalType": "uint256",
          "name": "px",
          "type": "uint256"
        },
        {
          "internalType": "uint256",
          "name": "py",
          "type": "uint256"
        },
        {
          "internalType": "uint256",
          "name": "pz",
          "type": "uint256"
        },
        {
          "internalType": "uint256",
          "name": "scalar",
          "type": "uint256"
        }
      ],
      "name": "_mul",
      "outputs": [
        {
          "internalType": "uint256",
          "name": "",
          "type": "uint256"
        },
        {
          "internalType": "uint256",
          "name": "",
          "type": "uint256"
        },
        {
          "internalType": "uint256",
          "name": "",
          "type": "uint256"
        }
      ],
      "stateMutability": "view",
      "type": "function"
    },
    {
      "inputs": [
        {
          "components": [
            {
              "internalType": "uint256",
              "name": "x",
              "type": "uint256"
            },
            {
              "internalType": "uint256",
              "name": "y",
              "type": "uint256"
            },
            {
              "internalType": "uint256",
              "name": "z",
              "type": "uint256"
            }
          ],
          "internalType": "struct EvmProjectivePoint",
          "name": "p0",
          "type": "tuple"
        },
        {
          "components": [
            {
              "internalType": "uint256",
              "name": "x",
              "type": "uint256"
            },
            {
              "internalType": "uint256",
              "name": "y",
              "type": "uint256"
            },
            {
              "internalType": "uint256",
              "name": "z",
              "type": "uint256"
            }
          ],
          "internalType": "struct EvmProjectivePoint",
          "name": "p1",
          "type": "tuple"
        }
      ],
      "name": "add",
      "outputs": [
        {
          "components": [
            {
              "internalType": "uint256",
              "name": "x",
              "type": "uint256"
            },
            {
              "internalType": "uint256",
              "name": "y",
              "type": "uint256"
            },
            {
              "internalType": "uint256",
              "name": "z",
              "type": "uint256"
            }
          ],
          "internalType": "struct EvmProjectivePoint",
          "name": "",
          "type": "tuple"
        }
      ],
      "stateMutability": "view",
      "type": "function"
    },
    {
      "inputs": [
        {
          "components": [
            {
              "components": [
                {
                  "internalType": "uint256",
                  "name": "index",
                  "type": "uint256"
                },
                {
                  "internalType": "uint256",
                  "name": "val",
                  "type": "uint256"
                }
              ],
              "internalType": "struct LagrangeEntry[]",
              "name": "A",
              "type": "tuple[]"
            },
            {
              "components": [
                {
                  "internalType": "uint256",
                  "name": "index",
                  "type": "uint256"
                },
                {
                  "internalType": "uint256",
                  "name": "val",
                  "type": "uint256"
                }
              ],
              "internalType": "struct LagrangeEntry[]",
              "name": "B",
              "type": "tuple[]"
            },
            {
              "components": [
                {
                  "internalType": "uint256",
                  "name": "index",
                  "type": "uint256"
                },
                {
                  "internalType": "uint256",
                  "name": "val",
                  "type": "uint256"
                }
              ],
              "internalType": "struct LagrangeEntry[]",
              "name": "C",
              "type": "tuple[]"
            },
            {
              "internalType": "uint256",
              "name": "zLen",
              "type": "uint256"
            }
          ],
          "internalType": "struct EvmR1CS",
          "name": "r1cs",
          "type": "tuple"
        }
      ],
      "name": "addCircuit",
      "outputs": [],
      "stateMutability": "nonpayable",
      "type": "function"
    },
    {
      "inputs": [
        {
          "internalType": "uint256",
          "name": "x",
          "type": "uint256"
        },
        {
          "internalType": "uint256",
          "name": "y",
          "type": "uint256"
        },
        {
          "internalType": "uint256",
          "name": "z",
          "type": "uint256"
        }
      ],
      "name": "double",
      "outputs": [
        {
          "internalType": "uint256",
          "name": "",
          "type": "uint256"
        },
        {
          "internalType": "uint256",
          "name": "",
          "type": "uint256"
        },
        {
          "internalType": "uint256",
          "name": "",
          "type": "uint256"
        }
      ],
      "stateMutability": "view",
      "type": "function"
    },
    {
      "inputs": [
        {
          "components": [
            {
              "internalType": "uint256",
              "name": "index",
              "type": "uint256"
            },
            {
              "internalType": "uint256",
              "name": "val",
              "type": "uint256"
            }
          ],
          "internalType": "struct LagrangeEntry[]",
          "name": "lagrangePoly",
          "type": "tuple[]"
        },
        {
          "internalType": "uint256[]",
          "name": "x",
          "type": "uint256[]"
        }
      ],
      "name": "eval",
      "outputs": [
        {
          "internalType": "uint256",
          "name": "",
          "type": "uint256"
        }
      ],
      "stateMutability": "nonpayable",
      "type": "function"
    },
    {
      "inputs": [
        {
          "internalType": "uint256[]",
          "name": "r",
          "type": "uint256[]"
        },
        {
          "internalType": "uint256[]",
          "name": "x",
          "type": "uint256[]"
        }
      ],
      "name": "eval",
      "outputs": [
        {
          "internalType": "uint256",
          "name": "",
          "type": "uint256"
        }
      ],
      "stateMutability": "nonpayable",
      "type": "function"
    },
    {
      "inputs": [
        {
          "internalType": "uint256[]",
          "name": "r",
          "type": "uint256[]"
        },
        {
          "internalType": "uint256",
          "name": "x",
          "type": "uint256"
        }
      ],
      "name": "evalAsBits",
      "outputs": [
        {
          "internalType": "uint256",
          "name": "",
          "type": "uint256"
        }
      ],
      "stateMutability": "nonpayable",
      "type": "function"
    },
    {
      "inputs": [
        {
          "internalType": "uint256[]",
          "name": "t",
          "type": "uint256[]"
        }
      ],
      "name": "evals",
      "outputs": [
        {
          "internalType": "uint256[]",
          "name": "",
          "type": "uint256[]"
        }
      ],
      "stateMutability": "pure",
      "type": "function"
    },
    {
      "inputs": [
        {
          "components": [
            {
              "internalType": "uint256",
              "name": "x",
              "type": "uint256"
            },
            {
              "internalType": "uint256",
              "name": "y",
              "type": "uint256"
            }
          ],
          "internalType": "struct EvmAffinePoint[]",
          "name": "bases",
          "type": "tuple[]"
        },
        {
          "internalType": "uint256[]",
          "name": "scalars",
          "type": "uint256[]"
        }
      ],
      "name": "msm_naive",
      "outputs": [
        {
          "components": [
            {
              "internalType": "uint256",
              "name": "x",
              "type": "uint256"
            },
            {
              "internalType": "uint256",
              "name": "y",
              "type": "uint256"
            },
            {
              "internalType": "uint256",
              "name": "z",
              "type": "uint256"
            }
          ],
          "internalType": "struct EvmProjectivePoint",
          "name": "",
          "type": "tuple"
        }
      ],
      "stateMutability": "view",
      "type": "function"
    },
    {
      "inputs": [
        {
          "components": [
            {
              "internalType": "uint256",
              "name": "x",
              "type": "uint256"
            },
            {
              "internalType": "uint256",
              "name": "y",
              "type": "uint256"
            },
            {
              "internalType": "uint256",
              "name": "z",
              "type": "uint256"
            }
          ],
          "internalType": "struct EvmProjectivePoint",
          "name": "point",
          "type": "tuple"
        },
        {
          "internalType": "uint256",
          "name": "scalar",
          "type": "uint256"
        }
      ],
      "name": "mul",
      "outputs": [
        {
          "components": [
            {
              "internalType": "uint256",
              "name": "x",
              "type": "uint256"
            },
            {
              "internalType": "uint256",
              "name": "y",
              "type": "uint256"
            },
            {
              "internalType": "uint256",
              "name": "z",
              "type": "uint256"
            }
          ],
          "internalType": "struct EvmProjectivePoint",
          "name": "",
          "type": "tuple"
        }
      ],
      "stateMutability": "view",
      "type": "function"
    },
    {
      "inputs": [],
      "name": "newStake",
      "outputs": [],
      "stateMutability": "payable",
      "type": "function"
    },
    {
      "inputs": [
        {
          "internalType": "bytes32",
          "name": "",
          "type": "bytes32"
        }
      ],
      "name": "proofs",
      "outputs": [
        {
          "internalType": "bool",
          "name": "",
          "type": "bool"
        }
      ],
      "stateMutability": "view",
      "type": "function"
    },
    {
      "inputs": [
        {
          "components": [
            {
              "components": [
                {
                  "internalType": "uint256[][]",
                  "name": "roundPolysCoeffs",
                  "type": "uint256[][]"
                },
                {
                  "internalType": "uint256",
                  "name": "blindPolySum",
                  "type": "uint256"
                },
                {
                  "components": [
                    {
                      "components": [
                        {
                          "internalType": "uint256",
                          "name": "x",
                          "type": "uint256"
                        },
                        {
                          "internalType": "uint256",
                          "name": "y",
                          "type": "uint256"
                        }
                      ],
                      "internalType": "struct EvmAffinePoint",
                      "name": "comm",
                      "type": "tuple"
                    },
                    {
                      "components": [
                        {
                          "internalType": "uint256",
                          "name": "x",
                          "type": "uint256"
                        },
                        {
                          "internalType": "uint256",
                          "name": "y",
                          "type": "uint256"
                        }
                      ],
                      "internalType": "struct EvmAffinePoint[]",
                      "name": "L",
                      "type": "tuple[]"
                    },
                    {
                      "components": [
                        {
                          "internalType": "uint256",
                          "name": "x",
                          "type": "uint256"
                        },
                        {
                          "internalType": "uint256",
                          "name": "y",
                          "type": "uint256"
                        }
                      ],
                      "internalType": "struct EvmAffinePoint[]",
                      "name": "R",
                      "type": "tuple[]"
                    },
                    {
                      "components": [
                        {
                          "internalType": "uint256",
                          "name": "x",
                          "type": "uint256"
                        },
                        {
                          "internalType": "uint256",
                          "name": "y",
                          "type": "uint256"
                        }
                      ],
                      "internalType": "struct EvmAffinePoint[]",
                      "name": "sGPowers",
                      "type": "tuple[]"
                    },
                    {
                      "components": [
                        {
                          "internalType": "uint256",
                          "name": "x",
                          "type": "uint256"
                        },
                        {
                          "internalType": "uint256",
                          "name": "y",
                          "type": "uint256"
                        }
                      ],
                      "internalType": "struct EvmAffinePoint",
                      "name": "R_zko",
                      "type": "tuple"
                    },
                    {
                      "internalType": "uint256",
                      "name": "z1",
                      "type": "uint256"
                    },
                    {
                      "internalType": "uint256",
                      "name": "z2",
                      "type": "uint256"
                    },
                    {
                      "internalType": "uint256",
                      "name": "y",
                      "type": "uint256"
                    }
                  ],
                  "internalType": "struct EvmInnerProductProof",
                  "name": "blindPolyEvalProof",
                  "type": "tuple"
                }
              ],
              "internalType": "struct EvmSumCheckProof",
              "name": "scProof1",
              "type": "tuple"
            },
            {
              "components": [
                {
                  "internalType": "uint256[][]",
                  "name": "roundPolysCoeffs",
                  "type": "uint256[][]"
                },
                {
                  "internalType": "uint256",
                  "name": "blindPolySum",
                  "type": "uint256"
                },
                {
                  "components": [
                    {
                      "components": [
                        {
                          "internalType": "uint256",
                          "name": "x",
                          "type": "uint256"
                        },
                        {
                          "internalType": "uint256",
                          "name": "y",
                          "type": "uint256"
                        }
                      ],
                      "internalType": "struct EvmAffinePoint",
                      "name": "comm",
                      "type": "tuple"
                    },
                    {
                      "components": [
                        {
                          "internalType": "uint256",
                          "name": "x",
                          "type": "uint256"
                        },
                        {
                          "internalType": "uint256",
                          "name": "y",
                          "type": "uint256"
                        }
                      ],
                      "internalType": "struct EvmAffinePoint[]",
                      "name": "L",
                      "type": "tuple[]"
                    },
                    {
                      "components": [
                        {
                          "internalType": "uint256",
                          "name": "x",
                          "type": "uint256"
                        },
                        {
                          "internalType": "uint256",
                          "name": "y",
                          "type": "uint256"
                        }
                      ],
                      "internalType": "struct EvmAffinePoint[]",
                      "name": "R",
                      "type": "tuple[]"
                    },
                    {
                      "components": [
                        {
                          "internalType": "uint256",
                          "name": "x",
                          "type": "uint256"
                        },
                        {
                          "internalType": "uint256",
                          "name": "y",
                          "type": "uint256"
                        }
                      ],
                      "internalType": "struct EvmAffinePoint[]",
                      "name": "sGPowers",
                      "type": "tuple[]"
                    },
                    {
                      "components": [
                        {
                          "internalType": "uint256",
                          "name": "x",
                          "type": "uint256"
                        },
                        {
                          "internalType": "uint256",
                          "name": "y",
                          "type": "uint256"
                        }
                      ],
                      "internalType": "struct EvmAffinePoint",
                      "name": "R_zko",
                      "type": "tuple"
                    },
                    {
                      "internalType": "uint256",
                      "name": "z1",
                      "type": "uint256"
                    },
                    {
                      "internalType": "uint256",
                      "name": "z2",
                      "type": "uint256"
                    },
                    {
                      "internalType": "uint256",
                      "name": "y",
                      "type": "uint256"
                    }
                  ],
                  "internalType": "struct EvmInnerProductProof",
                  "name": "blindPolyEvalProof",
                  "type": "tuple"
                }
              ],
              "internalType": "struct EvmSumCheckProof",
              "name": "scProof2",
              "type": "tuple"
            },
            {
              "components": [
                {
                  "components": [
                    {
                      "internalType": "uint256",
                      "name": "x",
                      "type": "uint256"
                    },
                    {
                      "internalType": "uint256",
                      "name": "y",
                      "type": "uint256"
                    }
                  ],
                  "internalType": "struct EvmAffinePoint[]",
                  "name": "T",
                  "type": "tuple[]"
                },
                {
                  "internalType": "uint256",
                  "name": "y",
                  "type": "uint256"
                },
                {
                  "components": [
                    {
                      "internalType": "uint256",
                      "name": "x",
                      "type": "uint256"
                    },
                    {
                      "internalType": "uint256",
                      "name": "y",
                      "type": "uint256"
                    }
                  ],
                  "internalType": "struct EvmAffinePoint[]",
                  "name": "TLpowers",
                  "type": "tuple[]"
                },
                {
                  "components": [
                    {
                      "components": [
                        {
                          "internalType": "uint256",
                          "name": "x",
                          "type": "uint256"
                        },
                        {
                          "internalType": "uint256",
                          "name": "y",
                          "type": "uint256"
                        }
                      ],
                      "internalType": "struct EvmAffinePoint",
                      "name": "comm",
                      "type": "tuple"
                    },
                    {
                      "components": [
                        {
                          "internalType": "uint256",
                          "name": "x",
                          "type": "uint256"
                        },
                        {
                          "internalType": "uint256",
                          "name": "y",
                          "type": "uint256"
                        }
                      ],
                      "internalType": "struct EvmAffinePoint[]",
                      "name": "L",
                      "type": "tuple[]"
                    },
                    {
                      "components": [
                        {
                          "internalType": "uint256",
                          "name": "x",
                          "type": "uint256"
                        },
                        {
                          "internalType": "uint256",
                          "name": "y",
                          "type": "uint256"
                        }
                      ],
                      "internalType": "struct EvmAffinePoint[]",
                      "name": "R",
                      "type": "tuple[]"
                    },
                    {
                      "components": [
                        {
                          "internalType": "uint256",
                          "name": "x",
                          "type": "uint256"
                        },
                        {
                          "internalType": "uint256",
                          "name": "y",
                          "type": "uint256"
                        }
                      ],
                      "internalType": "struct EvmAffinePoint[]",
                      "name": "sGPowers",
                      "type": "tuple[]"
                    },
                    {
                      "components": [
                        {
                          "internalType": "uint256",
                          "name": "x",
                          "type": "uint256"
                        },
                        {
                          "internalType": "uint256",
                          "name": "y",
                          "type": "uint256"
                        }
                      ],
                      "internalType": "struct EvmAffinePoint",
                      "name": "R_zko",
                      "type": "tuple"
                    },
                    {
                      "internalType": "uint256",
                      "name": "z1",
                      "type": "uint256"
                    },
                    {
                      "internalType": "uint256",
                      "name": "z2",
                      "type": "uint256"
                    },
                    {
                      "internalType": "uint256",
                      "name": "y",
                      "type": "uint256"
                    }
                  ],
                  "internalType": "struct EvmInnerProductProof",
                  "name": "ipProof",
                  "type": "tuple"
                }
              ],
              "internalType": "struct EvmPolyEvalProof",
              "name": "zEvalProof",
              "type": "tuple"
            },
            {
              "internalType": "uint256",
              "name": "vA",
              "type": "uint256"
            },
            {
              "internalType": "uint256",
              "name": "vB",
              "type": "uint256"
            },
            {
              "internalType": "uint256",
              "name": "vC",
              "type": "uint256"
            },
            {
              "internalType": "uint256[]",
              "name": "publicInput",
              "type": "uint256[]"
            }
          ],
          "internalType": "struct FullProof",
          "name": "fullProof",
          "type": "tuple"
        }
      ],
      "name": "submitProof",
      "outputs": [
        {
          "internalType": "bytes32",
          "name": "",
          "type": "bytes32"
        }
      ],
      "stateMutability": "nonpayable",
      "type": "function"
    },
    {
      "inputs": [
        {
          "components": [
            {
              "internalType": "uint256",
              "name": "x",
              "type": "uint256"
            },
            {
              "internalType": "uint256",
              "name": "y",
              "type": "uint256"
            }
          ],
          "internalType": "struct EvmAffinePoint[]",
          "name": "points",
          "type": "tuple[]"
        }
      ],
      "name": "sum",
      "outputs": [
        {
          "components": [
            {
              "internalType": "uint256",
              "name": "x",
              "type": "uint256"
            },
            {
              "internalType": "uint256",
              "name": "y",
              "type": "uint256"
            },
            {
              "internalType": "uint256",
              "name": "z",
              "type": "uint256"
            }
          ],
          "internalType": "struct EvmProjectivePoint",
          "name": "",
          "type": "tuple"
        }
      ],
      "stateMutability": "nonpayable",
      "type": "function"
    },
    {
      "inputs": [
        {
          "components": [
            {
              "internalType": "uint256",
              "name": "x",
              "type": "uint256"
            },
            {
              "internalType": "uint256",
              "name": "y",
              "type": "uint256"
            },
            {
              "internalType": "uint256",
              "name": "z",
              "type": "uint256"
            }
          ],
          "internalType": "struct EvmProjectivePoint",
          "name": "point",
          "type": "tuple"
        }
      ],
      "name": "toAffine",
      "outputs": [
        {
          "components": [
            {
              "internalType": "uint256",
              "name": "x",
              "type": "uint256"
            },
            {
              "internalType": "uint256",
              "name": "y",
              "type": "uint256"
            }
          ],
          "internalType": "struct EvmAffinePoint",
          "name": "",
          "type": "tuple"
        }
      ],
      "stateMutability": "pure",
      "type": "function"
    },
    {
      "inputs": [
        {
          "components": [
            {
              "internalType": "uint256",
              "name": "x",
              "type": "uint256"
            },
            {
              "internalType": "uint256",
              "name": "y",
              "type": "uint256"
            }
          ],
          "internalType": "struct EvmAffinePoint",
          "name": "point",
          "type": "tuple"
        }
      ],
      "name": "toProjective",
      "outputs": [
        {
          "components": [
            {
              "internalType": "uint256",
              "name": "x",
              "type": "uint256"
            },
            {
              "internalType": "uint256",
              "name": "y",
              "type": "uint256"
            },
            {
              "internalType": "uint256",
              "name": "z",
              "type": "uint256"
            }
          ],
          "internalType": "struct EvmProjectivePoint",
          "name": "",
          "type": "tuple"
        }
      ],
      "stateMutability": "pure",
      "type": "function"
    },
    {
      "inputs": [
        {
          "components": [
            {
              "components": [
                {
                  "internalType": "uint256",
                  "name": "x",
                  "type": "uint256"
                },
                {
                  "internalType": "uint256",
                  "name": "y",
                  "type": "uint256"
                }
              ],
              "internalType": "struct EvmAffinePoint[]",
              "name": "T",
              "type": "tuple[]"
            },
            {
              "internalType": "uint256",
              "name": "y",
              "type": "uint256"
            },
            {
              "components": [
                {
                  "internalType": "uint256",
                  "name": "x",
                  "type": "uint256"
                },
                {
                  "internalType": "uint256",
                  "name": "y",
                  "type": "uint256"
                }
              ],
              "internalType": "struct EvmAffinePoint[]",
              "name": "TLpowers",
              "type": "tuple[]"
            },
            {
              "components": [
                {
                  "components": [
                    {
                      "internalType": "uint256",
                      "name": "x",
                      "type": "uint256"
                    },
                    {
                      "internalType": "uint256",
                      "name": "y",
                      "type": "uint256"
                    }
                  ],
                  "internalType": "struct EvmAffinePoint",
                  "name": "comm",
                  "type": "tuple"
                },
                {
                  "components": [
                    {
                      "internalType": "uint256",
                      "name": "x",
                      "type": "uint256"
                    },
                    {
                      "internalType": "uint256",
                      "name": "y",
                      "type": "uint256"
                    }
                  ],
                  "internalType": "struct EvmAffinePoint[]",
                  "name": "L",
                  "type": "tuple[]"
                },
                {
                  "components": [
                    {
                      "internalType": "uint256",
                      "name": "x",
                      "type": "uint256"
                    },
                    {
                      "internalType": "uint256",
                      "name": "y",
                      "type": "uint256"
                    }
                  ],
                  "internalType": "struct EvmAffinePoint[]",
                  "name": "R",
                  "type": "tuple[]"
                },
                {
                  "components": [
                    {
                      "internalType": "uint256",
                      "name": "x",
                      "type": "uint256"
                    },
                    {
                      "internalType": "uint256",
                      "name": "y",
                      "type": "uint256"
                    }
                  ],
                  "internalType": "struct EvmAffinePoint[]",
                  "name": "sGPowers",
                  "type": "tuple[]"
                },
                {
                  "components": [
                    {
                      "internalType": "uint256",
                      "name": "x",
                      "type": "uint256"
                    },
                    {
                      "internalType": "uint256",
                      "name": "y",
                      "type": "uint256"
                    }
                  ],
                  "internalType": "struct EvmAffinePoint",
                  "name": "R_zko",
                  "type": "tuple"
                },
                {
                  "internalType": "uint256",
                  "name": "z1",
                  "type": "uint256"
                },
                {
                  "internalType": "uint256",
                  "name": "z2",
                  "type": "uint256"
                },
                {
                  "internalType": "uint256",
                  "name": "y",
                  "type": "uint256"
                }
              ],
              "internalType": "struct EvmInnerProductProof",
              "name": "ipProof",
              "type": "tuple"
            }
          ],
          "internalType": "struct EvmPolyEvalProof",
          "name": "proof",
          "type": "tuple"
        },
        {
          "internalType": "uint256[]",
          "name": "_x",
          "type": "uint256[]"
        },
        {
          "components": [
            {
              "components": [
                {
                  "internalType": "uint256",
                  "name": "x",
                  "type": "uint256"
                },
                {
                  "internalType": "uint256",
                  "name": "y",
                  "type": "uint256"
                }
              ],
              "internalType": "struct EvmAffinePoint[]",
              "name": "G",
              "type": "tuple[]"
            },
            {
              "components": [
                {
                  "internalType": "uint256",
                  "name": "x",
                  "type": "uint256"
                },
                {
                  "internalType": "uint256",
                  "name": "y",
                  "type": "uint256"
                }
              ],
              "internalType": "struct EvmAffinePoint",
              "name": "H",
              "type": "tuple"
            },
            {
              "components": [
                {
                  "internalType": "uint256",
                  "name": "x",
                  "type": "uint256"
                },
                {
                  "internalType": "uint256",
                  "name": "y",
                  "type": "uint256"
                }
              ],
              "internalType": "struct EvmAffinePoint",
              "name": "u",
              "type": "tuple"
            }
          ],
          "internalType": "struct EvmGens",
          "name": "gens",
          "type": "tuple"
        },
        {
          "internalType": "bytes32",
          "name": "state",
          "type": "bytes32"
        }
      ],
      "name": "verify",
      "outputs": [
        {
          "internalType": "bool",
          "name": "",
          "type": "bool"
        }
      ],
      "stateMutability": "nonpayable",
      "type": "function"
    },
    {
      "inputs": [
        {
          "components": [
            {
              "components": [
                {
                  "internalType": "uint256",
                  "name": "x",
                  "type": "uint256"
                },
                {
                  "internalType": "uint256",
                  "name": "y",
                  "type": "uint256"
                }
              ],
              "internalType": "struct EvmAffinePoint",
              "name": "comm",
              "type": "tuple"
            },
            {
              "components": [
                {
                  "internalType": "uint256",
                  "name": "x",
                  "type": "uint256"
                },
                {
                  "internalType": "uint256",
                  "name": "y",
                  "type": "uint256"
                }
              ],
              "internalType": "struct EvmAffinePoint[]",
              "name": "L",
              "type": "tuple[]"
            },
            {
              "components": [
                {
                  "internalType": "uint256",
                  "name": "x",
                  "type": "uint256"
                },
                {
                  "internalType": "uint256",
                  "name": "y",
                  "type": "uint256"
                }
              ],
              "internalType": "struct EvmAffinePoint[]",
              "name": "R",
              "type": "tuple[]"
            },
            {
              "components": [
                {
                  "internalType": "uint256",
                  "name": "x",
                  "type": "uint256"
                },
                {
                  "internalType": "uint256",
                  "name": "y",
                  "type": "uint256"
                }
              ],
              "internalType": "struct EvmAffinePoint[]",
              "name": "sGPowers",
              "type": "tuple[]"
            },
            {
              "components": [
                {
                  "internalType": "uint256",
                  "name": "x",
                  "type": "uint256"
                },
                {
                  "internalType": "uint256",
                  "name": "y",
                  "type": "uint256"
                }
              ],
              "internalType": "struct EvmAffinePoint",
              "name": "R_zko",
              "type": "tuple"
            },
            {
              "internalType": "uint256",
              "name": "z1",
              "type": "uint256"
            },
            {
              "internalType": "uint256",
              "name": "z2",
              "type": "uint256"
            },
            {
              "internalType": "uint256",
              "name": "y",
              "type": "uint256"
            }
          ],
          "internalType": "struct EvmInnerProductProof",
          "name": "proof",
          "type": "tuple"
        },
        {
          "internalType": "uint256[]",
          "name": "b",
          "type": "uint256[]"
        },
        {
          "components": [
            {
              "components": [
                {
                  "internalType": "uint256",
                  "name": "x",
                  "type": "uint256"
                },
                {
                  "internalType": "uint256",
                  "name": "y",
                  "type": "uint256"
                }
              ],
              "internalType": "struct EvmAffinePoint[]",
              "name": "G",
              "type": "tuple[]"
            },
            {
              "components": [
                {
                  "internalType": "uint256",
                  "name": "x",
                  "type": "uint256"
                },
                {
                  "internalType": "uint256",
                  "name": "y",
                  "type": "uint256"
                }
              ],
              "internalType": "struct EvmAffinePoint",
              "name": "H",
              "type": "tuple"
            },
            {
              "components": [
                {
                  "internalType": "uint256",
                  "name": "x",
                  "type": "uint256"
                },
                {
                  "internalType": "uint256",
                  "name": "y",
                  "type": "uint256"
                }
              ],
              "internalType": "struct EvmAffinePoint",
              "name": "u",
              "type": "tuple"
            }
          ],
          "internalType": "struct EvmGens",
          "name": "gens",
          "type": "tuple"
        },
        {
          "internalType": "bytes32",
          "name": "state",
          "type": "bytes32"
        }
      ],
      "name": "verify",
      "outputs": [
        {
          "internalType": "bool",
          "name": "",
          "type": "bool"
        }
      ],
      "stateMutability": "nonpayable",
      "type": "function"
    },
    {
      "inputs": [
        {
          "components": [
            {
              "components": [
                {
                  "internalType": "uint256[][]",
                  "name": "roundPolysCoeffs",
                  "type": "uint256[][]"
                },
                {
                  "internalType": "uint256",
                  "name": "blindPolySum",
                  "type": "uint256"
                },
                {
                  "components": [
                    {
                      "components": [
                        {
                          "internalType": "uint256",
                          "name": "x",
                          "type": "uint256"
                        },
                        {
                          "internalType": "uint256",
                          "name": "y",
                          "type": "uint256"
                        }
                      ],
                      "internalType": "struct EvmAffinePoint",
                      "name": "comm",
                      "type": "tuple"
                    },
                    {
                      "components": [
                        {
                          "internalType": "uint256",
                          "name": "x",
                          "type": "uint256"
                        },
                        {
                          "internalType": "uint256",
                          "name": "y",
                          "type": "uint256"
                        }
                      ],
                      "internalType": "struct EvmAffinePoint[]",
                      "name": "L",
                      "type": "tuple[]"
                    },
                    {
                      "components": [
                        {
                          "internalType": "uint256",
                          "name": "x",
                          "type": "uint256"
                        },
                        {
                          "internalType": "uint256",
                          "name": "y",
                          "type": "uint256"
                        }
                      ],
                      "internalType": "struct EvmAffinePoint[]",
                      "name": "R",
                      "type": "tuple[]"
                    },
                    {
                      "components": [
                        {
                          "internalType": "uint256",
                          "name": "x",
                          "type": "uint256"
                        },
                        {
                          "internalType": "uint256",
                          "name": "y",
                          "type": "uint256"
                        }
                      ],
                      "internalType": "struct EvmAffinePoint[]",
                      "name": "sGPowers",
                      "type": "tuple[]"
                    },
                    {
                      "components": [
                        {
                          "internalType": "uint256",
                          "name": "x",
                          "type": "uint256"
                        },
                        {
                          "internalType": "uint256",
                          "name": "y",
                          "type": "uint256"
                        }
                      ],
                      "internalType": "struct EvmAffinePoint",
                      "name": "R_zko",
                      "type": "tuple"
                    },
                    {
                      "internalType": "uint256",
                      "name": "z1",
                      "type": "uint256"
                    },
                    {
                      "internalType": "uint256",
                      "name": "z2",
                      "type": "uint256"
                    },
                    {
                      "internalType": "uint256",
                      "name": "y",
                      "type": "uint256"
                    }
                  ],
                  "internalType": "struct EvmInnerProductProof",
                  "name": "blindPolyEvalProof",
                  "type": "tuple"
                }
              ],
              "internalType": "struct EvmSumCheckProof",
              "name": "scProof1",
              "type": "tuple"
            },
            {
              "components": [
                {
                  "internalType": "uint256[][]",
                  "name": "roundPolysCoeffs",
                  "type": "uint256[][]"
                },
                {
                  "internalType": "uint256",
                  "name": "blindPolySum",
                  "type": "uint256"
                },
                {
                  "components": [
                    {
                      "components": [
                        {
                          "internalType": "uint256",
                          "name": "x",
                          "type": "uint256"
                        },
                        {
                          "internalType": "uint256",
                          "name": "y",
                          "type": "uint256"
                        }
                      ],
                      "internalType": "struct EvmAffinePoint",
                      "name": "comm",
                      "type": "tuple"
                    },
                    {
                      "components": [
                        {
                          "internalType": "uint256",
                          "name": "x",
                          "type": "uint256"
                        },
                        {
                          "internalType": "uint256",
                          "name": "y",
                          "type": "uint256"
                        }
                      ],
                      "internalType": "struct EvmAffinePoint[]",
                      "name": "L",
                      "type": "tuple[]"
                    },
                    {
                      "components": [
                        {
                          "internalType": "uint256",
                          "name": "x",
                          "type": "uint256"
                        },
                        {
                          "internalType": "uint256",
                          "name": "y",
                          "type": "uint256"
                        }
                      ],
                      "internalType": "struct EvmAffinePoint[]",
                      "name": "R",
                      "type": "tuple[]"
                    },
                    {
                      "components": [
                        {
                          "internalType": "uint256",
                          "name": "x",
                          "type": "uint256"
                        },
                        {
                          "internalType": "uint256",
                          "name": "y",
                          "type": "uint256"
                        }
                      ],
                      "internalType": "struct EvmAffinePoint[]",
                      "name": "sGPowers",
                      "type": "tuple[]"
                    },
                    {
                      "components": [
                        {
                          "internalType": "uint256",
                          "name": "x",
                          "type": "uint256"
                        },
                        {
                          "internalType": "uint256",
                          "name": "y",
                          "type": "uint256"
                        }
                      ],
                      "internalType": "struct EvmAffinePoint",
                      "name": "R_zko",
                      "type": "tuple"
                    },
                    {
                      "internalType": "uint256",
                      "name": "z1",
                      "type": "uint256"
                    },
                    {
                      "internalType": "uint256",
                      "name": "z2",
                      "type": "uint256"
                    },
                    {
                      "internalType": "uint256",
                      "name": "y",
                      "type": "uint256"
                    }
                  ],
                  "internalType": "struct EvmInnerProductProof",
                  "name": "blindPolyEvalProof",
                  "type": "tuple"
                }
              ],
              "internalType": "struct EvmSumCheckProof",
              "name": "scProof2",
              "type": "tuple"
            },
            {
              "components": [
                {
                  "components": [
                    {
                      "internalType": "uint256",
                      "name": "x",
                      "type": "uint256"
                    },
                    {
                      "internalType": "uint256",
                      "name": "y",
                      "type": "uint256"
                    }
                  ],
                  "internalType": "struct EvmAffinePoint[]",
                  "name": "T",
                  "type": "tuple[]"
                },
                {
                  "internalType": "uint256",
                  "name": "y",
                  "type": "uint256"
                },
                {
                  "components": [
                    {
                      "internalType": "uint256",
                      "name": "x",
                      "type": "uint256"
                    },
                    {
                      "internalType": "uint256",
                      "name": "y",
                      "type": "uint256"
                    }
                  ],
                  "internalType": "struct EvmAffinePoint[]",
                  "name": "TLpowers",
                  "type": "tuple[]"
                },
                {
                  "components": [
                    {
                      "components": [
                        {
                          "internalType": "uint256",
                          "name": "x",
                          "type": "uint256"
                        },
                        {
                          "internalType": "uint256",
                          "name": "y",
                          "type": "uint256"
                        }
                      ],
                      "internalType": "struct EvmAffinePoint",
                      "name": "comm",
                      "type": "tuple"
                    },
                    {
                      "components": [
                        {
                          "internalType": "uint256",
                          "name": "x",
                          "type": "uint256"
                        },
                        {
                          "internalType": "uint256",
                          "name": "y",
                          "type": "uint256"
                        }
                      ],
                      "internalType": "struct EvmAffinePoint[]",
                      "name": "L",
                      "type": "tuple[]"
                    },
                    {
                      "components": [
                        {
                          "internalType": "uint256",
                          "name": "x",
                          "type": "uint256"
                        },
                        {
                          "internalType": "uint256",
                          "name": "y",
                          "type": "uint256"
                        }
                      ],
                      "internalType": "struct EvmAffinePoint[]",
                      "name": "R",
                      "type": "tuple[]"
                    },
                    {
                      "components": [
                        {
                          "internalType": "uint256",
                          "name": "x",
                          "type": "uint256"
                        },
                        {
                          "internalType": "uint256",
                          "name": "y",
                          "type": "uint256"
                        }
                      ],
                      "internalType": "struct EvmAffinePoint[]",
                      "name": "sGPowers",
                      "type": "tuple[]"
                    },
                    {
                      "components": [
                        {
                          "internalType": "uint256",
                          "name": "x",
                          "type": "uint256"
                        },
                        {
                          "internalType": "uint256",
                          "name": "y",
                          "type": "uint256"
                        }
                      ],
                      "internalType": "struct EvmAffinePoint",
                      "name": "R_zko",
                      "type": "tuple"
                    },
                    {
                      "internalType": "uint256",
                      "name": "z1",
                      "type": "uint256"
                    },
                    {
                      "internalType": "uint256",
                      "name": "z2",
                      "type": "uint256"
                    },
                    {
                      "internalType": "uint256",
                      "name": "y",
                      "type": "uint256"
                    }
                  ],
                  "internalType": "struct EvmInnerProductProof",
                  "name": "ipProof",
                  "type": "tuple"
                }
              ],
              "internalType": "struct EvmPolyEvalProof",
              "name": "zEvalProof",
              "type": "tuple"
            },
            {
              "internalType": "uint256",
              "name": "vA",
              "type": "uint256"
            },
            {
              "internalType": "uint256",
              "name": "vB",
              "type": "uint256"
            },
            {
              "internalType": "uint256",
              "name": "vC",
              "type": "uint256"
            },
            {
              "internalType": "uint256[]",
              "name": "publicInput",
              "type": "uint256[]"
            }
          ],
          "internalType": "struct FullProof",
          "name": "fullProof",
          "type": "tuple"
        },
        {
          "components": [
            {
              "components": [
                {
                  "internalType": "uint256",
                  "name": "index",
                  "type": "uint256"
                },
                {
                  "internalType": "uint256",
                  "name": "val",
                  "type": "uint256"
                }
              ],
              "internalType": "struct LagrangeEntry[]",
              "name": "A",
              "type": "tuple[]"
            },
            {
              "components": [
                {
                  "internalType": "uint256",
                  "name": "index",
                  "type": "uint256"
                },
                {
                  "internalType": "uint256",
                  "name": "val",
                  "type": "uint256"
                }
              ],
              "internalType": "struct LagrangeEntry[]",
              "name": "B",
              "type": "tuple[]"
            },
            {
              "components": [
                {
                  "internalType": "uint256",
                  "name": "index",
                  "type": "uint256"
                },
                {
                  "internalType": "uint256",
                  "name": "val",
                  "type": "uint256"
                }
              ],
              "internalType": "struct LagrangeEntry[]",
              "name": "C",
              "type": "tuple[]"
            },
            {
              "internalType": "uint256",
              "name": "zLen",
              "type": "uint256"
            }
          ],
          "internalType": "struct EvmR1CS",
          "name": "r1cs",
          "type": "tuple"
        },
        {
          "internalType": "enum VStep",
          "name": "step",
          "type": "uint8"
        },
        {
          "components": [
            {
              "internalType": "uint256",
              "name": "msmIndex",
              "type": "uint256"
            },
            {
              "internalType": "enum OpeningVStep",
              "name": "step",
              "type": "uint8"
            }
          ],
          "internalType": "struct OpeningVerifyAuxilaries",
          "name": "auxilaries",
          "type": "tuple"
        },
        {
          "components": [
            {
              "components": [
                {
                  "internalType": "uint256",
                  "name": "x",
                  "type": "uint256"
                },
                {
                  "internalType": "uint256",
                  "name": "y",
                  "type": "uint256"
                }
              ],
              "internalType": "struct EvmAffinePoint[]",
              "name": "G",
              "type": "tuple[]"
            },
            {
              "components": [
                {
                  "internalType": "uint256",
                  "name": "x",
                  "type": "uint256"
                },
                {
                  "internalType": "uint256",
                  "name": "y",
                  "type": "uint256"
                }
              ],
              "internalType": "struct EvmAffinePoint",
              "name": "H",
              "type": "tuple"
            },
            {
              "components": [
                {
                  "internalType": "uint256",
                  "name": "x",
                  "type": "uint256"
                },
                {
                  "internalType": "uint256",
                  "name": "y",
                  "type": "uint256"
                }
              ],
              "internalType": "struct EvmAffinePoint",
              "name": "u",
              "type": "tuple"
            }
          ],
          "internalType": "struct EvmGens",
          "name": "gens",
          "type": "tuple"
        }
      ],
      "name": "verifyProof",
      "outputs": [
        {
          "internalType": "bool",
          "name": "",
          "type": "bool"
        }
      ],
      "stateMutability": "nonpayable",
      "type": "function"
    }
  ],
  "bytecode": {
    "object": "0x6080806040523461001657613248908161001c8239f35b600080fdfe610100604052600436101561001357600080fd5b60003560e01c80630cd329391461168557806328662876146116475780632b9c9ea11461161657806332e7c5bf146115fa57806337354912146115d25780634417082514611590578063444d95b01461155f5780634a3d0f4b146106f257806354162dea146106895780635f576db61461067b57806368badbef1461064a57806378a63431146105e357806379bcaf3e146105a85780638e6c570314610573578063a2a36ae51461051f578063a4870669146102f7578063aebb1a4014610278578063cc4b457c146101ff578063f446c1d0146101e3578063fbe430e8146101855763fc6b9dd71461010457600080fd5b3461018057602080600319360112610180576004356001600160401b0381116101805761013861013d91369060040161174c565b611b6f565b906040519181839283018184528251809152816040850193019160005b82811061016957505050500390f35b83518552869550938101939281019260010161015a565b600080fd5b34610180576040366003190112610180576001600160401b03600435818111610180576101b690369060040161174c565b90602435908111610180576020916101d56101db92369060040161174c565b90611a25565b604051908152f35b3461018057600036600319011261018057602060405160008152f35b34610180576080366003190112610180576001600160401b036004358181116101805761023090369060040161184c565b906024358181116101805761024990369060040161174c565b916044359182116101805760209261026861026e93369060040161199b565b91611d8b565b6040519015158152f35b34610180576040366003190112610180576001600160401b03600435818111610180576102a990369060040161182e565b90602435908111610180576102f3916102c96102cf92369060040161174c565b906125b7565b60408051825181526020808401519082015291810151908201529081906060820190565b0390f35b34610180576080366003190112610180576001600160401b0360043581811161018057610328903690600401611911565b906024358181116101805761034190369060040161174c565b906044359081116101805761035a90369060040161199b565b91815191600192838082161460001461051a57838101809111610504575b80841c9061038581611afd565b92856000815b6104d7575b505061039d815183611b42565b8281106104b7575050506103b081611afd565b906103ba81611afd565b9260005b82811061047457505050906103d56103db92611b6f565b50611b6f565b926103f16103ec60408401516126a5565b6123d6565b60608151930192835151908151149182610461575b5050156104235760209361041a9251611d8b565b50604051908152f35b60405162461bcd60e51b81526020600482015260166024820152750a8bee0e4d2daca40c8decae640dcdee840dac2e8c6d60531b6044820152606490fd5b6020919250810151910151148580610406565b806104826104b29284611a11565b5161048d8287611a11565b526104a161049b8583611d7e565b84611a11565b516104ac8288611a11565b526119f5565b6103be565b6104d2906104a161049b6104cc855187611b42565b83611b42565b61039d565b6104e2835185611b42565b8110156104ff578060006104ac6104f99389611a11565b8161038b565b610390565b634e487b7160e01b600052601160045260246000fd5b610378565b346101805760c03660031901126101805761053936611705565b6060366063190112610180576102cf6102f39160405190610559826116c9565b6064358252608435602083015260a4356040830152612a48565b34610180576040366003190112610180576102f36102cf604051610596816116ae565b600435815260243560208201526123a8565b34610180576020366003190112610180576004356001600160401b038111610180576102cf6105de6102f392369060040161182e565b6126a5565b34610180576040366003190112610180576001600160401b036004358181116101805736602382011215610180576106259036906024816004013591016117d2565b90602435908111610180576020916106446101db92369060040161174c565b90612c91565b346101805760031960203682011261018057600435906001600160401b038211610180576080913603011261018057005b600036600319011261018057005b346101805760031960203682011261018057600435906001600160401b0382116101805760e0908236030112610180576106ca6106cf913690600401612dad565b612fe2565b60005260006020526040600020600160ff19825416179055602060405160008152f35b346101805760031960c036820112610180576001600160401b03600435116101805760e08160043536030112610180576001600160401b0360243511610180576080816024353603011261018057600660443510156101805760403660631901126101805760a435906001600160401b0382116101805760a0908236030112610180576107876106ca36600435600401612dad565b6000526000602052600160ff60406000205416151503611523576107b86107b26004803501806130c6565b806130db565b9190506107c48261315a565b906107e56107df366107da6004803501806130c6565b612ce8565b9361315a565b916107f8366107da6004803501806130c6565b9260208401516401000003d019906401000003d019906021096000086000955b8551805188101561099d578761082d91611a11565b51948551806000198101116105045761084a906000190187611a11565b5196600092835b885185101561087f57610879906401000003d01990610870878c611a11565b519008946119f5565b93610851565b909492979998919693506401000003d019910803610958576108a18684611a11565b51938493600093845b8a518087101561094157866108f057508a5180600019810111610504576108ea916401000003d019916108e190600019018e611a11565b519008956119f5565b946108aa565b866108fd91999799611b42565b80600019810111610504576108ea918c918861092c6401000003d019946401000003d019936000190190611a11565b5109900895876401000003d0199109976119f5565b506001909901995091979295509350909150610818565b60405162461bcd60e51b815260206004820152601860248201527f496e76616c696420726f756e6420706f6c796e6f6d69616c00000000000000006044820152606490fd5b509291926040810151946109b4368260040161199b565b94805193600095858060021b0460041486151715610504576109d88660021b611afd565b956000905b8082106113d05750506109f7600160208b0151511b611afd565b965b8651811015610a205780610a10610a1b9289611a11565b516104ac828b611a11565b6109f9565b50610a3790610a3089898c611d8b565b5083611a25565b6401000003d01990610a5d60043560a48101359084906084810135906064013509611d42565b096401000003d019906401000003d01960e06040880151015160210990080361137d57604051908160808101106001600160401b03608084011117611352576080820160405260038252606036602084013760005b600381106113685750610ac482611a04565b51825160011015610f3b57604083015192805160021015610f3b57606001519192859085610b09610b01366107da600480356024810191016130c6565b93515161315a565b916401000003d0196401000003d01960208601516021096401000003d0198060043560a401358a096401000003d019806004356084013587096401000003d019600435606401358c09080808916000975b855180518a1015610ca15789610b6f91611a11565b519687518060001981011161050457610b8c906000190189611a11565b5198600094855b8a51871015610bc157610bbb906401000003d01990610bb2898e611a11565b519008966119f5565b95610b93565b9095509a9990959196929793989a6401000003d01991080361095857610be78882611a11565b51958695600095865b8c5180891015610c875788610c3657508c518060001981011161050457610c3091610c278f6401000003d019936000190190611a11565b519008976119f5565b96610bf0565b88610c43919b999b611b42565b8060001981011161050457610c30918e918a610c726401000003d019946401000003d019936000190190611a11565b5109900897896401000003d0199109996119f5565b5060019b909b019b50999098939750919550909350610b5a565b50879592939194604084015197610cbb368860040161199b565b97600060c052825196600060c0528760038102046003148815171561050457610ce660038902611afd565b9760006080525b80608051106112085750610d08600160208d0151511b611afd565b9860c0515b8951811015610d3557808b6104ac82610d29610d30958f611a11565b5192611a11565b610d0d565b50610d418b8b8e611d8b565b50610d57610d528751875190611d7e565b611afd565b9660005b8751811015610d825780610d72610d7d928a611a11565b516104ac828c611a11565b610d5b565b5088979496959760005b8951811015610dbd5780610da3610db8928c611a11565b516104ac610db28b5184611d7e565b8a611a11565b610d8c565b5090919397959296610dec86610de7610de0602435600401602435600401613110565b36916117d2565b612c91565b98610e22610e0a88610de7610de06024803501602435600401613110565b97610de7610de0604460243501602435600401613110565b99610e3760c4600435016004356004016130db565b9b905060018c018c1161050457610e5060018d01611735565b9b610e5e6040519d8e6116e4565b600101808d52601f1990610e7190611735565b018c60005b8281106111e157505050604051610e8c816116ae565b6000815260016020820152610ea08d611a04565b52610eaa8c611a04565b5060005b610ec260c4600435016004356004016130db565b9050811015610f515760018101811161050457610ee960c4600435016004356004016130db565b8291921015610f3b57610f308e610f369360405190610f07826116ae565b6001850182528460051b01356020820152610f256001850183611a11565b526001830190611a11565b506119f5565b610eae565b634e487b7160e01b600052603260045260246000fd5b508b999a8b518060001981011161050457610f6f9060001901611afd565b9960005b8d51806000198101116105045760001901811015610fb25760018101811161050457808c8f82610d296104ac926001610fad970190611a11565b610f73565b508c610fe28d610fc98e6401000003d01992612c91565b610fdb610fd585611a04565b51611d01565b0991611a04565b516401000003d01991908290602061100260048035604481019101613145565b013590099008936401000003d0199760e060406401000003d0199201510151602109966401000003d019968795869109936401000003d01993849109916401000003d0199109080809080361119c5761107c6110713661106c604460043501600435600401613145565b611911565b92369060040161199b565b8151600180821603611196576001810180911161050457905b8160011c6110a283611afd565b9260005b6110b1865183611b42565b8110156110cd578060006104ac6110c89388611a11565b6110a6565b509091936110dc815183611b42565b82811061117c575050506110ef81611afd565b906110f981611afd565b9260005b82811061116957505050906103d561111492611b6f565b6111246103ec60408501516126a5565b60608151940193845151908151149182611156575b5050156104235761114a9251611d8b565b50602060405160018152f35b6020919250810151910151148480611139565b806104826111779284611a11565b6110fd565b611191906104a161049b6104cc855187611b42565b6110dc565b90611095565b60405162461bcd60e51b815260206004820152601960248201527f46696e616c206576616c20646f6573206e6f74206d61746368000000000000006044820152606490fd5b6020918282604051926111f3846116ae565b60008452600083850152010152018d90610e76565b969260c09b969299949b9a9591989a5161133a57604051998a60808101106001600160401b0360808d0111176113525760808b0160405260038b5260603660208d0137600160e05260005b60c05161133a57600381101561129d57806112908f611287908f61127d6112989660e05192611a11565b5260805190611a11565b5160e051611b2f565b60e0526119f5565b611253565b509091939597999a9b9294969860c0515b60c05161133a57600381101561131957600281810311610504576112d68d8260020390611a11565b5160a052600060c05260036080510290608051820460031460805115171561050457611314918f6104ac9061130e8460a05194611d7e565b90611a11565b6112ae565b50919395979a50919395989a979a6113326080516119f5565b608052610ced565b634e487b7160e01b60c051526011600452602460c051fd5b634e487b7160e01b600052604160045260246000fd5b8060216104ac6113789386611a11565b610ab2565b60405162461bcd60e51b815260206004820152602560248201527f506861736520312073756d20636865636b206576616c20646f6573206e6f74206044820152640dac2e8c6d60db1b6064820152608490fd5b939694889a9396919899929961150f57604051968760a08101106001600160401b0360a08a011117611352578b9a60a0899d979d016040526004895260803660208b013760016000975b6114fb57600488101561145c579c61145461144e8e9f6114478f8f8f6114418f8692611a11565b52611a11565b5190611b2f565b986119f5565b97909d61141a565b50909193969b9a955097919396978580965b6114e75760048710156114cb575060038087810311610504578661149391038a611a11565b519a60009b8b8060021b046004148c15171561050457876114c3918f8f9a908f6104ac9261130e9160021b611d7e565b96909b61146e565b999093969a9295506114e19194979b98506119f5565b906109dd565b634e487b7160e01b81526011600452602490fd5b634e487b7160e01b8d52601160045260248dfd5b634e487b7160e01b8b52601160045260248bfd5b60405162461bcd60e51b8152602060048201526014602482015273141c9bdbd988191bd95cc81b9bdd08195e1a5cdd60621b6044820152606490fd5b34610180576020366003190112610180576004356000526000602052602060ff604060002054166040519015158152f35b34610180576060366003190112610180576102f36115b5604435602435600435612a83565b604080519384526020840192909252908201529081906060820190565b34610180576080366003190112610180576102f36115b5606435604435602435600435612b89565b3461018057600036600319011261018057602060405160078152f35b346101805760603660031901126101805760406116356103ec36611705565b60208251918051835201516020820152f35b34610180576040366003190112610180576004356001600160401b038111610180576101db61167c602092369060040161174c565b60243590611c65565b34610180576080366003190112610180576102f36102cf6116a536611705565b60643590612c70565b604081019081106001600160401b0382111761135257604052565b606081019081106001600160401b0382111761135257604052565b90601f801991011681019081106001600160401b0382111761135257604052565b6060906003190112610180576040519061171e826116c9565b600435825260243560208301526044356040830152565b6001600160401b0381116113525760051b60200190565b9080601f8301121561018057602090823561176681611735565b9361177460405195866116e4565b818552838086019260051b820101928311610180578301905b82821061179b575050505090565b8135815290830190830161178d565b9190826040910312610180576040516117c2816116ae565b6020808294803584520135910152565b9291926117de82611735565b6040926117ed845192836116e4565b819581835260208093019160061b84019381851161018057915b84831061181657505050505050565b83869161182384866117aa565b815201920191611807565b9080601f8301121561018057816020611849933591016117d2565b90565b91909161014081840312610180576040519061010093848301916001600160401b03928481108482111761135257604052839561188983836117aa565b8552604082013584811161018057836118a391840161182e565b6020860152606082013584811161018057836118c091840161182e565b60408601526080820135938411610180576118f4836118e66101209560e097860161182e565b606088015260a084016117aa565b60808601528382013560a086015281013560c08501520135910152565b91909160808184031261018057604051906001600160401b039060808301828111848210176113525760405282948135838111610180578161195491840161182e565b8452602082013560208501526040820135838111610180578161197891840161182e565b6040850152606082013592831161018057606092611996920161184c565b910152565b919060a08382031261018057604051906119b4826116c9565b81938035916001600160401b038311610180576060826119db83604096611996960161182e565b86526119ea83602083016117aa565b6020870152016117aa565b60001981146105045760010190565b805115610f3b5760200190565b8051821015610f3b5760209160051b010190565b8051825103611aae576001809181936000935b611a44575b5050505090565b909192938251851015611aa857611a9f90611a5f8685611a11565b51906401000003d019808093611a758a88611a11565b51900981611a86610fd58b8a611a11565b611a93610fd58c8a611a11565b900990089009946119f5565b92919082611a38565b93611a3d565b60405162461bcd60e51b815260206004820152602160248201527f7220616e642078206d7573742068617665207468652073616d65206c656e67746044820152600d60fb1b6064820152608490fd5b90611b0782611735565b611b1460405191826116e4565b8281528092611b25601f1991611735565b0190602036910137565b8181029291811591840414171561050457565b9190820391821161050457565b8115611b59570490565b634e487b7160e01b600052601260045260246000fd5b80519060ff821161050457600180831b92611b8984611afd565b9360005b818110611c515750508160005b828110611ba957505050505090565b81841b9180830460021490151715610504576000198083018381116105045790859291805b611bdb575b505001611b9a565b909192611bed82611c1e921c8a611a11565b516401000003d019611bff868b611a11565b518209611c0c848c611a11565b52611c17838b611a11565b5190611d42565b82820182811161050457611c32908a611a11565b5285808214611c4a5750859291906001190180611bce565b9291611bd3565b80846104ac611c609389611a11565b611b8d565b906001918281516000935b818510611c7f57505050505090565b90919293946000848084891c1614600014611cd35750611c9f8684611b42565b60001981019190821161050457611cb9611cca9287611a11565b515b6401000003d0199109956119f5565b93929190611c70565b611cdd8785611b42565b6000198101919082116114e7575090611cfc610fd5611cca9388611a11565b611cbb565b80600110611d205760010360018111610504576401000003d019900690565b6000198101908111610504576401000003d01980910681039081116105045790565b90808210611d5f57611d5b906401000003d01992611b42565b0690565b611d716401000003d019928392611b42565b0681039081116105045790565b9190820180921161050457565b91908051916020938480820180515195604096611db2611dad898801516123a8565b612bf4565b96611dd8838a51611dc2816116ae565b60058152646e3a20257360d81b88820152613188565b611dfd828a51611de7816116ae565b60058152646d3a20257360d81b88820152613188565b611e2588518a51611e0d816116ae565b6007815266752e783a20257360c81b88820152613188565b88611e3185515161315a565b611e3a84611afd565b9260005b85811061228c5750611e4f86611afd565b9560005b81811061221157505060005b8581106121775750611e73611ec891611a04565b5195611ea18b51518551611e86816116ae565b600a815269472e6c656e282920257360b01b8c820152613188565b518351611ead816116ae565b600a815269732e6c656e282920257360b01b8a820152613188565b611ed560608901516126a5565b95611ef8611ee38a516123a8565b611ef28d60e08d015190612c70565b90612a48565b94611f0281611afd565b9260005b82811061212e575050611f1881611afd565b9460005b8281106120e557505050611f97611fbf9a97611ef2611ef298611f91611f6f8e9a611fb99f611fb39f9990611ef260c09d611faa9d611f62611f6a95611fa29e516125b7565b9301516125b7565b612a48565b611ef2611f8a60808d0192611f8484516123a8565b50612bf4565b91516123a8565b9e612c70565b60a086015190612c70565b9501516123a8565b91015190612c70565b926123d6565b916123d6565b90611fea81518451611fd0816116ae565b60098152686c68732e783a20257360b81b87820152613188565b8381019161201883518551611ffe816116ae565b60098152686c68732e793a20257360b81b88820152613188565b61204281518551612028816116ae565b60098152687268732e783a20257360b81b88820152613188565b8481019161207083518651612056816116ae565b60098152687268732e793a20257360b81b89820152613188565b5190511491826120d8575b505015612089575050600190565b60849250519062461bcd60e51b82526004820152602360248201527f496e6e65722070726f6475637420657175616c69747920636865636b206661696044820152621b195960ea1b6064820152fd5b519051149050388061207b565b9092945061211e91939596979899506120fe8184611a11565b516401000003d019906121118386611a11565b5190096104ac8289611a11565b918c93918e999897969593611f1c565b9092945061216791939596979899506121478184611a11565b516401000003d0199061215a8386611a11565b5190096104ac8288611a11565b918c93918e999897969593611f06565b8461218b9293959697989950819450611a11565b51906121978385611a11565b5191815160011c906121a882611afd565b9360005b8381106121d05750505050506121c290916119f5565b918a918c9796959493611e5f565b61220c906401000003d01980856121e7848a611a11565b510981856121fe6121f88a87611d7e565b8b611a11565b510990086104ac8289611a11565b6121ac565b91935091939495969750600160005b878110612246575090612237916104ac828a611a11565b918c9796959493918c93611e53565b906122759060018085851c161460001461227a576401000003d0199061226c848a611a11565b519009916119f5565b612220565b6401000003d0199061226c8489611a11565b8281939596979899506122a0929450611a11565b5180151580612379575b80612371575b1561233c576000906401000003d0196001825b6122e757505050906122d9916104ac8287611a11565b918a918c9796959493611e3e565b9091926122f48484611b4f565b926401000003d0198385096401000003d019036401000003d0198111610504576123349261232e916401000003d019910893958095611b2f565b90611b42565b9190826122c3565b8b5162461bcd60e51b8152600481018e9052600e60248201526d24b73b30b634b210373ab6b132b960911b6044820152606490fd5b5060016122b0565b506401000003d0198114156122aa565b60405190612396826116c9565b60006040838281528260208201520152565b6123b0612389565b5060208151910151604051916123c5836116c9565b825260208201526001604082015290565b6020906040516123e5816116ae565b60009281848093520152604081018051928315158061259b575b80612593575b1561255d579283600170014551231950b75fc4402da1732fc9bebe19835b6124c657505050506001908370014551231950b75fc4402da1732fc9bebe19915109036124925770014551231950b75fc4402da1732fc9bebe198282510991602070014551231950b75fc4402da1732fc9bebe199201510960405191612488836116ae565b8252602082015290565b60405162461bcd60e51b815260206004820152600c60248201526b24b73b30b634b2103d24b73b60a11b6044820152606490fd5b6124d584829893949598611b4f565b9170014551231950b75fc4402da1732fc9bebe1984840970014551231950b75fc4402da1732fc9bebe190370014551231950b75fc4402da1732fc9bebe19811161254957612540929161232e9170014551231950b75fc4402da1732fc9bebe19910894988094611b2f565b92919083612423565b634e487b7160e01b86526011600452602486fd5b60405162461bcd60e51b815260206004820152600e60248201526d24b73b30b634b210373ab6b132b960911b6044820152606490fd5b506001612405565b5070014551231950b75fc4402da1732fc9bebe198414156123ff565b906125c0612389565b50815181510361266e5790600091829060019081809486935b6125fe575b50505050604051926125ef846116c9565b83526020830152604082015290565b91938295919395518610156126655790859661265192612647612625889961265c99611a11565b516126308b88611a11565b5151602061263e8d8a611a11565b51015190612b1e565b9491929093612822565b9591949094966119f5565b929091816125d9565b938195506125de565b60405162461bcd60e51b815260206004820152600f60248201526e098cadccee8d040dad2e6dac2e8c6d608b1b6044820152606490fd5b6126ad612389565b5060009081600180928185925b6126cf575b505050604051926125ef846116c9565b929093849592955186101561271c579161270a9161271594936126f28888611a11565b51519160206127018a8a611a11565b51015193612728565b9491939093956119f5565b91806126ba565b938295508193506126bf565b94929193851561281557821561280e578583148080612804575b6127f2576127dd57849291839170014551231950b75fc4402da1732fc9bebe19808099819782808080809a816001819c09990961277f9089612a05565b94600190099c8d9a099181612794848c612a05565b9e8f94818087800994600190099c088209828b8187800909906127b691612a05565b97889382099c09906127c791612a05565b90099188096127d591612a05565b960994930990565b5090506127eb929193612a83565b9192909190565b50505050915050600090600090600190565b5081831415612742565b5092919050565b9450509091509190600190565b929194959383156129fa5782156129f15783831480806129e7575b6129d4576129c4579061287e612994928770014551231950b75fc4402da1732fc9bebe19910970014551231950b75fc4402da1732fc9bebe19898409612a05565b966128b370014551231950b75fc4402da1732fc9bebe1988860970014551231950b75fc4402da1732fc9bebe19838809612a05565b9361293570014551231950b75fc4402da1732fc9bebe198680099170014551231950b75fc4402da1732fc9bebe19848b099970014551231950b75fc4402da1732fc9bebe1991829182910970014551231950b75fc4402da1732fc9bebe19868b0908830970014551231950b75fc4402da1732fc9bebe198a818d800909612a05565b986129728a70014551231950b75fc4402da1732fc9bebe198885099870014551231950b75fc4402da1732fc9bebe19948591829088900909612a05565b90099170014551231950b75fc4402da1732fc9bebe1991829109850990612a05565b9470014551231950b75fc4402da1732fc9bebe199109939270014551231950b75fc4402da1732fc9bebe19910990565b509190506127eb93929450612a83565b5050505050915050600090600090600190565b508183141561283d565b50945050929190565b959450509050929190565b90808210612a2a57611d5b9070014551231950b75fc4402da1732fc9bebe1992611b42565b611d7170014551231950b75fc4402da1732fc9bebe19928392611b42565b612a7591612a54612389565b50815191604060208201519101518251916040602085015194015194612822565b90604051926125ef846116c9565b9192908015612b115780612b04612af6928570014551231950b75fc4402da1732fc9bebe198089819a97828080809b9a818080809e9b8180809e8181819209600009928009600309089783096002099e098d0960020995612aeb848860020985858009612a05565b9c8d918d0996612a05565b900992800960020990612a05565b9484099392818180090990565b5060009250829150600190565b9290926001908315612b83576000918295819592835b612b415750505050929190565b60018416612b61575b90612b559291612a83565b919260011c9283612b34565b93918185612b759398839a612b5596612822565b909790969194909250612b4a565b93925090565b9391938315612bed576000918295600191829693845b612bad575050505050929190565b838516612bcb575b90612bc09291612a83565b9193831c9384612b9f565b94918186612bdf9399839b612bc096612822565b909890979195909250612bb5565b9390925090565b612bfc612389565b508051602082015160409092015160009260019284926021928592845b612c2f575050505050604051926125ef846116c9565b838516612c4d575b90612c429291612a83565b9193831c9384612c19565b969181888298612c619498612c4296612822565b96919590959790919250612c37565b90612a7591612c7d612389565b508051906040602082015191015191612b89565b60009291835b8251851015612ce257612cdc90612cb9612cb18786611a11565b515184611c65565b906401000003d01980926020612ccf8a89611a11565b51015190099008946119f5565b93612c97565b93505050565b91906060838203126101805760405190612d01826116c9565b81938035916001600160401b039283811161018057820181601f82011215610180576020908035612d3181611735565b91612d3f60405193846116e4565b818352838084019260051b8201019185831161018057848201905b838210612d88575050505085528083013590850152604082013592831161018057604092611996920161184c565b8135898111610180578691612da28984809488010161174c565b815201910190612d5a565b91909160e08184031261018057604051906001600160401b039060e083018281118482101761135257604052829481358381116101805781612df0918401612ce8565b845260208201358381116101805781612e0a918401612ce8565b602085015260408201358381116101805781612e27918401611911565b6040850152606082013560608501526080820135608085015260a082013560a085015260c08201359283116101805760c092611996920161174c565b90815180825260208080930193019160005b828110612e83575050505090565b835185529381019392810192600101612e75565b90815180825260208080930193019160005b828110612eb7575050505090565b8351805186528201518583015260409094019392810192600101612ea9565b9061012060e0612f2f612f1d612f0b610140602088518051895201516020880152602088015190806040890152870190612e97565b60408701518682036060880152612e97565b60608601518582036080870152612e97565b9360206080820151805160a0870152015160c085015260a08101518285015260c0810151610100850152015191015290565b919091606083019080516060855280518093526080850160808460051b870101936020809301916000905b828210612fb8575050505081816040926118499697940151908401520151906040818403910152612ed6565b909192958480612fd4600193607f198d82030186528a51612e63565b980192019201909291612f8c565b6040516130c0816130b260208201946020865261300c815160e06040860152610120850190612f61565b60c061308261302d602085015193603f1994858983030160608a0152612f61565b6040850151908488820301608089015260606130716130558451608085526080850190612e97565b6020850151602085015260408501518482036040860152612e97565b920151906060818403910152612ed6565b92606081015160a087015260808101518287015260a081015160e087015201519084830301610100850152612e63565b03601f1981018352826116e4565b51902090565b903590605e1981360301821215610180570190565b903590601e198136030182121561018057018035906001600160401b03821161018057602001918160051b3603831361018057565b903590601e198136030182121561018057018035906001600160401b03821161018057602001918160061b3603831361018057565b903590607e1981360301821215610180570190565b61316381611afd565b9060005b81811061317357505090565b8060216104ac6131839386611a11565b613167565b60405190602092838301936309710a9d60e41b85526040602485015282519283606486015260005b8481106131fe57505050916131eb60848284600097959688848199850101526044830152601f801991011681010360648101845201826116e4565b51906a636f6e736f6c652e6c6f675afa50565b8181018301518682016084015282016131b056fea2646970667358221220dfcd90439194597f1d8b0cb1266c0be90cd2206b15ea41905c812f3e5acc75ba64736f6c63430008150033",
    "linkReferences": {}
  },
  "methodIdentifiers": {
    "A()": "f446c1d0",
    "B()": "32e7c5bf",
    "_mul(uint256,uint256,uint256,uint256)": "37354912",
    "add((uint256,uint256,uint256),(uint256,uint256,uint256))": "a2a36ae5",
    "addCircuit(((uint256,uint256)[],(uint256,uint256)[],(uint256,uint256)[],uint256))": "68badbef",
    "double(uint256,uint256,uint256)": "44170825",
    "eval((uint256,uint256)[],uint256[])": "78a63431",
    "eval(uint256[],uint256[])": "fbe430e8",
    "evalAsBits(uint256[],uint256)": "28662876",
    "evals(uint256[])": "fc6b9dd7",
    "msm_naive((uint256,uint256)[],uint256[])": "aebb1a40",
    "mul((uint256,uint256,uint256),uint256)": "0cd32939",
    "newStake()": "5f576db6",
    "proofs(bytes32)": "444d95b0",
    "submitProof(((uint256[][],uint256,((uint256,uint256),(uint256,uint256)[],(uint256,uint256)[],(uint256,uint256)[],(uint256,uint256),uint256,uint256,uint256)),(uint256[][],uint256,((uint256,uint256),(uint256,uint256)[],(uint256,uint256)[],(uint256,uint256)[],(uint256,uint256),uint256,uint256,uint256)),((uint256,uint256)[],uint256,(uint256,uint256)[],((uint256,uint256),(uint256,uint256)[],(uint256,uint256)[],(uint256,uint256)[],(uint256,uint256),uint256,uint256,uint256)),uint256,uint256,uint256,uint256[]))": "54162dea",
    "sum((uint256,uint256)[])": "79bcaf3e",
    "toAffine((uint256,uint256,uint256))": "2b9c9ea1",
    "toProjective((uint256,uint256))": "8e6c5703",
    "verify(((uint256,uint256),(uint256,uint256)[],(uint256,uint256)[],(uint256,uint256)[],(uint256,uint256),uint256,uint256,uint256),uint256[],((uint256,uint256)[],(uint256,uint256),(uint256,uint256)),bytes32)": "cc4b457c",
    "verify(((uint256,uint256)[],uint256,(uint256,uint256)[],((uint256,uint256),(uint256,uint256)[],(uint256,uint256)[],(uint256,uint256)[],(uint256,uint256),uint256,uint256,uint256)),uint256[],((uint256,uint256)[],(uint256,uint256),(uint256,uint256)),bytes32)": "a4870669",
    "verifyProof(((uint256[][],uint256,((uint256,uint256),(uint256,uint256)[],(uint256,uint256)[],(uint256,uint256)[],(uint256,uint256),uint256,uint256,uint256)),(uint256[][],uint256,((uint256,uint256),(uint256,uint256)[],(uint256,uint256)[],(uint256,uint256)[],(uint256,uint256),uint256,uint256,uint256)),((uint256,uint256)[],uint256,(uint256,uint256)[],((uint256,uint256),(uint256,uint256)[],(uint256,uint256)[],(uint256,uint256)[],(uint256,uint256),uint256,uint256,uint256)),uint256,uint256,uint256,uint256[]),((uint256,uint256)[],(uint256,uint256)[],(uint256,uint256)[],uint256),uint8,(uint256,uint8),((uint256,uint256)[],(uint256,uint256),(uint256,uint256)))": "4a3d0f4b"
  },
  "id": 7
}